{"contracts/TrafficEnforcement.sol":{"TrafficEnforcement":{"abi":[{"inputs":[],"stateMutability":"nonpayable","type":"constructor"},{"anonymous":false,"inputs":[{"indexed":true,"internalType":"bytes32","name":"violationId","type":"bytes32"},{"indexed":false,"internalType":"bool","name":"waived","type":"bool"},{"indexed":false,"internalType":"string","name":"judgeNotes","type":"string"}],"name":"AppealResolved","type":"event"},{"anonymous":false,"inputs":[{"indexed":true,"internalType":"bytes32","name":"violationId","type":"bytes32"},{"indexed":true,"internalType":"address","name":"driverId","type":"address"},{"indexed":false,"internalType":"string","name":"reason","type":"string"}],"name":"AppealSubmitted","type":"event"},{"anonymous":false,"inputs":[{"indexed":true,"internalType":"bytes32","name":"violationId","type":"bytes32"},{"indexed":true,"internalType":"address","name":"driverId","type":"address"},{"indexed":false,"internalType":"uint256","name":"amount","type":"uint256"}],"name":"FinePaid","type":"event"},{"anonymous":false,"inputs":[{"indexed":true,"internalType":"bytes32","name":"violationId","type":"bytes32"},{"indexed":false,"internalType":"string","name":"reason","type":"string"}],"name":"FineWaived","type":"event"},{"anonymous":false,"inputs":[{"indexed":true,"internalType":"address","name":"officerId","type":"address"},{"indexed":false,"internalType":"string","name":"name","type":"string"},{"indexed":false,"internalType":"string","name":"badgeNumber","type":"string"}],"name":"OfficerRegistered","type":"event"},{"anonymous":false,"inputs":[{"indexed":true,"internalType":"bytes32","name":"violationId","type":"bytes32"},{"indexed":false,"internalType":"string","name":"vehicleId","type":"string"},{"indexed":false,"internalType":"uint256","name":"offenseCode","type":"uint256"},{"indexed":false,"internalType":"uint256","name":"fineAmount","type":"uint256"}],"name":"ViolationLogged","type":"event"},{"stateMutability":"payable","type":"fallback"},{"inputs":[],"name":"admin","outputs":[{"internalType":"address","name":"","type":"address"}],"stateMutability":"view","type":"function"},{"inputs":[{"internalType":"bytes32","name":"","type":"bytes32"}],"name":"appeals","outputs":[{"internalType":"bytes32","name":"violationId","type":"bytes32"},{"internalType":"address","name":"driverId","type":"address"},{"internalType":"string","name":"appealReason","type":"string"},{"internalType":"uint256","name":"appealTime","type":"uint256"},{"internalType":"bool","name":"resolved","type":"bool"},{"internalType":"bool","name":"waived","type":"bool"},{"internalType":"string","name":"judgeNotes","type":"string"}],"stateMutability":"view","type":"function"},{"inputs":[{"internalType":"address","name":"officerId","type":"address"}],"name":"deregisterOfficer","outputs":[],"stateMutability":"nonpayable","type":"function"},{"inputs":[{"internalType":"bytes32","name":"violationId","type":"bytes32"}],"name":"getAppeal","outputs":[{"components":[{"internalType":"bytes32","name":"violationId","type":"bytes32"},{"internalType":"address","name":"driverId","type":"address"},{"internalType":"string","name":"appealReason","type":"string"},{"internalType":"uint256","name":"appealTime","type":"uint256"},{"internalType":"bool","name":"resolved","type":"bool"},{"internalType":"bool","name":"waived","type":"bool"},{"internalType":"string","name":"judgeNotes","type":"string"}],"internalType":"struct TrafficEnforcement.Appeal","name":"","type":"tuple"}],"stateMutability":"view","type":"function"},{"inputs":[],"name":"getContractBalance","outputs":[{"internalType":"uint256","name":"","type":"uint256"}],"stateMutability":"view","type":"function"},{"inputs":[],"name":"getTotalFinesPaid","outputs":[{"internalType":"uint256","name":"","type":"uint256"}],"stateMutability":"view","type":"function"},{"inputs":[],"name":"getTotalViolations","outputs":[{"internalType":"uint256","name":"","type":"uint256"}],"stateMutability":"view","type":"function"},{"inputs":[{"internalType":"string","name":"vehicleId","type":"string"}],"name":"getVehicleViolationCount","outputs":[{"internalType":"uint256","name":"","type":"uint256"}],"stateMutability":"view","type":"function"},{"inputs":[{"internalType":"string","name":"vehicleId","type":"string"}],"name":"getVehicleViolations","outputs":[{"internalType":"bytes32[]","name":"","type":"bytes32[]"}],"stateMutability":"view","type":"function"},{"inputs":[{"internalType":"bytes32","name":"violationId","type":"bytes32"}],"name":"getViolation","outputs":[{"components":[{"internalType":"bytes32","name":"violationId","type":"bytes32"},{"internalType":"string","name":"vehicleId","type":"string"},{"internalType":"address","name":"officerId","type":"address"},{"internalType":"uint256","name":"offenseCode","type":"uint256"},{"internalType":"string","name":"evidenceHash","type":"string"},{"internalType":"uint256","name":"timestamp","type":"uint256"},{"internalType":"uint256","name":"fineAmount","type":"uint256"},{"internalType":"enum TrafficEnforcement.ViolationStatus","name":"status","type":"uint8"},{"internalType":"address","name":"driverId","type":"address"},{"internalType":"string","name":"offenseName","type":"string"}],"internalType":"struct TrafficEnforcement.Violation","name":"","type":"tuple"}],"stateMutability":"view","type":"function"},{"inputs":[{"internalType":"address","name":"officerId","type":"address"}],"name":"isOfficerRegistered","outputs":[{"internalType":"bool","name":"","type":"bool"}],"stateMutability":"view","type":"function"},{"inputs":[{"internalType":"string","name":"vehicleId","type":"string"},{"internalType":"uint256","name":"offenseCode","type":"uint256"},{"internalType":"string","name":"evidenceHash","type":"string"},{"internalType":"address","name":"driverId","type":"address"}],"name":"logViolation","outputs":[{"internalType":"bytes32","name":"","type":"bytes32"}],"stateMutability":"nonpayable","type":"function"},{"inputs":[{"internalType":"uint256","name":"","type":"uint256"}],"name":"offenseFines","outputs":[{"internalType":"uint256","name":"","type":"uint256"}],"stateMutability":"view","type":"function"},{"inputs":[{"internalType":"uint256","name":"","type":"uint256"}],"name":"offenseNames","outputs":[{"internalType":"string","name":"","type":"string"}],"stateMutability":"view","type":"function"},{"inputs":[{"internalType":"address","name":"","type":"address"}],"name":"officers","outputs":[{"internalType":"address","name":"officerId","type":"address"},{"internalType":"string","name":"name","type":"string"},{"internalType":"string","name":"badgeNumber","type":"string"},{"internalType":"bool","name":"isRegistered","type":"bool"},{"internalType":"uint256","name":"registrationTime","type":"uint256"}],"stateMutability":"view","type":"function"},{"inputs":[{"internalType":"bytes32","name":"violationId","type":"bytes32"}],"name":"payFine","outputs":[],"stateMutability":"payable","type":"function"},{"inputs":[{"internalType":"address","name":"officerId","type":"address"},{"internalType":"string","name":"name","type":"string"},{"internalType":"string","name":"badgeNumber","type":"string"}],"name":"registerOfficer","outputs":[],"stateMutability":"nonpayable","type":"function"},{"inputs":[{"internalType":"bytes32","name":"violationId","type":"bytes32"},{"internalType":"bool","name":"waiveFine","type":"bool"},{"internalType":"string","name":"judgeNotes","type":"string"}],"name":"resolveAppeal","outputs":[],"stateMutability":"nonpayable","type":"function"},{"inputs":[{"internalType":"bytes32","name":"violationId","type":"bytes32"},{"internalType":"string","name":"appealReason","type":"string"}],"name":"submitAppeal","outputs":[],"stateMutability":"nonpayable","type":"function"},{"inputs":[],"name":"totalFinesPaid","outputs":[{"internalType":"uint256","name":"","type":"uint256"}],"stateMutability":"view","type":"function"},{"inputs":[],"name":"totalViolations","outputs":[{"internalType":"uint256","name":"","type":"uint256"}],"stateMutability":"view","type":"function"},{"inputs":[{"internalType":"string","name":"","type":"string"},{"internalType":"uint256","name":"","type":"uint256"}],"name":"vehicleViolations","outputs":[{"internalType":"bytes32","name":"","type":"bytes32"}],"stateMutability":"view","type":"function"},{"inputs":[{"internalType":"bytes32","name":"","type":"bytes32"}],"name":"violations","outputs":[{"internalType":"bytes32","name":"violationId","type":"bytes32"},{"internalType":"string","name":"vehicleId","type":"string"},{"internalType":"address","name":"officerId","type":"address"},{"internalType":"uint256","name":"offenseCode","type":"uint256"},{"internalType":"string","name":"evidenceHash","type":"string"},{"internalType":"uint256","name":"timestamp","type":"uint256"},{"internalType":"uint256","name":"fineAmount","type":"uint256"},{"internalType":"enum TrafficEnforcement.ViolationStatus","name":"status","type":"uint8"},{"internalType":"address","name":"driverId","type":"address"},{"internalType":"string","name":"offenseName","type":"string"}],"stateMutability":"view","type":"function"},{"inputs":[{"internalType":"uint256","name":"amount","type":"uint256"}],"name":"withdrawFunds","outputs":[],"stateMutability":"nonpayable","type":"function"},{"stateMutability":"payable","type":"receive"}],"evm":{"bytecode":{"linkReferences":{},"object":"604060808152346200051757600080546001600160a01b03191633178155600180825260076020818152848420849055600880825285852080546b20636572746966696361746560a01b969394919062000065906200005e906200051c565b8262000559565b60367f5370656564696e6720312d35206b7068206f766572206c696d697400000000000190556002835280845264746a528800908188852055828552878420620000b46200005e82546200051c565b60387f5370656564696e6720362d3130206b7068206f766572206c696d697400000000019055600384528085526502ba7def30008089862055838652888520620001036200005e82546200051c565b603a7f5370656564696e672031312d3135206b7068206f766572206c696d6974000000019055600485528186526509184e72a00092838a872055848752898620620001536200005e82546200051c565b603a7f5370656564696e672031362d3230206b7068206f766572206c696d697400000001905560058652828752898620558386528885206200019a6200005e82546200051c565b60307f4661696c75726520746f2077656172207365617462656c740000000000000000019055600685528186528089862055838652888520620001e26200005e82546200051c565b603a7f44726976696e6720776974686f75742076616c6964206c6963656e73650000000190558185528186528089862055838652888520620002296200005e82546200051c565b603a7f4661696c75726520746f206f6265792074726166666963207369676e7300000001905583855281865265048c27395000808a8720558487528986206200027e6200027782546200051c565b8262000595565b604f815586526620706f6c69636560c81b888888207f4661696c75726520746f2073746f70207768656e207369676e616c65642062798155015560098652828752838a872055848752898620620002e1620002da82546200051c565b82620005d4565b6041815586527f43617573696e67206f62737472756374696f6e20776974682076656869636c6587872055600a8652828752898620558386528885206200032d6200027782546200051c565b605381558552686e2077616c6b77617960b81b878787207f44726976696e67206f6e20706176656d656e74206f722070656465737472696181550155600b855281865282898620558386528885206200038b6200027782546200051c565b604b81558552646c6174657360d81b878787207f44726976696e6720776974686f7574206964656e74696669636174696f6e207081550155600c855281865264e8d4a5100089862055838652888520620003ea6200027782546200051c565b6067815585527f652070696c6c696f6e2070617373656e67657200000000000000000000000000878787207f4d6f746f726379636c65206361727279696e67206d6f7265207468616e206f6e81550155600d8552818652888520558285528784206200045b6200005e82546200051c565b600e66546f7574696e6760c81b019055600e84528085526501d1a94a20008885205582855287842062000493620002da82546200051c565b6041815584527f5573696e67206d6f62696c652070686f6e65207768696c652064726976696e6785852055600f84528452868320558252848120620004dd6200027782546200051c565b605981558152207f44726976696e6720776974686f75742076616c696420696e7370656374696f6e81550155516124729081620006168239f35b600080fd5b90600182811c921680156200054e575b60208310146200053857565b634e487b7160e01b600052602260045260246000fd5b91607f16916200052c565b601f821162000566575050565b600090600052601f6020600020920160051c8201915b8281106200058957505050565b8181556001016200057c565b601f8211620005a2575050565b6000906000526002601f6020600020930160051c830192015b828110620005c857505050565b818155600101620005bb565b601f8211620005e1575050565b6000906000526020600020906001601f81940160051c830192015b8281106200060a5750505050565b8181558301620005fc56fe60806040526004361015610018575b361561001657005b005b60003560e01c8063084866dd1461208f5780630cb18096146118df578063155dd5ee146118475780632181f4ff146117a057806328cdc028146116fd5780632e75fcd1146113fd5780634803107714610ef357806349e6368b14610c885780634f76ae4b14610eb15780635d9cb8b11461067657806360055e7414610d855780636124a5a414610d3c5780636f9fb98a14610d205780637310e88514610ca65780637d74bdaa14610c885780638dd70f6514610bb15780639157b41514610b71578063a95c66481461098f578063bb019f7d146108a9578063c345a74c146106c0578063d5242d8214610694578063d6fd623914610676578063e8b9fd7b146101535763f851a4400361000e573461014e57600036600319011261014e576000546040516001600160a01b039091168152602090f35b600080fd5b3461014e57604036600319011261014e576024356001600160401b03811161014e576101839036906004016122bd565b60043560005260016020526101a160056040600020015415156123a4565b60043560005260016020526007604060002001805460ff81166005811015610660578015908115610655575b501561061057600881901c6001600160a01b031633036105cb5782511561058657600290600435600052600460205261021160ff60046040600020015416156123f0565b60ff19161790556040519061022582612194565b600435825233602083015280604083015242606083015260006080830152600060a08301526040518060208101106001600160401b036020830111176104a957602081016040526000815260c083015260043560005260046020526040600020825181556001810160018060a01b036020850151166001600160601b0360a01b82541617905560408301518051906001600160401b0382116104a9576102ce600284015461213e565b601f811161053f575b50602090601f83116001146104ca57918060c094926005946000926104bf575b50508160011b916000199060031b1c19161760028201555b606085015160038201556103576004820161033c60808801511515829060ff801983541691151516179055565b60a0870151815461ff00191690151560081b61ff0016179055565b019201519182516001600160401b0381116104a957610376825461213e565b601f8111610461575b506020601f82116001146103fb57819293946000926103f0575b50508160011b916000199060031b1c19161790555b60405190602082527f4db460638e10f96770c2aa1f83a1118ab50350e5585a645f42d2ca04d5574e713392806103eb600435946020830190612298565b0390a3005b015190508480610399565b601f198216908360005260206000209160005b81811061044957509583600195969710610430575b505050811b0190556103ae565b015160001960f88460031b161c19169055848080610423565b9192602060018192868b01518155019401920161040e565b826000526020600020601f830160051c8101916020841061049f575b601f0160051c01905b818110610493575061037f565b60008155600101610486565b909150819061047d565b634e487b7160e01b600052604160045260246000fd5b0151905087806102f7565b906002840160005260206000209160005b601f198516811061052757509260c0949260019260059583601f1981161061050e575b505050811b01600282015561030f565b015160001960f88460031b161c191690558780806104fe565b919260206001819286850151815501940192016104db565b600284016000526020600020601f840160051c81016020851061057f575b601f830160051c820181106105735750506102d7565b6000815560010161055d565b508061055d565b60405162461bcd60e51b815260206004820152601d60248201527f41707065616c20726561736f6e2063616e6e6f7420626520656d7074790000006044820152606490fd5b60405162461bcd60e51b815260206004820152601a60248201527f4f6e6c7920746865206472697665722063616e2061707065616c0000000000006044820152606490fd5b60405162461bcd60e51b815260206004820152601c60248201527f43616e6e6f742061707065616c20746869732076696f6c6174696f6e000000006044820152606490fd5b6001915014846101cd565b634e487b7160e01b600052602160045260246000fd5b3461014e57600036600319011261014e576020600554604051908152f35b3461014e57602036600319011261014e5760043560005260076020526020604060002054604051908152f35b60208060031936011261014e5760043580600052600182526106eb60056040600020015415156123a4565b80600052600182526040600020600781019081549060ff8216600581101561066057610864576006019182549182341061082857600881901c6001600160a01b031633036107d95760ff191660011790556006549081019081106107c3576006558054803411610785575b505460405190815233927f4968e19fd49d27ef126400fd881e1c88b7c6cd35c3cc4bf17b1b4b0ff6a3ba3f91a3005b803403903482116107c35760008080938193829034146107ba575b3390f1156107ae5783610756565b6040513d6000823e3d90fd5b506108fc6107a0565b634e487b7160e01b600052601160045260246000fd5b60405162461bcd60e51b815260048101879052602160248201527f4f6e6c7920746865206472697665722063616e2070617920746869732066696e6044820152606560f81b6064820152608490fd5b60405162461bcd60e51b8152600481018790526014602482015273125b9cdd59999a58da595b9d081c185e5b595b9d60621b6044820152606490fd5b60405162461bcd60e51b815260048101869052601760248201527f56696f6c6174696f6e206973206e6f7420756e706169640000000000000000006044820152606490fd5b3461014e57602036600319011261014e5760043560005260016020526040600020805461098b6108db600184016121d0565b6002840154600385015491946001600160a01b03918216929190610901600482016121d0565b6109586005830154956006840154926109216008600787015496016121d0565b966109406040519c8d809d6020610140928392815201528d0190612298565b9260408c015260608b015289820360808b0152612298565b9460a088015260c087015261097360e0870160ff8316612341565b60081c16610100850152838203610120850152612298565b0390f35b3461014e57602036600319011261014e5760043560606101206040516109b481612178565b6000815282602082015260006040820152600083820152826080820152600060a0820152600060c0820152600060e082015260006101008201520152806000526001602052610a0c60056040600020015415156123a4565b60005260016020526040600020604051610a2581612178565b81548152610a35600183016121d0565b602082015260028201546001600160a01b0316604082015260038201546060820152610a63600483016121d0565b6080820152600582015460a0820152600682015460c0820152600782015460ff811660058110156106605760e0830152600890811c6001600160a01b031661010083015261098b92610ab591016121d0565b61012082015260405191829160208352805160208401526020810151610ae961014091826040870152610160860190612298565b9060018060a01b03604084015116606086015260608301516080860152610120610b25608085015193601f1994858983030160a08a0152612298565b9360a081015160c088015260c081015160e0880152610b4d60e0820151610100890190612341565b6101008101516001600160a01b031687830152015185840390920190850152612298565b3461014e57602036600319011261014e57600435600052600860205261098b610b9d60406000206121d0565b604051918291602083526020830190612298565b3461014e5760208060031936011261014e576004356001600160401b03811161014e5781610be6610bf99236906004016122bd565b8160405193828580945193849201612275565b8101600381520301902060405190818382549182815201908192600052846000209060005b86828210610c74578686610c34828803836121af565b604051928392818401908285525180915260408401929160005b828110610c5d57505050500390f35b835185528695509381019392810192600101610c4e565b835485529093019260019283019201610c1e565b3461014e57600036600319011261014e576020600654604051908152f35b3461014e57604036600319011261014e576004356001600160401b03811161014e57610cd69036906004016122bd565b610cf26020602435928160405193828580945193849201612275565b81016003815203019020805482101561014e57602091610d1191612313565b90549060031b1c604051908152f35b3461014e57600036600319011261014e57602047604051908152f35b3461014e57602036600319011261014e576004356001600160401b03811161014e57610d726020610be6819336906004016122bd565b8101600381520301902054604051908152f35b3461014e5760208060031936011261014e57606060c0604051610da781612194565b6000815260008482015282604082015260008382015260006080820152600060a0820152015260043560005260048152604060002061098b60405191610dec83612194565b8054835260018101546001600160a01b0390811685850190815290610e13600284016121d0565b9260408601938452610e8860038201549460608801958652600483015493610e58600560808b019560ff88161515875260ff60a08d019860081c1615158852016121d0565b9560c08a019687526040519a8b9a818c5251908b0152511660408901525160e06060890152610100880190612298565b9351608087015251151560a086015251151560c085015251838203601f190160e0850152612298565b3461014e57602036600319011261014e576001600160a01b03610ed2612128565b166000526002602052602060ff600360406000200154166040519015158152f35b3461014e57606036600319011261014e57610f0c612128565b6024356001600160401b03811161014e57610f2b9036906004016122bd565b6044356001600160401b03811161014e57610f4a9036906004016122bd565b9160018060a01b03610f618160005416331461234e565b808216156113b8578251156113735783511561132e57808216600052600260205260ff600360406000200154166112e95760405160a081018181106001600160401b038211176104a95760405281831681526020810190848252856040820152600160608201524260808201528284166000526002602052604060002091838251166001600160601b0360a01b845416178355518051906001600160401b0382116104a9578190611015600186015461213e565b601f8111611296575b50602090601f831160011461122457600092611219575b50508160011b916000199060031b1c19161760018301555b60408101518051906001600160401b0382116104a957611070600285015461213e565b601f81116111d2575b50602090601f83116001146111345760806111149794847f753062c03d21ca1efd0a5025d5c15f2150e4dbe33fc24f1ec7caefe1918587779a98956111249895600495600092611129575b50508160011b916000199060031b1c19161760028501555b6110fb60608201511515600386019060ff801983541691151516179055565b0151910155604051948594604086526040860190612298565b9184830360208601521695612298565b0390a2005b015190508d806110c4565b90601f198316916002860160005260206000209260005b8181106111ba57509460018561112498956004956080957f753062c03d21ca1efd0a5025d5c15f2150e4dbe33fc24f1ec7caefe1918587779e9c996111149e9b106111a1575b505050811b0160028501556110dc565b015160001960f88460031b161c191690558d8080611191565b9293602060018192878601518155019501930161114b565b600285016000526020600020601f840160051c810160208510611212575b601f830160051c82018110611206575050611079565b600081556001016111f0565b50806111f0565b015190508880611035565b9250600185016000526020600020906000935b601f198416851061127b576001945083601f19811610611262575b505050811b01600183015561104d565b015160001960f88460031b161c19169055888080611252565b81810151835560209485019460019093019290910190611237565b909150600185016000526020600020601f840160051c8101602085106112e2575b90849392915b601f830160051c820181106112d357505061101e565b600081558594506001016112bd565b50806112b7565b60405162461bcd60e51b815260206004820152601a60248201527f4f66666963657220616c726561647920726567697374657265640000000000006044820152606490fd5b60405162461bcd60e51b815260206004820152601c60248201527f4261646765206e756d6265722063616e6e6f7420626520656d707479000000006044820152606490fd5b60405162461bcd60e51b815260206004820152601c60248201527f4f666669636572206e616d652063616e6e6f7420626520656d707479000000006044820152606490fd5b60405162461bcd60e51b815260206004820152601760248201527f496e76616c6964206f66666963657220616464726573730000000000000000006044820152606490fd5b3461014e57606036600319011261014e57600435602435908115159182810361014e576001600160401b039260443584811161014e576114419036906004016122bd565b9361145760018060a01b0360005416331461234e565b83600052600160209381855261147660056040600020015415156123a4565b8560005281855260ff600760406000200154166005811015610660576002036116c45785600052600485526114b660ff60046040600020015416156123f0565b600086815260048087526040909120908101805461ff0019851661ffff199091161783151560081b61ff001617905560ff1993906005019088519081116104a957611501825461213e565b601f811161167b575b5086601f82116001146115f15791816111249694927fe015977a99b1764bc307021896f7e9f38e075ead97d3be81d4fda7a513beb97f9a9b96946000916115e6575b50600019600383901b1c191690841b1790555b156115ca578760005285526003600760406000200191825416179055857f6f1c4ec5424c7b63e8d179403dbc4be840617e548f7b1d7ff996642e376b92f0604051868152806115b088820186612298565b0390a25b6040805194859485528401526040830190612298565b87600052855260046007604060002001918254161790556115b4565b90508601518c61154c565b601f1982169083600052886000209160005b8181106116665750928694927fe015977a99b1764bc307021896f7e9f38e075ead97d3be81d4fda7a513beb97f9b9c9792826111249a98961061164d575b5050811b01905561155f565b88015160001960f88460031b161c191690558c80611641565b8c830151845592870192918a01918a01611603565b8260005287600020601f830160051c8101918984106116ba575b601f0160051c019085905b8281106116ae57505061150a565b600081550185906116a0565b9091508190611695565b60405162461bcd60e51b8152600481018690526011602482015270139bc81c195b991a5b99c8185c1c19585b607a1b6044820152606490fd5b3461014e57602036600319011261014e5760043560005260046020526040600020805461098b60018060a01b036001840154169261173d600282016121d0565b60ff6003830154926117786117596005600484015493016121d0565b936040519889988952602089015260e0604089015260e0880190612298565b9360608701528181161515608087015260081c16151560a085015283820360c0850152612298565b3461014e57602036600319011261014e576117b9612128565b6000546001600160a01b0391906117d3908316331461234e565b1680600052600260205260ff6003604060002001541615611809576000908152600260205260409020600301805460ff19169055005b60405162461bcd60e51b815260206004820152601660248201527513d9999a58d95c881b9bdd081c9959da5cdd195c995960521b6044820152606490fd5b3461014e57602036600319011261014e57600054600435906001600160a01b031661187333821461234e565b47821161189a5760008080938193828215611891575bf1156107ae57005b506108fc611889565b60405162461bcd60e51b815260206004820152601d60248201527f496e73756666696369656e7420636f6e74726163742062616c616e63650000006044820152606490fd5b3461014e57608036600319011261014e576004356001600160401b03811161014e5761190f9036906004016122bd565b604480356001600160401b03811161014e5761192f9036906004016122bd565b60648035926001600160a01b038416840361014e5733600052600260205260ff600360406000200154161561203557845115611ff457602435600052600760205260406000205415801590611fe8575b15611fb057825115611f6f576001600160a01b03841615611f35575050611a5560405160208101906119e460748288516119bd818760208d01612275565b81013360601b602082015242603482015260243560548201520360548101845201826121af565b51902092602435600052600760205260406000205490600860205260406000209160405194611a1286612178565b86865260208601889052336040870152602435606087015260808601524260a086015260c0850152600060e08501526001600160a01b03166101008401526121d0565b6101208201528160005260016020526040600020908051825560208101518051906001600160401b0382116104a9578190611a93600186015461213e565b601f8111611ee2575b50602090601f8311600114611e7057600092611e65575b50508160011b916000199060031b1c19161760018301555b6002820160018060a01b036040830151166001600160601b0360a01b8254161790556060810151600383015560808101518051906001600160401b0382116104a9578190611b1c600486015461213e565b601f8111611e12575b50602090601f8311600114611da057600092611d95575b50508160011b916000199060031b1c19161760048301555b60a0810151600583015560c08101516006830155600782019060e08101519160058310156106605761012092815460ff610100600160a81b0361010086015160081b169216906affffffffffffffffffffff60a81b161717905501518051906001600160401b0382116104a957611bce600884015461213e565b601f8111611d4e575b50602090601f8311600114611ce0576008929160009183611cd5575b50508160011b916000199060031b1c1916179101555b6040516020818451611c1e8183858901612275565b810160038152030190208054680100000000000000008110156104a957611c4a91600182018155612313565b9080549160031b600019928385831b921b19161790556005549081146107c3577f497c50dc0a25ed1596e008d7a210d78bc87bc67e77feaa12c6ccf23769d28006611cbd602094600185940160055560243560005260078652604060002054604051928392606084526060840190612298565b906024358884015260408301520390a2604051908152f35b015190508680611bf3565b90601f198316916008850160005260206000209260005b818110611d3657509160019391856008969410611d1d575b505050811b01910155611c09565b015160001960f88460031b161c19169055868080611d0f565b92936020600181928786015181550195019301611cf7565b600884016000526020600020601f840160051c810160208510611d8e575b601f830160051c82018110611d82575050611bd7565b60008155600101611d6c565b5080611d6c565b015190508680611b3c565b9250600485016000526020600020906000935b601f1984168510611df7576001945083601f19811610611dde575b505050811b016004830155611b54565b015160001960f88460031b161c19169055868080611dce565b81810151835560209485019460019093019290910190611db3565b909150600485016000526020600020601f840160051c810160208510611e5e575b90849392915b601f830160051c82018110611e4f575050611b25565b60008155859450600101611e39565b5080611e33565b015190508680611ab3565b9250600185016000526020600020906000935b601f1984168510611ec7576001945083601f19811610611eae575b505050811b016001830155611acb565b015160001960f88460031b161c19169055868080611e9e565b81810151835560209485019460019093019290910190611e83565b909150600185016000526020600020601f840160051c810160208510611f2e575b90849392915b601f830160051c82018110611f1f575050611a9c565b60008155859450600101611f09565b5080611f03565b75496e76616c696420647269766572206164647265737360501b6040519162461bcd60e51b83526020600484015260166024840152820152fd5b7f45766964656e636520686173682063616e6e6f7420626520656d7074790000006040519162461bcd60e51b835260206004840152601d6024840152820152fd5b73496e76616c6964206f6666656e736520636f646560601b6040519162461bcd60e51b83526020600484015260146024840152820152fd5b5060016024351461197f565b7f56656869636c652049442063616e6e6f7420626520656d7074790000000000006040519162461bcd60e51b835260206004840152601a6024840152820152fd5b6e36103a3434b990333ab731ba34b7b760891b6084927f4f6e6c792072656769737465726564206f666669636572732063616e2063616c6040519362461bcd60e51b855260206004860152602f6024860152840152820152fd5b3461014e57602036600319011261014e576001600160a01b03806120b1612128565b1660005260026020526040600020908154166120cf600183016121d0565b916120dc600282016121d0565b612117600460ff60038501541693015491612109604051968796875260a0602088015260a0870190612298565b908582036040870152612298565b911515606084015260808301520390f35b600435906001600160a01b038216820361014e57565b90600182811c9216801561216e575b602083101461215857565b634e487b7160e01b600052602260045260246000fd5b91607f169161214d565b61014081019081106001600160401b038211176104a957604052565b60e081019081106001600160401b038211176104a957604052565b90601f801991011681019081106001600160401b038211176104a957604052565b906040519182600082546121e38161213e565b908184526020946001916001811690816000146122535750600114612214575b505050612212925003836121af565b565b600090815285812095935091905b81831061223b5750506122129350820101388080612203565b85548884018501529485019487945091830191612222565b9250505061221294925060ff191682840152151560051b820101388080612203565b60005b8381106122885750506000910152565b8181015183820152602001612278565b906020916122b181518092818552858086019101612275565b601f01601f1916010190565b81601f8201121561014e578035906001600160401b0382116104a957604051926122f1601f8401601f1916602001856121af565b8284526020838301011161014e57816000926020809301838601378301015290565b805482101561232b5760005260206000200190600090565b634e487b7160e01b600052603260045260246000fd5b9060058210156106605752565b1561235557565b60405162461bcd60e51b815260206004820152602160248201527f4f6e6c792061646d696e2063616e2063616c6c20746869732066756e6374696f6044820152603760f91b6064820152608490fd5b156123ab57565b60405162461bcd60e51b815260206004820152601860248201527f56696f6c6174696f6e20646f6573206e6f7420657869737400000000000000006044820152606490fd5b156123f757565b60405162461bcd60e51b815260206004820152601760248201527f41707065616c20616c7265616479207265736f6c7665640000000000000000006044820152606490fdfea2646970667358221220a7c258979bddc41bc9a2a3b2b9ea4c02b6a82eaa3cd0b786ea53bedae648647064736f6c63430008160033","opcodes":"PUSH1 0x40 PUSH1 0x80 DUP2 MSTORE CALLVALUE PUSH3 0x517 JUMPI PUSH1 0x0 DUP1 SLOAD PUSH1 0x1 PUSH1 0x1 PUSH1 0xA0 SHL SUB NOT AND CALLER OR DUP2 SSTORE PUSH1 0x1 DUP1 DUP3 MSTORE PUSH1 0x7 PUSH1 0x20 DUP2 DUP2 MSTORE DUP5 DUP5 KECCAK256 DUP5 SWAP1 SSTORE PUSH1 0x8 DUP1 DUP3 MSTORE DUP6 DUP6 KECCAK256 DUP1 SLOAD PUSH12 0x206365727469666963617465 PUSH1 0xA0 SHL SWAP7 SWAP4 SWAP5 SWAP2 SWAP1 PUSH3 0x65 SWAP1 PUSH3 0x5E SWAP1 PUSH3 0x51C JUMP JUMPDEST DUP3 PUSH3 0x559 JUMP JUMPDEST PUSH1 0x36 PUSH32 0x5370656564696E6720312D35206B7068206F766572206C696D69740000000000 ADD SWAP1 SSTORE PUSH1 0x2 DUP4 MSTORE DUP1 DUP5 MSTORE PUSH5 0x746A528800 SWAP1 DUP2 DUP9 DUP6 KECCAK256 SSTORE DUP3 DUP6 MSTORE DUP8 DUP5 KECCAK256 PUSH3 0xB4 PUSH3 0x5E DUP3 SLOAD PUSH3 0x51C JUMP JUMPDEST PUSH1 0x38 PUSH32 0x5370656564696E6720362D3130206B7068206F766572206C696D697400000000 ADD SWAP1 SSTORE PUSH1 0x3 DUP5 MSTORE DUP1 DUP6 MSTORE PUSH6 0x2BA7DEF3000 DUP1 DUP10 DUP7 KECCAK256 SSTORE DUP4 DUP7 MSTORE DUP9 DUP6 KECCAK256 PUSH3 0x103 PUSH3 0x5E DUP3 SLOAD PUSH3 0x51C JUMP JUMPDEST PUSH1 0x3A PUSH32 0x5370656564696E672031312D3135206B7068206F766572206C696D6974000000 ADD SWAP1 SSTORE PUSH1 0x4 DUP6 MSTORE DUP2 DUP7 MSTORE PUSH6 0x9184E72A000 SWAP3 DUP4 DUP11 DUP8 KECCAK256 SSTORE DUP5 DUP8 MSTORE DUP10 DUP7 KECCAK256 PUSH3 0x153 PUSH3 0x5E DUP3 SLOAD PUSH3 0x51C JUMP JUMPDEST PUSH1 0x3A PUSH32 0x5370656564696E672031362D3230206B7068206F766572206C696D6974000000 ADD SWAP1 SSTORE PUSH1 0x5 DUP7 MSTORE DUP3 DUP8 MSTORE DUP10 DUP7 KECCAK256 SSTORE DUP4 DUP7 MSTORE DUP9 DUP6 KECCAK256 PUSH3 0x19A PUSH3 0x5E DUP3 SLOAD PUSH3 0x51C JUMP JUMPDEST PUSH1 0x30 PUSH32 0x4661696C75726520746F2077656172207365617462656C740000000000000000 ADD SWAP1 SSTORE PUSH1 0x6 DUP6 MSTORE DUP2 DUP7 MSTORE DUP1 DUP10 DUP7 KECCAK256 SSTORE DUP4 DUP7 MSTORE DUP9 DUP6 KECCAK256 PUSH3 0x1E2 PUSH3 0x5E DUP3 SLOAD PUSH3 0x51C JUMP JUMPDEST PUSH1 0x3A PUSH32 0x44726976696E6720776974686F75742076616C6964206C6963656E7365000000 ADD SWAP1 SSTORE DUP2 DUP6 MSTORE DUP2 DUP7 MSTORE DUP1 DUP10 DUP7 KECCAK256 SSTORE DUP4 DUP7 MSTORE DUP9 DUP6 KECCAK256 PUSH3 0x229 PUSH3 0x5E DUP3 SLOAD PUSH3 0x51C JUMP JUMPDEST PUSH1 0x3A PUSH32 0x4661696C75726520746F206F6265792074726166666963207369676E73000000 ADD SWAP1 SSTORE DUP4 DUP6 MSTORE DUP2 DUP7 MSTORE PUSH6 0x48C27395000 DUP1 DUP11 DUP8 KECCAK256 SSTORE DUP5 DUP8 MSTORE DUP10 DUP7 KECCAK256 PUSH3 0x27E PUSH3 0x277 DUP3 SLOAD PUSH3 0x51C JUMP JUMPDEST DUP3 PUSH3 0x595 JUMP JUMPDEST PUSH1 0x4F DUP2 SSTORE DUP7 MSTORE PUSH7 0x20706F6C696365 PUSH1 0xC8 SHL DUP9 DUP9 DUP9 KECCAK256 PUSH32 0x4661696C75726520746F2073746F70207768656E207369676E616C6564206279 DUP2 SSTORE ADD SSTORE PUSH1 0x9 DUP7 MSTORE DUP3 DUP8 MSTORE DUP4 DUP11 DUP8 KECCAK256 SSTORE DUP5 DUP8 MSTORE DUP10 DUP7 KECCAK256 PUSH3 0x2E1 PUSH3 0x2DA DUP3 SLOAD PUSH3 0x51C JUMP JUMPDEST DUP3 PUSH3 0x5D4 JUMP JUMPDEST PUSH1 0x41 DUP2 SSTORE DUP7 MSTORE PUSH32 0x43617573696E67206F62737472756374696F6E20776974682076656869636C65 DUP8 DUP8 KECCAK256 SSTORE PUSH1 0xA DUP7 MSTORE DUP3 DUP8 MSTORE DUP10 DUP7 KECCAK256 SSTORE DUP4 DUP7 MSTORE DUP9 DUP6 KECCAK256 PUSH3 0x32D PUSH3 0x277 DUP3 SLOAD PUSH3 0x51C JUMP JUMPDEST PUSH1 0x53 DUP2 SSTORE DUP6 MSTORE PUSH9 0x6E2077616C6B776179 PUSH1 0xB8 SHL DUP8 DUP8 DUP8 KECCAK256 PUSH32 0x44726976696E67206F6E20706176656D656E74206F7220706564657374726961 DUP2 SSTORE ADD SSTORE PUSH1 0xB DUP6 MSTORE DUP2 DUP7 MSTORE DUP3 DUP10 DUP7 KECCAK256 SSTORE DUP4 DUP7 MSTORE DUP9 DUP6 KECCAK256 PUSH3 0x38B PUSH3 0x277 DUP3 SLOAD PUSH3 0x51C JUMP JUMPDEST PUSH1 0x4B DUP2 SSTORE DUP6 MSTORE PUSH5 0x6C61746573 PUSH1 0xD8 SHL DUP8 DUP8 DUP8 KECCAK256 PUSH32 0x44726976696E6720776974686F7574206964656E74696669636174696F6E2070 DUP2 SSTORE ADD SSTORE PUSH1 0xC DUP6 MSTORE DUP2 DUP7 MSTORE PUSH5 0xE8D4A51000 DUP10 DUP7 KECCAK256 SSTORE DUP4 DUP7 MSTORE DUP9 DUP6 KECCAK256 PUSH3 0x3EA PUSH3 0x277 DUP3 SLOAD PUSH3 0x51C JUMP JUMPDEST PUSH1 0x67 DUP2 SSTORE DUP6 MSTORE PUSH32 0x652070696C6C696F6E2070617373656E67657200000000000000000000000000 DUP8 DUP8 DUP8 KECCAK256 PUSH32 0x4D6F746F726379636C65206361727279696E67206D6F7265207468616E206F6E DUP2 SSTORE ADD SSTORE PUSH1 0xD DUP6 MSTORE DUP2 DUP7 MSTORE DUP9 DUP6 KECCAK256 SSTORE DUP3 DUP6 MSTORE DUP8 DUP5 KECCAK256 PUSH3 0x45B PUSH3 0x5E DUP3 SLOAD PUSH3 0x51C JUMP JUMPDEST PUSH1 0xE PUSH7 0x546F7574696E67 PUSH1 0xC8 SHL ADD SWAP1 SSTORE PUSH1 0xE DUP5 MSTORE DUP1 DUP6 MSTORE PUSH6 0x1D1A94A2000 DUP9 DUP6 KECCAK256 SSTORE DUP3 DUP6 MSTORE DUP8 DUP5 KECCAK256 PUSH3 0x493 PUSH3 0x2DA DUP3 SLOAD PUSH3 0x51C JUMP JUMPDEST PUSH1 0x41 DUP2 SSTORE DUP5 MSTORE PUSH32 0x5573696E67206D6F62696C652070686F6E65207768696C652064726976696E67 DUP6 DUP6 KECCAK256 SSTORE PUSH1 0xF DUP5 MSTORE DUP5 MSTORE DUP7 DUP4 KECCAK256 SSTORE DUP3 MSTORE DUP5 DUP2 KECCAK256 PUSH3 0x4DD PUSH3 0x277 DUP3 SLOAD PUSH3 0x51C JUMP JUMPDEST PUSH1 0x59 DUP2 SSTORE DUP2 MSTORE KECCAK256 PUSH32 0x44726976696E6720776974686F75742076616C696420696E7370656374696F6E DUP2 SSTORE ADD SSTORE MLOAD PUSH2 0x2472 SWAP1 DUP2 PUSH3 0x616 DUP3 CODECOPY RETURN JUMPDEST PUSH1 0x0 DUP1 REVERT JUMPDEST SWAP1 PUSH1 0x1 DUP3 DUP2 SHR SWAP3 AND DUP1 ISZERO PUSH3 0x54E JUMPI JUMPDEST PUSH1 0x20 DUP4 LT EQ PUSH3 0x538 JUMPI JUMP JUMPDEST PUSH4 0x4E487B71 PUSH1 0xE0 SHL PUSH1 0x0 MSTORE PUSH1 0x22 PUSH1 0x4 MSTORE PUSH1 0x24 PUSH1 0x0 REVERT JUMPDEST SWAP2 PUSH1 0x7F AND SWAP2 PUSH3 0x52C JUMP JUMPDEST PUSH1 0x1F DUP3 GT PUSH3 0x566 JUMPI POP POP JUMP JUMPDEST PUSH1 0x0 SWAP1 PUSH1 0x0 MSTORE PUSH1 0x1F PUSH1 0x20 PUSH1 0x0 KECCAK256 SWAP3 ADD PUSH1 0x5 SHR DUP3 ADD SWAP2 JUMPDEST DUP3 DUP2 LT PUSH3 0x589 JUMPI POP POP POP JUMP JUMPDEST DUP2 DUP2 SSTORE PUSH1 0x1 ADD PUSH3 0x57C JUMP JUMPDEST PUSH1 0x1F DUP3 GT PUSH3 0x5A2 JUMPI POP POP JUMP JUMPDEST PUSH1 0x0 SWAP1 PUSH1 0x0 MSTORE PUSH1 0x2 PUSH1 0x1F PUSH1 0x20 PUSH1 0x0 KECCAK256 SWAP4 ADD PUSH1 0x5 SHR DUP4 ADD SWAP3 ADD JUMPDEST DUP3 DUP2 LT PUSH3 0x5C8 JUMPI POP POP POP JUMP JUMPDEST DUP2 DUP2 SSTORE PUSH1 0x1 ADD PUSH3 0x5BB JUMP JUMPDEST PUSH1 0x1F DUP3 GT PUSH3 0x5E1 JUMPI POP POP JUMP JUMPDEST PUSH1 0x0 SWAP1 PUSH1 0x0 MSTORE PUSH1 0x20 PUSH1 0x0 KECCAK256 SWAP1 PUSH1 0x1 PUSH1 0x1F DUP2 SWAP5 ADD PUSH1 0x5 SHR DUP4 ADD SWAP3 ADD JUMPDEST DUP3 DUP2 LT PUSH3 0x60A JUMPI POP POP POP POP JUMP JUMPDEST DUP2 DUP2 SSTORE DUP4 ADD PUSH3 0x5FC JUMP INVALID PUSH1 0x80 PUSH1 0x40 MSTORE PUSH1 0x4 CALLDATASIZE LT ISZERO PUSH2 0x18 JUMPI JUMPDEST CALLDATASIZE ISZERO PUSH2 0x16 JUMPI STOP JUMPDEST STOP JUMPDEST PUSH1 0x0 CALLDATALOAD PUSH1 0xE0 SHR DUP1 PUSH4 0x84866DD EQ PUSH2 0x208F JUMPI DUP1 PUSH4 0xCB18096 EQ PUSH2 0x18DF JUMPI DUP1 PUSH4 0x155DD5EE EQ PUSH2 0x1847 JUMPI DUP1 PUSH4 0x2181F4FF EQ PUSH2 0x17A0 JUMPI DUP1 PUSH4 0x28CDC028 EQ PUSH2 0x16FD JUMPI DUP1 PUSH4 0x2E75FCD1 EQ PUSH2 0x13FD JUMPI DUP1 PUSH4 0x48031077 EQ PUSH2 0xEF3 JUMPI DUP1 PUSH4 0x49E6368B EQ PUSH2 0xC88 JUMPI DUP1 PUSH4 0x4F76AE4B EQ PUSH2 0xEB1 JUMPI DUP1 PUSH4 0x5D9CB8B1 EQ PUSH2 0x676 JUMPI DUP1 PUSH4 0x60055E74 EQ PUSH2 0xD85 JUMPI DUP1 PUSH4 0x6124A5A4 EQ PUSH2 0xD3C JUMPI DUP1 PUSH4 0x6F9FB98A EQ PUSH2 0xD20 JUMPI DUP1 PUSH4 0x7310E885 EQ PUSH2 0xCA6 JUMPI DUP1 PUSH4 0x7D74BDAA EQ PUSH2 0xC88 JUMPI DUP1 PUSH4 0x8DD70F65 EQ PUSH2 0xBB1 JUMPI DUP1 PUSH4 0x9157B415 EQ PUSH2 0xB71 JUMPI DUP1 PUSH4 0xA95C6648 EQ PUSH2 0x98F JUMPI DUP1 PUSH4 0xBB019F7D EQ PUSH2 0x8A9 JUMPI DUP1 PUSH4 0xC345A74C EQ PUSH2 0x6C0 JUMPI DUP1 PUSH4 0xD5242D82 EQ PUSH2 0x694 JUMPI DUP1 PUSH4 0xD6FD6239 EQ PUSH2 0x676 JUMPI DUP1 PUSH4 0xE8B9FD7B EQ PUSH2 0x153 JUMPI PUSH4 0xF851A440 SUB PUSH2 0xE JUMPI CALLVALUE PUSH2 0x14E JUMPI PUSH1 0x0 CALLDATASIZE PUSH1 0x3 NOT ADD SLT PUSH2 0x14E JUMPI PUSH1 0x0 SLOAD PUSH1 0x40 MLOAD PUSH1 0x1 PUSH1 0x1 PUSH1 0xA0 SHL SUB SWAP1 SWAP2 AND DUP2 MSTORE PUSH1 0x20 SWAP1 RETURN JUMPDEST PUSH1 0x0 DUP1 REVERT JUMPDEST CALLVALUE PUSH2 0x14E JUMPI PUSH1 0x40 CALLDATASIZE PUSH1 0x3 NOT ADD SLT PUSH2 0x14E JUMPI PUSH1 0x24 CALLDATALOAD PUSH1 0x1 PUSH1 0x1 PUSH1 0x40 SHL SUB DUP2 GT PUSH2 0x14E JUMPI PUSH2 0x183 SWAP1 CALLDATASIZE SWAP1 PUSH1 0x4 ADD PUSH2 0x22BD JUMP JUMPDEST PUSH1 0x4 CALLDATALOAD PUSH1 0x0 MSTORE PUSH1 0x1 PUSH1 0x20 MSTORE PUSH2 0x1A1 PUSH1 0x5 PUSH1 0x40 PUSH1 0x0 KECCAK256 ADD SLOAD ISZERO ISZERO PUSH2 0x23A4 JUMP JUMPDEST PUSH1 0x4 CALLDATALOAD PUSH1 0x0 MSTORE PUSH1 0x1 PUSH1 0x20 MSTORE PUSH1 0x7 PUSH1 0x40 PUSH1 0x0 KECCAK256 ADD DUP1 SLOAD PUSH1 0xFF DUP2 AND PUSH1 0x5 DUP2 LT ISZERO PUSH2 0x660 JUMPI DUP1 ISZERO SWAP1 DUP2 ISZERO PUSH2 0x655 JUMPI JUMPDEST POP ISZERO PUSH2 0x610 JUMPI PUSH1 0x8 DUP2 SWAP1 SHR PUSH1 0x1 PUSH1 0x1 PUSH1 0xA0 SHL SUB AND CALLER SUB PUSH2 0x5CB JUMPI DUP3 MLOAD ISZERO PUSH2 0x586 JUMPI PUSH1 0x2 SWAP1 PUSH1 0x4 CALLDATALOAD PUSH1 0x0 MSTORE PUSH1 0x4 PUSH1 0x20 MSTORE PUSH2 0x211 PUSH1 0xFF PUSH1 0x4 PUSH1 0x40 PUSH1 0x0 KECCAK256 ADD SLOAD AND ISZERO PUSH2 0x23F0 JUMP JUMPDEST PUSH1 0xFF NOT AND OR SWAP1 SSTORE PUSH1 0x40 MLOAD SWAP1 PUSH2 0x225 DUP3 PUSH2 0x2194 JUMP JUMPDEST PUSH1 0x4 CALLDATALOAD DUP3 MSTORE CALLER PUSH1 0x20 DUP4 ADD MSTORE DUP1 PUSH1 0x40 DUP4 ADD MSTORE TIMESTAMP PUSH1 0x60 DUP4 ADD MSTORE PUSH1 0x0 PUSH1 0x80 DUP4 ADD MSTORE PUSH1 0x0 PUSH1 0xA0 DUP4 ADD MSTORE PUSH1 0x40 MLOAD DUP1 PUSH1 0x20 DUP2 ADD LT PUSH1 0x1 PUSH1 0x1 PUSH1 0x40 SHL SUB PUSH1 0x20 DUP4 ADD GT OR PUSH2 0x4A9 JUMPI PUSH1 0x20 DUP2 ADD PUSH1 0x40 MSTORE PUSH1 0x0 DUP2 MSTORE PUSH1 0xC0 DUP4 ADD MSTORE PUSH1 0x4 CALLDATALOAD PUSH1 0x0 MSTORE PUSH1 0x4 PUSH1 0x20 MSTORE PUSH1 0x40 PUSH1 0x0 KECCAK256 DUP3 MLOAD DUP2 SSTORE PUSH1 0x1 DUP2 ADD PUSH1 0x1 DUP1 PUSH1 0xA0 SHL SUB PUSH1 0x20 DUP6 ADD MLOAD AND PUSH1 0x1 PUSH1 0x1 PUSH1 0x60 SHL SUB PUSH1 0xA0 SHL DUP3 SLOAD AND OR SWAP1 SSTORE PUSH1 0x40 DUP4 ADD MLOAD DUP1 MLOAD SWAP1 PUSH1 0x1 PUSH1 0x1 PUSH1 0x40 SHL SUB DUP3 GT PUSH2 0x4A9 JUMPI PUSH2 0x2CE PUSH1 0x2 DUP5 ADD SLOAD PUSH2 0x213E JUMP JUMPDEST PUSH1 0x1F DUP2 GT PUSH2 0x53F JUMPI JUMPDEST POP PUSH1 0x20 SWAP1 PUSH1 0x1F DUP4 GT PUSH1 0x1 EQ PUSH2 0x4CA JUMPI SWAP2 DUP1 PUSH1 0xC0 SWAP5 SWAP3 PUSH1 0x5 SWAP5 PUSH1 0x0 SWAP3 PUSH2 0x4BF JUMPI JUMPDEST POP POP DUP2 PUSH1 0x1 SHL SWAP2 PUSH1 0x0 NOT SWAP1 PUSH1 0x3 SHL SHR NOT AND OR PUSH1 0x2 DUP3 ADD SSTORE JUMPDEST PUSH1 0x60 DUP6 ADD MLOAD PUSH1 0x3 DUP3 ADD SSTORE PUSH2 0x357 PUSH1 0x4 DUP3 ADD PUSH2 0x33C PUSH1 0x80 DUP9 ADD MLOAD ISZERO ISZERO DUP3 SWAP1 PUSH1 0xFF DUP1 NOT DUP4 SLOAD AND SWAP2 ISZERO ISZERO AND OR SWAP1 SSTORE JUMP JUMPDEST PUSH1 0xA0 DUP8 ADD MLOAD DUP2 SLOAD PUSH2 0xFF00 NOT AND SWAP1 ISZERO ISZERO PUSH1 0x8 SHL PUSH2 0xFF00 AND OR SWAP1 SSTORE JUMP JUMPDEST ADD SWAP3 ADD MLOAD SWAP2 DUP3 MLOAD PUSH1 0x1 PUSH1 0x1 PUSH1 0x40 SHL SUB DUP2 GT PUSH2 0x4A9 JUMPI PUSH2 0x376 DUP3 SLOAD PUSH2 0x213E JUMP JUMPDEST PUSH1 0x1F DUP2 GT PUSH2 0x461 JUMPI JUMPDEST POP PUSH1 0x20 PUSH1 0x1F DUP3 GT PUSH1 0x1 EQ PUSH2 0x3FB JUMPI DUP2 SWAP3 SWAP4 SWAP5 PUSH1 0x0 SWAP3 PUSH2 0x3F0 JUMPI JUMPDEST POP POP DUP2 PUSH1 0x1 SHL SWAP2 PUSH1 0x0 NOT SWAP1 PUSH1 0x3 SHL SHR NOT AND OR SWAP1 SSTORE JUMPDEST PUSH1 0x40 MLOAD SWAP1 PUSH1 0x20 DUP3 MSTORE PUSH32 0x4DB460638E10F96770C2AA1F83A1118AB50350E5585A645F42D2CA04D5574E71 CALLER SWAP3 DUP1 PUSH2 0x3EB PUSH1 0x4 CALLDATALOAD SWAP5 PUSH1 0x20 DUP4 ADD SWAP1 PUSH2 0x2298 JUMP JUMPDEST SUB SWAP1 LOG3 STOP JUMPDEST ADD MLOAD SWAP1 POP DUP5 DUP1 PUSH2 0x399 JUMP JUMPDEST PUSH1 0x1F NOT DUP3 AND SWAP1 DUP4 PUSH1 0x0 MSTORE PUSH1 0x20 PUSH1 0x0 KECCAK256 SWAP2 PUSH1 0x0 JUMPDEST DUP2 DUP2 LT PUSH2 0x449 JUMPI POP SWAP6 DUP4 PUSH1 0x1 SWAP6 SWAP7 SWAP8 LT PUSH2 0x430 JUMPI JUMPDEST POP POP POP DUP2 SHL ADD SWAP1 SSTORE PUSH2 0x3AE JUMP JUMPDEST ADD MLOAD PUSH1 0x0 NOT PUSH1 0xF8 DUP5 PUSH1 0x3 SHL AND SHR NOT AND SWAP1 SSTORE DUP5 DUP1 DUP1 PUSH2 0x423 JUMP JUMPDEST SWAP2 SWAP3 PUSH1 0x20 PUSH1 0x1 DUP2 SWAP3 DUP7 DUP12 ADD MLOAD DUP2 SSTORE ADD SWAP5 ADD SWAP3 ADD PUSH2 0x40E JUMP JUMPDEST DUP3 PUSH1 0x0 MSTORE PUSH1 0x20 PUSH1 0x0 KECCAK256 PUSH1 0x1F DUP4 ADD PUSH1 0x5 SHR DUP2 ADD SWAP2 PUSH1 0x20 DUP5 LT PUSH2 0x49F JUMPI JUMPDEST PUSH1 0x1F ADD PUSH1 0x5 SHR ADD SWAP1 JUMPDEST DUP2 DUP2 LT PUSH2 0x493 JUMPI POP PUSH2 0x37F JUMP JUMPDEST PUSH1 0x0 DUP2 SSTORE PUSH1 0x1 ADD PUSH2 0x486 JUMP JUMPDEST SWAP1 SWAP2 POP DUP2 SWAP1 PUSH2 0x47D JUMP JUMPDEST PUSH4 0x4E487B71 PUSH1 0xE0 SHL PUSH1 0x0 MSTORE PUSH1 0x41 PUSH1 0x4 MSTORE PUSH1 0x24 PUSH1 0x0 REVERT JUMPDEST ADD MLOAD SWAP1 POP DUP8 DUP1 PUSH2 0x2F7 JUMP JUMPDEST SWAP1 PUSH1 0x2 DUP5 ADD PUSH1 0x0 MSTORE PUSH1 0x20 PUSH1 0x0 KECCAK256 SWAP2 PUSH1 0x0 JUMPDEST PUSH1 0x1F NOT DUP6 AND DUP2 LT PUSH2 0x527 JUMPI POP SWAP3 PUSH1 0xC0 SWAP5 SWAP3 PUSH1 0x1 SWAP3 PUSH1 0x5 SWAP6 DUP4 PUSH1 0x1F NOT DUP2 AND LT PUSH2 0x50E JUMPI JUMPDEST POP POP POP DUP2 SHL ADD PUSH1 0x2 DUP3 ADD SSTORE PUSH2 0x30F JUMP JUMPDEST ADD MLOAD PUSH1 0x0 NOT PUSH1 0xF8 DUP5 PUSH1 0x3 SHL AND SHR NOT AND SWAP1 SSTORE DUP8 DUP1 DUP1 PUSH2 0x4FE JUMP JUMPDEST SWAP2 SWAP3 PUSH1 0x20 PUSH1 0x1 DUP2 SWAP3 DUP7 DUP6 ADD MLOAD DUP2 SSTORE ADD SWAP5 ADD SWAP3 ADD PUSH2 0x4DB JUMP JUMPDEST PUSH1 0x2 DUP5 ADD PUSH1 0x0 MSTORE PUSH1 0x20 PUSH1 0x0 KECCAK256 PUSH1 0x1F DUP5 ADD PUSH1 0x5 SHR DUP2 ADD PUSH1 0x20 DUP6 LT PUSH2 0x57F JUMPI JUMPDEST PUSH1 0x1F DUP4 ADD PUSH1 0x5 SHR DUP3 ADD DUP2 LT PUSH2 0x573 JUMPI POP POP PUSH2 0x2D7 JUMP JUMPDEST PUSH1 0x0 DUP2 SSTORE PUSH1 0x1 ADD PUSH2 0x55D JUMP JUMPDEST POP DUP1 PUSH2 0x55D JUMP JUMPDEST PUSH1 0x40 MLOAD PUSH3 0x461BCD PUSH1 0xE5 SHL DUP2 MSTORE PUSH1 0x20 PUSH1 0x4 DUP3 ADD MSTORE PUSH1 0x1D PUSH1 0x24 DUP3 ADD MSTORE PUSH32 0x41707065616C20726561736F6E2063616E6E6F7420626520656D707479000000 PUSH1 0x44 DUP3 ADD MSTORE PUSH1 0x64 SWAP1 REVERT JUMPDEST PUSH1 0x40 MLOAD PUSH3 0x461BCD PUSH1 0xE5 SHL DUP2 MSTORE PUSH1 0x20 PUSH1 0x4 DUP3 ADD MSTORE PUSH1 0x1A PUSH1 0x24 DUP3 ADD MSTORE PUSH32 0x4F6E6C7920746865206472697665722063616E2061707065616C000000000000 PUSH1 0x44 DUP3 ADD MSTORE PUSH1 0x64 SWAP1 REVERT JUMPDEST PUSH1 0x40 MLOAD PUSH3 0x461BCD PUSH1 0xE5 SHL DUP2 MSTORE PUSH1 0x20 PUSH1 0x4 DUP3 ADD MSTORE PUSH1 0x1C PUSH1 0x24 DUP3 ADD MSTORE PUSH32 0x43616E6E6F742061707065616C20746869732076696F6C6174696F6E00000000 PUSH1 0x44 DUP3 ADD MSTORE PUSH1 0x64 SWAP1 REVERT JUMPDEST PUSH1 0x1 SWAP2 POP EQ DUP5 PUSH2 0x1CD JUMP JUMPDEST PUSH4 0x4E487B71 PUSH1 0xE0 SHL PUSH1 0x0 MSTORE PUSH1 0x21 PUSH1 0x4 MSTORE PUSH1 0x24 PUSH1 0x0 REVERT JUMPDEST CALLVALUE PUSH2 0x14E JUMPI PUSH1 0x0 CALLDATASIZE PUSH1 0x3 NOT ADD SLT PUSH2 0x14E JUMPI PUSH1 0x20 PUSH1 0x5 SLOAD PUSH1 0x40 MLOAD SWAP1 DUP2 MSTORE RETURN JUMPDEST CALLVALUE PUSH2 0x14E JUMPI PUSH1 0x20 CALLDATASIZE PUSH1 0x3 NOT ADD SLT PUSH2 0x14E JUMPI PUSH1 0x4 CALLDATALOAD PUSH1 0x0 MSTORE PUSH1 0x7 PUSH1 0x20 MSTORE PUSH1 0x20 PUSH1 0x40 PUSH1 0x0 KECCAK256 SLOAD PUSH1 0x40 MLOAD SWAP1 DUP2 MSTORE RETURN JUMPDEST PUSH1 0x20 DUP1 PUSH1 0x3 NOT CALLDATASIZE ADD SLT PUSH2 0x14E JUMPI PUSH1 0x4 CALLDATALOAD DUP1 PUSH1 0x0 MSTORE PUSH1 0x1 DUP3 MSTORE PUSH2 0x6EB PUSH1 0x5 PUSH1 0x40 PUSH1 0x0 KECCAK256 ADD SLOAD ISZERO ISZERO PUSH2 0x23A4 JUMP JUMPDEST DUP1 PUSH1 0x0 MSTORE PUSH1 0x1 DUP3 MSTORE PUSH1 0x40 PUSH1 0x0 KECCAK256 PUSH1 0x7 DUP2 ADD SWAP1 DUP2 SLOAD SWAP1 PUSH1 0xFF DUP3 AND PUSH1 0x5 DUP2 LT ISZERO PUSH2 0x660 JUMPI PUSH2 0x864 JUMPI PUSH1 0x6 ADD SWAP2 DUP3 SLOAD SWAP2 DUP3 CALLVALUE LT PUSH2 0x828 JUMPI PUSH1 0x8 DUP2 SWAP1 SHR PUSH1 0x1 PUSH1 0x1 PUSH1 0xA0 SHL SUB AND CALLER SUB PUSH2 0x7D9 JUMPI PUSH1 0xFF NOT AND PUSH1 0x1 OR SWAP1 SSTORE PUSH1 0x6 SLOAD SWAP1 DUP2 ADD SWAP1 DUP2 LT PUSH2 0x7C3 JUMPI PUSH1 0x6 SSTORE DUP1 SLOAD DUP1 CALLVALUE GT PUSH2 0x785 JUMPI JUMPDEST POP SLOAD PUSH1 0x40 MLOAD SWAP1 DUP2 MSTORE CALLER SWAP3 PUSH32 0x4968E19FD49D27EF126400FD881E1C88B7C6CD35C3CC4BF17B1B4B0FF6A3BA3F SWAP2 LOG3 STOP JUMPDEST DUP1 CALLVALUE SUB SWAP1 CALLVALUE DUP3 GT PUSH2 0x7C3 JUMPI PUSH1 0x0 DUP1 DUP1 SWAP4 DUP2 SWAP4 DUP3 SWAP1 CALLVALUE EQ PUSH2 0x7BA JUMPI JUMPDEST CALLER SWAP1 CALL ISZERO PUSH2 0x7AE JUMPI DUP4 PUSH2 0x756 JUMP JUMPDEST PUSH1 0x40 MLOAD RETURNDATASIZE PUSH1 0x0 DUP3 RETURNDATACOPY RETURNDATASIZE SWAP1 REVERT JUMPDEST POP PUSH2 0x8FC PUSH2 0x7A0 JUMP JUMPDEST PUSH4 0x4E487B71 PUSH1 0xE0 SHL PUSH1 0x0 MSTORE PUSH1 0x11 PUSH1 0x4 MSTORE PUSH1 0x24 PUSH1 0x0 REVERT JUMPDEST PUSH1 0x40 MLOAD PUSH3 0x461BCD PUSH1 0xE5 SHL DUP2 MSTORE PUSH1 0x4 DUP2 ADD DUP8 SWAP1 MSTORE PUSH1 0x21 PUSH1 0x24 DUP3 ADD MSTORE PUSH32 0x4F6E6C7920746865206472697665722063616E2070617920746869732066696E PUSH1 0x44 DUP3 ADD MSTORE PUSH1 0x65 PUSH1 0xF8 SHL PUSH1 0x64 DUP3 ADD MSTORE PUSH1 0x84 SWAP1 REVERT JUMPDEST PUSH1 0x40 MLOAD PUSH3 0x461BCD PUSH1 0xE5 SHL DUP2 MSTORE PUSH1 0x4 DUP2 ADD DUP8 SWAP1 MSTORE PUSH1 0x14 PUSH1 0x24 DUP3 ADD MSTORE PUSH20 0x125B9CDD59999A58DA595B9D081C185E5B595B9D PUSH1 0x62 SHL PUSH1 0x44 DUP3 ADD MSTORE PUSH1 0x64 SWAP1 REVERT JUMPDEST PUSH1 0x40 MLOAD PUSH3 0x461BCD PUSH1 0xE5 SHL DUP2 MSTORE PUSH1 0x4 DUP2 ADD DUP7 SWAP1 MSTORE PUSH1 0x17 PUSH1 0x24 DUP3 ADD MSTORE PUSH32 0x56696F6C6174696F6E206973206E6F7420756E70616964000000000000000000 PUSH1 0x44 DUP3 ADD MSTORE PUSH1 0x64 SWAP1 REVERT JUMPDEST CALLVALUE PUSH2 0x14E JUMPI PUSH1 0x20 CALLDATASIZE PUSH1 0x3 NOT ADD SLT PUSH2 0x14E JUMPI PUSH1 0x4 CALLDATALOAD PUSH1 0x0 MSTORE PUSH1 0x1 PUSH1 0x20 MSTORE PUSH1 0x40 PUSH1 0x0 KECCAK256 DUP1 SLOAD PUSH2 0x98B PUSH2 0x8DB PUSH1 0x1 DUP5 ADD PUSH2 0x21D0 JUMP JUMPDEST PUSH1 0x2 DUP5 ADD SLOAD PUSH1 0x3 DUP6 ADD SLOAD SWAP2 SWAP5 PUSH1 0x1 PUSH1 0x1 PUSH1 0xA0 SHL SUB SWAP2 DUP3 AND SWAP3 SWAP2 SWAP1 PUSH2 0x901 PUSH1 0x4 DUP3 ADD PUSH2 0x21D0 JUMP JUMPDEST PUSH2 0x958 PUSH1 0x5 DUP4 ADD SLOAD SWAP6 PUSH1 0x6 DUP5 ADD SLOAD SWAP3 PUSH2 0x921 PUSH1 0x8 PUSH1 0x7 DUP8 ADD SLOAD SWAP7 ADD PUSH2 0x21D0 JUMP JUMPDEST SWAP7 PUSH2 0x940 PUSH1 0x40 MLOAD SWAP13 DUP14 DUP1 SWAP14 PUSH1 0x20 PUSH2 0x140 SWAP3 DUP4 SWAP3 DUP2 MSTORE ADD MSTORE DUP14 ADD SWAP1 PUSH2 0x2298 JUMP JUMPDEST SWAP3 PUSH1 0x40 DUP13 ADD MSTORE PUSH1 0x60 DUP12 ADD MSTORE DUP10 DUP3 SUB PUSH1 0x80 DUP12 ADD MSTORE PUSH2 0x2298 JUMP JUMPDEST SWAP5 PUSH1 0xA0 DUP9 ADD MSTORE PUSH1 0xC0 DUP8 ADD MSTORE PUSH2 0x973 PUSH1 0xE0 DUP8 ADD PUSH1 0xFF DUP4 AND PUSH2 0x2341 JUMP JUMPDEST PUSH1 0x8 SHR AND PUSH2 0x100 DUP6 ADD MSTORE DUP4 DUP3 SUB PUSH2 0x120 DUP6 ADD MSTORE PUSH2 0x2298 JUMP JUMPDEST SUB SWAP1 RETURN JUMPDEST CALLVALUE PUSH2 0x14E JUMPI PUSH1 0x20 CALLDATASIZE PUSH1 0x3 NOT ADD SLT PUSH2 0x14E JUMPI PUSH1 0x4 CALLDATALOAD PUSH1 0x60 PUSH2 0x120 PUSH1 0x40 MLOAD PUSH2 0x9B4 DUP2 PUSH2 0x2178 JUMP JUMPDEST PUSH1 0x0 DUP2 MSTORE DUP3 PUSH1 0x20 DUP3 ADD MSTORE PUSH1 0x0 PUSH1 0x40 DUP3 ADD MSTORE PUSH1 0x0 DUP4 DUP3 ADD MSTORE DUP3 PUSH1 0x80 DUP3 ADD MSTORE PUSH1 0x0 PUSH1 0xA0 DUP3 ADD MSTORE PUSH1 0x0 PUSH1 0xC0 DUP3 ADD MSTORE PUSH1 0x0 PUSH1 0xE0 DUP3 ADD MSTORE PUSH1 0x0 PUSH2 0x100 DUP3 ADD MSTORE ADD MSTORE DUP1 PUSH1 0x0 MSTORE PUSH1 0x1 PUSH1 0x20 MSTORE PUSH2 0xA0C PUSH1 0x5 PUSH1 0x40 PUSH1 0x0 KECCAK256 ADD SLOAD ISZERO ISZERO PUSH2 0x23A4 JUMP JUMPDEST PUSH1 0x0 MSTORE PUSH1 0x1 PUSH1 0x20 MSTORE PUSH1 0x40 PUSH1 0x0 KECCAK256 PUSH1 0x40 MLOAD PUSH2 0xA25 DUP2 PUSH2 0x2178 JUMP JUMPDEST DUP2 SLOAD DUP2 MSTORE PUSH2 0xA35 PUSH1 0x1 DUP4 ADD PUSH2 0x21D0 JUMP JUMPDEST PUSH1 0x20 DUP3 ADD MSTORE PUSH1 0x2 DUP3 ADD SLOAD PUSH1 0x1 PUSH1 0x1 PUSH1 0xA0 SHL SUB AND PUSH1 0x40 DUP3 ADD MSTORE PUSH1 0x3 DUP3 ADD SLOAD PUSH1 0x60 DUP3 ADD MSTORE PUSH2 0xA63 PUSH1 0x4 DUP4 ADD PUSH2 0x21D0 JUMP JUMPDEST PUSH1 0x80 DUP3 ADD MSTORE PUSH1 0x5 DUP3 ADD SLOAD PUSH1 0xA0 DUP3 ADD MSTORE PUSH1 0x6 DUP3 ADD SLOAD PUSH1 0xC0 DUP3 ADD MSTORE PUSH1 0x7 DUP3 ADD SLOAD PUSH1 0xFF DUP2 AND PUSH1 0x5 DUP2 LT ISZERO PUSH2 0x660 JUMPI PUSH1 0xE0 DUP4 ADD MSTORE PUSH1 0x8 SWAP1 DUP2 SHR PUSH1 0x1 PUSH1 0x1 PUSH1 0xA0 SHL SUB AND PUSH2 0x100 DUP4 ADD MSTORE PUSH2 0x98B SWAP3 PUSH2 0xAB5 SWAP2 ADD PUSH2 0x21D0 JUMP JUMPDEST PUSH2 0x120 DUP3 ADD MSTORE PUSH1 0x40 MLOAD SWAP2 DUP3 SWAP2 PUSH1 0x20 DUP4 MSTORE DUP1 MLOAD PUSH1 0x20 DUP5 ADD MSTORE PUSH1 0x20 DUP2 ADD MLOAD PUSH2 0xAE9 PUSH2 0x140 SWAP2 DUP3 PUSH1 0x40 DUP8 ADD MSTORE PUSH2 0x160 DUP7 ADD SWAP1 PUSH2 0x2298 JUMP JUMPDEST SWAP1 PUSH1 0x1 DUP1 PUSH1 0xA0 SHL SUB PUSH1 0x40 DUP5 ADD MLOAD AND PUSH1 0x60 DUP7 ADD MSTORE PUSH1 0x60 DUP4 ADD MLOAD PUSH1 0x80 DUP7 ADD MSTORE PUSH2 0x120 PUSH2 0xB25 PUSH1 0x80 DUP6 ADD MLOAD SWAP4 PUSH1 0x1F NOT SWAP5 DUP6 DUP10 DUP4 SUB ADD PUSH1 0xA0 DUP11 ADD MSTORE PUSH2 0x2298 JUMP JUMPDEST SWAP4 PUSH1 0xA0 DUP2 ADD MLOAD PUSH1 0xC0 DUP9 ADD MSTORE PUSH1 0xC0 DUP2 ADD MLOAD PUSH1 0xE0 DUP9 ADD MSTORE PUSH2 0xB4D PUSH1 0xE0 DUP3 ADD MLOAD PUSH2 0x100 DUP10 ADD SWAP1 PUSH2 0x2341 JUMP JUMPDEST PUSH2 0x100 DUP2 ADD MLOAD PUSH1 0x1 PUSH1 0x1 PUSH1 0xA0 SHL SUB AND DUP8 DUP4 ADD MSTORE ADD MLOAD DUP6 DUP5 SUB SWAP1 SWAP3 ADD SWAP1 DUP6 ADD MSTORE PUSH2 0x2298 JUMP JUMPDEST CALLVALUE PUSH2 0x14E JUMPI PUSH1 0x20 CALLDATASIZE PUSH1 0x3 NOT ADD SLT PUSH2 0x14E JUMPI PUSH1 0x4 CALLDATALOAD PUSH1 0x0 MSTORE PUSH1 0x8 PUSH1 0x20 MSTORE PUSH2 0x98B PUSH2 0xB9D PUSH1 0x40 PUSH1 0x0 KECCAK256 PUSH2 0x21D0 JUMP JUMPDEST PUSH1 0x40 MLOAD SWAP2 DUP3 SWAP2 PUSH1 0x20 DUP4 MSTORE PUSH1 0x20 DUP4 ADD SWAP1 PUSH2 0x2298 JUMP JUMPDEST CALLVALUE PUSH2 0x14E JUMPI PUSH1 0x20 DUP1 PUSH1 0x3 NOT CALLDATASIZE ADD SLT PUSH2 0x14E JUMPI PUSH1 0x4 CALLDATALOAD PUSH1 0x1 PUSH1 0x1 PUSH1 0x40 SHL SUB DUP2 GT PUSH2 0x14E JUMPI DUP2 PUSH2 0xBE6 PUSH2 0xBF9 SWAP3 CALLDATASIZE SWAP1 PUSH1 0x4 ADD PUSH2 0x22BD JUMP JUMPDEST DUP2 PUSH1 0x40 MLOAD SWAP4 DUP3 DUP6 DUP1 SWAP5 MLOAD SWAP4 DUP5 SWAP3 ADD PUSH2 0x2275 JUMP JUMPDEST DUP2 ADD PUSH1 0x3 DUP2 MSTORE SUB ADD SWAP1 KECCAK256 PUSH1 0x40 MLOAD SWAP1 DUP2 DUP4 DUP3 SLOAD SWAP2 DUP3 DUP2 MSTORE ADD SWAP1 DUP2 SWAP3 PUSH1 0x0 MSTORE DUP5 PUSH1 0x0 KECCAK256 SWAP1 PUSH1 0x0 JUMPDEST DUP7 DUP3 DUP3 LT PUSH2 0xC74 JUMPI DUP7 DUP7 PUSH2 0xC34 DUP3 DUP9 SUB DUP4 PUSH2 0x21AF JUMP JUMPDEST PUSH1 0x40 MLOAD SWAP3 DUP4 SWAP3 DUP2 DUP5 ADD SWAP1 DUP3 DUP6 MSTORE MLOAD DUP1 SWAP2 MSTORE PUSH1 0x40 DUP5 ADD SWAP3 SWAP2 PUSH1 0x0 JUMPDEST DUP3 DUP2 LT PUSH2 0xC5D JUMPI POP POP POP POP SUB SWAP1 RETURN JUMPDEST DUP4 MLOAD DUP6 MSTORE DUP7 SWAP6 POP SWAP4 DUP2 ADD SWAP4 SWAP3 DUP2 ADD SWAP3 PUSH1 0x1 ADD PUSH2 0xC4E JUMP JUMPDEST DUP4 SLOAD DUP6 MSTORE SWAP1 SWAP4 ADD SWAP3 PUSH1 0x1 SWAP3 DUP4 ADD SWAP3 ADD PUSH2 0xC1E JUMP JUMPDEST CALLVALUE PUSH2 0x14E JUMPI PUSH1 0x0 CALLDATASIZE PUSH1 0x3 NOT ADD SLT PUSH2 0x14E JUMPI PUSH1 0x20 PUSH1 0x6 SLOAD PUSH1 0x40 MLOAD SWAP1 DUP2 MSTORE RETURN JUMPDEST CALLVALUE PUSH2 0x14E JUMPI PUSH1 0x40 CALLDATASIZE PUSH1 0x3 NOT ADD SLT PUSH2 0x14E JUMPI PUSH1 0x4 CALLDATALOAD PUSH1 0x1 PUSH1 0x1 PUSH1 0x40 SHL SUB DUP2 GT PUSH2 0x14E JUMPI PUSH2 0xCD6 SWAP1 CALLDATASIZE SWAP1 PUSH1 0x4 ADD PUSH2 0x22BD JUMP JUMPDEST PUSH2 0xCF2 PUSH1 0x20 PUSH1 0x24 CALLDATALOAD SWAP3 DUP2 PUSH1 0x40 MLOAD SWAP4 DUP3 DUP6 DUP1 SWAP5 MLOAD SWAP4 DUP5 SWAP3 ADD PUSH2 0x2275 JUMP JUMPDEST DUP2 ADD PUSH1 0x3 DUP2 MSTORE SUB ADD SWAP1 KECCAK256 DUP1 SLOAD DUP3 LT ISZERO PUSH2 0x14E JUMPI PUSH1 0x20 SWAP2 PUSH2 0xD11 SWAP2 PUSH2 0x2313 JUMP JUMPDEST SWAP1 SLOAD SWAP1 PUSH1 0x3 SHL SHR PUSH1 0x40 MLOAD SWAP1 DUP2 MSTORE RETURN JUMPDEST CALLVALUE PUSH2 0x14E JUMPI PUSH1 0x0 CALLDATASIZE PUSH1 0x3 NOT ADD SLT PUSH2 0x14E JUMPI PUSH1 0x20 SELFBALANCE PUSH1 0x40 MLOAD SWAP1 DUP2 MSTORE RETURN JUMPDEST CALLVALUE PUSH2 0x14E JUMPI PUSH1 0x20 CALLDATASIZE PUSH1 0x3 NOT ADD SLT PUSH2 0x14E JUMPI PUSH1 0x4 CALLDATALOAD PUSH1 0x1 PUSH1 0x1 PUSH1 0x40 SHL SUB DUP2 GT PUSH2 0x14E JUMPI PUSH2 0xD72 PUSH1 0x20 PUSH2 0xBE6 DUP2 SWAP4 CALLDATASIZE SWAP1 PUSH1 0x4 ADD PUSH2 0x22BD JUMP JUMPDEST DUP2 ADD PUSH1 0x3 DUP2 MSTORE SUB ADD SWAP1 KECCAK256 SLOAD PUSH1 0x40 MLOAD SWAP1 DUP2 MSTORE RETURN JUMPDEST CALLVALUE PUSH2 0x14E JUMPI PUSH1 0x20 DUP1 PUSH1 0x3 NOT CALLDATASIZE ADD SLT PUSH2 0x14E JUMPI PUSH1 0x60 PUSH1 0xC0 PUSH1 0x40 MLOAD PUSH2 0xDA7 DUP2 PUSH2 0x2194 JUMP JUMPDEST PUSH1 0x0 DUP2 MSTORE PUSH1 0x0 DUP5 DUP3 ADD MSTORE DUP3 PUSH1 0x40 DUP3 ADD MSTORE PUSH1 0x0 DUP4 DUP3 ADD MSTORE PUSH1 0x0 PUSH1 0x80 DUP3 ADD MSTORE PUSH1 0x0 PUSH1 0xA0 DUP3 ADD MSTORE ADD MSTORE PUSH1 0x4 CALLDATALOAD PUSH1 0x0 MSTORE PUSH1 0x4 DUP2 MSTORE PUSH1 0x40 PUSH1 0x0 KECCAK256 PUSH2 0x98B PUSH1 0x40 MLOAD SWAP2 PUSH2 0xDEC DUP4 PUSH2 0x2194 JUMP JUMPDEST DUP1 SLOAD DUP4 MSTORE PUSH1 0x1 DUP2 ADD SLOAD PUSH1 0x1 PUSH1 0x1 PUSH1 0xA0 SHL SUB SWAP1 DUP2 AND DUP6 DUP6 ADD SWAP1 DUP2 MSTORE SWAP1 PUSH2 0xE13 PUSH1 0x2 DUP5 ADD PUSH2 0x21D0 JUMP JUMPDEST SWAP3 PUSH1 0x40 DUP7 ADD SWAP4 DUP5 MSTORE PUSH2 0xE88 PUSH1 0x3 DUP3 ADD SLOAD SWAP5 PUSH1 0x60 DUP9 ADD SWAP6 DUP7 MSTORE PUSH1 0x4 DUP4 ADD SLOAD SWAP4 PUSH2 0xE58 PUSH1 0x5 PUSH1 0x80 DUP12 ADD SWAP6 PUSH1 0xFF DUP9 AND ISZERO ISZERO DUP8 MSTORE PUSH1 0xFF PUSH1 0xA0 DUP14 ADD SWAP9 PUSH1 0x8 SHR AND ISZERO ISZERO DUP9 MSTORE ADD PUSH2 0x21D0 JUMP JUMPDEST SWAP6 PUSH1 0xC0 DUP11 ADD SWAP7 DUP8 MSTORE PUSH1 0x40 MLOAD SWAP11 DUP12 SWAP11 DUP2 DUP13 MSTORE MLOAD SWAP1 DUP12 ADD MSTORE MLOAD AND PUSH1 0x40 DUP10 ADD MSTORE MLOAD PUSH1 0xE0 PUSH1 0x60 DUP10 ADD MSTORE PUSH2 0x100 DUP9 ADD SWAP1 PUSH2 0x2298 JUMP JUMPDEST SWAP4 MLOAD PUSH1 0x80 DUP8 ADD MSTORE MLOAD ISZERO ISZERO PUSH1 0xA0 DUP7 ADD MSTORE MLOAD ISZERO ISZERO PUSH1 0xC0 DUP6 ADD MSTORE MLOAD DUP4 DUP3 SUB PUSH1 0x1F NOT ADD PUSH1 0xE0 DUP6 ADD MSTORE PUSH2 0x2298 JUMP JUMPDEST CALLVALUE PUSH2 0x14E JUMPI PUSH1 0x20 CALLDATASIZE PUSH1 0x3 NOT ADD SLT PUSH2 0x14E JUMPI PUSH1 0x1 PUSH1 0x1 PUSH1 0xA0 SHL SUB PUSH2 0xED2 PUSH2 0x2128 JUMP JUMPDEST AND PUSH1 0x0 MSTORE PUSH1 0x2 PUSH1 0x20 MSTORE PUSH1 0x20 PUSH1 0xFF PUSH1 0x3 PUSH1 0x40 PUSH1 0x0 KECCAK256 ADD SLOAD AND PUSH1 0x40 MLOAD SWAP1 ISZERO ISZERO DUP2 MSTORE RETURN JUMPDEST CALLVALUE PUSH2 0x14E JUMPI PUSH1 0x60 CALLDATASIZE PUSH1 0x3 NOT ADD SLT PUSH2 0x14E JUMPI PUSH2 0xF0C PUSH2 0x2128 JUMP JUMPDEST PUSH1 0x24 CALLDATALOAD PUSH1 0x1 PUSH1 0x1 PUSH1 0x40 SHL SUB DUP2 GT PUSH2 0x14E JUMPI PUSH2 0xF2B SWAP1 CALLDATASIZE SWAP1 PUSH1 0x4 ADD PUSH2 0x22BD JUMP JUMPDEST PUSH1 0x44 CALLDATALOAD PUSH1 0x1 PUSH1 0x1 PUSH1 0x40 SHL SUB DUP2 GT PUSH2 0x14E JUMPI PUSH2 0xF4A SWAP1 CALLDATASIZE SWAP1 PUSH1 0x4 ADD PUSH2 0x22BD JUMP JUMPDEST SWAP2 PUSH1 0x1 DUP1 PUSH1 0xA0 SHL SUB PUSH2 0xF61 DUP2 PUSH1 0x0 SLOAD AND CALLER EQ PUSH2 0x234E JUMP JUMPDEST DUP1 DUP3 AND ISZERO PUSH2 0x13B8 JUMPI DUP3 MLOAD ISZERO PUSH2 0x1373 JUMPI DUP4 MLOAD ISZERO PUSH2 0x132E JUMPI DUP1 DUP3 AND PUSH1 0x0 MSTORE PUSH1 0x2 PUSH1 0x20 MSTORE PUSH1 0xFF PUSH1 0x3 PUSH1 0x40 PUSH1 0x0 KECCAK256 ADD SLOAD AND PUSH2 0x12E9 JUMPI PUSH1 0x40 MLOAD PUSH1 0xA0 DUP2 ADD DUP2 DUP2 LT PUSH1 0x1 PUSH1 0x1 PUSH1 0x40 SHL SUB DUP3 GT OR PUSH2 0x4A9 JUMPI PUSH1 0x40 MSTORE DUP2 DUP4 AND DUP2 MSTORE PUSH1 0x20 DUP2 ADD SWAP1 DUP5 DUP3 MSTORE DUP6 PUSH1 0x40 DUP3 ADD MSTORE PUSH1 0x1 PUSH1 0x60 DUP3 ADD MSTORE TIMESTAMP PUSH1 0x80 DUP3 ADD MSTORE DUP3 DUP5 AND PUSH1 0x0 MSTORE PUSH1 0x2 PUSH1 0x20 MSTORE PUSH1 0x40 PUSH1 0x0 KECCAK256 SWAP2 DUP4 DUP3 MLOAD AND PUSH1 0x1 PUSH1 0x1 PUSH1 0x60 SHL SUB PUSH1 0xA0 SHL DUP5 SLOAD AND OR DUP4 SSTORE MLOAD DUP1 MLOAD SWAP1 PUSH1 0x1 PUSH1 0x1 PUSH1 0x40 SHL SUB DUP3 GT PUSH2 0x4A9 JUMPI DUP2 SWAP1 PUSH2 0x1015 PUSH1 0x1 DUP7 ADD SLOAD PUSH2 0x213E JUMP JUMPDEST PUSH1 0x1F DUP2 GT PUSH2 0x1296 JUMPI JUMPDEST POP PUSH1 0x20 SWAP1 PUSH1 0x1F DUP4 GT PUSH1 0x1 EQ PUSH2 0x1224 JUMPI PUSH1 0x0 SWAP3 PUSH2 0x1219 JUMPI JUMPDEST POP POP DUP2 PUSH1 0x1 SHL SWAP2 PUSH1 0x0 NOT SWAP1 PUSH1 0x3 SHL SHR NOT AND OR PUSH1 0x1 DUP4 ADD SSTORE JUMPDEST PUSH1 0x40 DUP2 ADD MLOAD DUP1 MLOAD SWAP1 PUSH1 0x1 PUSH1 0x1 PUSH1 0x40 SHL SUB DUP3 GT PUSH2 0x4A9 JUMPI PUSH2 0x1070 PUSH1 0x2 DUP6 ADD SLOAD PUSH2 0x213E JUMP JUMPDEST PUSH1 0x1F DUP2 GT PUSH2 0x11D2 JUMPI JUMPDEST POP PUSH1 0x20 SWAP1 PUSH1 0x1F DUP4 GT PUSH1 0x1 EQ PUSH2 0x1134 JUMPI PUSH1 0x80 PUSH2 0x1114 SWAP8 SWAP5 DUP5 PUSH32 0x753062C03D21CA1EFD0A5025D5C15F2150E4DBE33FC24F1EC7CAEFE191858777 SWAP11 SWAP9 SWAP6 PUSH2 0x1124 SWAP9 SWAP6 PUSH1 0x4 SWAP6 PUSH1 0x0 SWAP3 PUSH2 0x1129 JUMPI JUMPDEST POP POP DUP2 PUSH1 0x1 SHL SWAP2 PUSH1 0x0 NOT SWAP1 PUSH1 0x3 SHL SHR NOT AND OR PUSH1 0x2 DUP6 ADD SSTORE JUMPDEST PUSH2 0x10FB PUSH1 0x60 DUP3 ADD MLOAD ISZERO ISZERO PUSH1 0x3 DUP7 ADD SWAP1 PUSH1 0xFF DUP1 NOT DUP4 SLOAD AND SWAP2 ISZERO ISZERO AND OR SWAP1 SSTORE JUMP JUMPDEST ADD MLOAD SWAP2 ADD SSTORE PUSH1 0x40 MLOAD SWAP5 DUP6 SWAP5 PUSH1 0x40 DUP7 MSTORE PUSH1 0x40 DUP7 ADD SWAP1 PUSH2 0x2298 JUMP JUMPDEST SWAP2 DUP5 DUP4 SUB PUSH1 0x20 DUP7 ADD MSTORE AND SWAP6 PUSH2 0x2298 JUMP JUMPDEST SUB SWAP1 LOG2 STOP JUMPDEST ADD MLOAD SWAP1 POP DUP14 DUP1 PUSH2 0x10C4 JUMP JUMPDEST SWAP1 PUSH1 0x1F NOT DUP4 AND SWAP2 PUSH1 0x2 DUP7 ADD PUSH1 0x0 MSTORE PUSH1 0x20 PUSH1 0x0 KECCAK256 SWAP3 PUSH1 0x0 JUMPDEST DUP2 DUP2 LT PUSH2 0x11BA JUMPI POP SWAP5 PUSH1 0x1 DUP6 PUSH2 0x1124 SWAP9 SWAP6 PUSH1 0x4 SWAP6 PUSH1 0x80 SWAP6 PUSH32 0x753062C03D21CA1EFD0A5025D5C15F2150E4DBE33FC24F1EC7CAEFE191858777 SWAP15 SWAP13 SWAP10 PUSH2 0x1114 SWAP15 SWAP12 LT PUSH2 0x11A1 JUMPI JUMPDEST POP POP POP DUP2 SHL ADD PUSH1 0x2 DUP6 ADD SSTORE PUSH2 0x10DC JUMP JUMPDEST ADD MLOAD PUSH1 0x0 NOT PUSH1 0xF8 DUP5 PUSH1 0x3 SHL AND SHR NOT AND SWAP1 SSTORE DUP14 DUP1 DUP1 PUSH2 0x1191 JUMP JUMPDEST SWAP3 SWAP4 PUSH1 0x20 PUSH1 0x1 DUP2 SWAP3 DUP8 DUP7 ADD MLOAD DUP2 SSTORE ADD SWAP6 ADD SWAP4 ADD PUSH2 0x114B JUMP JUMPDEST PUSH1 0x2 DUP6 ADD PUSH1 0x0 MSTORE PUSH1 0x20 PUSH1 0x0 KECCAK256 PUSH1 0x1F DUP5 ADD PUSH1 0x5 SHR DUP2 ADD PUSH1 0x20 DUP6 LT PUSH2 0x1212 JUMPI JUMPDEST PUSH1 0x1F DUP4 ADD PUSH1 0x5 SHR DUP3 ADD DUP2 LT PUSH2 0x1206 JUMPI POP POP PUSH2 0x1079 JUMP JUMPDEST PUSH1 0x0 DUP2 SSTORE PUSH1 0x1 ADD PUSH2 0x11F0 JUMP JUMPDEST POP DUP1 PUSH2 0x11F0 JUMP JUMPDEST ADD MLOAD SWAP1 POP DUP9 DUP1 PUSH2 0x1035 JUMP JUMPDEST SWAP3 POP PUSH1 0x1 DUP6 ADD PUSH1 0x0 MSTORE PUSH1 0x20 PUSH1 0x0 KECCAK256 SWAP1 PUSH1 0x0 SWAP4 JUMPDEST PUSH1 0x1F NOT DUP5 AND DUP6 LT PUSH2 0x127B JUMPI PUSH1 0x1 SWAP5 POP DUP4 PUSH1 0x1F NOT DUP2 AND LT PUSH2 0x1262 JUMPI JUMPDEST POP POP POP DUP2 SHL ADD PUSH1 0x1 DUP4 ADD SSTORE PUSH2 0x104D JUMP JUMPDEST ADD MLOAD PUSH1 0x0 NOT PUSH1 0xF8 DUP5 PUSH1 0x3 SHL AND SHR NOT AND SWAP1 SSTORE DUP9 DUP1 DUP1 PUSH2 0x1252 JUMP JUMPDEST DUP2 DUP2 ADD MLOAD DUP4 SSTORE PUSH1 0x20 SWAP5 DUP6 ADD SWAP5 PUSH1 0x1 SWAP1 SWAP4 ADD SWAP3 SWAP1 SWAP2 ADD SWAP1 PUSH2 0x1237 JUMP JUMPDEST SWAP1 SWAP2 POP PUSH1 0x1 DUP6 ADD PUSH1 0x0 MSTORE PUSH1 0x20 PUSH1 0x0 KECCAK256 PUSH1 0x1F DUP5 ADD PUSH1 0x5 SHR DUP2 ADD PUSH1 0x20 DUP6 LT PUSH2 0x12E2 JUMPI JUMPDEST SWAP1 DUP5 SWAP4 SWAP3 SWAP2 JUMPDEST PUSH1 0x1F DUP4 ADD PUSH1 0x5 SHR DUP3 ADD DUP2 LT PUSH2 0x12D3 JUMPI POP POP PUSH2 0x101E JUMP JUMPDEST PUSH1 0x0 DUP2 SSTORE DUP6 SWAP5 POP PUSH1 0x1 ADD PUSH2 0x12BD JUMP JUMPDEST POP DUP1 PUSH2 0x12B7 JUMP JUMPDEST PUSH1 0x40 MLOAD PUSH3 0x461BCD PUSH1 0xE5 SHL DUP2 MSTORE PUSH1 0x20 PUSH1 0x4 DUP3 ADD MSTORE PUSH1 0x1A PUSH1 0x24 DUP3 ADD MSTORE PUSH32 0x4F66666963657220616C72656164792072656769737465726564000000000000 PUSH1 0x44 DUP3 ADD MSTORE PUSH1 0x64 SWAP1 REVERT JUMPDEST PUSH1 0x40 MLOAD PUSH3 0x461BCD PUSH1 0xE5 SHL DUP2 MSTORE PUSH1 0x20 PUSH1 0x4 DUP3 ADD MSTORE PUSH1 0x1C PUSH1 0x24 DUP3 ADD MSTORE PUSH32 0x4261646765206E756D6265722063616E6E6F7420626520656D70747900000000 PUSH1 0x44 DUP3 ADD MSTORE PUSH1 0x64 SWAP1 REVERT JUMPDEST PUSH1 0x40 MLOAD PUSH3 0x461BCD PUSH1 0xE5 SHL DUP2 MSTORE PUSH1 0x20 PUSH1 0x4 DUP3 ADD MSTORE PUSH1 0x1C PUSH1 0x24 DUP3 ADD MSTORE PUSH32 0x4F666669636572206E616D652063616E6E6F7420626520656D70747900000000 PUSH1 0x44 DUP3 ADD MSTORE PUSH1 0x64 SWAP1 REVERT JUMPDEST PUSH1 0x40 MLOAD PUSH3 0x461BCD PUSH1 0xE5 SHL DUP2 MSTORE PUSH1 0x20 PUSH1 0x4 DUP3 ADD MSTORE PUSH1 0x17 PUSH1 0x24 DUP3 ADD MSTORE PUSH32 0x496E76616C6964206F6666696365722061646472657373000000000000000000 PUSH1 0x44 DUP3 ADD MSTORE PUSH1 0x64 SWAP1 REVERT JUMPDEST CALLVALUE PUSH2 0x14E JUMPI PUSH1 0x60 CALLDATASIZE PUSH1 0x3 NOT ADD SLT PUSH2 0x14E JUMPI PUSH1 0x4 CALLDATALOAD PUSH1 0x24 CALLDATALOAD SWAP1 DUP2 ISZERO ISZERO SWAP2 DUP3 DUP2 SUB PUSH2 0x14E JUMPI PUSH1 0x1 PUSH1 0x1 PUSH1 0x40 SHL SUB SWAP3 PUSH1 0x44 CALLDATALOAD DUP5 DUP2 GT PUSH2 0x14E JUMPI PUSH2 0x1441 SWAP1 CALLDATASIZE SWAP1 PUSH1 0x4 ADD PUSH2 0x22BD JUMP JUMPDEST SWAP4 PUSH2 0x1457 PUSH1 0x1 DUP1 PUSH1 0xA0 SHL SUB PUSH1 0x0 SLOAD AND CALLER EQ PUSH2 0x234E JUMP JUMPDEST DUP4 PUSH1 0x0 MSTORE PUSH1 0x1 PUSH1 0x20 SWAP4 DUP2 DUP6 MSTORE PUSH2 0x1476 PUSH1 0x5 PUSH1 0x40 PUSH1 0x0 KECCAK256 ADD SLOAD ISZERO ISZERO PUSH2 0x23A4 JUMP JUMPDEST DUP6 PUSH1 0x0 MSTORE DUP2 DUP6 MSTORE PUSH1 0xFF PUSH1 0x7 PUSH1 0x40 PUSH1 0x0 KECCAK256 ADD SLOAD AND PUSH1 0x5 DUP2 LT ISZERO PUSH2 0x660 JUMPI PUSH1 0x2 SUB PUSH2 0x16C4 JUMPI DUP6 PUSH1 0x0 MSTORE PUSH1 0x4 DUP6 MSTORE PUSH2 0x14B6 PUSH1 0xFF PUSH1 0x4 PUSH1 0x40 PUSH1 0x0 KECCAK256 ADD SLOAD AND ISZERO PUSH2 0x23F0 JUMP JUMPDEST PUSH1 0x0 DUP7 DUP2 MSTORE PUSH1 0x4 DUP1 DUP8 MSTORE PUSH1 0x40 SWAP1 SWAP2 KECCAK256 SWAP1 DUP2 ADD DUP1 SLOAD PUSH2 0xFF00 NOT DUP6 AND PUSH2 0xFFFF NOT SWAP1 SWAP2 AND OR DUP4 ISZERO ISZERO PUSH1 0x8 SHL PUSH2 0xFF00 AND OR SWAP1 SSTORE PUSH1 0xFF NOT SWAP4 SWAP1 PUSH1 0x5 ADD SWAP1 DUP9 MLOAD SWAP1 DUP2 GT PUSH2 0x4A9 JUMPI PUSH2 0x1501 DUP3 SLOAD PUSH2 0x213E JUMP JUMPDEST PUSH1 0x1F DUP2 GT PUSH2 0x167B JUMPI JUMPDEST POP DUP7 PUSH1 0x1F DUP3 GT PUSH1 0x1 EQ PUSH2 0x15F1 JUMPI SWAP2 DUP2 PUSH2 0x1124 SWAP7 SWAP5 SWAP3 PUSH32 0xE015977A99B1764BC307021896F7E9F38E075EAD97D3BE81D4FDA7A513BEB97F SWAP11 SWAP12 SWAP7 SWAP5 PUSH1 0x0 SWAP2 PUSH2 0x15E6 JUMPI JUMPDEST POP PUSH1 0x0 NOT PUSH1 0x3 DUP4 SWAP1 SHL SHR NOT AND SWAP1 DUP5 SHL OR SWAP1 SSTORE JUMPDEST ISZERO PUSH2 0x15CA JUMPI DUP8 PUSH1 0x0 MSTORE DUP6 MSTORE PUSH1 0x3 PUSH1 0x7 PUSH1 0x40 PUSH1 0x0 KECCAK256 ADD SWAP2 DUP3 SLOAD AND OR SWAP1 SSTORE DUP6 PUSH32 0x6F1C4EC5424C7B63E8D179403DBC4BE840617E548F7B1D7FF996642E376B92F0 PUSH1 0x40 MLOAD DUP7 DUP2 MSTORE DUP1 PUSH2 0x15B0 DUP9 DUP3 ADD DUP7 PUSH2 0x2298 JUMP JUMPDEST SUB SWAP1 LOG2 JUMPDEST PUSH1 0x40 DUP1 MLOAD SWAP5 DUP6 SWAP5 DUP6 MSTORE DUP5 ADD MSTORE PUSH1 0x40 DUP4 ADD SWAP1 PUSH2 0x2298 JUMP JUMPDEST DUP8 PUSH1 0x0 MSTORE DUP6 MSTORE PUSH1 0x4 PUSH1 0x7 PUSH1 0x40 PUSH1 0x0 KECCAK256 ADD SWAP2 DUP3 SLOAD AND OR SWAP1 SSTORE PUSH2 0x15B4 JUMP JUMPDEST SWAP1 POP DUP7 ADD MLOAD DUP13 PUSH2 0x154C JUMP JUMPDEST PUSH1 0x1F NOT DUP3 AND SWAP1 DUP4 PUSH1 0x0 MSTORE DUP9 PUSH1 0x0 KECCAK256 SWAP2 PUSH1 0x0 JUMPDEST DUP2 DUP2 LT PUSH2 0x1666 JUMPI POP SWAP3 DUP7 SWAP5 SWAP3 PUSH32 0xE015977A99B1764BC307021896F7E9F38E075EAD97D3BE81D4FDA7A513BEB97F SWAP12 SWAP13 SWAP8 SWAP3 DUP3 PUSH2 0x1124 SWAP11 SWAP9 SWAP7 LT PUSH2 0x164D JUMPI JUMPDEST POP POP DUP2 SHL ADD SWAP1 SSTORE PUSH2 0x155F JUMP JUMPDEST DUP9 ADD MLOAD PUSH1 0x0 NOT PUSH1 0xF8 DUP5 PUSH1 0x3 SHL AND SHR NOT AND SWAP1 SSTORE DUP13 DUP1 PUSH2 0x1641 JUMP JUMPDEST DUP13 DUP4 ADD MLOAD DUP5 SSTORE SWAP3 DUP8 ADD SWAP3 SWAP2 DUP11 ADD SWAP2 DUP11 ADD PUSH2 0x1603 JUMP JUMPDEST DUP3 PUSH1 0x0 MSTORE DUP8 PUSH1 0x0 KECCAK256 PUSH1 0x1F DUP4 ADD PUSH1 0x5 SHR DUP2 ADD SWAP2 DUP10 DUP5 LT PUSH2 0x16BA JUMPI JUMPDEST PUSH1 0x1F ADD PUSH1 0x5 SHR ADD SWAP1 DUP6 SWAP1 JUMPDEST DUP3 DUP2 LT PUSH2 0x16AE JUMPI POP POP PUSH2 0x150A JUMP JUMPDEST PUSH1 0x0 DUP2 SSTORE ADD DUP6 SWAP1 PUSH2 0x16A0 JUMP JUMPDEST SWAP1 SWAP2 POP DUP2 SWAP1 PUSH2 0x1695 JUMP JUMPDEST PUSH1 0x40 MLOAD PUSH3 0x461BCD PUSH1 0xE5 SHL DUP2 MSTORE PUSH1 0x4 DUP2 ADD DUP7 SWAP1 MSTORE PUSH1 0x11 PUSH1 0x24 DUP3 ADD MSTORE PUSH17 0x139BC81C195B991A5B99C8185C1C19585B PUSH1 0x7A SHL PUSH1 0x44 DUP3 ADD MSTORE PUSH1 0x64 SWAP1 REVERT JUMPDEST CALLVALUE PUSH2 0x14E JUMPI PUSH1 0x20 CALLDATASIZE PUSH1 0x3 NOT ADD SLT PUSH2 0x14E JUMPI PUSH1 0x4 CALLDATALOAD PUSH1 0x0 MSTORE PUSH1 0x4 PUSH1 0x20 MSTORE PUSH1 0x40 PUSH1 0x0 KECCAK256 DUP1 SLOAD PUSH2 0x98B PUSH1 0x1 DUP1 PUSH1 0xA0 SHL SUB PUSH1 0x1 DUP5 ADD SLOAD AND SWAP3 PUSH2 0x173D PUSH1 0x2 DUP3 ADD PUSH2 0x21D0 JUMP JUMPDEST PUSH1 0xFF PUSH1 0x3 DUP4 ADD SLOAD SWAP3 PUSH2 0x1778 PUSH2 0x1759 PUSH1 0x5 PUSH1 0x4 DUP5 ADD SLOAD SWAP4 ADD PUSH2 0x21D0 JUMP JUMPDEST SWAP4 PUSH1 0x40 MLOAD SWAP9 DUP10 SWAP9 DUP10 MSTORE PUSH1 0x20 DUP10 ADD MSTORE PUSH1 0xE0 PUSH1 0x40 DUP10 ADD MSTORE PUSH1 0xE0 DUP9 ADD SWAP1 PUSH2 0x2298 JUMP JUMPDEST SWAP4 PUSH1 0x60 DUP8 ADD MSTORE DUP2 DUP2 AND ISZERO ISZERO PUSH1 0x80 DUP8 ADD MSTORE PUSH1 0x8 SHR AND ISZERO ISZERO PUSH1 0xA0 DUP6 ADD MSTORE DUP4 DUP3 SUB PUSH1 0xC0 DUP6 ADD MSTORE PUSH2 0x2298 JUMP JUMPDEST CALLVALUE PUSH2 0x14E JUMPI PUSH1 0x20 CALLDATASIZE PUSH1 0x3 NOT ADD SLT PUSH2 0x14E JUMPI PUSH2 0x17B9 PUSH2 0x2128 JUMP JUMPDEST PUSH1 0x0 SLOAD PUSH1 0x1 PUSH1 0x1 PUSH1 0xA0 SHL SUB SWAP2 SWAP1 PUSH2 0x17D3 SWAP1 DUP4 AND CALLER EQ PUSH2 0x234E JUMP JUMPDEST AND DUP1 PUSH1 0x0 MSTORE PUSH1 0x2 PUSH1 0x20 MSTORE PUSH1 0xFF PUSH1 0x3 PUSH1 0x40 PUSH1 0x0 KECCAK256 ADD SLOAD AND ISZERO PUSH2 0x1809 JUMPI PUSH1 0x0 SWAP1 DUP2 MSTORE PUSH1 0x2 PUSH1 0x20 MSTORE PUSH1 0x40 SWAP1 KECCAK256 PUSH1 0x3 ADD DUP1 SLOAD PUSH1 0xFF NOT AND SWAP1 SSTORE STOP JUMPDEST PUSH1 0x40 MLOAD PUSH3 0x461BCD PUSH1 0xE5 SHL DUP2 MSTORE PUSH1 0x20 PUSH1 0x4 DUP3 ADD MSTORE PUSH1 0x16 PUSH1 0x24 DUP3 ADD MSTORE PUSH22 0x13D9999A58D95C881B9BDD081C9959DA5CDD195C9959 PUSH1 0x52 SHL PUSH1 0x44 DUP3 ADD MSTORE PUSH1 0x64 SWAP1 REVERT JUMPDEST CALLVALUE PUSH2 0x14E JUMPI PUSH1 0x20 CALLDATASIZE PUSH1 0x3 NOT ADD SLT PUSH2 0x14E JUMPI PUSH1 0x0 SLOAD PUSH1 0x4 CALLDATALOAD SWAP1 PUSH1 0x1 PUSH1 0x1 PUSH1 0xA0 SHL SUB AND PUSH2 0x1873 CALLER DUP3 EQ PUSH2 0x234E JUMP JUMPDEST SELFBALANCE DUP3 GT PUSH2 0x189A JUMPI PUSH1 0x0 DUP1 DUP1 SWAP4 DUP2 SWAP4 DUP3 DUP3 ISZERO PUSH2 0x1891 JUMPI JUMPDEST CALL ISZERO PUSH2 0x7AE JUMPI STOP JUMPDEST POP PUSH2 0x8FC PUSH2 0x1889 JUMP JUMPDEST PUSH1 0x40 MLOAD PUSH3 0x461BCD PUSH1 0xE5 SHL DUP2 MSTORE PUSH1 0x20 PUSH1 0x4 DUP3 ADD MSTORE PUSH1 0x1D PUSH1 0x24 DUP3 ADD MSTORE PUSH32 0x496E73756666696369656E7420636F6E74726163742062616C616E6365000000 PUSH1 0x44 DUP3 ADD MSTORE PUSH1 0x64 SWAP1 REVERT JUMPDEST CALLVALUE PUSH2 0x14E JUMPI PUSH1 0x80 CALLDATASIZE PUSH1 0x3 NOT ADD SLT PUSH2 0x14E JUMPI PUSH1 0x4 CALLDATALOAD PUSH1 0x1 PUSH1 0x1 PUSH1 0x40 SHL SUB DUP2 GT PUSH2 0x14E JUMPI PUSH2 0x190F SWAP1 CALLDATASIZE SWAP1 PUSH1 0x4 ADD PUSH2 0x22BD JUMP JUMPDEST PUSH1 0x44 DUP1 CALLDATALOAD PUSH1 0x1 PUSH1 0x1 PUSH1 0x40 SHL SUB DUP2 GT PUSH2 0x14E JUMPI PUSH2 0x192F SWAP1 CALLDATASIZE SWAP1 PUSH1 0x4 ADD PUSH2 0x22BD JUMP JUMPDEST PUSH1 0x64 DUP1 CALLDATALOAD SWAP3 PUSH1 0x1 PUSH1 0x1 PUSH1 0xA0 SHL SUB DUP5 AND DUP5 SUB PUSH2 0x14E JUMPI CALLER PUSH1 0x0 MSTORE PUSH1 0x2 PUSH1 0x20 MSTORE PUSH1 0xFF PUSH1 0x3 PUSH1 0x40 PUSH1 0x0 KECCAK256 ADD SLOAD AND ISZERO PUSH2 0x2035 JUMPI DUP5 MLOAD ISZERO PUSH2 0x1FF4 JUMPI PUSH1 0x24 CALLDATALOAD PUSH1 0x0 MSTORE PUSH1 0x7 PUSH1 0x20 MSTORE PUSH1 0x40 PUSH1 0x0 KECCAK256 SLOAD ISZERO DUP1 ISZERO SWAP1 PUSH2 0x1FE8 JUMPI JUMPDEST ISZERO PUSH2 0x1FB0 JUMPI DUP3 MLOAD ISZERO PUSH2 0x1F6F JUMPI PUSH1 0x1 PUSH1 0x1 PUSH1 0xA0 SHL SUB DUP5 AND ISZERO PUSH2 0x1F35 JUMPI POP POP PUSH2 0x1A55 PUSH1 0x40 MLOAD PUSH1 0x20 DUP2 ADD SWAP1 PUSH2 0x19E4 PUSH1 0x74 DUP3 DUP9 MLOAD PUSH2 0x19BD DUP2 DUP8 PUSH1 0x20 DUP14 ADD PUSH2 0x2275 JUMP JUMPDEST DUP2 ADD CALLER PUSH1 0x60 SHL PUSH1 0x20 DUP3 ADD MSTORE TIMESTAMP PUSH1 0x34 DUP3 ADD MSTORE PUSH1 0x24 CALLDATALOAD PUSH1 0x54 DUP3 ADD MSTORE SUB PUSH1 0x54 DUP2 ADD DUP5 MSTORE ADD DUP3 PUSH2 0x21AF JUMP JUMPDEST MLOAD SWAP1 KECCAK256 SWAP3 PUSH1 0x24 CALLDATALOAD PUSH1 0x0 MSTORE PUSH1 0x7 PUSH1 0x20 MSTORE PUSH1 0x40 PUSH1 0x0 KECCAK256 SLOAD SWAP1 PUSH1 0x8 PUSH1 0x20 MSTORE PUSH1 0x40 PUSH1 0x0 KECCAK256 SWAP2 PUSH1 0x40 MLOAD SWAP5 PUSH2 0x1A12 DUP7 PUSH2 0x2178 JUMP JUMPDEST DUP7 DUP7 MSTORE PUSH1 0x20 DUP7 ADD DUP9 SWAP1 MSTORE CALLER PUSH1 0x40 DUP8 ADD MSTORE PUSH1 0x24 CALLDATALOAD PUSH1 0x60 DUP8 ADD MSTORE PUSH1 0x80 DUP7 ADD MSTORE TIMESTAMP PUSH1 0xA0 DUP7 ADD MSTORE PUSH1 0xC0 DUP6 ADD MSTORE PUSH1 0x0 PUSH1 0xE0 DUP6 ADD MSTORE PUSH1 0x1 PUSH1 0x1 PUSH1 0xA0 SHL SUB AND PUSH2 0x100 DUP5 ADD MSTORE PUSH2 0x21D0 JUMP JUMPDEST PUSH2 0x120 DUP3 ADD MSTORE DUP2 PUSH1 0x0 MSTORE PUSH1 0x1 PUSH1 0x20 MSTORE PUSH1 0x40 PUSH1 0x0 KECCAK256 SWAP1 DUP1 MLOAD DUP3 SSTORE PUSH1 0x20 DUP2 ADD MLOAD DUP1 MLOAD SWAP1 PUSH1 0x1 PUSH1 0x1 PUSH1 0x40 SHL SUB DUP3 GT PUSH2 0x4A9 JUMPI DUP2 SWAP1 PUSH2 0x1A93 PUSH1 0x1 DUP7 ADD SLOAD PUSH2 0x213E JUMP JUMPDEST PUSH1 0x1F DUP2 GT PUSH2 0x1EE2 JUMPI JUMPDEST POP PUSH1 0x20 SWAP1 PUSH1 0x1F DUP4 GT PUSH1 0x1 EQ PUSH2 0x1E70 JUMPI PUSH1 0x0 SWAP3 PUSH2 0x1E65 JUMPI JUMPDEST POP POP DUP2 PUSH1 0x1 SHL SWAP2 PUSH1 0x0 NOT SWAP1 PUSH1 0x3 SHL SHR NOT AND OR PUSH1 0x1 DUP4 ADD SSTORE JUMPDEST PUSH1 0x2 DUP3 ADD PUSH1 0x1 DUP1 PUSH1 0xA0 SHL SUB PUSH1 0x40 DUP4 ADD MLOAD AND PUSH1 0x1 PUSH1 0x1 PUSH1 0x60 SHL SUB PUSH1 0xA0 SHL DUP3 SLOAD AND OR SWAP1 SSTORE PUSH1 0x60 DUP2 ADD MLOAD PUSH1 0x3 DUP4 ADD SSTORE PUSH1 0x80 DUP2 ADD MLOAD DUP1 MLOAD SWAP1 PUSH1 0x1 PUSH1 0x1 PUSH1 0x40 SHL SUB DUP3 GT PUSH2 0x4A9 JUMPI DUP2 SWAP1 PUSH2 0x1B1C PUSH1 0x4 DUP7 ADD SLOAD PUSH2 0x213E JUMP JUMPDEST PUSH1 0x1F DUP2 GT PUSH2 0x1E12 JUMPI JUMPDEST POP PUSH1 0x20 SWAP1 PUSH1 0x1F DUP4 GT PUSH1 0x1 EQ PUSH2 0x1DA0 JUMPI PUSH1 0x0 SWAP3 PUSH2 0x1D95 JUMPI JUMPDEST POP POP DUP2 PUSH1 0x1 SHL SWAP2 PUSH1 0x0 NOT SWAP1 PUSH1 0x3 SHL SHR NOT AND OR PUSH1 0x4 DUP4 ADD SSTORE JUMPDEST PUSH1 0xA0 DUP2 ADD MLOAD PUSH1 0x5 DUP4 ADD SSTORE PUSH1 0xC0 DUP2 ADD MLOAD PUSH1 0x6 DUP4 ADD SSTORE PUSH1 0x7 DUP3 ADD SWAP1 PUSH1 0xE0 DUP2 ADD MLOAD SWAP2 PUSH1 0x5 DUP4 LT ISZERO PUSH2 0x660 JUMPI PUSH2 0x120 SWAP3 DUP2 SLOAD PUSH1 0xFF PUSH2 0x100 PUSH1 0x1 PUSH1 0xA8 SHL SUB PUSH2 0x100 DUP7 ADD MLOAD PUSH1 0x8 SHL AND SWAP3 AND SWAP1 PUSH11 0xFFFFFFFFFFFFFFFFFFFFFF PUSH1 0xA8 SHL AND OR OR SWAP1 SSTORE ADD MLOAD DUP1 MLOAD SWAP1 PUSH1 0x1 PUSH1 0x1 PUSH1 0x40 SHL SUB DUP3 GT PUSH2 0x4A9 JUMPI PUSH2 0x1BCE PUSH1 0x8 DUP5 ADD SLOAD PUSH2 0x213E JUMP JUMPDEST PUSH1 0x1F DUP2 GT PUSH2 0x1D4E JUMPI JUMPDEST POP PUSH1 0x20 SWAP1 PUSH1 0x1F DUP4 GT PUSH1 0x1 EQ PUSH2 0x1CE0 JUMPI PUSH1 0x8 SWAP3 SWAP2 PUSH1 0x0 SWAP2 DUP4 PUSH2 0x1CD5 JUMPI JUMPDEST POP POP DUP2 PUSH1 0x1 SHL SWAP2 PUSH1 0x0 NOT SWAP1 PUSH1 0x3 SHL SHR NOT AND OR SWAP2 ADD SSTORE JUMPDEST PUSH1 0x40 MLOAD PUSH1 0x20 DUP2 DUP5 MLOAD PUSH2 0x1C1E DUP2 DUP4 DUP6 DUP10 ADD PUSH2 0x2275 JUMP JUMPDEST DUP2 ADD PUSH1 0x3 DUP2 MSTORE SUB ADD SWAP1 KECCAK256 DUP1 SLOAD PUSH9 0x10000000000000000 DUP2 LT ISZERO PUSH2 0x4A9 JUMPI PUSH2 0x1C4A SWAP2 PUSH1 0x1 DUP3 ADD DUP2 SSTORE PUSH2 0x2313 JUMP JUMPDEST SWAP1 DUP1 SLOAD SWAP2 PUSH1 0x3 SHL PUSH1 0x0 NOT SWAP3 DUP4 DUP6 DUP4 SHL SWAP3 SHL NOT AND OR SWAP1 SSTORE PUSH1 0x5 SLOAD SWAP1 DUP2 EQ PUSH2 0x7C3 JUMPI PUSH32 0x497C50DC0A25ED1596E008D7A210D78BC87BC67E77FEAA12C6CCF23769D28006 PUSH2 0x1CBD PUSH1 0x20 SWAP5 PUSH1 0x1 DUP6 SWAP5 ADD PUSH1 0x5 SSTORE PUSH1 0x24 CALLDATALOAD PUSH1 0x0 MSTORE PUSH1 0x7 DUP7 MSTORE PUSH1 0x40 PUSH1 0x0 KECCAK256 SLOAD PUSH1 0x40 MLOAD SWAP3 DUP4 SWAP3 PUSH1 0x60 DUP5 MSTORE PUSH1 0x60 DUP5 ADD SWAP1 PUSH2 0x2298 JUMP JUMPDEST SWAP1 PUSH1 0x24 CALLDATALOAD DUP9 DUP5 ADD MSTORE PUSH1 0x40 DUP4 ADD MSTORE SUB SWAP1 LOG2 PUSH1 0x40 MLOAD SWAP1 DUP2 MSTORE RETURN JUMPDEST ADD MLOAD SWAP1 POP DUP7 DUP1 PUSH2 0x1BF3 JUMP JUMPDEST SWAP1 PUSH1 0x1F NOT DUP4 AND SWAP2 PUSH1 0x8 DUP6 ADD PUSH1 0x0 MSTORE PUSH1 0x20 PUSH1 0x0 KECCAK256 SWAP3 PUSH1 0x0 JUMPDEST DUP2 DUP2 LT PUSH2 0x1D36 JUMPI POP SWAP2 PUSH1 0x1 SWAP4 SWAP2 DUP6 PUSH1 0x8 SWAP7 SWAP5 LT PUSH2 0x1D1D JUMPI JUMPDEST POP POP POP DUP2 SHL ADD SWAP2 ADD SSTORE PUSH2 0x1C09 JUMP JUMPDEST ADD MLOAD PUSH1 0x0 NOT PUSH1 0xF8 DUP5 PUSH1 0x3 SHL AND SHR NOT AND SWAP1 SSTORE DUP7 DUP1 DUP1 PUSH2 0x1D0F JUMP JUMPDEST SWAP3 SWAP4 PUSH1 0x20 PUSH1 0x1 DUP2 SWAP3 DUP8 DUP7 ADD MLOAD DUP2 SSTORE ADD SWAP6 ADD SWAP4 ADD PUSH2 0x1CF7 JUMP JUMPDEST PUSH1 0x8 DUP5 ADD PUSH1 0x0 MSTORE PUSH1 0x20 PUSH1 0x0 KECCAK256 PUSH1 0x1F DUP5 ADD PUSH1 0x5 SHR DUP2 ADD PUSH1 0x20 DUP6 LT PUSH2 0x1D8E JUMPI JUMPDEST PUSH1 0x1F DUP4 ADD PUSH1 0x5 SHR DUP3 ADD DUP2 LT PUSH2 0x1D82 JUMPI POP POP PUSH2 0x1BD7 JUMP JUMPDEST PUSH1 0x0 DUP2 SSTORE PUSH1 0x1 ADD PUSH2 0x1D6C JUMP JUMPDEST POP DUP1 PUSH2 0x1D6C JUMP JUMPDEST ADD MLOAD SWAP1 POP DUP7 DUP1 PUSH2 0x1B3C JUMP JUMPDEST SWAP3 POP PUSH1 0x4 DUP6 ADD PUSH1 0x0 MSTORE PUSH1 0x20 PUSH1 0x0 KECCAK256 SWAP1 PUSH1 0x0 SWAP4 JUMPDEST PUSH1 0x1F NOT DUP5 AND DUP6 LT PUSH2 0x1DF7 JUMPI PUSH1 0x1 SWAP5 POP DUP4 PUSH1 0x1F NOT DUP2 AND LT PUSH2 0x1DDE JUMPI JUMPDEST POP POP POP DUP2 SHL ADD PUSH1 0x4 DUP4 ADD SSTORE PUSH2 0x1B54 JUMP JUMPDEST ADD MLOAD PUSH1 0x0 NOT PUSH1 0xF8 DUP5 PUSH1 0x3 SHL AND SHR NOT AND SWAP1 SSTORE DUP7 DUP1 DUP1 PUSH2 0x1DCE JUMP JUMPDEST DUP2 DUP2 ADD MLOAD DUP4 SSTORE PUSH1 0x20 SWAP5 DUP6 ADD SWAP5 PUSH1 0x1 SWAP1 SWAP4 ADD SWAP3 SWAP1 SWAP2 ADD SWAP1 PUSH2 0x1DB3 JUMP JUMPDEST SWAP1 SWAP2 POP PUSH1 0x4 DUP6 ADD PUSH1 0x0 MSTORE PUSH1 0x20 PUSH1 0x0 KECCAK256 PUSH1 0x1F DUP5 ADD PUSH1 0x5 SHR DUP2 ADD PUSH1 0x20 DUP6 LT PUSH2 0x1E5E JUMPI JUMPDEST SWAP1 DUP5 SWAP4 SWAP3 SWAP2 JUMPDEST PUSH1 0x1F DUP4 ADD PUSH1 0x5 SHR DUP3 ADD DUP2 LT PUSH2 0x1E4F JUMPI POP POP PUSH2 0x1B25 JUMP JUMPDEST PUSH1 0x0 DUP2 SSTORE DUP6 SWAP5 POP PUSH1 0x1 ADD PUSH2 0x1E39 JUMP JUMPDEST POP DUP1 PUSH2 0x1E33 JUMP JUMPDEST ADD MLOAD SWAP1 POP DUP7 DUP1 PUSH2 0x1AB3 JUMP JUMPDEST SWAP3 POP PUSH1 0x1 DUP6 ADD PUSH1 0x0 MSTORE PUSH1 0x20 PUSH1 0x0 KECCAK256 SWAP1 PUSH1 0x0 SWAP4 JUMPDEST PUSH1 0x1F NOT DUP5 AND DUP6 LT PUSH2 0x1EC7 JUMPI PUSH1 0x1 SWAP5 POP DUP4 PUSH1 0x1F NOT DUP2 AND LT PUSH2 0x1EAE JUMPI JUMPDEST POP POP POP DUP2 SHL ADD PUSH1 0x1 DUP4 ADD SSTORE PUSH2 0x1ACB JUMP JUMPDEST ADD MLOAD PUSH1 0x0 NOT PUSH1 0xF8 DUP5 PUSH1 0x3 SHL AND SHR NOT AND SWAP1 SSTORE DUP7 DUP1 DUP1 PUSH2 0x1E9E JUMP JUMPDEST DUP2 DUP2 ADD MLOAD DUP4 SSTORE PUSH1 0x20 SWAP5 DUP6 ADD SWAP5 PUSH1 0x1 SWAP1 SWAP4 ADD SWAP3 SWAP1 SWAP2 ADD SWAP1 PUSH2 0x1E83 JUMP JUMPDEST SWAP1 SWAP2 POP PUSH1 0x1 DUP6 ADD PUSH1 0x0 MSTORE PUSH1 0x20 PUSH1 0x0 KECCAK256 PUSH1 0x1F DUP5 ADD PUSH1 0x5 SHR DUP2 ADD PUSH1 0x20 DUP6 LT PUSH2 0x1F2E JUMPI JUMPDEST SWAP1 DUP5 SWAP4 SWAP3 SWAP2 JUMPDEST PUSH1 0x1F DUP4 ADD PUSH1 0x5 SHR DUP3 ADD DUP2 LT PUSH2 0x1F1F JUMPI POP POP PUSH2 0x1A9C JUMP JUMPDEST PUSH1 0x0 DUP2 SSTORE DUP6 SWAP5 POP PUSH1 0x1 ADD PUSH2 0x1F09 JUMP JUMPDEST POP DUP1 PUSH2 0x1F03 JUMP JUMPDEST PUSH22 0x496E76616C6964206472697665722061646472657373 PUSH1 0x50 SHL PUSH1 0x40 MLOAD SWAP2 PUSH3 0x461BCD PUSH1 0xE5 SHL DUP4 MSTORE PUSH1 0x20 PUSH1 0x4 DUP5 ADD MSTORE PUSH1 0x16 PUSH1 0x24 DUP5 ADD MSTORE DUP3 ADD MSTORE REVERT JUMPDEST PUSH32 0x45766964656E636520686173682063616E6E6F7420626520656D707479000000 PUSH1 0x40 MLOAD SWAP2 PUSH3 0x461BCD PUSH1 0xE5 SHL DUP4 MSTORE PUSH1 0x20 PUSH1 0x4 DUP5 ADD MSTORE PUSH1 0x1D PUSH1 0x24 DUP5 ADD MSTORE DUP3 ADD MSTORE REVERT JUMPDEST PUSH20 0x496E76616C6964206F6666656E736520636F6465 PUSH1 0x60 SHL PUSH1 0x40 MLOAD SWAP2 PUSH3 0x461BCD PUSH1 0xE5 SHL DUP4 MSTORE PUSH1 0x20 PUSH1 0x4 DUP5 ADD MSTORE PUSH1 0x14 PUSH1 0x24 DUP5 ADD MSTORE DUP3 ADD MSTORE REVERT JUMPDEST POP PUSH1 0x1 PUSH1 0x24 CALLDATALOAD EQ PUSH2 0x197F JUMP JUMPDEST PUSH32 0x56656869636C652049442063616E6E6F7420626520656D707479000000000000 PUSH1 0x40 MLOAD SWAP2 PUSH3 0x461BCD PUSH1 0xE5 SHL DUP4 MSTORE PUSH1 0x20 PUSH1 0x4 DUP5 ADD MSTORE PUSH1 0x1A PUSH1 0x24 DUP5 ADD MSTORE DUP3 ADD MSTORE REVERT JUMPDEST PUSH15 0x36103A3434B990333AB731BA34B7B7 PUSH1 0x89 SHL PUSH1 0x84 SWAP3 PUSH32 0x4F6E6C792072656769737465726564206F666669636572732063616E2063616C PUSH1 0x40 MLOAD SWAP4 PUSH3 0x461BCD PUSH1 0xE5 SHL DUP6 MSTORE PUSH1 0x20 PUSH1 0x4 DUP7 ADD MSTORE PUSH1 0x2F PUSH1 0x24 DUP7 ADD MSTORE DUP5 ADD MSTORE DUP3 ADD MSTORE REVERT JUMPDEST CALLVALUE PUSH2 0x14E JUMPI PUSH1 0x20 CALLDATASIZE PUSH1 0x3 NOT ADD SLT PUSH2 0x14E JUMPI PUSH1 0x1 PUSH1 0x1 PUSH1 0xA0 SHL SUB DUP1 PUSH2 0x20B1 PUSH2 0x2128 JUMP JUMPDEST AND PUSH1 0x0 MSTORE PUSH1 0x2 PUSH1 0x20 MSTORE PUSH1 0x40 PUSH1 0x0 KECCAK256 SWAP1 DUP2 SLOAD AND PUSH2 0x20CF PUSH1 0x1 DUP4 ADD PUSH2 0x21D0 JUMP JUMPDEST SWAP2 PUSH2 0x20DC PUSH1 0x2 DUP3 ADD PUSH2 0x21D0 JUMP JUMPDEST PUSH2 0x2117 PUSH1 0x4 PUSH1 0xFF PUSH1 0x3 DUP6 ADD SLOAD AND SWAP4 ADD SLOAD SWAP2 PUSH2 0x2109 PUSH1 0x40 MLOAD SWAP7 DUP8 SWAP7 DUP8 MSTORE PUSH1 0xA0 PUSH1 0x20 DUP9 ADD MSTORE PUSH1 0xA0 DUP8 ADD SWAP1 PUSH2 0x2298 JUMP JUMPDEST SWAP1 DUP6 DUP3 SUB PUSH1 0x40 DUP8 ADD MSTORE PUSH2 0x2298 JUMP JUMPDEST SWAP2 ISZERO ISZERO PUSH1 0x60 DUP5 ADD MSTORE PUSH1 0x80 DUP4 ADD MSTORE SUB SWAP1 RETURN JUMPDEST PUSH1 0x4 CALLDATALOAD SWAP1 PUSH1 0x1 PUSH1 0x1 PUSH1 0xA0 SHL SUB DUP3 AND DUP3 SUB PUSH2 0x14E JUMPI JUMP JUMPDEST SWAP1 PUSH1 0x1 DUP3 DUP2 SHR SWAP3 AND DUP1 ISZERO PUSH2 0x216E JUMPI JUMPDEST PUSH1 0x20 DUP4 LT EQ PUSH2 0x2158 JUMPI JUMP JUMPDEST PUSH4 0x4E487B71 PUSH1 0xE0 SHL PUSH1 0x0 MSTORE PUSH1 0x22 PUSH1 0x4 MSTORE PUSH1 0x24 PUSH1 0x0 REVERT JUMPDEST SWAP2 PUSH1 0x7F AND SWAP2 PUSH2 0x214D JUMP JUMPDEST PUSH2 0x140 DUP2 ADD SWAP1 DUP2 LT PUSH1 0x1 PUSH1 0x1 PUSH1 0x40 SHL SUB DUP3 GT OR PUSH2 0x4A9 JUMPI PUSH1 0x40 MSTORE JUMP JUMPDEST PUSH1 0xE0 DUP2 ADD SWAP1 DUP2 LT PUSH1 0x1 PUSH1 0x1 PUSH1 0x40 SHL SUB DUP3 GT OR PUSH2 0x4A9 JUMPI PUSH1 0x40 MSTORE JUMP JUMPDEST SWAP1 PUSH1 0x1F DUP1 NOT SWAP2 ADD AND DUP2 ADD SWAP1 DUP2 LT PUSH1 0x1 PUSH1 0x1 PUSH1 0x40 SHL SUB DUP3 GT OR PUSH2 0x4A9 JUMPI PUSH1 0x40 MSTORE JUMP JUMPDEST SWAP1 PUSH1 0x40 MLOAD SWAP2 DUP3 PUSH1 0x0 DUP3 SLOAD PUSH2 0x21E3 DUP2 PUSH2 0x213E JUMP JUMPDEST SWAP1 DUP2 DUP5 MSTORE PUSH1 0x20 SWAP5 PUSH1 0x1 SWAP2 PUSH1 0x1 DUP2 AND SWAP1 DUP2 PUSH1 0x0 EQ PUSH2 0x2253 JUMPI POP PUSH1 0x1 EQ PUSH2 0x2214 JUMPI JUMPDEST POP POP POP PUSH2 0x2212 SWAP3 POP SUB DUP4 PUSH2 0x21AF JUMP JUMPDEST JUMP JUMPDEST PUSH1 0x0 SWAP1 DUP2 MSTORE DUP6 DUP2 KECCAK256 SWAP6 SWAP4 POP SWAP2 SWAP1 JUMPDEST DUP2 DUP4 LT PUSH2 0x223B JUMPI POP POP PUSH2 0x2212 SWAP4 POP DUP3 ADD ADD CODESIZE DUP1 DUP1 PUSH2 0x2203 JUMP JUMPDEST DUP6 SLOAD DUP9 DUP5 ADD DUP6 ADD MSTORE SWAP5 DUP6 ADD SWAP5 DUP8 SWAP5 POP SWAP2 DUP4 ADD SWAP2 PUSH2 0x2222 JUMP JUMPDEST SWAP3 POP POP POP PUSH2 0x2212 SWAP5 SWAP3 POP PUSH1 0xFF NOT AND DUP3 DUP5 ADD MSTORE ISZERO ISZERO PUSH1 0x5 SHL DUP3 ADD ADD CODESIZE DUP1 DUP1 PUSH2 0x2203 JUMP JUMPDEST PUSH1 0x0 JUMPDEST DUP4 DUP2 LT PUSH2 0x2288 JUMPI POP POP PUSH1 0x0 SWAP2 ADD MSTORE JUMP JUMPDEST DUP2 DUP2 ADD MLOAD DUP4 DUP3 ADD MSTORE PUSH1 0x20 ADD PUSH2 0x2278 JUMP JUMPDEST SWAP1 PUSH1 0x20 SWAP2 PUSH2 0x22B1 DUP2 MLOAD DUP1 SWAP3 DUP2 DUP6 MSTORE DUP6 DUP1 DUP7 ADD SWAP2 ADD PUSH2 0x2275 JUMP JUMPDEST PUSH1 0x1F ADD PUSH1 0x1F NOT AND ADD ADD SWAP1 JUMP JUMPDEST DUP2 PUSH1 0x1F DUP3 ADD SLT ISZERO PUSH2 0x14E JUMPI DUP1 CALLDATALOAD SWAP1 PUSH1 0x1 PUSH1 0x1 PUSH1 0x40 SHL SUB DUP3 GT PUSH2 0x4A9 JUMPI PUSH1 0x40 MLOAD SWAP3 PUSH2 0x22F1 PUSH1 0x1F DUP5 ADD PUSH1 0x1F NOT AND PUSH1 0x20 ADD DUP6 PUSH2 0x21AF JUMP JUMPDEST DUP3 DUP5 MSTORE PUSH1 0x20 DUP4 DUP4 ADD ADD GT PUSH2 0x14E JUMPI DUP2 PUSH1 0x0 SWAP3 PUSH1 0x20 DUP1 SWAP4 ADD DUP4 DUP7 ADD CALLDATACOPY DUP4 ADD ADD MSTORE SWAP1 JUMP JUMPDEST DUP1 SLOAD DUP3 LT ISZERO PUSH2 0x232B JUMPI PUSH1 0x0 MSTORE PUSH1 0x20 PUSH1 0x0 KECCAK256 ADD SWAP1 PUSH1 0x0 SWAP1 JUMP JUMPDEST PUSH4 0x4E487B71 PUSH1 0xE0 SHL PUSH1 0x0 MSTORE PUSH1 0x32 PUSH1 0x4 MSTORE PUSH1 0x24 PUSH1 0x0 REVERT JUMPDEST SWAP1 PUSH1 0x5 DUP3 LT ISZERO PUSH2 0x660 JUMPI MSTORE JUMP JUMPDEST ISZERO PUSH2 0x2355 JUMPI JUMP JUMPDEST PUSH1 0x40 MLOAD PUSH3 0x461BCD PUSH1 0xE5 SHL DUP2 MSTORE PUSH1 0x20 PUSH1 0x4 DUP3 ADD MSTORE PUSH1 0x21 PUSH1 0x24 DUP3 ADD MSTORE PUSH32 0x4F6E6C792061646D696E2063616E2063616C6C20746869732066756E6374696F PUSH1 0x44 DUP3 ADD MSTORE PUSH1 0x37 PUSH1 0xF9 SHL PUSH1 0x64 DUP3 ADD MSTORE PUSH1 0x84 SWAP1 REVERT JUMPDEST ISZERO PUSH2 0x23AB JUMPI JUMP JUMPDEST PUSH1 0x40 MLOAD PUSH3 0x461BCD PUSH1 0xE5 SHL DUP2 MSTORE PUSH1 0x20 PUSH1 0x4 DUP3 ADD MSTORE PUSH1 0x18 PUSH1 0x24 DUP3 ADD MSTORE PUSH32 0x56696F6C6174696F6E20646F6573206E6F742065786973740000000000000000 PUSH1 0x44 DUP3 ADD MSTORE PUSH1 0x64 SWAP1 REVERT JUMPDEST ISZERO PUSH2 0x23F7 JUMPI JUMP JUMPDEST PUSH1 0x40 MLOAD PUSH3 0x461BCD PUSH1 0xE5 SHL DUP2 MSTORE PUSH1 0x20 PUSH1 0x4 DUP3 ADD MSTORE PUSH1 0x17 PUSH1 0x24 DUP3 ADD MSTORE PUSH32 0x41707065616C20616C7265616479207265736F6C766564000000000000000000 PUSH1 0x44 DUP3 ADD MSTORE PUSH1 0x64 SWAP1 REVERT INVALID LOG2 PUSH5 0x6970667358 0x22 SLT KECCAK256 0xA7 0xC2 PC SWAP8 SWAP12 0xDD 0xC4 SHL 0xC9 LOG2 LOG3 0xB2 0xB9 0xEA 0x4C MUL 0xB6 0xA8 0x2E 0xAA EXTCODECOPY 0xD0 0xB7 DUP7 0xEA MSTORE8 0xBE 0xDA 0xE6 BASEFEE PUSH5 0x7064736F6C PUSH4 0x43000816 STOP CALLER "},"methodIdentifiers":{"admin()":"f851a440","appeals(bytes32)":"28cdc028","deregisterOfficer(address)":"2181f4ff","getAppeal(bytes32)":"60055e74","getContractBalance()":"6f9fb98a","getTotalFinesPaid()":"7d74bdaa","getTotalViolations()":"5d9cb8b1","getVehicleViolationCount(string)":"6124a5a4","getVehicleViolations(string)":"8dd70f65","getViolation(bytes32)":"a95c6648","isOfficerRegistered(address)":"4f76ae4b","logViolation(string,uint256,string,address)":"0cb18096","offenseFines(uint256)":"d5242d82","offenseNames(uint256)":"9157b415","officers(address)":"084866dd","payFine(bytes32)":"c345a74c","registerOfficer(address,string,string)":"48031077","resolveAppeal(bytes32,bool,string)":"2e75fcd1","submitAppeal(bytes32,string)":"e8b9fd7b","totalFinesPaid()":"49e6368b","totalViolations()":"d6fd6239","vehicleViolations(string,uint256)":"7310e885","violations(bytes32)":"bb019f7d","withdrawFunds(uint256)":"155dd5ee"}},"storageLayout":{"storage":[{"astId":2087,"contract":"contracts/TrafficEnforcement.sol:TrafficEnforcement","label":"admin","offset":0,"slot":"0","type":"t_address"},{"astId":2092,"contract":"contracts/TrafficEnforcement.sol:TrafficEnforcement","label":"violations","offset":0,"slot":"1","type":"t_mapping(t_bytes32,t_struct(Violation)2057_storage)"},{"astId":2097,"contract":"contracts/TrafficEnforcement.sol:TrafficEnforcement","label":"officers","offset":0,"slot":"2","type":"t_mapping(t_address,t_struct(Officer)2069_storage)"},{"astId":2102,"contract":"contracts/TrafficEnforcement.sol:TrafficEnforcement","label":"vehicleViolations","offset":0,"slot":"3","type":"t_mapping(t_string_memory_ptr,t_array(t_bytes32)dyn_storage)"},{"astId":2107,"contract":"contracts/TrafficEnforcement.sol:TrafficEnforcement","label":"appeals","offset":0,"slot":"4","type":"t_mapping(t_bytes32,t_struct(Appeal)2085_storage)"},{"astId":2109,"contract":"contracts/TrafficEnforcement.sol:TrafficEnforcement","label":"totalViolations","offset":0,"slot":"5","type":"t_uint256"},{"astId":2111,"contract":"contracts/TrafficEnforcement.sol:TrafficEnforcement","label":"totalFinesPaid","offset":0,"slot":"6","type":"t_uint256"},{"astId":2115,"contract":"contracts/TrafficEnforcement.sol:TrafficEnforcement","label":"offenseFines","offset":0,"slot":"7","type":"t_mapping(t_uint256,t_uint256)"},{"astId":2119,"contract":"contracts/TrafficEnforcement.sol:TrafficEnforcement","label":"offenseNames","offset":0,"slot":"8","type":"t_mapping(t_uint256,t_string_storage)"}],"types":{"t_address":{"encoding":"inplace","label":"address","numberOfBytes":"20"},"t_array(t_bytes32)dyn_storage":{"base":"t_bytes32","encoding":"dynamic_array","label":"bytes32[]","numberOfBytes":"32"},"t_bool":{"encoding":"inplace","label":"bool","numberOfBytes":"1"},"t_bytes32":{"encoding":"inplace","label":"bytes32","numberOfBytes":"32"},"t_enum(ViolationStatus)2034":{"encoding":"inplace","label":"enum TrafficEnforcement.ViolationStatus","numberOfBytes":"1"},"t_mapping(t_address,t_struct(Officer)2069_storage)":{"encoding":"mapping","key":"t_address","label":"mapping(address => struct TrafficEnforcement.Officer)","numberOfBytes":"32","value":"t_struct(Officer)2069_storage"},"t_mapping(t_bytes32,t_struct(Appeal)2085_storage)":{"encoding":"mapping","key":"t_bytes32","label":"mapping(bytes32 => struct TrafficEnforcement.Appeal)","numberOfBytes":"32","value":"t_struct(Appeal)2085_storage"},"t_mapping(t_bytes32,t_struct(Violation)2057_storage)":{"encoding":"mapping","key":"t_bytes32","label":"mapping(bytes32 => struct TrafficEnforcement.Violation)","numberOfBytes":"32","value":"t_struct(Violation)2057_storage"},"t_mapping(t_string_memory_ptr,t_array(t_bytes32)dyn_storage)":{"encoding":"mapping","key":"t_string_memory_ptr","label":"mapping(string => bytes32[])","numberOfBytes":"32","value":"t_array(t_bytes32)dyn_storage"},"t_mapping(t_uint256,t_string_storage)":{"encoding":"mapping","key":"t_uint256","label":"mapping(uint256 => string)","numberOfBytes":"32","value":"t_string_storage"},"t_mapping(t_uint256,t_uint256)":{"encoding":"mapping","key":"t_uint256","label":"mapping(uint256 => uint256)","numberOfBytes":"32","value":"t_uint256"},"t_string_memory_ptr":{"encoding":"bytes","label":"string","numberOfBytes":"32"},"t_string_storage":{"encoding":"bytes","label":"string","numberOfBytes":"32"},"t_struct(Appeal)2085_storage":{"encoding":"inplace","label":"struct TrafficEnforcement.Appeal","members":[{"astId":2072,"contract":"contracts/TrafficEnforcement.sol:TrafficEnforcement","label":"violationId","offset":0,"slot":"0","type":"t_bytes32"},{"astId":2074,"contract":"contracts/TrafficEnforcement.sol:TrafficEnforcement","label":"driverId","offset":0,"slot":"1","type":"t_address"},{"astId":2076,"contract":"contracts/TrafficEnforcement.sol:TrafficEnforcement","label":"appealReason","offset":0,"slot":"2","type":"t_string_storage"},{"astId":2078,"contract":"contracts/TrafficEnforcement.sol:TrafficEnforcement","label":"appealTime","offset":0,"slot":"3","type":"t_uint256"},{"astId":2080,"contract":"contracts/TrafficEnforcement.sol:TrafficEnforcement","label":"resolved","offset":0,"slot":"4","type":"t_bool"},{"astId":2082,"contract":"contracts/TrafficEnforcement.sol:TrafficEnforcement","label":"waived","offset":1,"slot":"4","type":"t_bool"},{"astId":2084,"contract":"contracts/TrafficEnforcement.sol:TrafficEnforcement","label":"judgeNotes","offset":0,"slot":"5","type":"t_string_storage"}],"numberOfBytes":"192"},"t_struct(Officer)2069_storage":{"encoding":"inplace","label":"struct TrafficEnforcement.Officer","members":[{"astId":2060,"contract":"contracts/TrafficEnforcement.sol:TrafficEnforcement","label":"officerId","offset":0,"slot":"0","type":"t_address"},{"astId":2062,"contract":"contracts/TrafficEnforcement.sol:TrafficEnforcement","label":"name","offset":0,"slot":"1","type":"t_string_storage"},{"astId":2064,"contract":"contracts/TrafficEnforcement.sol:TrafficEnforcement","label":"badgeNumber","offset":0,"slot":"2","type":"t_string_storage"},{"astId":2066,"contract":"contracts/TrafficEnforcement.sol:TrafficEnforcement","label":"isRegistered","offset":0,"slot":"3","type":"t_bool"},{"astId":2068,"contract":"contracts/TrafficEnforcement.sol:TrafficEnforcement","label":"registrationTime","offset":0,"slot":"4","type":"t_uint256"}],"numberOfBytes":"160"},"t_struct(Violation)2057_storage":{"encoding":"inplace","label":"struct TrafficEnforcement.Violation","members":[{"astId":2037,"contract":"contracts/TrafficEnforcement.sol:TrafficEnforcement","label":"violationId","offset":0,"slot":"0","type":"t_bytes32"},{"astId":2039,"contract":"contracts/TrafficEnforcement.sol:TrafficEnforcement","label":"vehicleId","offset":0,"slot":"1","type":"t_string_storage"},{"astId":2041,"contract":"contracts/TrafficEnforcement.sol:TrafficEnforcement","label":"officerId","offset":0,"slot":"2","type":"t_address"},{"astId":2043,"contract":"contracts/TrafficEnforcement.sol:TrafficEnforcement","label":"offenseCode","offset":0,"slot":"3","type":"t_uint256"},{"astId":2045,"contract":"contracts/TrafficEnforcement.sol:TrafficEnforcement","label":"evidenceHash","offset":0,"slot":"4","type":"t_string_storage"},{"astId":2047,"contract":"contracts/TrafficEnforcement.sol:TrafficEnforcement","label":"timestamp","offset":0,"slot":"5","type":"t_uint256"},{"astId":2049,"contract":"contracts/TrafficEnforcement.sol:TrafficEnforcement","label":"fineAmount","offset":0,"slot":"6","type":"t_uint256"},{"astId":2052,"contract":"contracts/TrafficEnforcement.sol:TrafficEnforcement","label":"status","offset":0,"slot":"7","type":"t_enum(ViolationStatus)2034"},{"astId":2054,"contract":"contracts/TrafficEnforcement.sol:TrafficEnforcement","label":"driverId","offset":1,"slot":"7","type":"t_address"},{"astId":2056,"contract":"contracts/TrafficEnforcement.sol:TrafficEnforcement","label":"offenseName","offset":0,"slot":"8","type":"t_string_storage"}],"numberOfBytes":"288"},"t_uint256":{"encoding":"inplace","label":"uint256","numberOfBytes":"32"}}}}}}