{"contracts/TrafficEnforcementV2.sol":{"TrafficEnforcementV2":{"abi":[{"inputs":[],"name":"AccessControlBadConfirmation","type":"error"},{"inputs":[{"internalType":"address","name":"account","type":"address"},{"internalType":"bytes32","name":"neededRole","type":"bytes32"}],"name":"AccessControlUnauthorizedAccount","type":"error"},{"inputs":[{"internalType":"address","name":"target","type":"address"}],"name":"AddressEmptyCode","type":"error"},{"inputs":[{"internalType":"address","name":"implementation","type":"address"}],"name":"ERC1967InvalidImplementation","type":"error"},{"inputs":[],"name":"ERC1967NonPayable","type":"error"},{"inputs":[],"name":"EnforcedPause","type":"error"},{"inputs":[],"name":"ExpectedPause","type":"error"},{"inputs":[],"name":"FailedCall","type":"error"},{"inputs":[],"name":"InvalidInitialization","type":"error"},{"inputs":[],"name":"NotInitializing","type":"error"},{"inputs":[],"name":"ReentrancyGuardReentrantCall","type":"error"},{"inputs":[],"name":"UUPSUnauthorizedCallContext","type":"error"},{"inputs":[{"internalType":"bytes32","name":"slot","type":"bytes32"}],"name":"UUPSUnsupportedProxiableUUID","type":"error"},{"anonymous":false,"inputs":[{"indexed":true,"internalType":"bytes32","name":"violationId","type":"bytes32"},{"indexed":false,"internalType":"bool","name":"approved","type":"bool"},{"indexed":false,"internalType":"string","name":"resolution","type":"string"},{"indexed":true,"internalType":"address","name":"resolvedBy","type":"address"}],"name":"AppealResolved","type":"event"},{"anonymous":false,"inputs":[{"indexed":true,"internalType":"bytes32","name":"violationId","type":"bytes32"},{"indexed":true,"internalType":"address","name":"appellant","type":"address"},{"indexed":false,"internalType":"string","name":"reason","type":"string"}],"name":"AppealSubmitted","type":"event"},{"anonymous":false,"inputs":[{"indexed":false,"internalType":"uint256","name":"newVersion","type":"uint256"}],"name":"ContractUpgraded","type":"event"},{"anonymous":false,"inputs":[{"indexed":true,"internalType":"bytes32","name":"violationId","type":"bytes32"},{"indexed":true,"internalType":"address","name":"paidBy","type":"address"},{"indexed":false,"internalType":"uint256","name":"amount","type":"uint256"}],"name":"FinePaid","type":"event"},{"anonymous":false,"inputs":[{"indexed":true,"internalType":"bytes32","name":"violationId","type":"bytes32"},{"indexed":true,"internalType":"address","name":"refundedTo","type":"address"},{"indexed":false,"internalType":"uint256","name":"amount","type":"uint256"}],"name":"FineRefunded","type":"event"},{"anonymous":false,"inputs":[{"indexed":true,"internalType":"address","name":"withdrawnBy","type":"address"},{"indexed":true,"internalType":"address","name":"recipient","type":"address"},{"indexed":false,"internalType":"uint256","name":"amount","type":"uint256"}],"name":"FundsWithdrawn","type":"event"},{"anonymous":false,"inputs":[{"indexed":false,"internalType":"uint64","name":"version","type":"uint64"}],"name":"Initialized","type":"event"},{"anonymous":false,"inputs":[{"indexed":true,"internalType":"uint32","name":"offenseCode","type":"uint32"},{"indexed":false,"internalType":"uint256","name":"fineAmountKES","type":"uint256"},{"indexed":false,"internalType":"string","name":"name","type":"string"}],"name":"OffenseUpdated","type":"event"},{"anonymous":false,"inputs":[{"indexed":true,"internalType":"address","name":"officerId","type":"address"},{"indexed":true,"internalType":"address","name":"deactivatedBy","type":"address"}],"name":"OfficerDeactivated","type":"event"},{"anonymous":false,"inputs":[{"indexed":true,"internalType":"address","name":"officerId","type":"address"},{"indexed":true,"internalType":"address","name":"reactivatedBy","type":"address"}],"name":"OfficerReactivated","type":"event"},{"anonymous":false,"inputs":[{"indexed":true,"internalType":"address","name":"officerId","type":"address"},{"indexed":false,"internalType":"string","name":"name","type":"string"},{"indexed":false,"internalType":"string","name":"badgeNumber","type":"string"},{"indexed":true,"internalType":"address","name":"registeredBy","type":"address"}],"name":"OfficerRegistered","type":"event"},{"anonymous":false,"inputs":[{"indexed":false,"internalType":"address","name":"account","type":"address"}],"name":"Paused","type":"event"},{"anonymous":false,"inputs":[{"indexed":true,"internalType":"address","name":"claimant","type":"address"},{"indexed":false,"internalType":"uint256","name":"amount","type":"uint256"}],"name":"RefundClaimed","type":"event"},{"anonymous":false,"inputs":[{"indexed":true,"internalType":"bytes32","name":"role","type":"bytes32"},{"indexed":true,"internalType":"bytes32","name":"previousAdminRole","type":"bytes32"},{"indexed":true,"internalType":"bytes32","name":"newAdminRole","type":"bytes32"}],"name":"RoleAdminChanged","type":"event"},{"anonymous":false,"inputs":[{"indexed":true,"internalType":"bytes32","name":"role","type":"bytes32"},{"indexed":true,"internalType":"address","name":"account","type":"address"},{"indexed":true,"internalType":"address","name":"sender","type":"address"}],"name":"RoleGranted","type":"event"},{"anonymous":false,"inputs":[{"indexed":true,"internalType":"bytes32","name":"role","type":"bytes32"},{"indexed":true,"internalType":"address","name":"account","type":"address"},{"indexed":true,"internalType":"address","name":"sender","type":"address"}],"name":"RoleRevoked","type":"event"},{"anonymous":false,"inputs":[{"indexed":false,"internalType":"address","name":"account","type":"address"}],"name":"Unpaused","type":"event"},{"anonymous":false,"inputs":[{"indexed":true,"internalType":"address","name":"implementation","type":"address"}],"name":"Upgraded","type":"event"},{"anonymous":false,"inputs":[{"indexed":true,"internalType":"bytes32","name":"violationId","type":"bytes32"},{"indexed":false,"internalType":"string","name":"vehicleId","type":"string"},{"indexed":true,"internalType":"uint32","name":"offenseCode","type":"uint32"},{"indexed":false,"internalType":"uint256","name":"fineAmount","type":"uint256"},{"indexed":true,"internalType":"address","name":"officerId","type":"address"}],"name":"ViolationLogged","type":"event"},{"stateMutability":"payable","type":"fallback"},{"inputs":[],"name":"ADMIN_ROLE","outputs":[{"internalType":"bytes32","name":"","type":"bytes32"}],"stateMutability":"view","type":"function"},{"inputs":[],"name":"APPEAL_COOLDOWN","outputs":[{"internalType":"uint256","name":"","type":"uint256"}],"stateMutability":"view","type":"function"},{"inputs":[],"name":"DEFAULT_ADMIN_ROLE","outputs":[{"internalType":"bytes32","name":"","type":"bytes32"}],"stateMutability":"view","type":"function"},{"inputs":[],"name":"JUDGE_ROLE","outputs":[{"internalType":"bytes32","name":"","type":"bytes32"}],"stateMutability":"view","type":"function"},{"inputs":[],"name":"KES_TO_WEI_RATE","outputs":[{"internalType":"uint256","name":"","type":"uint256"}],"stateMutability":"view","type":"function"},{"inputs":[],"name":"MAX_APPEALS_PER_VIOLATION","outputs":[{"internalType":"uint256","name":"","type":"uint256"}],"stateMutability":"view","type":"function"},{"inputs":[],"name":"MAX_BADGE_LENGTH","outputs":[{"internalType":"uint256","name":"","type":"uint256"}],"stateMutability":"view","type":"function"},{"inputs":[],"name":"MAX_STRING_LENGTH","outputs":[{"internalType":"uint256","name":"","type":"uint256"}],"stateMutability":"view","type":"function"},{"inputs":[],"name":"MAX_VEHICLE_ID_LENGTH","outputs":[{"internalType":"uint256","name":"","type":"uint256"}],"stateMutability":"view","type":"function"},{"inputs":[],"name":"MAX_VIOLATIONS_PER_DAY","outputs":[{"internalType":"uint256","name":"","type":"uint256"}],"stateMutability":"view","type":"function"},{"inputs":[],"name":"OFFICER_MANAGER_ROLE","outputs":[{"internalType":"bytes32","name":"","type":"bytes32"}],"stateMutability":"view","type":"function"},{"inputs":[],"name":"OFFICER_ROLE","outputs":[{"internalType":"bytes32","name":"","type":"bytes32"}],"stateMutability":"view","type":"function"},{"inputs":[],"name":"TREASURY_ROLE","outputs":[{"internalType":"bytes32","name":"","type":"bytes32"}],"stateMutability":"view","type":"function"},{"inputs":[],"name":"UPGRADER_ROLE","outputs":[{"internalType":"bytes32","name":"","type":"bytes32"}],"stateMutability":"view","type":"function"},{"inputs":[],"name":"UPGRADE_INTERFACE_VERSION","outputs":[{"internalType":"string","name":"","type":"string"}],"stateMutability":"view","type":"function"},{"inputs":[{"internalType":"bytes32","name":"","type":"bytes32"}],"name":"appeals","outputs":[{"internalType":"bytes32","name":"violationId","type":"bytes32"},{"internalType":"address","name":"appellant","type":"address"},{"internalType":"string","name":"appealReason","type":"string"},{"internalType":"uint256","name":"appealTime","type":"uint256"},{"internalType":"bool","name":"resolved","type":"bool"},{"internalType":"bool","name":"approved","type":"bool"},{"internalType":"string","name":"resolution","type":"string"},{"internalType":"address","name":"resolvedBy","type":"address"},{"internalType":"uint256","name":"appealCount","type":"uint256"},{"internalType":"uint256","name":"lastAppealTime","type":"uint256"}],"stateMutability":"view","type":"function"},{"inputs":[],"name":"claimRefund","outputs":[],"stateMutability":"nonpayable","type":"function"},{"inputs":[{"internalType":"address","name":"officerId","type":"address"}],"name":"deactivateOfficer","outputs":[],"stateMutability":"nonpayable","type":"function"},{"inputs":[{"internalType":"bytes32","name":"role","type":"bytes32"}],"name":"getRoleAdmin","outputs":[{"internalType":"bytes32","name":"","type":"bytes32"}],"stateMutability":"view","type":"function"},{"inputs":[{"internalType":"string","name":"vehicleId","type":"string"},{"internalType":"uint256","name":"offset","type":"uint256"},{"internalType":"uint256","name":"limit","type":"uint256"}],"name":"getVehicleViolations","outputs":[{"internalType":"bytes32[]","name":"","type":"bytes32[]"}],"stateMutability":"view","type":"function"},{"inputs":[{"internalType":"bytes32","name":"violationId","type":"bytes32"}],"name":"getViolation","outputs":[{"components":[{"internalType":"bytes32","name":"violationId","type":"bytes32"},{"internalType":"string","name":"vehicleId","type":"string"},{"internalType":"address","name":"officerId","type":"address"},{"internalType":"uint32","name":"offenseCode","type":"uint32"},{"internalType":"string","name":"evidenceHash","type":"string"},{"internalType":"uint256","name":"timestamp","type":"uint256"},{"internalType":"uint256","name":"fineAmount","type":"uint256"},{"internalType":"enum TrafficEnforcementV2.ViolationStatus","name":"status","type":"uint8"},{"internalType":"address","name":"driverId","type":"address"},{"internalType":"uint256","name":"paidAmount","type":"uint256"},{"internalType":"address","name":"paidBy","type":"address"}],"internalType":"struct TrafficEnforcementV2.Violation","name":"","type":"tuple"}],"stateMutability":"view","type":"function"},{"inputs":[{"internalType":"bytes32","name":"role","type":"bytes32"},{"internalType":"address","name":"account","type":"address"}],"name":"grantRole","outputs":[],"stateMutability":"nonpayable","type":"function"},{"inputs":[{"internalType":"bytes32","name":"role","type":"bytes32"},{"internalType":"address","name":"account","type":"address"}],"name":"hasRole","outputs":[{"internalType":"bool","name":"","type":"bool"}],"stateMutability":"view","type":"function"},{"inputs":[{"internalType":"address","name":"_admin","type":"address"}],"name":"initialize","outputs":[],"stateMutability":"nonpayable","type":"function"},{"inputs":[{"internalType":"address","name":"officerId","type":"address"}],"name":"isOfficerActive","outputs":[{"internalType":"bool","name":"","type":"bool"}],"stateMutability":"view","type":"function"},{"inputs":[{"internalType":"string","name":"vehicleId","type":"string"},{"internalType":"uint32","name":"offenseCode","type":"uint32"},{"internalType":"string","name":"evidenceHash","type":"string"},{"internalType":"address","name":"driverId","type":"address"}],"name":"logViolation","outputs":[{"internalType":"bytes32","name":"","type":"bytes32"}],"stateMutability":"nonpayable","type":"function"},{"inputs":[{"internalType":"uint32","name":"","type":"uint32"}],"name":"offenses","outputs":[{"internalType":"uint256","name":"fineAmountKES","type":"uint256"},{"internalType":"string","name":"name","type":"string"},{"internalType":"bool","name":"isActive","type":"bool"}],"stateMutability":"view","type":"function"},{"inputs":[{"internalType":"address","name":"","type":"address"},{"internalType":"uint256","name":"","type":"uint256"}],"name":"officerDailyViolations","outputs":[{"internalType":"uint256","name":"","type":"uint256"}],"stateMutability":"view","type":"function"},{"inputs":[{"internalType":"address","name":"","type":"address"}],"name":"officers","outputs":[{"internalType":"address","name":"officerId","type":"address"},{"internalType":"string","name":"name","type":"string"},{"internalType":"string","name":"badgeNumber","type":"string"},{"internalType":"bool","name":"isActive","type":"bool"},{"internalType":"uint256","name":"registrationTime","type":"uint256"},{"internalType":"uint256","name":"dailyViolationCount","type":"uint256"},{"internalType":"uint256","name":"lastViolationDate","type":"uint256"}],"stateMutability":"view","type":"function"},{"inputs":[],"name":"pause","outputs":[],"stateMutability":"nonpayable","type":"function"},{"inputs":[],"name":"paused","outputs":[{"internalType":"bool","name":"","type":"bool"}],"stateMutability":"view","type":"function"},{"inputs":[{"internalType":"bytes32","name":"violationId","type":"bytes32"}],"name":"payFine","outputs":[],"stateMutability":"payable","type":"function"},{"inputs":[{"internalType":"address","name":"","type":"address"}],"name":"pendingRefunds","outputs":[{"internalType":"uint256","name":"","type":"uint256"}],"stateMutability":"view","type":"function"},{"inputs":[],"name":"proxiableUUID","outputs":[{"internalType":"bytes32","name":"","type":"bytes32"}],"stateMutability":"view","type":"function"},{"inputs":[{"internalType":"address","name":"officerId","type":"address"},{"internalType":"string","name":"name","type":"string"},{"internalType":"string","name":"badgeNumber","type":"string"}],"name":"registerOfficer","outputs":[],"stateMutability":"nonpayable","type":"function"},{"inputs":[{"internalType":"bytes32","name":"role","type":"bytes32"},{"internalType":"address","name":"callerConfirmation","type":"address"}],"name":"renounceRole","outputs":[],"stateMutability":"nonpayable","type":"function"},{"inputs":[{"internalType":"bytes32","name":"violationId","type":"bytes32"},{"internalType":"bool","name":"approve","type":"bool"},{"internalType":"string","name":"resolution","type":"string"}],"name":"resolveAppeal","outputs":[],"stateMutability":"nonpayable","type":"function"},{"inputs":[{"internalType":"bytes32","name":"role","type":"bytes32"},{"internalType":"address","name":"account","type":"address"}],"name":"revokeRole","outputs":[],"stateMutability":"nonpayable","type":"function"},{"inputs":[{"internalType":"bytes32","name":"violationId","type":"bytes32"},{"internalType":"string","name":"appealReason","type":"string"}],"name":"submitAppeal","outputs":[],"stateMutability":"nonpayable","type":"function"},{"inputs":[{"internalType":"bytes4","name":"interfaceId","type":"bytes4"}],"name":"supportsInterface","outputs":[{"internalType":"bool","name":"","type":"bool"}],"stateMutability":"view","type":"function"},{"inputs":[],"name":"totalFinesPaid","outputs":[{"internalType":"uint256","name":"","type":"uint256"}],"stateMutability":"view","type":"function"},{"inputs":[],"name":"totalFinesRefunded","outputs":[{"internalType":"uint256","name":"","type":"uint256"}],"stateMutability":"view","type":"function"},{"inputs":[],"name":"totalViolations","outputs":[{"internalType":"uint256","name":"","type":"uint256"}],"stateMutability":"view","type":"function"},{"inputs":[],"name":"unpause","outputs":[],"stateMutability":"nonpayable","type":"function"},{"inputs":[{"internalType":"uint32","name":"offenseCode","type":"uint32"},{"internalType":"uint256","name":"fineAmountKES","type":"uint256"},{"internalType":"string","name":"name","type":"string"},{"internalType":"bool","name":"isActive","type":"bool"}],"name":"updateOffense","outputs":[],"stateMutability":"nonpayable","type":"function"},{"inputs":[{"internalType":"address","name":"newImplementation","type":"address"},{"internalType":"bytes","name":"data","type":"bytes"}],"name":"upgradeToAndCall","outputs":[],"stateMutability":"payable","type":"function"},{"inputs":[{"internalType":"string","name":"","type":"string"},{"internalType":"uint256","name":"","type":"uint256"}],"name":"vehicleViolations","outputs":[{"internalType":"bytes32","name":"","type":"bytes32"}],"stateMutability":"view","type":"function"},{"inputs":[],"name":"version","outputs":[{"internalType":"uint256","name":"","type":"uint256"}],"stateMutability":"view","type":"function"},{"inputs":[{"internalType":"bytes32","name":"","type":"bytes32"}],"name":"violations","outputs":[{"internalType":"bytes32","name":"violationId","type":"bytes32"},{"internalType":"string","name":"vehicleId","type":"string"},{"internalType":"address","name":"officerId","type":"address"},{"internalType":"uint32","name":"offenseCode","type":"uint32"},{"internalType":"string","name":"evidenceHash","type":"string"},{"internalType":"uint256","name":"timestamp","type":"uint256"},{"internalType":"uint256","name":"fineAmount","type":"uint256"},{"internalType":"enum TrafficEnforcementV2.ViolationStatus","name":"status","type":"uint8"},{"internalType":"address","name":"driverId","type":"address"},{"internalType":"uint256","name":"paidAmount","type":"uint256"},{"internalType":"address","name":"paidBy","type":"address"}],"stateMutability":"view","type":"function"},{"inputs":[{"internalType":"address","name":"recipient","type":"address"},{"internalType":"uint256","name":"amount","type":"uint256"}],"name":"withdrawFunds","outputs":[],"stateMutability":"nonpayable","type":"function"},{"stateMutability":"payable","type":"receive"}],"evm":{"bytecode":{"linkReferences":{},"object":"60a0806040523461002a57306080526150379081610030823960805181818161316a01526132240152f35b600080fdfe608080604052600436101561001a575b50361561001857005b005b60003560e01c90816301ffc9a7146140f25750806308353dfe146140d6578063084866dd14614028578063248a9ca314613fec57806328cdc02814613f1d5780632e75fcd114613b2d5780632f2ff15d14613ae157806334ccc5ea14613ac457806336568abe14613a7d5780633f4ba83a14613a065780634719c01d14613930578063480310771461349b57806349e6368b1461347d5780634f1ef286146131d457806352d1902d1461315757806354fd4d50146131395780635c975abb146131095780635dd6671714612f315780637264953b14612f085780637310e88514612e8f57806375b238fc14612e545780638456cb5914612ded578063888d8ad714612dd15780638beb3cc514612db557806391d1485414612d5b578063a217fddf14612d3f578063a84d407414612d23578063a95c664814612b20578063a98ffb5914612aae578063ad3cb1cc14612a64578063adca20b014612a29578063af4ac9e8146129bf578063b5545a3c146128eb578063b613b114146128b1578063b6d7c6b114612893578063bb019f7d146127af578063c0e1f66614612791578063c107532914612622578063c197e3e91461259d578063c22e770114611f29578063c345a74c14611d40578063c4d66de814610840578063d11a57ec14610805578063d547741f146107b9578063d5b0e27c14610771578063d6fd623914610753578063e0e4758814610718578063e8b9fd7b146102af578063f5b1bc3a1461028d5763f72c0d8b1461024d573861000f565b346102885760003660031901126102885760206040517f189ab7a9244df0848122154315af71fe140f3db0fe014031783b0946b8c9d2e38152f35b600080fd5b3461028857600036600319011261028857602060405166038d7ea4c680008152f35b34610288576040366003190112610288576001600160401b0360043560248035838111610288576102e490369060040161435d565b90826000526020936000855261030360046040600020015415156143c9565b61030b61483a565b8360005260008552604060002091600386526006604060002093019081549260ff841660068110156107035780159081156106f8575b50156106b457600884901c6001600160a01b031633036106705785511561062c57600485019260ff8454166105ea576007860194855460038110156105af57610544575b60029060ff19161790558685556001808601336001600160601b0360a01b8254161790556002860192875192831161053057506103cc826103c68554614171565b8561442c565b8890601f831160011461049f575091816104719694927f4db460638e10f96770c2aa1f83a1118ab50350e5585a645f42d2ca04d5574e71989694600091610494575b508160011b916000199060031b1c19161790555b42600384015561ffff1981541690556000600583016104418154614171565b601f8111610476575b50556104568154614740565b905560084291015560405191829186835233968301906142e6565b0390a3005b81835289832061048e91601f0160051c810190614415565b8961044a565b90508601518b61040e565b90601f198316846000528a600020926000905b8c83831061051857505050927f4db460638e10f96770c2aa1f83a1118ab50350e5585a645f42d2ca04d5574e7198969492600192826104719a9896106104ff575b5050811b019055610422565b88015160001960f88460031b161c191690558b806104f3565b8b8501518655948101949384019391909101906104b2565b634e487b7160e01b60009081526041600452fd5b600887015462093a80810180911161059a574210156103855760405162461bcd60e51b8152600481018b90526016818601527541707065616c20636f6f6c646f776e2061637469766560501b6044820152606490fd5b84634e487b7160e01b60005260116004526000fd5b60405162461bcd60e51b8152600481018c90526014818701527313585e08185c1c19585b1cc8195e18d95959195960621b6044820152606490fd5b6064838a6040519162461bcd60e51b83528160048401528201527f50726576696f75732061707065616c20616c7265616479207265736f6c7665646044820152fd5b60405162461bcd60e51b815260048101899052601d818401527f41707065616c20726561736f6e2063616e6e6f7420626520656d7074790000006044820152606490fd5b60405162461bcd60e51b815260048101899052601a818401527f4f6e6c7920746865206472697665722063616e2061707065616c0000000000006044820152606490fd5b60405162461bcd60e51b815260048101899052601c818401527f43616e6e6f742061707065616c20746869732076696f6c6174696f6e000000006044820152606490fd5b600191501489610341565b82634e487b7160e01b60005260216004526000fd5b346102885760003660031901126102885760206040517f9c4e6fd68fbdec6e3075ec7bfba710532af019aea93f5f59ebfe5a9d1a0b894e8152f35b34610288576000366003190112610288576020600554604051908152f35b34610288576040366003190112610288576001600160a01b03610792614145565b16600052600860205260406000206024356000526020526020604060002054604051908152f35b34610288576040366003190112610288576100186004356107d861415b565b9080600052600080516020614f62833981519152602052610800600160406000200154614807565b614ddc565b346102885760003660031901126102885760206040517fe1dcbdb91df27212a29bc27177c840cf2f819ecf2187432e1fac86c2dd5dfca98152f35b3461028857602036600319011261028857610859614145565b600080516020614fc283398151915254906001600160401b03821680159081611d30575b6001149081611d26575b159081611d1d575b50611d0b576109349060016001600160401b0319841617600080516020614fc28339815191525560ff8360401c1615611cde575b6108cb614e8f565b6108d3614e8f565b6108db614e8f565b6108e3614e8f565b6001600080516020614fa2833981519152556108fd614e8f565b610906816148f1565b506109108161497f565b5061091a81614a29565b5061092481614ad3565b5061092e81614b7d565b50614c27565b506001600a55604051610946816141ab565b60008152604051610956816141ab565b602581527f5370656564696e6720312d35206b7068206f766572206c696d697420285761726020820152646e696e672960d81b604082015260208201908152604082019060018252600160005260046020526040600020925183556001830190518051906001600160401b038211611763576109d6826103c68554614171565b602090601f8311600114611c6f57918060029492610a23979694600092611c64575b50508160011b916000199060031b1c19161790555b51151591019060ff801983541691151516179055565b60405190610a30826141ab565b6101f48252604051610a41816141e2565b601c81527f5370656564696e6720362d3130206b7068206f766572206c696d697400000000602082015260208301908152600160408401526002600052600460205260406000209083518255519283516001600160401b03811161176357610ab981610ab06001860154614171565b6001860161442c565b6020601f8211600114611c06579181604092600294610b0a9798600092611779575b50508160011b916000199060031b1c19161760018501555b0151151591019060ff801983541691151516179055565b60405190610b17826141ab565b610bb88252604051610b28816141e2565b601d81527f5370656564696e672031312d3135206b7068206f766572206c696d6974000000602082015260208301908152600160408401526003600052600460205260406000209083518255519283516001600160401b03811161176357610b9781610ab06001860154614171565b6020601f8211600114611ba8579181604092600294610be697986000926117795750508160011b916000199060031b1c19161760018501550151151591019060ff801983541691151516179055565b60405190610bf3826141ab565b6127108252604051610c04816141e2565b601d81527f5370656564696e672031362d3230206b7068206f766572206c696d6974000000602082015260208301908152600160408401526004600052600460205260406000209083518255519283516001600160401b03811161176357610c7381610ab06001860154614171565b6020601f8211600114611b4a579181604092600294610cc297986000926117795750508160011b916000199060031b1c19161760018501550151151591019060ff801983541691151516179055565b60405190610ccf826141ab565b6101f48252604051610ce0816141e2565b601881527f4661696c75726520746f2077656172207365617462656c740000000000000000602082015260208301908152600160408401526005600052600460205260406000209083518255519283516001600160401b03811161176357610d4f81610ab06001860154614171565b6020601f8211600114611aec579181604092600294610d9e97986000926117795750508160011b916000199060031b1c19161760018501550151151591019060ff801983541691151516179055565b60405190610dab826141ab565b610bb88252604051610dbc816141e2565b601d81527f44726976696e6720776974686f75742076616c6964206c6963656e7365000000602082015260208301908152600160408401526006600052600460205260406000209083518255519283516001600160401b03811161176357610e2b81610ab06001860154614171565b6020601f8211600114611a8e579181604092600294610e7a97986000926117795750508160011b916000199060031b1c19161760018501550151151591019060ff801983541691151516179055565b60405190610e87826141ab565b610bb88252604051610e98816141e2565b601d81527f4661696c75726520746f206f6265792074726166666963207369676e73000000602082015260208301908152600160408401526007600052600460205260406000209083518255519283516001600160401b03811161176357610f0781610ab06001860154614171565b6020601f8211600114611a30579181604092600294610f5697986000926117795750508160011b916000199060031b1c19161760018501550151151591019060ff801983541691151516179055565b60405190610f63826141ab565b6113888252604051610f74816141ab565b602781527f4661696c75726520746f2073746f70207768656e207369676e616c656420627960208201526620706f6c69636560c81b604082015260208301908152600160408401526008600052600460205260406000209083518255519283516001600160401b03811161176357610ff381610ab06001860154614171565b6020601f82116001146119d257918160409260029461104297986000926117795750508160011b916000199060031b1c19161760018501550151151591019060ff801983541691151516179055565b6040519061104f826141ab565b6127108252604051611060816141e2565b602081527f43617573696e67206f62737472756374696f6e20776974682076656869636c65602082015260208301908152600160408401526009600052600460205260406000209083518255519283516001600160401b038111611763576110cf81610ab06001860154614171565b6020601f821160011461197457918160409260029461111e97986000926117795750508160011b916000199060031b1c19161760018501550151151591019060ff801983541691151516179055565b6040519061112b826141ab565b611388825260405161113c816141ab565b602981527f44726976696e67206f6e20706176656d656e74206f72207065646573747269616020820152686e2077616c6b77617960b81b60408201526020830190815260016040840152600a600052600460205260406000209083518255519283516001600160401b038111611763576111bd81610ab06001860154614171565b6020601f821160011461191657918160409260029461120c97986000926117795750508160011b916000199060031b1c19161760018501550151151591019060ff801983541691151516179055565b60405190611219826141ab565b612710825260405161122a816141ab565b602581527f44726976696e6720776974686f7574206964656e74696669636174696f6e20706020820152646c6174657360d81b60408201526020830190815260016040840152600b600052600460205260406000209083518255519283516001600160401b038111611763576112a781610ab06001860154614171565b6020601f82116001146118b85791816040926002946112f697986000926117795750508160011b916000199060031b1c19161760018501550151151591019060ff801983541691151516179055565b60405190611303826141ab565b6103e88252604051611314816141ab565b603381527f4d6f746f726379636c65206361727279696e67206d6f7265207468616e206f6e60208201527232903834b63634b7b7103830b9b9b2b733b2b960691b60408201526020830190815260016040840152600c600052600460205260406000209083518255519283516001600160401b0381116117635761139f81610ab06001860154614171565b6020601f821160011461185a5791816040926002946113ee97986000926117795750508160011b916000199060031b1c19161760018501550151151591019060ff801983541691151516179055565b604051906113fb826141ab565b610bb8825260405161140c816141e2565b6007815266546f7574696e6760c81b60208201526020830190815260016040840152600d600052600460205260406000209083518255519283516001600160401b0381116117635761146581610ab06001860154614171565b6020601f82116001146117fc5791816040926002946114b497986000926117795750508160011b916000199060031b1c19161760018501550151151591019060ff801983541691151516179055565b604051906114c1826141ab565b6107d082526040516114d2816141e2565b602081527f5573696e67206d6f62696c652070686f6e65207768696c652064726976696e6760208201526020830190815260016040840152600e600052600460205260406000209083518255519283516001600160401b0381116117635761154181610ab06001860154614171565b6020601f821160011461178457918160409260029461159097986000926117795750508160011b916000199060031b1c19161760018501550151151591019060ff801983541691151516179055565b6040519061159d826141ab565b61271082526040516115ae816141ab565b602c81527f44726976696e6720776974686f75742076616c696420696e7370656374696f6e60208201526b20636572746966696361746560a01b604082015260208301908152604083019060018252600f60005260046020526040600020935184556001840190518051906001600160401b03821161176357611635826103c68554614171565b602090601f83116001146116f1579282600293611682969360ff99966000926116e65750508160011b916000199060031b1c191617905551151591019060ff801983541691151516179055565b60401c161561168d57005b68ff000000000000000019600080516020614fc28339815191525416600080516020614fc2833981519152557fc7f505b2f371ae2175ee4913f4499e1f2633a7b5936321eed1cdaeb6115181d2602060405160018152a1005b0151905089806109f8565b90601f198316918460005260206000209260005b81811061174b575093611682969360ff9996936001938360029810611732575b505050811b019055610a0d565b015160001960f88460031b161c19169055898080611725565b92936020600181928786015181550195019301611705565b634e487b7160e01b600052604160045260246000fd5b015190508880610adb565b6001840160005260206000209560005b601f19841681106117e4575082611590969760029593600193604096601f198116106117cb575b505050811b016001850155610af3565b015160001960f88460031b161c191690558880806117bb565b82820151885560019097019660209283019201611794565b6001840160005260206000209560005b601f19841681106118425750826114b4969760029593600193604096601f198116106117cb57505050811b016001850155610af3565b8282015188556001909701966020928301920161180c565b6001840160005260206000209560005b601f19841681106118a05750826113ee969760029593600193604096601f198116106117cb57505050811b016001850155610af3565b8282015188556001909701966020928301920161186a565b6001840160005260206000209560005b601f19841681106118fe5750826112f6969760029593600193604096601f198116106117cb57505050811b016001850155610af3565b828201518855600190970196602092830192016118c8565b6001840160005260206000209560005b601f198416811061195c57508261120c969760029593600193604096601f198116106117cb57505050811b016001850155610af3565b82820151885560019097019660209283019201611926565b6001840160005260206000209560005b601f19841681106119ba57508261111e969760029593600193604096601f198116106117cb57505050811b016001850155610af3565b82820151885560019097019660209283019201611984565b6001840160005260206000209560005b601f1984168110611a18575082611042969760029593600193604096601f198116106117cb57505050811b016001850155610af3565b828201518855600190970196602092830192016119e2565b6001840160005260206000209560005b601f1984168110611a76575082610f56969760029593600193604096601f198116106117cb57505050811b016001850155610af3565b82820151885560019097019660209283019201611a40565b6001840160005260206000209560005b601f1984168110611ad4575082610e7a969760029593600193604096601f198116106117cb57505050811b016001850155610af3565b82820151885560019097019660209283019201611a9e565b6001840160005260206000209560005b601f1984168110611b32575082610d9e969760029593600193604096601f198116106117cb57505050811b016001850155610af3565b82820151885560019097019660209283019201611afc565b6001840160005260206000209560005b601f1984168110611b90575082610cc2969760029593600193604096601f198116106117cb57505050811b016001850155610af3565b82820151885560019097019660209283019201611b5a565b6001840160005260206000209560005b601f1984168110611bee575082610be6969760029593600193604096601f198116106117cb57505050811b016001850155610af3565b82820151885560019097019660209283019201611bb8565b6001840160005260206000209560005b601f1984168110611c4c575082610b0a969760029593600193604096601f198116106117cb57505050811b016001850155610af3565b82820151885560019097019660209283019201611c16565b0151905088806109f8565b90601f198316918460005260206000209260005b818110611cc65750926001928592610a239998966002989610611cad57505050811b019055610a0d565b015160001960f88460031b161c19169055888080611725565b92936020600181928786015181550195019301611c83565b68ffffffffffffffffff1983166801000000000000000117600080516020614fc2833981519152556108c3565b60405163f92ee8a960e01b8152600490fd5b9050158361088f565b303b159150610887565b604084901c60ff1615915061087d565b60208060031936011261028857600435611d58614e5f565b8060005260008252611d7360046040600020015415156143c9565b611d7b61483a565b80600052600082526040600020600681019081549060ff82166006811015611f1357611ece576005810192835492833410611e925760ff191660011790556007810182905560080180546001600160a01b03191633179055600654611de09190614471565b6006558054803411611e2e575b505460405190815233927f4968e19fd49d27ef126400fd881e1c88b7c6cd35c3cc4bf17b1b4b0ff6a3ba3f91a36001600080516020614fa283398151915255005b60008080611e3d8194346145e0565b335af1611e4861455b565b5015611e545783611ded565b60405162461bcd60e51b81526004810184905260166024820152751499599d5b99081d1c985b9cd9995c8819985a5b195960521b6044820152606490fd5b60405162461bcd60e51b8152600481018890526014602482015273125b9cdd59999a58da595b9d081c185e5b595b9d60621b6044820152606490fd5b60405162461bcd60e51b815260048101869052601760248201527f56696f6c6174696f6e206973206e6f7420756e706169640000000000000000006044820152606490fd5b634e487b7160e01b600052602160045260246000fd5b34610288576080366003190112610288576004356001600160401b03811161028857611f5990369060040161435d565b63ffffffff6024351660243503610288576044356001600160401b03811161028857611f8990369060040161435d565b90606435906001600160a01b038216820361028857336000908152600080516020614fe28339815191526020526040902054600080516020614f428339815191529060ff161561257f575033600052600860205260406000206201518042046000526020526064604060002054101561253a57612008815115156144ca565b61201660148251111561450f565b612022835115156144ca565b6120316101f48451111561450f565b6120456001600160a01b038316151561447e565b61204d61483a565b63ffffffff60243516600052600460205260ff60026040600020015416156124f65733600052600160205260056040600020600681016201518042048154036124e2575b500161209d8154614740565b905563ffffffff60243516600052600460205260406000205466038d7ea4c680009381858102048514821517156124cc5760405161211d60588286516120ea816020840160208b016142c3565b81013360601b602082015242603482015263ffffffff60e01b60243560e01b1660548201520360388101845201826141fd565b602081519101209360405191612132836141c6565b85835284602084015233604084015263ffffffff60243516606084015260808301524260a083015285830260c0830152600060e083015260018060a01b03166101008201526000610120820152600061014082015283600052600060205260406000208151815560208201518051906001600160401b0382116117635781906121cb826121c26001870154614171565b6001870161442c565b602090601f831160011461245a5760009261244f575b50508160011b916000199060031b1c19161760018201555b6002810160018060a01b0360408401511681549063ffffffff60a01b606086015160a01b16916001600160401b0360c01b161717905560808201518051906001600160401b038211611763578190612261826122586003870154614171565b6003870161442c565b602090601f83116001146123dd576000926123d2575b50508160011b916000199060031b1c19161760038201555b60a0820151600482015560c0820151600582015560e0820151906006821015611f1357600891600682015460ff610100600160a81b03610100870151861b169216906affffffffffffffffffffff60a81b16171760068201556101208301516007820155019061014060018060a01b03910151166001600160601b0360a01b825416179055604051602081845161232981838589016142c3565b810160028152030190209384549468010000000000000000861015611763578561235a91600160209801815561438e565b81549060031b9086821b91600019901b191617905561237a600554614740565b600555612392604051936040855260408501906142e6565b910284830152827f0c7435df2cae2e574db57309e5cb9eff1b75b4b683990c63adeafb3947816a1233938063ffffffff60243516940390a4604051908152f35b015190508880612277565b9250600384016000526020600020906000935b601f1984168510612434576001945083601f1981161061241b575b505050811b01600382015561228f565b015160001960f88460031b161c1916905588808061240b565b818101518355602094850194600190930192909101906123f0565b0151905088806121e1565b9250600184016000526020600020906000935b601f19841685106124b1576001945083601f19811610612498575b505050811b0160018201556121f9565b015160001960f88460031b161c19169055888080612488565b8181015183556020948501946001909301929091019061246d565b634e487b7160e01b600052601160045260246000fd5b600083830155620151804204905585612091565b606460405162461bcd60e51b815260206004820152602060248201527f496e76616c6964206f7220696e616374697665206f6666656e736520636f64656044820152fd5b60405162461bcd60e51b815260206004820152601e60248201527f4461696c792076696f6c6174696f6e206c696d697420657863656564656400006044820152606490fd5b6044906040519063e2517d3f60e01b82523360048301526024820152fd5b34610288576060366003190112610288576004356001600160401b038111610288576125d06125dd91369060040161435d565b6044359060243590614601565b6040518091602080830160208452825180915260206040850193019160005b82811061260b57505050500390f35b8351855286955093810193928101926001016125fc565b346102885760403660031901126102885761263b614145565b3360009081527f1069ffe2b90bfd470f40f3bf820141bb4d4b475d03084db5dcfb8152047badf7602052604090205460243591907fe1dcbdb91df27212a29bc27177c840cf2f819ecf2187432e1fac86c2dd5dfca99060ff161561257f57506126a2614e5f565b47821161274c576001600160a01b0316908115612713576126d3600080808085875af16126cd61455b565b5061458b565b6040519081527fa92ff919b850e4909ab2261d907ef955f11bc1716733a6cbece38d163a69af8a60203392a36001600080516020614fa283398151915255005b60405162461bcd60e51b8152602060048201526011602482015270125b9d985b1a59081c9958da5c1a595b9d607a1b6044820152606490fd5b60405162461bcd60e51b815260206004820152601d60248201527f496e73756666696369656e7420636f6e74726163742062616c616e63650000006044820152606490fd5b34610288576000366003190112610288576020600754604051908152f35b34610288576020366003190112610288576004356000526000602052604060002080546127de6001830161421e565b600283015490926001600160a01b03906127fa6003820161421e565b91600482015493600583015461285e6006850154928460086007880154970154169663ffffffff61283f6040519c8d809d6020610160928392815201528d01906142e6565b9287811660408d015260a01c1660608b015289820360808b01526142e6565b9560a088015260c087015261287960e0870160ff83166143bc565b60081c166101008501526101208401526101408301520390f35b3461028857600036600319011261028857602060405162093a808152f35b34610288576020366003190112610288576001600160a01b036128d2614145565b1660005260096020526020604060002054604051908152f35b3461028857600036600319011261028857612904614e5f565b61290c61483a565b33600052600960205260406000205480156129855733600052600960205260006040812055612945600080808085335af16126cd61455b565b6040519081527f358fe4192934d3bf28ae181feda1f4bd08ca67f5e2fad55582cce5eb67304ae960203392a26001600080516020614fa283398151915255005b60405162461bcd60e51b81526020600482015260126024820152714e6f2070656e64696e6720726566756e647360701b6044820152606490fd5b346102885760203660031901126102885763ffffffff6129dd61437b565b1660005260046020526040600020805460ff60026129fd6001850161421e565b93015416612a1d60405193849384526060602085015260608401906142e6565b90151560408301520390f35b346102885760003660031901126102885760206040517fc6ad931175da1471673417ed857aec62a6cf3071baeff703ef4a5a1f95adb2318152f35b3461028857600036600319011261028857612aaa604051612a84816141e2565b60058152640352e302e360dc1b60208201526040519182916020835260208301906142e6565b0390f35b34610288576020366003190112610288576001600160a01b03612acf614145565b1680600052600160205260ff6003604060002001541680612af8575b6020906040519015158152f35b506000908152600080516020614fe2833981519152602090815260409091205460ff16612aeb565b34610288576020366003190112610288576004356000610140604051612b45816141c6565b82815260606020820152826040820152826060820152606060808201528260a08201528260c08201528260e082015282610100820152826101208201520152806000526000602052612ba060046040600020015415156143c9565b6000526000602052604060002060405190612bba826141c6565b80548252612bca6001820161421e565b602083015260028101546001600160a01b038116604084015260a01c63ffffffff166060830152612bfd6003820161421e565b6080830152600481015460a0830152600581015460c0830152600681015460ff81166006811015611f135760e084015260018060a01b039060081c166101008301526007810154610120830152600860018060a01b039101541661014082015260405180916020825280516020830152612cc3612c8b602083015161016060408601526101808501906142e6565b60018060a01b03604084015116606085015263ffffffff60608401511660808501526080830151601f198583030160a08601526142e6565b9060a081015160c084015260c081015160e0840152612ceb60e08201516101008501906143bc565b60018060a01b036101008201511661012084015261012081015161014084015261014060018060a01b03910151166101608301520390f35b3461028857600036600319011261028857602060405160328152f35b3461028857600036600319011261028857602060405160008152f35b3461028857604036600319011261028857612d7461415b565b600435600052600080516020614f6283398151915260205260406000209060018060a01b0316600052602052602060ff604060002054166040519015158152f35b3461028857600036600319011261028857602060405160038152f35b3461028857600036600319011261028857602060405160148152f35b3461028857600036600319011261028857612e0661474f565b612e0e61483a565b600080516020614f82833981519152600160ff198254161790557f62e78cea01bee320cd4e420270b5ea74000d11b0c9f74754ebdbfc544b05a2586020604051338152a1005b346102885760003660031901126102885760206040517fa49807205ce4d355092ef5a8a18f56e8913cf4a201fbe287825b095693c217758152f35b34610288576040366003190112610288576004356001600160401b03811161028857612ebf90369060040161435d565b612edb60206024359281604051938285809451938492016142c3565b81016002815203019020805482101561028857602091612efa9161438e565b90546040519160031b1c8152f35b34610288576000366003190112610288576020604051600080516020614f428339815191528152f35b3461028857608036600319011261028857612f4a61437b565b6001600160401b039060243560443583811161028857612f6e90369060040161435d565b906064359182151580930361028857612f8561474f565b604051612f91816141ab565b82815260209363ffffffff85830196848852604084019283521695866000526004865260406000209251835560019760018401915198895191821161176357612fde826103c68554614171565b8790601f83116001146130755750926130659594928260029361304f967fe128558611e28b5f2755aed4121802870b0e7eb8a72b13fe57f85f20028105659c9d60009261306a5750508160011b916000199060031b1c191617905551151591019060ff801983541691151516179055565b60408051948594855284015260408301906142e6565b0390a2005b015190508d806109f8565b99601f19831684600052896000209b6000905b8282106130f2575050837fe128558611e28b5f2755aed4121802870b0e7eb8a72b13fe57f85f20028105659b9c61304f97946130659a999794600297600195106130d957505050811b019055610a0d565b015160001960f88460031b161c191690558d8080611725565b848401518e559c8d019c938b0193908b0190613088565b3461028857600036600319011261028857602060ff600080516020614f8283398151915254166040519015158152f35b34610288576000366003190112610288576020600a54604051908152f35b34610288576000366003190112610288577f00000000000000000000000000000000000000000000000000000000000000006001600160a01b031630036131c25760206040517f360894a13ba1a3210667c828492db98dca3e2076cc3735a920a3ca505d382bbc8152f35b60405163703e46dd60e11b8152600490fd5b6040366003190112610288576131e8614145565b60249081356001600160401b0381116102885736602382011215610288576132199036908481600401359101614326565b6001600160a01b03917f0000000000000000000000000000000000000000000000000000000000000000831630811490811561344f575b506131c2573360009081527fab71e3f32666744d246edff3f96e4bdafee2e9867098cdd118a979a7464786a860209081526040909120549093907f189ab7a9244df0848122154315af71fe140f3db0fe014031783b0946b8c9d2e39060ff161561343257507f4532260fe799306e8bfb8df20fa4255dd3c44d6d51276cba0abc9468927b3388846132e2600a54614740565b80600a55604051908152a18116926040516352d1902d60e01b81528181600481885afa60009181613403575b5061332b57604051634c9c8ce360e01b8152600481018690528690fd5b8490867f360894a13ba1a3210667c828492db98dca3e2076cc3735a920a3ca505d382bbc918281036133ee5750843b156133d8575080546001600160a01b03191682179055604051907fbc7cd75a20ee27fd9adebab32041f755214dbc6bffa90cc0225b39da2e5c2d3b600080a28351156133be5750600083819261001895519101845af46133b861455b565b91614ebe565b92505050346133c957005b63b398979f60e01b8152600490fd5b604051634c9c8ce360e01b815260048101849052fd5b60405190632a87526960e21b82526004820152fd5b9091508281813d831161342b575b61341b81836141fd565b810103126102885751908761330e565b503d613411565b856044916040519163e2517d3f60e01b8352336004840152820152fd5b9050837f360894a13ba1a3210667c828492db98dca3e2076cc3735a920a3ca505d382bbc5416141585613250565b34610288576000366003190112610288576020600654604051908152f35b34610288576060366003190112610288576134b4614145565b6024356001600160401b038111610288576134d390369060040161435d565b6044356001600160401b038111610288576134f290369060040161435d565b906134fb6147ab565b61350f6001600160a01b038416151561447e565b61351b815115156144ca565b61352a6101f48251111561450f565b613536825115156144ca565b61354460328351111561450f565b61354c61483a565b6001600160a01b03831660009081526001602052604090206003015460ff166138f2576001600160a01b038316600090815260016020526040902060040154156135f257505060018060a01b03811660005260016020526003604060002001600160ff198254161790556135bf81614865565b5033906001600160a01b03167ff135da67a7dec9747513aabbc02f214bb500fb26c7ae99d39fad29083a5251b4600080a3005b60405160e081018181106001600160401b038211176117635760405260018060a01b0384168152602081019082825283604082015260016060820152426080820152600060a0820152600060c082015260018060a01b038516600052600160205260406000209160018060a01b038251166001600160601b0360a01b845416178355518051906001600160401b0382116117635781906136a2826136996001880154614171565b6001880161442c565b602090601f831160011461388057600092613875575b50508160011b916000199060031b1c19161760018301555b60408101518051906001600160401b03821161176357613700826136f76002870154614171565b6002870161442c565b602090601f83116001146137da577f180b91052b9cda63531c3e4a9cbe6596f73f5df1f6affb2666fa8e458d0ce3a99593836137b6969460069460c0946000926137cf575b50508160011b916000199060031b1c19161760028501555b61377c60608201511515600386019060ff801983541691151516179055565b6080810151600485015560a08101516005850155015191015561379e85614865565b506104716040519283926040845260408401906142e6565b828103602084015233966001600160a01b0316956142e6565b015190508b80613745565b906002850160005260206000209160005b601f198516811061385d57509360018460069460c0947f180b91052b9cda63531c3e4a9cbe6596f73f5df1f6affb2666fa8e458d0ce3a99a986137b69a98601f19811610613844575b505050811b01600285015561375d565b015160001960f88460031b161c191690558b8080613834565b919260206001819286850151815501940192016137eb565b0151905087806136b8565b9250600185016000526020600020906000935b601f19841685106138d7576001945083601f198116106138be575b505050811b0160018301556136d0565b015160001960f88460031b161c191690558780806138ae565b81810151835560209485019460019093019290910190613893565b60405162461bcd60e51b81526020600482015260166024820152754f66666963657220616c72656164792061637469766560501b6044820152606490fd5b3461028857602036600319011261028857613949614145565b6139516147ab565b61395961483a565b6001600160a01b03811660008181526001602052604090206003015490919060ff16156139cc576139a290826000526001602052600360406000200160ff198154169055614d46565b5033907f7602228bab5910bd496f24ddfe1cb34e29049b14dea8a332a5495ed413966ebf600080a3005b60405162461bcd60e51b81526020600482015260126024820152714f666669636572206e6f742061637469766560701b6044820152606490fd5b3461028857600036600319011261028857613a1f61474f565b600080516020614f82833981519152805460ff811615613a6b5760ff191690557f5db9ee0a495bf2e6ff9c91a7834c1ba4fdd244a5e8aa4e537bd38aeae4b073aa6020604051338152a1005b604051638dfc202b60e01b8152600490fd5b3461028857604036600319011261028857613a9661415b565b336001600160a01b03821603613ab25761001890600435614ddc565b60405163334bd91960e11b8152600490fd5b346102885760003660031901126102885760206040516101f48152f35b3461028857604036600319011261028857610018600435613b0061415b565b9080600052600080516020614f62833981519152602052613b28600160406000200154614807565b614cd1565b34610288576060366003190112610288576004356024803591821515808403610288576001600160401b039360443585811161028857613b7190369060040161435d565b937f9c4e6fd68fbdec6e3075ec7bfba710532af019aea93f5f59ebfe5a9d1a0b894e9586600052602096600080516020614f628339815191528852604060002033600052885260ff6040600020541615613f0057508460005260008752613be160046040600020015415156143c9565b613be961483a565b846000526000875260069260ff84604060002001541684811015613eeb57600203613eb357856000526003885260ff60046040600020015416613e6f57856000526003885260406000206000895260406000209360048201938454946001809661ff008b60081b169061ffff19161717905560058301918a519182116105305750613c7e81613c788454614171565b8461442c565b8a601f8211600114613ddf57928a9b969492828997959360409a947fa1cb7f40018718c09cb1d27551081808f2171af542482542866f4e2dcc4174b79d9e600092613dd4575b5050600019600383901b1c191690861b1790555b0180546001600160a01b0319163317905515613da457508683600783019283541515600014613d8f577f92ac592d9f00fe36701e3861c8e4cee57d21d2455e6b7571e23c8fffff2a8b7b9293948101600560ff1982541617905560088554910160018060a01b03918282541660005260098452613d5a89600020918254614471565b9055613d698654600754614471565b600755541693548651908152a35b815192835282015280610471339560408301906142e6565b9250505001600360ff19825416179055613d77565b60078201549092919015613dc257019060ff19825416179055613d77565b01805460ff1916600417905550613d77565b015190508f8f613cc4565b601f19821690836000528c6000209160005b818110613e5a575096838196938e9f9a9896937fa1cb7f40018718c09cb1d27551081808f2171af542482542866f4e2dcc4174b79e9f8d9b9760409e9810613e41575b505050811b019055613cd8565b015160001960f88460031b161c191690558f8f80613e34565b8d830151845592880192918e01918e01613df1565b60405162461bcd60e51b8152600481018990526017818501527f41707065616c20616c7265616479207265736f6c7665640000000000000000006044820152606490fd5b60405162461bcd60e51b81526004810189905260118185015270139bc81c195b991a5b99c8185c1c19585b607a1b6044820152606490fd5b83634e487b7160e01b60005260216004526000fd5b826044916040519163e2517d3f60e01b8352336004840152820152fd5b34610288576020366003190112610288576004356000526003602052604060002080549060018060a01b038060018301541691613f5c6002820161421e565b90613fd6600382015460048301549460ff613f796005860161421e565b9160068601541696613fae60086007880154970154976040519b8c9b610140918d5260208d01528060408d01528b01906142e6565b9360608a0152818116151560808a015260081c16151560a088015286820360c08801526142e6565b9260e08501526101008401526101208301520390f35b3461028857602036600319011261028857600435600052600080516020614f628339815191526020526020600160406000200154604051908152f35b34610288576020366003190112610288576001600160a01b038061404a614145565b1660005260016020526040600020908154166140686001830161421e565b916140756002820161421e565b60ff6003830154169160048101546140bb60066005840154930154936140ad604051988998895260e060208a015260e08901906142e6565b9087820360408901526142e6565b9315156060860152608085015260a084015260c08301520390f35b3461028857600036600319011261028857602060405160648152f35b34610288576020366003190112610288576004359063ffffffff60e01b821680920361028857602091637965db0b60e01b8114908115614134575b5015158152f35b6301ffc9a760e01b1490508361412d565b600435906001600160a01b038216820361028857565b602435906001600160a01b038216820361028857565b90600182811c921680156141a1575b602083101461418b57565b634e487b7160e01b600052602260045260246000fd5b91607f1691614180565b606081019081106001600160401b0382111761176357604052565b61016081019081106001600160401b0382111761176357604052565b604081019081106001600160401b0382111761176357604052565b90601f801991011681019081106001600160401b0382111761176357604052565b9060405191826000825461423181614171565b908184526020946001916001811690816000146142a15750600114614262575b505050614260925003836141fd565b565b600090815285812095935091905b8183106142895750506142609350820101388080614251565b85548884018501529485019487945091830191614270565b9250505061426094925060ff191682840152151560051b820101388080614251565b60005b8381106142d65750506000910152565b81810151838201526020016142c6565b906020916142ff815180928185528580860191016142c3565b601f01601f1916010190565b6001600160401b03811161176357601f01601f191660200190565b9291926143328261430b565b9161434060405193846141fd565b829481845281830111610288578281602093846000960137010152565b9080601f830112156102885781602061437893359101614326565b90565b6004359063ffffffff8216820361028857565b80548210156143a65760005260206000200190600090565b634e487b7160e01b600052603260045260246000fd5b906006821015611f135752565b156143d057565b60405162461bcd60e51b815260206004820152601860248201527f56696f6c6174696f6e20646f6573206e6f7420657869737400000000000000006044820152606490fd5b818110614420575050565b60008155600101614415565b9190601f811161443b57505050565b614260926000526020600020906020601f840160051c83019310614467575b601f0160051c0190614415565b909150819061445a565b919082018092116124cc57565b1561448557565b60405162461bcd60e51b815260206004820152601d60248201527f496e76616c696420616464726573733a207a65726f20616464726573730000006044820152606490fd5b156144d157565b60405162461bcd60e51b8152602060048201526016602482015275537472696e672063616e6e6f7420626520656d70747960501b6044820152606490fd5b1561451657565b60405162461bcd60e51b815260206004820152601d60248201527f537472696e672065786365656473206d6178696d756d206c656e6774680000006044820152606490fd5b3d15614586573d9061456c8261430b565b9161457a60405193846141fd565b82523d6000602084013e565b606090565b1561459257565b60405162461bcd60e51b815260206004820152600f60248201526e151c985b9cd9995c8819985a5b1959608a1b6044820152606490fd5b6001600160401b0381116117635760051b60200190565b919082039182116124cc57565b80518210156143a65760209160051b010190565b9190604051838180955161461b81602098898096016142c3565b81016002815203019020916040519283848683549283815201600093845287842092845b8982821061472a57505050614656925003856141fd565b83518310156146ee575061466a9082614471565b9180518084116146e6575b5061468082846145e0565b9361468a856145c9565b9461469860405196876141fd565b8086526146a7601f19916145c9565b01903690860137815b8381106146be575050505090565b806146cb600192846145ed565b516146df6146d986846145e0565b886145ed565b52016146b0565b925038614675565b925050506040519182018281106001600160401b038211176147165760405280825236813790565b634e487b7160e01b82526041600452602482fd5b855484526001958601958a95509301920161463f565b60001981146124cc5760010190565b3360009081527fb16e88c42fd4e48df2dd6a2eabd6bc9aec654ec170056b470819f8892cc6431c60205260409020547fa49807205ce4d355092ef5a8a18f56e8913cf4a201fbe287825b095693c217759060ff161561257f5750565b3360009081527fb07fb87b1cd554e7358b5dae77c8d42967e3c82d05a404ddc81d6e55c63b924b60205260409020547fc6ad931175da1471673417ed857aec62a6cf3071baeff703ef4a5a1f95adb2319060ff161561257f5750565b80600052600080516020614f6283398151915260205260406000203360005260205260ff604060002054161561257f5750565b60ff600080516020614f82833981519152541661485357565b60405163d93c066560e01b8152600490fd5b6001600160a01b03166000818152600080516020614fe28339815191526020526040812054909190600080516020614f4283398151915290600080516020614f628339815191529060ff166148eb578184526020526040832082845260205260408320600160ff19825416179055600080516020614f22833981519152339380a4600190565b50505090565b6001600160a01b031660008181527fb7db2dd08fcb62d0c9e08c51941cae53c267786a0b75803fb7960902fc8ef97d6020526040812054909190600080516020614f628339815191529060ff1661497a578280526020526040822081835260205260408220600160ff198254161790553391600080516020614f228339815191528180a4600190565b505090565b6001600160a01b031660008181527fb16e88c42fd4e48df2dd6a2eabd6bc9aec654ec170056b470819f8892cc6431c60205260408120549091907fa49807205ce4d355092ef5a8a18f56e8913cf4a201fbe287825b095693c2177590600080516020614f628339815191529060ff166148eb578184526020526040832082845260205260408320600160ff19825416179055600080516020614f22833981519152339380a4600190565b6001600160a01b031660008181527fb07fb87b1cd554e7358b5dae77c8d42967e3c82d05a404ddc81d6e55c63b924b60205260408120549091907fc6ad931175da1471673417ed857aec62a6cf3071baeff703ef4a5a1f95adb23190600080516020614f628339815191529060ff166148eb578184526020526040832082845260205260408320600160ff19825416179055600080516020614f22833981519152339380a4600190565b6001600160a01b031660008181527fe0e83ae579c3cd41eff3b0091b4af6ac7c2d22811e06e4c4497afe060618d19f60205260408120549091907f9c4e6fd68fbdec6e3075ec7bfba710532af019aea93f5f59ebfe5a9d1a0b894e90600080516020614f628339815191529060ff166148eb578184526020526040832082845260205260408320600160ff19825416179055600080516020614f22833981519152339380a4600190565b6001600160a01b031660008181527f1069ffe2b90bfd470f40f3bf820141bb4d4b475d03084db5dcfb8152047badf760205260408120549091907fe1dcbdb91df27212a29bc27177c840cf2f819ecf2187432e1fac86c2dd5dfca990600080516020614f628339815191529060ff166148eb578184526020526040832082845260205260408320600160ff19825416179055600080516020614f22833981519152339380a4600190565b6001600160a01b031660008181527fab71e3f32666744d246edff3f96e4bdafee2e9867098cdd118a979a7464786a860205260408120549091907f189ab7a9244df0848122154315af71fe140f3db0fe014031783b0946b8c9d2e390600080516020614f628339815191529060ff166148eb578184526020526040832082845260205260408320600160ff19825416179055600080516020614f22833981519152339380a4600190565b90600091808352600080516020614f6283398151915280602052604084209260018060a01b03169283855260205260ff604085205416156000146148eb578184526020526040832082845260205260408320600160ff19825416179055600080516020614f22833981519152339380a4600190565b6001600160a01b03166000818152600080516020614fe28339815191526020526040812054909190600080516020614f4283398151915290600080516020614f628339815191529060ff16156148eb57818452602052604083208284526020526040832060ff1981541690557ff6391f5c32d9c69d2a47ea670b442974b53935d1edc7fd64eb21e047a839171b339380a4600190565b90600091808352600080516020614f6283398151915280602052604084209260018060a01b03169283855260205260ff6040852054166000146148eb57818452602052604083208284526020526040832060ff1981541690557ff6391f5c32d9c69d2a47ea670b442974b53935d1edc7fd64eb21e047a839171b339380a4600190565b600080516020614fa28339815191526002815414614e7d5760029055565b604051633ee5aeb560e01b8152600490fd5b60ff600080516020614fc28339815191525460401c1615614eac57565b604051631afcd79f60e31b8152600490fd5b90614ee55750805115614ed357602081519101fd5b60405163d6bda27560e01b8152600490fd5b81511580614f18575b614ef6575090565b604051639996b31560e01b81526001600160a01b039091166004820152602490fd5b50803b15614eee56fe2f8788117e7eff1d82e926ec794901d17c78024a50270940304540a733656f0dbbecb2568601cb27e6ced525237c463da94c4fb7a9b98ac79fd30fd56d8e1b5302dd7bc7dec4dceedda775e58dd541e08a116c6c53815c0bd028192f7b626800cd5ed15c6e187e77e9aee88184c21f4f2182ab5827cb3b7e07fbedcd63f033009b779b17422d0df92223018b32b4d1fa46e071723d6817e2486d003becc55f00f0c57e16840df040f15088dc2f81fe391c3923bec73e23a9662efc9c229c6a00d01d7a4ffbb09158f8f4ac550ea2213c8b479ec297195d21b762cef7d140c67aa2646970667358221220402fdd6cb102a1f439bad269af95a31c7eb09705f362113f531f174a076c35b564736f6c63430008160033","opcodes":"PUSH1 0xA0 DUP1 PUSH1 0x40 MSTORE CALLVALUE PUSH2 0x2A JUMPI ADDRESS PUSH1 0x80 MSTORE PUSH2 0x5037 SWAP1 DUP2 PUSH2 0x30 DUP3 CODECOPY PUSH1 0x80 MLOAD DUP2 DUP2 DUP2 PUSH2 0x316A ADD MSTORE PUSH2 0x3224 ADD MSTORE RETURN JUMPDEST PUSH1 0x0 DUP1 REVERT INVALID PUSH1 0x80 DUP1 PUSH1 0x40 MSTORE PUSH1 0x4 CALLDATASIZE LT ISZERO PUSH2 0x1A JUMPI JUMPDEST POP CALLDATASIZE ISZERO PUSH2 0x18 JUMPI STOP JUMPDEST STOP JUMPDEST PUSH1 0x0 CALLDATALOAD PUSH1 0xE0 SHR SWAP1 DUP2 PUSH4 0x1FFC9A7 EQ PUSH2 0x40F2 JUMPI POP DUP1 PUSH4 0x8353DFE EQ PUSH2 0x40D6 JUMPI DUP1 PUSH4 0x84866DD EQ PUSH2 0x4028 JUMPI DUP1 PUSH4 0x248A9CA3 EQ PUSH2 0x3FEC JUMPI DUP1 PUSH4 0x28CDC028 EQ PUSH2 0x3F1D JUMPI DUP1 PUSH4 0x2E75FCD1 EQ PUSH2 0x3B2D JUMPI DUP1 PUSH4 0x2F2FF15D EQ PUSH2 0x3AE1 JUMPI DUP1 PUSH4 0x34CCC5EA EQ PUSH2 0x3AC4 JUMPI DUP1 PUSH4 0x36568ABE EQ PUSH2 0x3A7D JUMPI DUP1 PUSH4 0x3F4BA83A EQ PUSH2 0x3A06 JUMPI DUP1 PUSH4 0x4719C01D EQ PUSH2 0x3930 JUMPI DUP1 PUSH4 0x48031077 EQ PUSH2 0x349B JUMPI DUP1 PUSH4 0x49E6368B EQ PUSH2 0x347D JUMPI DUP1 PUSH4 0x4F1EF286 EQ PUSH2 0x31D4 JUMPI DUP1 PUSH4 0x52D1902D EQ PUSH2 0x3157 JUMPI DUP1 PUSH4 0x54FD4D50 EQ PUSH2 0x3139 JUMPI DUP1 PUSH4 0x5C975ABB EQ PUSH2 0x3109 JUMPI DUP1 PUSH4 0x5DD66717 EQ PUSH2 0x2F31 JUMPI DUP1 PUSH4 0x7264953B EQ PUSH2 0x2F08 JUMPI DUP1 PUSH4 0x7310E885 EQ PUSH2 0x2E8F JUMPI DUP1 PUSH4 0x75B238FC EQ PUSH2 0x2E54 JUMPI DUP1 PUSH4 0x8456CB59 EQ PUSH2 0x2DED JUMPI DUP1 PUSH4 0x888D8AD7 EQ PUSH2 0x2DD1 JUMPI DUP1 PUSH4 0x8BEB3CC5 EQ PUSH2 0x2DB5 JUMPI DUP1 PUSH4 0x91D14854 EQ PUSH2 0x2D5B JUMPI DUP1 PUSH4 0xA217FDDF EQ PUSH2 0x2D3F JUMPI DUP1 PUSH4 0xA84D4074 EQ PUSH2 0x2D23 JUMPI DUP1 PUSH4 0xA95C6648 EQ PUSH2 0x2B20 JUMPI DUP1 PUSH4 0xA98FFB59 EQ PUSH2 0x2AAE JUMPI DUP1 PUSH4 0xAD3CB1CC EQ PUSH2 0x2A64 JUMPI DUP1 PUSH4 0xADCA20B0 EQ PUSH2 0x2A29 JUMPI DUP1 PUSH4 0xAF4AC9E8 EQ PUSH2 0x29BF JUMPI DUP1 PUSH4 0xB5545A3C EQ PUSH2 0x28EB JUMPI DUP1 PUSH4 0xB613B114 EQ PUSH2 0x28B1 JUMPI DUP1 PUSH4 0xB6D7C6B1 EQ PUSH2 0x2893 JUMPI DUP1 PUSH4 0xBB019F7D EQ PUSH2 0x27AF JUMPI DUP1 PUSH4 0xC0E1F666 EQ PUSH2 0x2791 JUMPI DUP1 PUSH4 0xC1075329 EQ PUSH2 0x2622 JUMPI DUP1 PUSH4 0xC197E3E9 EQ PUSH2 0x259D JUMPI DUP1 PUSH4 0xC22E7701 EQ PUSH2 0x1F29 JUMPI DUP1 PUSH4 0xC345A74C EQ PUSH2 0x1D40 JUMPI DUP1 PUSH4 0xC4D66DE8 EQ PUSH2 0x840 JUMPI DUP1 PUSH4 0xD11A57EC EQ PUSH2 0x805 JUMPI DUP1 PUSH4 0xD547741F EQ PUSH2 0x7B9 JUMPI DUP1 PUSH4 0xD5B0E27C EQ PUSH2 0x771 JUMPI DUP1 PUSH4 0xD6FD6239 EQ PUSH2 0x753 JUMPI DUP1 PUSH4 0xE0E47588 EQ PUSH2 0x718 JUMPI DUP1 PUSH4 0xE8B9FD7B EQ PUSH2 0x2AF JUMPI DUP1 PUSH4 0xF5B1BC3A EQ PUSH2 0x28D JUMPI PUSH4 0xF72C0D8B EQ PUSH2 0x24D JUMPI CODESIZE PUSH2 0xF JUMP JUMPDEST CALLVALUE PUSH2 0x288 JUMPI PUSH1 0x0 CALLDATASIZE PUSH1 0x3 NOT ADD SLT PUSH2 0x288 JUMPI PUSH1 0x20 PUSH1 0x40 MLOAD PUSH32 0x189AB7A9244DF0848122154315AF71FE140F3DB0FE014031783B0946B8C9D2E3 DUP2 MSTORE RETURN JUMPDEST PUSH1 0x0 DUP1 REVERT JUMPDEST CALLVALUE PUSH2 0x288 JUMPI PUSH1 0x0 CALLDATASIZE PUSH1 0x3 NOT ADD SLT PUSH2 0x288 JUMPI PUSH1 0x20 PUSH1 0x40 MLOAD PUSH7 0x38D7EA4C68000 DUP2 MSTORE RETURN JUMPDEST CALLVALUE PUSH2 0x288 JUMPI PUSH1 0x40 CALLDATASIZE PUSH1 0x3 NOT ADD SLT PUSH2 0x288 JUMPI PUSH1 0x1 PUSH1 0x1 PUSH1 0x40 SHL SUB PUSH1 0x4 CALLDATALOAD PUSH1 0x24 DUP1 CALLDATALOAD DUP4 DUP2 GT PUSH2 0x288 JUMPI PUSH2 0x2E4 SWAP1 CALLDATASIZE SWAP1 PUSH1 0x4 ADD PUSH2 0x435D JUMP JUMPDEST SWAP1 DUP3 PUSH1 0x0 MSTORE PUSH1 0x20 SWAP4 PUSH1 0x0 DUP6 MSTORE PUSH2 0x303 PUSH1 0x4 PUSH1 0x40 PUSH1 0x0 KECCAK256 ADD SLOAD ISZERO ISZERO PUSH2 0x43C9 JUMP JUMPDEST PUSH2 0x30B PUSH2 0x483A JUMP JUMPDEST DUP4 PUSH1 0x0 MSTORE PUSH1 0x0 DUP6 MSTORE PUSH1 0x40 PUSH1 0x0 KECCAK256 SWAP2 PUSH1 0x3 DUP7 MSTORE PUSH1 0x6 PUSH1 0x40 PUSH1 0x0 KECCAK256 SWAP4 ADD SWAP1 DUP2 SLOAD SWAP3 PUSH1 0xFF DUP5 AND PUSH1 0x6 DUP2 LT ISZERO PUSH2 0x703 JUMPI DUP1 ISZERO SWAP1 DUP2 ISZERO PUSH2 0x6F8 JUMPI JUMPDEST POP ISZERO PUSH2 0x6B4 JUMPI PUSH1 0x8 DUP5 SWAP1 SHR PUSH1 0x1 PUSH1 0x1 PUSH1 0xA0 SHL SUB AND CALLER SUB PUSH2 0x670 JUMPI DUP6 MLOAD ISZERO PUSH2 0x62C JUMPI PUSH1 0x4 DUP6 ADD SWAP3 PUSH1 0xFF DUP5 SLOAD AND PUSH2 0x5EA JUMPI PUSH1 0x7 DUP7 ADD SWAP5 DUP6 SLOAD PUSH1 0x3 DUP2 LT ISZERO PUSH2 0x5AF JUMPI PUSH2 0x544 JUMPI JUMPDEST PUSH1 0x2 SWAP1 PUSH1 0xFF NOT AND OR SWAP1 SSTORE DUP7 DUP6 SSTORE PUSH1 0x1 DUP1 DUP7 ADD CALLER PUSH1 0x1 PUSH1 0x1 PUSH1 0x60 SHL SUB PUSH1 0xA0 SHL DUP3 SLOAD AND OR SWAP1 SSTORE PUSH1 0x2 DUP7 ADD SWAP3 DUP8 MLOAD SWAP3 DUP4 GT PUSH2 0x530 JUMPI POP PUSH2 0x3CC DUP3 PUSH2 0x3C6 DUP6 SLOAD PUSH2 0x4171 JUMP JUMPDEST DUP6 PUSH2 0x442C JUMP JUMPDEST DUP9 SWAP1 PUSH1 0x1F DUP4 GT PUSH1 0x1 EQ PUSH2 0x49F JUMPI POP SWAP2 DUP2 PUSH2 0x471 SWAP7 SWAP5 SWAP3 PUSH32 0x4DB460638E10F96770C2AA1F83A1118AB50350E5585A645F42D2CA04D5574E71 SWAP9 SWAP7 SWAP5 PUSH1 0x0 SWAP2 PUSH2 0x494 JUMPI JUMPDEST POP DUP2 PUSH1 0x1 SHL SWAP2 PUSH1 0x0 NOT SWAP1 PUSH1 0x3 SHL SHR NOT AND OR SWAP1 SSTORE JUMPDEST TIMESTAMP PUSH1 0x3 DUP5 ADD SSTORE PUSH2 0xFFFF NOT DUP2 SLOAD AND SWAP1 SSTORE PUSH1 0x0 PUSH1 0x5 DUP4 ADD PUSH2 0x441 DUP2 SLOAD PUSH2 0x4171 JUMP JUMPDEST PUSH1 0x1F DUP2 GT PUSH2 0x476 JUMPI JUMPDEST POP SSTORE PUSH2 0x456 DUP2 SLOAD PUSH2 0x4740 JUMP JUMPDEST SWAP1 SSTORE PUSH1 0x8 TIMESTAMP SWAP2 ADD SSTORE PUSH1 0x40 MLOAD SWAP2 DUP3 SWAP2 DUP7 DUP4 MSTORE CALLER SWAP7 DUP4 ADD SWAP1 PUSH2 0x42E6 JUMP JUMPDEST SUB SWAP1 LOG3 STOP JUMPDEST DUP2 DUP4 MSTORE DUP10 DUP4 KECCAK256 PUSH2 0x48E SWAP2 PUSH1 0x1F ADD PUSH1 0x5 SHR DUP2 ADD SWAP1 PUSH2 0x4415 JUMP JUMPDEST DUP10 PUSH2 0x44A JUMP JUMPDEST SWAP1 POP DUP7 ADD MLOAD DUP12 PUSH2 0x40E JUMP JUMPDEST SWAP1 PUSH1 0x1F NOT DUP4 AND DUP5 PUSH1 0x0 MSTORE DUP11 PUSH1 0x0 KECCAK256 SWAP3 PUSH1 0x0 SWAP1 JUMPDEST DUP13 DUP4 DUP4 LT PUSH2 0x518 JUMPI POP POP POP SWAP3 PUSH32 0x4DB460638E10F96770C2AA1F83A1118AB50350E5585A645F42D2CA04D5574E71 SWAP9 SWAP7 SWAP5 SWAP3 PUSH1 0x1 SWAP3 DUP3 PUSH2 0x471 SWAP11 SWAP9 SWAP7 LT PUSH2 0x4FF JUMPI JUMPDEST POP POP DUP2 SHL ADD SWAP1 SSTORE PUSH2 0x422 JUMP JUMPDEST DUP9 ADD MLOAD PUSH1 0x0 NOT PUSH1 0xF8 DUP5 PUSH1 0x3 SHL AND SHR NOT AND SWAP1 SSTORE DUP12 DUP1 PUSH2 0x4F3 JUMP JUMPDEST DUP12 DUP6 ADD MLOAD DUP7 SSTORE SWAP5 DUP2 ADD SWAP5 SWAP4 DUP5 ADD SWAP4 SWAP2 SWAP1 SWAP2 ADD SWAP1 PUSH2 0x4B2 JUMP JUMPDEST PUSH4 0x4E487B71 PUSH1 0xE0 SHL PUSH1 0x0 SWAP1 DUP2 MSTORE PUSH1 0x41 PUSH1 0x4 MSTORE REVERT JUMPDEST PUSH1 0x8 DUP8 ADD SLOAD PUSH3 0x93A80 DUP2 ADD DUP1 SWAP2 GT PUSH2 0x59A JUMPI TIMESTAMP LT ISZERO PUSH2 0x385 JUMPI PUSH1 0x40 MLOAD PUSH3 0x461BCD PUSH1 0xE5 SHL DUP2 MSTORE PUSH1 0x4 DUP2 ADD DUP12 SWAP1 MSTORE PUSH1 0x16 DUP2 DUP7 ADD MSTORE PUSH22 0x41707065616C20636F6F6C646F776E20616374697665 PUSH1 0x50 SHL PUSH1 0x44 DUP3 ADD MSTORE PUSH1 0x64 SWAP1 REVERT JUMPDEST DUP5 PUSH4 0x4E487B71 PUSH1 0xE0 SHL PUSH1 0x0 MSTORE PUSH1 0x11 PUSH1 0x4 MSTORE PUSH1 0x0 REVERT JUMPDEST PUSH1 0x40 MLOAD PUSH3 0x461BCD PUSH1 0xE5 SHL DUP2 MSTORE PUSH1 0x4 DUP2 ADD DUP13 SWAP1 MSTORE PUSH1 0x14 DUP2 DUP8 ADD MSTORE PUSH20 0x13585E08185C1C19585B1CC8195E18D959591959 PUSH1 0x62 SHL PUSH1 0x44 DUP3 ADD MSTORE PUSH1 0x64 SWAP1 REVERT JUMPDEST PUSH1 0x64 DUP4 DUP11 PUSH1 0x40 MLOAD SWAP2 PUSH3 0x461BCD PUSH1 0xE5 SHL DUP4 MSTORE DUP2 PUSH1 0x4 DUP5 ADD MSTORE DUP3 ADD MSTORE PUSH32 0x50726576696F75732061707065616C20616C7265616479207265736F6C766564 PUSH1 0x44 DUP3 ADD MSTORE REVERT JUMPDEST PUSH1 0x40 MLOAD PUSH3 0x461BCD PUSH1 0xE5 SHL DUP2 MSTORE PUSH1 0x4 DUP2 ADD DUP10 SWAP1 MSTORE PUSH1 0x1D DUP2 DUP5 ADD MSTORE PUSH32 0x41707065616C20726561736F6E2063616E6E6F7420626520656D707479000000 PUSH1 0x44 DUP3 ADD MSTORE PUSH1 0x64 SWAP1 REVERT JUMPDEST PUSH1 0x40 MLOAD PUSH3 0x461BCD PUSH1 0xE5 SHL DUP2 MSTORE PUSH1 0x4 DUP2 ADD DUP10 SWAP1 MSTORE PUSH1 0x1A DUP2 DUP5 ADD MSTORE PUSH32 0x4F6E6C7920746865206472697665722063616E2061707065616C000000000000 PUSH1 0x44 DUP3 ADD MSTORE PUSH1 0x64 SWAP1 REVERT JUMPDEST PUSH1 0x40 MLOAD PUSH3 0x461BCD PUSH1 0xE5 SHL DUP2 MSTORE PUSH1 0x4 DUP2 ADD DUP10 SWAP1 MSTORE PUSH1 0x1C DUP2 DUP5 ADD MSTORE PUSH32 0x43616E6E6F742061707065616C20746869732076696F6C6174696F6E00000000 PUSH1 0x44 DUP3 ADD MSTORE PUSH1 0x64 SWAP1 REVERT JUMPDEST PUSH1 0x1 SWAP2 POP EQ DUP10 PUSH2 0x341 JUMP JUMPDEST DUP3 PUSH4 0x4E487B71 PUSH1 0xE0 SHL PUSH1 0x0 MSTORE PUSH1 0x21 PUSH1 0x4 MSTORE PUSH1 0x0 REVERT JUMPDEST CALLVALUE PUSH2 0x288 JUMPI PUSH1 0x0 CALLDATASIZE PUSH1 0x3 NOT ADD SLT PUSH2 0x288 JUMPI PUSH1 0x20 PUSH1 0x40 MLOAD PUSH32 0x9C4E6FD68FBDEC6E3075EC7BFBA710532AF019AEA93F5F59EBFE5A9D1A0B894E DUP2 MSTORE RETURN JUMPDEST CALLVALUE PUSH2 0x288 JUMPI PUSH1 0x0 CALLDATASIZE PUSH1 0x3 NOT ADD SLT PUSH2 0x288 JUMPI PUSH1 0x20 PUSH1 0x5 SLOAD PUSH1 0x40 MLOAD SWAP1 DUP2 MSTORE RETURN JUMPDEST CALLVALUE PUSH2 0x288 JUMPI PUSH1 0x40 CALLDATASIZE PUSH1 0x3 NOT ADD SLT PUSH2 0x288 JUMPI PUSH1 0x1 PUSH1 0x1 PUSH1 0xA0 SHL SUB PUSH2 0x792 PUSH2 0x4145 JUMP JUMPDEST AND PUSH1 0x0 MSTORE PUSH1 0x8 PUSH1 0x20 MSTORE PUSH1 0x40 PUSH1 0x0 KECCAK256 PUSH1 0x24 CALLDATALOAD PUSH1 0x0 MSTORE PUSH1 0x20 MSTORE PUSH1 0x20 PUSH1 0x40 PUSH1 0x0 KECCAK256 SLOAD PUSH1 0x40 MLOAD SWAP1 DUP2 MSTORE RETURN JUMPDEST CALLVALUE PUSH2 0x288 JUMPI PUSH1 0x40 CALLDATASIZE PUSH1 0x3 NOT ADD SLT PUSH2 0x288 JUMPI PUSH2 0x18 PUSH1 0x4 CALLDATALOAD PUSH2 0x7D8 PUSH2 0x415B JUMP JUMPDEST SWAP1 DUP1 PUSH1 0x0 MSTORE PUSH1 0x0 DUP1 MLOAD PUSH1 0x20 PUSH2 0x4F62 DUP4 CODECOPY DUP2 MLOAD SWAP2 MSTORE PUSH1 0x20 MSTORE PUSH2 0x800 PUSH1 0x1 PUSH1 0x40 PUSH1 0x0 KECCAK256 ADD SLOAD PUSH2 0x4807 JUMP JUMPDEST PUSH2 0x4DDC JUMP JUMPDEST CALLVALUE PUSH2 0x288 JUMPI PUSH1 0x0 CALLDATASIZE PUSH1 0x3 NOT ADD SLT PUSH2 0x288 JUMPI PUSH1 0x20 PUSH1 0x40 MLOAD PUSH32 0xE1DCBDB91DF27212A29BC27177C840CF2F819ECF2187432E1FAC86C2DD5DFCA9 DUP2 MSTORE RETURN JUMPDEST CALLVALUE PUSH2 0x288 JUMPI PUSH1 0x20 CALLDATASIZE PUSH1 0x3 NOT ADD SLT PUSH2 0x288 JUMPI PUSH2 0x859 PUSH2 0x4145 JUMP JUMPDEST PUSH1 0x0 DUP1 MLOAD PUSH1 0x20 PUSH2 0x4FC2 DUP4 CODECOPY DUP2 MLOAD SWAP2 MSTORE SLOAD SWAP1 PUSH1 0x1 PUSH1 0x1 PUSH1 0x40 SHL SUB DUP3 AND DUP1 ISZERO SWAP1 DUP2 PUSH2 0x1D30 JUMPI JUMPDEST PUSH1 0x1 EQ SWAP1 DUP2 PUSH2 0x1D26 JUMPI JUMPDEST ISZERO SWAP1 DUP2 PUSH2 0x1D1D JUMPI JUMPDEST POP PUSH2 0x1D0B JUMPI PUSH2 0x934 SWAP1 PUSH1 0x1 PUSH1 0x1 PUSH1 0x1 PUSH1 0x40 SHL SUB NOT DUP5 AND OR PUSH1 0x0 DUP1 MLOAD PUSH1 0x20 PUSH2 0x4FC2 DUP4 CODECOPY DUP2 MLOAD SWAP2 MSTORE SSTORE PUSH1 0xFF DUP4 PUSH1 0x40 SHR AND ISZERO PUSH2 0x1CDE JUMPI JUMPDEST PUSH2 0x8CB PUSH2 0x4E8F JUMP JUMPDEST PUSH2 0x8D3 PUSH2 0x4E8F JUMP JUMPDEST PUSH2 0x8DB PUSH2 0x4E8F JUMP JUMPDEST PUSH2 0x8E3 PUSH2 0x4E8F JUMP JUMPDEST PUSH1 0x1 PUSH1 0x0 DUP1 MLOAD PUSH1 0x20 PUSH2 0x4FA2 DUP4 CODECOPY DUP2 MLOAD SWAP2 MSTORE SSTORE PUSH2 0x8FD PUSH2 0x4E8F JUMP JUMPDEST PUSH2 0x906 DUP2 PUSH2 0x48F1 JUMP JUMPDEST POP PUSH2 0x910 DUP2 PUSH2 0x497F JUMP JUMPDEST POP PUSH2 0x91A DUP2 PUSH2 0x4A29 JUMP JUMPDEST POP PUSH2 0x924 DUP2 PUSH2 0x4AD3 JUMP JUMPDEST POP PUSH2 0x92E DUP2 PUSH2 0x4B7D JUMP JUMPDEST POP PUSH2 0x4C27 JUMP JUMPDEST POP PUSH1 0x1 PUSH1 0xA SSTORE PUSH1 0x40 MLOAD PUSH2 0x946 DUP2 PUSH2 0x41AB JUMP JUMPDEST PUSH1 0x0 DUP2 MSTORE PUSH1 0x40 MLOAD PUSH2 0x956 DUP2 PUSH2 0x41AB JUMP JUMPDEST PUSH1 0x25 DUP2 MSTORE PUSH32 0x5370656564696E6720312D35206B7068206F766572206C696D69742028576172 PUSH1 0x20 DUP3 ADD MSTORE PUSH5 0x6E696E6729 PUSH1 0xD8 SHL PUSH1 0x40 DUP3 ADD MSTORE PUSH1 0x20 DUP3 ADD SWAP1 DUP2 MSTORE PUSH1 0x40 DUP3 ADD SWAP1 PUSH1 0x1 DUP3 MSTORE PUSH1 0x1 PUSH1 0x0 MSTORE PUSH1 0x4 PUSH1 0x20 MSTORE PUSH1 0x40 PUSH1 0x0 KECCAK256 SWAP3 MLOAD DUP4 SSTORE PUSH1 0x1 DUP4 ADD SWAP1 MLOAD DUP1 MLOAD SWAP1 PUSH1 0x1 PUSH1 0x1 PUSH1 0x40 SHL SUB DUP3 GT PUSH2 0x1763 JUMPI PUSH2 0x9D6 DUP3 PUSH2 0x3C6 DUP6 SLOAD PUSH2 0x4171 JUMP JUMPDEST PUSH1 0x20 SWAP1 PUSH1 0x1F DUP4 GT PUSH1 0x1 EQ PUSH2 0x1C6F JUMPI SWAP2 DUP1 PUSH1 0x2 SWAP5 SWAP3 PUSH2 0xA23 SWAP8 SWAP7 SWAP5 PUSH1 0x0 SWAP3 PUSH2 0x1C64 JUMPI JUMPDEST POP POP DUP2 PUSH1 0x1 SHL SWAP2 PUSH1 0x0 NOT SWAP1 PUSH1 0x3 SHL SHR NOT AND OR SWAP1 SSTORE JUMPDEST MLOAD ISZERO ISZERO SWAP2 ADD SWAP1 PUSH1 0xFF DUP1 NOT DUP4 SLOAD AND SWAP2 ISZERO ISZERO AND OR SWAP1 SSTORE JUMP JUMPDEST PUSH1 0x40 MLOAD SWAP1 PUSH2 0xA30 DUP3 PUSH2 0x41AB JUMP JUMPDEST PUSH2 0x1F4 DUP3 MSTORE PUSH1 0x40 MLOAD PUSH2 0xA41 DUP2 PUSH2 0x41E2 JUMP JUMPDEST PUSH1 0x1C DUP2 MSTORE PUSH32 0x5370656564696E6720362D3130206B7068206F766572206C696D697400000000 PUSH1 0x20 DUP3 ADD MSTORE PUSH1 0x20 DUP4 ADD SWAP1 DUP2 MSTORE PUSH1 0x1 PUSH1 0x40 DUP5 ADD MSTORE PUSH1 0x2 PUSH1 0x0 MSTORE PUSH1 0x4 PUSH1 0x20 MSTORE PUSH1 0x40 PUSH1 0x0 KECCAK256 SWAP1 DUP4 MLOAD DUP3 SSTORE MLOAD SWAP3 DUP4 MLOAD PUSH1 0x1 PUSH1 0x1 PUSH1 0x40 SHL SUB DUP2 GT PUSH2 0x1763 JUMPI PUSH2 0xAB9 DUP2 PUSH2 0xAB0 PUSH1 0x1 DUP7 ADD SLOAD PUSH2 0x4171 JUMP JUMPDEST PUSH1 0x1 DUP7 ADD PUSH2 0x442C JUMP JUMPDEST PUSH1 0x20 PUSH1 0x1F DUP3 GT PUSH1 0x1 EQ PUSH2 0x1C06 JUMPI SWAP2 DUP2 PUSH1 0x40 SWAP3 PUSH1 0x2 SWAP5 PUSH2 0xB0A SWAP8 SWAP9 PUSH1 0x0 SWAP3 PUSH2 0x1779 JUMPI JUMPDEST POP POP DUP2 PUSH1 0x1 SHL SWAP2 PUSH1 0x0 NOT SWAP1 PUSH1 0x3 SHL SHR NOT AND OR PUSH1 0x1 DUP6 ADD SSTORE JUMPDEST ADD MLOAD ISZERO ISZERO SWAP2 ADD SWAP1 PUSH1 0xFF DUP1 NOT DUP4 SLOAD AND SWAP2 ISZERO ISZERO AND OR SWAP1 SSTORE JUMP JUMPDEST PUSH1 0x40 MLOAD SWAP1 PUSH2 0xB17 DUP3 PUSH2 0x41AB JUMP JUMPDEST PUSH2 0xBB8 DUP3 MSTORE PUSH1 0x40 MLOAD PUSH2 0xB28 DUP2 PUSH2 0x41E2 JUMP JUMPDEST PUSH1 0x1D DUP2 MSTORE PUSH32 0x5370656564696E672031312D3135206B7068206F766572206C696D6974000000 PUSH1 0x20 DUP3 ADD MSTORE PUSH1 0x20 DUP4 ADD SWAP1 DUP2 MSTORE PUSH1 0x1 PUSH1 0x40 DUP5 ADD MSTORE PUSH1 0x3 PUSH1 0x0 MSTORE PUSH1 0x4 PUSH1 0x20 MSTORE PUSH1 0x40 PUSH1 0x0 KECCAK256 SWAP1 DUP4 MLOAD DUP3 SSTORE MLOAD SWAP3 DUP4 MLOAD PUSH1 0x1 PUSH1 0x1 PUSH1 0x40 SHL SUB DUP2 GT PUSH2 0x1763 JUMPI PUSH2 0xB97 DUP2 PUSH2 0xAB0 PUSH1 0x1 DUP7 ADD SLOAD PUSH2 0x4171 JUMP JUMPDEST PUSH1 0x20 PUSH1 0x1F DUP3 GT PUSH1 0x1 EQ PUSH2 0x1BA8 JUMPI SWAP2 DUP2 PUSH1 0x40 SWAP3 PUSH1 0x2 SWAP5 PUSH2 0xBE6 SWAP8 SWAP9 PUSH1 0x0 SWAP3 PUSH2 0x1779 JUMPI POP POP DUP2 PUSH1 0x1 SHL SWAP2 PUSH1 0x0 NOT SWAP1 PUSH1 0x3 SHL SHR NOT AND OR PUSH1 0x1 DUP6 ADD SSTORE ADD MLOAD ISZERO ISZERO SWAP2 ADD SWAP1 PUSH1 0xFF DUP1 NOT DUP4 SLOAD AND SWAP2 ISZERO ISZERO AND OR SWAP1 SSTORE JUMP JUMPDEST PUSH1 0x40 MLOAD SWAP1 PUSH2 0xBF3 DUP3 PUSH2 0x41AB JUMP JUMPDEST PUSH2 0x2710 DUP3 MSTORE PUSH1 0x40 MLOAD PUSH2 0xC04 DUP2 PUSH2 0x41E2 JUMP JUMPDEST PUSH1 0x1D DUP2 MSTORE PUSH32 0x5370656564696E672031362D3230206B7068206F766572206C696D6974000000 PUSH1 0x20 DUP3 ADD MSTORE PUSH1 0x20 DUP4 ADD SWAP1 DUP2 MSTORE PUSH1 0x1 PUSH1 0x40 DUP5 ADD MSTORE PUSH1 0x4 PUSH1 0x0 MSTORE PUSH1 0x4 PUSH1 0x20 MSTORE PUSH1 0x40 PUSH1 0x0 KECCAK256 SWAP1 DUP4 MLOAD DUP3 SSTORE MLOAD SWAP3 DUP4 MLOAD PUSH1 0x1 PUSH1 0x1 PUSH1 0x40 SHL SUB DUP2 GT PUSH2 0x1763 JUMPI PUSH2 0xC73 DUP2 PUSH2 0xAB0 PUSH1 0x1 DUP7 ADD SLOAD PUSH2 0x4171 JUMP JUMPDEST PUSH1 0x20 PUSH1 0x1F DUP3 GT PUSH1 0x1 EQ PUSH2 0x1B4A JUMPI SWAP2 DUP2 PUSH1 0x40 SWAP3 PUSH1 0x2 SWAP5 PUSH2 0xCC2 SWAP8 SWAP9 PUSH1 0x0 SWAP3 PUSH2 0x1779 JUMPI POP POP DUP2 PUSH1 0x1 SHL SWAP2 PUSH1 0x0 NOT SWAP1 PUSH1 0x3 SHL SHR NOT AND OR PUSH1 0x1 DUP6 ADD SSTORE ADD MLOAD ISZERO ISZERO SWAP2 ADD SWAP1 PUSH1 0xFF DUP1 NOT DUP4 SLOAD AND SWAP2 ISZERO ISZERO AND OR SWAP1 SSTORE JUMP JUMPDEST PUSH1 0x40 MLOAD SWAP1 PUSH2 0xCCF DUP3 PUSH2 0x41AB JUMP JUMPDEST PUSH2 0x1F4 DUP3 MSTORE PUSH1 0x40 MLOAD PUSH2 0xCE0 DUP2 PUSH2 0x41E2 JUMP JUMPDEST PUSH1 0x18 DUP2 MSTORE PUSH32 0x4661696C75726520746F2077656172207365617462656C740000000000000000 PUSH1 0x20 DUP3 ADD MSTORE PUSH1 0x20 DUP4 ADD SWAP1 DUP2 MSTORE PUSH1 0x1 PUSH1 0x40 DUP5 ADD MSTORE PUSH1 0x5 PUSH1 0x0 MSTORE PUSH1 0x4 PUSH1 0x20 MSTORE PUSH1 0x40 PUSH1 0x0 KECCAK256 SWAP1 DUP4 MLOAD DUP3 SSTORE MLOAD SWAP3 DUP4 MLOAD PUSH1 0x1 PUSH1 0x1 PUSH1 0x40 SHL SUB DUP2 GT PUSH2 0x1763 JUMPI PUSH2 0xD4F DUP2 PUSH2 0xAB0 PUSH1 0x1 DUP7 ADD SLOAD PUSH2 0x4171 JUMP JUMPDEST PUSH1 0x20 PUSH1 0x1F DUP3 GT PUSH1 0x1 EQ PUSH2 0x1AEC JUMPI SWAP2 DUP2 PUSH1 0x40 SWAP3 PUSH1 0x2 SWAP5 PUSH2 0xD9E SWAP8 SWAP9 PUSH1 0x0 SWAP3 PUSH2 0x1779 JUMPI POP POP DUP2 PUSH1 0x1 SHL SWAP2 PUSH1 0x0 NOT SWAP1 PUSH1 0x3 SHL SHR NOT AND OR PUSH1 0x1 DUP6 ADD SSTORE ADD MLOAD ISZERO ISZERO SWAP2 ADD SWAP1 PUSH1 0xFF DUP1 NOT DUP4 SLOAD AND SWAP2 ISZERO ISZERO AND OR SWAP1 SSTORE JUMP JUMPDEST PUSH1 0x40 MLOAD SWAP1 PUSH2 0xDAB DUP3 PUSH2 0x41AB JUMP JUMPDEST PUSH2 0xBB8 DUP3 MSTORE PUSH1 0x40 MLOAD PUSH2 0xDBC DUP2 PUSH2 0x41E2 JUMP JUMPDEST PUSH1 0x1D DUP2 MSTORE PUSH32 0x44726976696E6720776974686F75742076616C6964206C6963656E7365000000 PUSH1 0x20 DUP3 ADD MSTORE PUSH1 0x20 DUP4 ADD SWAP1 DUP2 MSTORE PUSH1 0x1 PUSH1 0x40 DUP5 ADD MSTORE PUSH1 0x6 PUSH1 0x0 MSTORE PUSH1 0x4 PUSH1 0x20 MSTORE PUSH1 0x40 PUSH1 0x0 KECCAK256 SWAP1 DUP4 MLOAD DUP3 SSTORE MLOAD SWAP3 DUP4 MLOAD PUSH1 0x1 PUSH1 0x1 PUSH1 0x40 SHL SUB DUP2 GT PUSH2 0x1763 JUMPI PUSH2 0xE2B DUP2 PUSH2 0xAB0 PUSH1 0x1 DUP7 ADD SLOAD PUSH2 0x4171 JUMP JUMPDEST PUSH1 0x20 PUSH1 0x1F DUP3 GT PUSH1 0x1 EQ PUSH2 0x1A8E JUMPI SWAP2 DUP2 PUSH1 0x40 SWAP3 PUSH1 0x2 SWAP5 PUSH2 0xE7A SWAP8 SWAP9 PUSH1 0x0 SWAP3 PUSH2 0x1779 JUMPI POP POP DUP2 PUSH1 0x1 SHL SWAP2 PUSH1 0x0 NOT SWAP1 PUSH1 0x3 SHL SHR NOT AND OR PUSH1 0x1 DUP6 ADD SSTORE ADD MLOAD ISZERO ISZERO SWAP2 ADD SWAP1 PUSH1 0xFF DUP1 NOT DUP4 SLOAD AND SWAP2 ISZERO ISZERO AND OR SWAP1 SSTORE JUMP JUMPDEST PUSH1 0x40 MLOAD SWAP1 PUSH2 0xE87 DUP3 PUSH2 0x41AB JUMP JUMPDEST PUSH2 0xBB8 DUP3 MSTORE PUSH1 0x40 MLOAD PUSH2 0xE98 DUP2 PUSH2 0x41E2 JUMP JUMPDEST PUSH1 0x1D DUP2 MSTORE PUSH32 0x4661696C75726520746F206F6265792074726166666963207369676E73000000 PUSH1 0x20 DUP3 ADD MSTORE PUSH1 0x20 DUP4 ADD SWAP1 DUP2 MSTORE PUSH1 0x1 PUSH1 0x40 DUP5 ADD MSTORE PUSH1 0x7 PUSH1 0x0 MSTORE PUSH1 0x4 PUSH1 0x20 MSTORE PUSH1 0x40 PUSH1 0x0 KECCAK256 SWAP1 DUP4 MLOAD DUP3 SSTORE MLOAD SWAP3 DUP4 MLOAD PUSH1 0x1 PUSH1 0x1 PUSH1 0x40 SHL SUB DUP2 GT PUSH2 0x1763 JUMPI PUSH2 0xF07 DUP2 PUSH2 0xAB0 PUSH1 0x1 DUP7 ADD SLOAD PUSH2 0x4171 JUMP JUMPDEST PUSH1 0x20 PUSH1 0x1F DUP3 GT PUSH1 0x1 EQ PUSH2 0x1A30 JUMPI SWAP2 DUP2 PUSH1 0x40 SWAP3 PUSH1 0x2 SWAP5 PUSH2 0xF56 SWAP8 SWAP9 PUSH1 0x0 SWAP3 PUSH2 0x1779 JUMPI POP POP DUP2 PUSH1 0x1 SHL SWAP2 PUSH1 0x0 NOT SWAP1 PUSH1 0x3 SHL SHR NOT AND OR PUSH1 0x1 DUP6 ADD SSTORE ADD MLOAD ISZERO ISZERO SWAP2 ADD SWAP1 PUSH1 0xFF DUP1 NOT DUP4 SLOAD AND SWAP2 ISZERO ISZERO AND OR SWAP1 SSTORE JUMP JUMPDEST PUSH1 0x40 MLOAD SWAP1 PUSH2 0xF63 DUP3 PUSH2 0x41AB JUMP JUMPDEST PUSH2 0x1388 DUP3 MSTORE PUSH1 0x40 MLOAD PUSH2 0xF74 DUP2 PUSH2 0x41AB JUMP JUMPDEST PUSH1 0x27 DUP2 MSTORE PUSH32 0x4661696C75726520746F2073746F70207768656E207369676E616C6564206279 PUSH1 0x20 DUP3 ADD MSTORE PUSH7 0x20706F6C696365 PUSH1 0xC8 SHL PUSH1 0x40 DUP3 ADD MSTORE PUSH1 0x20 DUP4 ADD SWAP1 DUP2 MSTORE PUSH1 0x1 PUSH1 0x40 DUP5 ADD MSTORE PUSH1 0x8 PUSH1 0x0 MSTORE PUSH1 0x4 PUSH1 0x20 MSTORE PUSH1 0x40 PUSH1 0x0 KECCAK256 SWAP1 DUP4 MLOAD DUP3 SSTORE MLOAD SWAP3 DUP4 MLOAD PUSH1 0x1 PUSH1 0x1 PUSH1 0x40 SHL SUB DUP2 GT PUSH2 0x1763 JUMPI PUSH2 0xFF3 DUP2 PUSH2 0xAB0 PUSH1 0x1 DUP7 ADD SLOAD PUSH2 0x4171 JUMP JUMPDEST PUSH1 0x20 PUSH1 0x1F DUP3 GT PUSH1 0x1 EQ PUSH2 0x19D2 JUMPI SWAP2 DUP2 PUSH1 0x40 SWAP3 PUSH1 0x2 SWAP5 PUSH2 0x1042 SWAP8 SWAP9 PUSH1 0x0 SWAP3 PUSH2 0x1779 JUMPI POP POP DUP2 PUSH1 0x1 SHL SWAP2 PUSH1 0x0 NOT SWAP1 PUSH1 0x3 SHL SHR NOT AND OR PUSH1 0x1 DUP6 ADD SSTORE ADD MLOAD ISZERO ISZERO SWAP2 ADD SWAP1 PUSH1 0xFF DUP1 NOT DUP4 SLOAD AND SWAP2 ISZERO ISZERO AND OR SWAP1 SSTORE JUMP JUMPDEST PUSH1 0x40 MLOAD SWAP1 PUSH2 0x104F DUP3 PUSH2 0x41AB JUMP JUMPDEST PUSH2 0x2710 DUP3 MSTORE PUSH1 0x40 MLOAD PUSH2 0x1060 DUP2 PUSH2 0x41E2 JUMP JUMPDEST PUSH1 0x20 DUP2 MSTORE PUSH32 0x43617573696E67206F62737472756374696F6E20776974682076656869636C65 PUSH1 0x20 DUP3 ADD MSTORE PUSH1 0x20 DUP4 ADD SWAP1 DUP2 MSTORE PUSH1 0x1 PUSH1 0x40 DUP5 ADD MSTORE PUSH1 0x9 PUSH1 0x0 MSTORE PUSH1 0x4 PUSH1 0x20 MSTORE PUSH1 0x40 PUSH1 0x0 KECCAK256 SWAP1 DUP4 MLOAD DUP3 SSTORE MLOAD SWAP3 DUP4 MLOAD PUSH1 0x1 PUSH1 0x1 PUSH1 0x40 SHL SUB DUP2 GT PUSH2 0x1763 JUMPI PUSH2 0x10CF DUP2 PUSH2 0xAB0 PUSH1 0x1 DUP7 ADD SLOAD PUSH2 0x4171 JUMP JUMPDEST PUSH1 0x20 PUSH1 0x1F DUP3 GT PUSH1 0x1 EQ PUSH2 0x1974 JUMPI SWAP2 DUP2 PUSH1 0x40 SWAP3 PUSH1 0x2 SWAP5 PUSH2 0x111E SWAP8 SWAP9 PUSH1 0x0 SWAP3 PUSH2 0x1779 JUMPI POP POP DUP2 PUSH1 0x1 SHL SWAP2 PUSH1 0x0 NOT SWAP1 PUSH1 0x3 SHL SHR NOT AND OR PUSH1 0x1 DUP6 ADD SSTORE ADD MLOAD ISZERO ISZERO SWAP2 ADD SWAP1 PUSH1 0xFF DUP1 NOT DUP4 SLOAD AND SWAP2 ISZERO ISZERO AND OR SWAP1 SSTORE JUMP JUMPDEST PUSH1 0x40 MLOAD SWAP1 PUSH2 0x112B DUP3 PUSH2 0x41AB JUMP JUMPDEST PUSH2 0x1388 DUP3 MSTORE PUSH1 0x40 MLOAD PUSH2 0x113C DUP2 PUSH2 0x41AB JUMP JUMPDEST PUSH1 0x29 DUP2 MSTORE PUSH32 0x44726976696E67206F6E20706176656D656E74206F7220706564657374726961 PUSH1 0x20 DUP3 ADD MSTORE PUSH9 0x6E2077616C6B776179 PUSH1 0xB8 SHL PUSH1 0x40 DUP3 ADD MSTORE PUSH1 0x20 DUP4 ADD SWAP1 DUP2 MSTORE PUSH1 0x1 PUSH1 0x40 DUP5 ADD MSTORE PUSH1 0xA PUSH1 0x0 MSTORE PUSH1 0x4 PUSH1 0x20 MSTORE PUSH1 0x40 PUSH1 0x0 KECCAK256 SWAP1 DUP4 MLOAD DUP3 SSTORE MLOAD SWAP3 DUP4 MLOAD PUSH1 0x1 PUSH1 0x1 PUSH1 0x40 SHL SUB DUP2 GT PUSH2 0x1763 JUMPI PUSH2 0x11BD DUP2 PUSH2 0xAB0 PUSH1 0x1 DUP7 ADD SLOAD PUSH2 0x4171 JUMP JUMPDEST PUSH1 0x20 PUSH1 0x1F DUP3 GT PUSH1 0x1 EQ PUSH2 0x1916 JUMPI SWAP2 DUP2 PUSH1 0x40 SWAP3 PUSH1 0x2 SWAP5 PUSH2 0x120C SWAP8 SWAP9 PUSH1 0x0 SWAP3 PUSH2 0x1779 JUMPI POP POP DUP2 PUSH1 0x1 SHL SWAP2 PUSH1 0x0 NOT SWAP1 PUSH1 0x3 SHL SHR NOT AND OR PUSH1 0x1 DUP6 ADD SSTORE ADD MLOAD ISZERO ISZERO SWAP2 ADD SWAP1 PUSH1 0xFF DUP1 NOT DUP4 SLOAD AND SWAP2 ISZERO ISZERO AND OR SWAP1 SSTORE JUMP JUMPDEST PUSH1 0x40 MLOAD SWAP1 PUSH2 0x1219 DUP3 PUSH2 0x41AB JUMP JUMPDEST PUSH2 0x2710 DUP3 MSTORE PUSH1 0x40 MLOAD PUSH2 0x122A DUP2 PUSH2 0x41AB JUMP JUMPDEST PUSH1 0x25 DUP2 MSTORE PUSH32 0x44726976696E6720776974686F7574206964656E74696669636174696F6E2070 PUSH1 0x20 DUP3 ADD MSTORE PUSH5 0x6C61746573 PUSH1 0xD8 SHL PUSH1 0x40 DUP3 ADD MSTORE PUSH1 0x20 DUP4 ADD SWAP1 DUP2 MSTORE PUSH1 0x1 PUSH1 0x40 DUP5 ADD MSTORE PUSH1 0xB PUSH1 0x0 MSTORE PUSH1 0x4 PUSH1 0x20 MSTORE PUSH1 0x40 PUSH1 0x0 KECCAK256 SWAP1 DUP4 MLOAD DUP3 SSTORE MLOAD SWAP3 DUP4 MLOAD PUSH1 0x1 PUSH1 0x1 PUSH1 0x40 SHL SUB DUP2 GT PUSH2 0x1763 JUMPI PUSH2 0x12A7 DUP2 PUSH2 0xAB0 PUSH1 0x1 DUP7 ADD SLOAD PUSH2 0x4171 JUMP JUMPDEST PUSH1 0x20 PUSH1 0x1F DUP3 GT PUSH1 0x1 EQ PUSH2 0x18B8 JUMPI SWAP2 DUP2 PUSH1 0x40 SWAP3 PUSH1 0x2 SWAP5 PUSH2 0x12F6 SWAP8 SWAP9 PUSH1 0x0 SWAP3 PUSH2 0x1779 JUMPI POP POP DUP2 PUSH1 0x1 SHL SWAP2 PUSH1 0x0 NOT SWAP1 PUSH1 0x3 SHL SHR NOT AND OR PUSH1 0x1 DUP6 ADD SSTORE ADD MLOAD ISZERO ISZERO SWAP2 ADD SWAP1 PUSH1 0xFF DUP1 NOT DUP4 SLOAD AND SWAP2 ISZERO ISZERO AND OR SWAP1 SSTORE JUMP JUMPDEST PUSH1 0x40 MLOAD SWAP1 PUSH2 0x1303 DUP3 PUSH2 0x41AB JUMP JUMPDEST PUSH2 0x3E8 DUP3 MSTORE PUSH1 0x40 MLOAD PUSH2 0x1314 DUP2 PUSH2 0x41AB JUMP JUMPDEST PUSH1 0x33 DUP2 MSTORE PUSH32 0x4D6F746F726379636C65206361727279696E67206D6F7265207468616E206F6E PUSH1 0x20 DUP3 ADD MSTORE PUSH19 0x32903834B63634B7B7103830B9B9B2B733B2B9 PUSH1 0x69 SHL PUSH1 0x40 DUP3 ADD MSTORE PUSH1 0x20 DUP4 ADD SWAP1 DUP2 MSTORE PUSH1 0x1 PUSH1 0x40 DUP5 ADD MSTORE PUSH1 0xC PUSH1 0x0 MSTORE PUSH1 0x4 PUSH1 0x20 MSTORE PUSH1 0x40 PUSH1 0x0 KECCAK256 SWAP1 DUP4 MLOAD DUP3 SSTORE MLOAD SWAP3 DUP4 MLOAD PUSH1 0x1 PUSH1 0x1 PUSH1 0x40 SHL SUB DUP2 GT PUSH2 0x1763 JUMPI PUSH2 0x139F DUP2 PUSH2 0xAB0 PUSH1 0x1 DUP7 ADD SLOAD PUSH2 0x4171 JUMP JUMPDEST PUSH1 0x20 PUSH1 0x1F DUP3 GT PUSH1 0x1 EQ PUSH2 0x185A JUMPI SWAP2 DUP2 PUSH1 0x40 SWAP3 PUSH1 0x2 SWAP5 PUSH2 0x13EE SWAP8 SWAP9 PUSH1 0x0 SWAP3 PUSH2 0x1779 JUMPI POP POP DUP2 PUSH1 0x1 SHL SWAP2 PUSH1 0x0 NOT SWAP1 PUSH1 0x3 SHL SHR NOT AND OR PUSH1 0x1 DUP6 ADD SSTORE ADD MLOAD ISZERO ISZERO SWAP2 ADD SWAP1 PUSH1 0xFF DUP1 NOT DUP4 SLOAD AND SWAP2 ISZERO ISZERO AND OR SWAP1 SSTORE JUMP JUMPDEST PUSH1 0x40 MLOAD SWAP1 PUSH2 0x13FB DUP3 PUSH2 0x41AB JUMP JUMPDEST PUSH2 0xBB8 DUP3 MSTORE PUSH1 0x40 MLOAD PUSH2 0x140C DUP2 PUSH2 0x41E2 JUMP JUMPDEST PUSH1 0x7 DUP2 MSTORE PUSH7 0x546F7574696E67 PUSH1 0xC8 SHL PUSH1 0x20 DUP3 ADD MSTORE PUSH1 0x20 DUP4 ADD SWAP1 DUP2 MSTORE PUSH1 0x1 PUSH1 0x40 DUP5 ADD MSTORE PUSH1 0xD PUSH1 0x0 MSTORE PUSH1 0x4 PUSH1 0x20 MSTORE PUSH1 0x40 PUSH1 0x0 KECCAK256 SWAP1 DUP4 MLOAD DUP3 SSTORE MLOAD SWAP3 DUP4 MLOAD PUSH1 0x1 PUSH1 0x1 PUSH1 0x40 SHL SUB DUP2 GT PUSH2 0x1763 JUMPI PUSH2 0x1465 DUP2 PUSH2 0xAB0 PUSH1 0x1 DUP7 ADD SLOAD PUSH2 0x4171 JUMP JUMPDEST PUSH1 0x20 PUSH1 0x1F DUP3 GT PUSH1 0x1 EQ PUSH2 0x17FC JUMPI SWAP2 DUP2 PUSH1 0x40 SWAP3 PUSH1 0x2 SWAP5 PUSH2 0x14B4 SWAP8 SWAP9 PUSH1 0x0 SWAP3 PUSH2 0x1779 JUMPI POP POP DUP2 PUSH1 0x1 SHL SWAP2 PUSH1 0x0 NOT SWAP1 PUSH1 0x3 SHL SHR NOT AND OR PUSH1 0x1 DUP6 ADD SSTORE ADD MLOAD ISZERO ISZERO SWAP2 ADD SWAP1 PUSH1 0xFF DUP1 NOT DUP4 SLOAD AND SWAP2 ISZERO ISZERO AND OR SWAP1 SSTORE JUMP JUMPDEST PUSH1 0x40 MLOAD SWAP1 PUSH2 0x14C1 DUP3 PUSH2 0x41AB JUMP JUMPDEST PUSH2 0x7D0 DUP3 MSTORE PUSH1 0x40 MLOAD PUSH2 0x14D2 DUP2 PUSH2 0x41E2 JUMP JUMPDEST PUSH1 0x20 DUP2 MSTORE PUSH32 0x5573696E67206D6F62696C652070686F6E65207768696C652064726976696E67 PUSH1 0x20 DUP3 ADD MSTORE PUSH1 0x20 DUP4 ADD SWAP1 DUP2 MSTORE PUSH1 0x1 PUSH1 0x40 DUP5 ADD MSTORE PUSH1 0xE PUSH1 0x0 MSTORE PUSH1 0x4 PUSH1 0x20 MSTORE PUSH1 0x40 PUSH1 0x0 KECCAK256 SWAP1 DUP4 MLOAD DUP3 SSTORE MLOAD SWAP3 DUP4 MLOAD PUSH1 0x1 PUSH1 0x1 PUSH1 0x40 SHL SUB DUP2 GT PUSH2 0x1763 JUMPI PUSH2 0x1541 DUP2 PUSH2 0xAB0 PUSH1 0x1 DUP7 ADD SLOAD PUSH2 0x4171 JUMP JUMPDEST PUSH1 0x20 PUSH1 0x1F DUP3 GT PUSH1 0x1 EQ PUSH2 0x1784 JUMPI SWAP2 DUP2 PUSH1 0x40 SWAP3 PUSH1 0x2 SWAP5 PUSH2 0x1590 SWAP8 SWAP9 PUSH1 0x0 SWAP3 PUSH2 0x1779 JUMPI POP POP DUP2 PUSH1 0x1 SHL SWAP2 PUSH1 0x0 NOT SWAP1 PUSH1 0x3 SHL SHR NOT AND OR PUSH1 0x1 DUP6 ADD SSTORE ADD MLOAD ISZERO ISZERO SWAP2 ADD SWAP1 PUSH1 0xFF DUP1 NOT DUP4 SLOAD AND SWAP2 ISZERO ISZERO AND OR SWAP1 SSTORE JUMP JUMPDEST PUSH1 0x40 MLOAD SWAP1 PUSH2 0x159D DUP3 PUSH2 0x41AB JUMP JUMPDEST PUSH2 0x2710 DUP3 MSTORE PUSH1 0x40 MLOAD PUSH2 0x15AE DUP2 PUSH2 0x41AB JUMP JUMPDEST PUSH1 0x2C DUP2 MSTORE PUSH32 0x44726976696E6720776974686F75742076616C696420696E7370656374696F6E PUSH1 0x20 DUP3 ADD MSTORE PUSH12 0x206365727469666963617465 PUSH1 0xA0 SHL PUSH1 0x40 DUP3 ADD MSTORE PUSH1 0x20 DUP4 ADD SWAP1 DUP2 MSTORE PUSH1 0x40 DUP4 ADD SWAP1 PUSH1 0x1 DUP3 MSTORE PUSH1 0xF PUSH1 0x0 MSTORE PUSH1 0x4 PUSH1 0x20 MSTORE PUSH1 0x40 PUSH1 0x0 KECCAK256 SWAP4 MLOAD DUP5 SSTORE PUSH1 0x1 DUP5 ADD SWAP1 MLOAD DUP1 MLOAD SWAP1 PUSH1 0x1 PUSH1 0x1 PUSH1 0x40 SHL SUB DUP3 GT PUSH2 0x1763 JUMPI PUSH2 0x1635 DUP3 PUSH2 0x3C6 DUP6 SLOAD PUSH2 0x4171 JUMP JUMPDEST PUSH1 0x20 SWAP1 PUSH1 0x1F DUP4 GT PUSH1 0x1 EQ PUSH2 0x16F1 JUMPI SWAP3 DUP3 PUSH1 0x2 SWAP4 PUSH2 0x1682 SWAP7 SWAP4 PUSH1 0xFF SWAP10 SWAP7 PUSH1 0x0 SWAP3 PUSH2 0x16E6 JUMPI POP POP DUP2 PUSH1 0x1 SHL SWAP2 PUSH1 0x0 NOT SWAP1 PUSH1 0x3 SHL SHR NOT AND OR SWAP1 SSTORE MLOAD ISZERO ISZERO SWAP2 ADD SWAP1 PUSH1 0xFF DUP1 NOT DUP4 SLOAD AND SWAP2 ISZERO ISZERO AND OR SWAP1 SSTORE JUMP JUMPDEST PUSH1 0x40 SHR AND ISZERO PUSH2 0x168D JUMPI STOP JUMPDEST PUSH9 0xFF0000000000000000 NOT PUSH1 0x0 DUP1 MLOAD PUSH1 0x20 PUSH2 0x4FC2 DUP4 CODECOPY DUP2 MLOAD SWAP2 MSTORE SLOAD AND PUSH1 0x0 DUP1 MLOAD PUSH1 0x20 PUSH2 0x4FC2 DUP4 CODECOPY DUP2 MLOAD SWAP2 MSTORE SSTORE PUSH32 0xC7F505B2F371AE2175EE4913F4499E1F2633A7B5936321EED1CDAEB6115181D2 PUSH1 0x20 PUSH1 0x40 MLOAD PUSH1 0x1 DUP2 MSTORE LOG1 STOP JUMPDEST ADD MLOAD SWAP1 POP DUP10 DUP1 PUSH2 0x9F8 JUMP JUMPDEST SWAP1 PUSH1 0x1F NOT DUP4 AND SWAP2 DUP5 PUSH1 0x0 MSTORE PUSH1 0x20 PUSH1 0x0 KECCAK256 SWAP3 PUSH1 0x0 JUMPDEST DUP2 DUP2 LT PUSH2 0x174B JUMPI POP SWAP4 PUSH2 0x1682 SWAP7 SWAP4 PUSH1 0xFF SWAP10 SWAP7 SWAP4 PUSH1 0x1 SWAP4 DUP4 PUSH1 0x2 SWAP9 LT PUSH2 0x1732 JUMPI JUMPDEST POP POP POP DUP2 SHL ADD SWAP1 SSTORE PUSH2 0xA0D JUMP JUMPDEST ADD MLOAD PUSH1 0x0 NOT PUSH1 0xF8 DUP5 PUSH1 0x3 SHL AND SHR NOT AND SWAP1 SSTORE DUP10 DUP1 DUP1 PUSH2 0x1725 JUMP JUMPDEST SWAP3 SWAP4 PUSH1 0x20 PUSH1 0x1 DUP2 SWAP3 DUP8 DUP7 ADD MLOAD DUP2 SSTORE ADD SWAP6 ADD SWAP4 ADD PUSH2 0x1705 JUMP JUMPDEST PUSH4 0x4E487B71 PUSH1 0xE0 SHL PUSH1 0x0 MSTORE PUSH1 0x41 PUSH1 0x4 MSTORE PUSH1 0x24 PUSH1 0x0 REVERT JUMPDEST ADD MLOAD SWAP1 POP DUP9 DUP1 PUSH2 0xADB JUMP JUMPDEST PUSH1 0x1 DUP5 ADD PUSH1 0x0 MSTORE PUSH1 0x20 PUSH1 0x0 KECCAK256 SWAP6 PUSH1 0x0 JUMPDEST PUSH1 0x1F NOT DUP5 AND DUP2 LT PUSH2 0x17E4 JUMPI POP DUP3 PUSH2 0x1590 SWAP7 SWAP8 PUSH1 0x2 SWAP6 SWAP4 PUSH1 0x1 SWAP4 PUSH1 0x40 SWAP7 PUSH1 0x1F NOT DUP2 AND LT PUSH2 0x17CB JUMPI JUMPDEST POP POP POP DUP2 SHL ADD PUSH1 0x1 DUP6 ADD SSTORE PUSH2 0xAF3 JUMP JUMPDEST ADD MLOAD PUSH1 0x0 NOT PUSH1 0xF8 DUP5 PUSH1 0x3 SHL AND SHR NOT AND SWAP1 SSTORE DUP9 DUP1 DUP1 PUSH2 0x17BB JUMP JUMPDEST DUP3 DUP3 ADD MLOAD DUP9 SSTORE PUSH1 0x1 SWAP1 SWAP8 ADD SWAP7 PUSH1 0x20 SWAP3 DUP4 ADD SWAP3 ADD PUSH2 0x1794 JUMP JUMPDEST PUSH1 0x1 DUP5 ADD PUSH1 0x0 MSTORE PUSH1 0x20 PUSH1 0x0 KECCAK256 SWAP6 PUSH1 0x0 JUMPDEST PUSH1 0x1F NOT DUP5 AND DUP2 LT PUSH2 0x1842 JUMPI POP DUP3 PUSH2 0x14B4 SWAP7 SWAP8 PUSH1 0x2 SWAP6 SWAP4 PUSH1 0x1 SWAP4 PUSH1 0x40 SWAP7 PUSH1 0x1F NOT DUP2 AND LT PUSH2 0x17CB JUMPI POP POP POP DUP2 SHL ADD PUSH1 0x1 DUP6 ADD SSTORE PUSH2 0xAF3 JUMP JUMPDEST DUP3 DUP3 ADD MLOAD DUP9 SSTORE PUSH1 0x1 SWAP1 SWAP8 ADD SWAP7 PUSH1 0x20 SWAP3 DUP4 ADD SWAP3 ADD PUSH2 0x180C JUMP JUMPDEST PUSH1 0x1 DUP5 ADD PUSH1 0x0 MSTORE PUSH1 0x20 PUSH1 0x0 KECCAK256 SWAP6 PUSH1 0x0 JUMPDEST PUSH1 0x1F NOT DUP5 AND DUP2 LT PUSH2 0x18A0 JUMPI POP DUP3 PUSH2 0x13EE SWAP7 SWAP8 PUSH1 0x2 SWAP6 SWAP4 PUSH1 0x1 SWAP4 PUSH1 0x40 SWAP7 PUSH1 0x1F NOT DUP2 AND LT PUSH2 0x17CB JUMPI POP POP POP DUP2 SHL ADD PUSH1 0x1 DUP6 ADD SSTORE PUSH2 0xAF3 JUMP JUMPDEST DUP3 DUP3 ADD MLOAD DUP9 SSTORE PUSH1 0x1 SWAP1 SWAP8 ADD SWAP7 PUSH1 0x20 SWAP3 DUP4 ADD SWAP3 ADD PUSH2 0x186A JUMP JUMPDEST PUSH1 0x1 DUP5 ADD PUSH1 0x0 MSTORE PUSH1 0x20 PUSH1 0x0 KECCAK256 SWAP6 PUSH1 0x0 JUMPDEST PUSH1 0x1F NOT DUP5 AND DUP2 LT PUSH2 0x18FE JUMPI POP DUP3 PUSH2 0x12F6 SWAP7 SWAP8 PUSH1 0x2 SWAP6 SWAP4 PUSH1 0x1 SWAP4 PUSH1 0x40 SWAP7 PUSH1 0x1F NOT DUP2 AND LT PUSH2 0x17CB JUMPI POP POP POP DUP2 SHL ADD PUSH1 0x1 DUP6 ADD SSTORE PUSH2 0xAF3 JUMP JUMPDEST DUP3 DUP3 ADD MLOAD DUP9 SSTORE PUSH1 0x1 SWAP1 SWAP8 ADD SWAP7 PUSH1 0x20 SWAP3 DUP4 ADD SWAP3 ADD PUSH2 0x18C8 JUMP JUMPDEST PUSH1 0x1 DUP5 ADD PUSH1 0x0 MSTORE PUSH1 0x20 PUSH1 0x0 KECCAK256 SWAP6 PUSH1 0x0 JUMPDEST PUSH1 0x1F NOT DUP5 AND DUP2 LT PUSH2 0x195C JUMPI POP DUP3 PUSH2 0x120C SWAP7 SWAP8 PUSH1 0x2 SWAP6 SWAP4 PUSH1 0x1 SWAP4 PUSH1 0x40 SWAP7 PUSH1 0x1F NOT DUP2 AND LT PUSH2 0x17CB JUMPI POP POP POP DUP2 SHL ADD PUSH1 0x1 DUP6 ADD SSTORE PUSH2 0xAF3 JUMP JUMPDEST DUP3 DUP3 ADD MLOAD DUP9 SSTORE PUSH1 0x1 SWAP1 SWAP8 ADD SWAP7 PUSH1 0x20 SWAP3 DUP4 ADD SWAP3 ADD PUSH2 0x1926 JUMP JUMPDEST PUSH1 0x1 DUP5 ADD PUSH1 0x0 MSTORE PUSH1 0x20 PUSH1 0x0 KECCAK256 SWAP6 PUSH1 0x0 JUMPDEST PUSH1 0x1F NOT DUP5 AND DUP2 LT PUSH2 0x19BA JUMPI POP DUP3 PUSH2 0x111E SWAP7 SWAP8 PUSH1 0x2 SWAP6 SWAP4 PUSH1 0x1 SWAP4 PUSH1 0x40 SWAP7 PUSH1 0x1F NOT DUP2 AND LT PUSH2 0x17CB JUMPI POP POP POP DUP2 SHL ADD PUSH1 0x1 DUP6 ADD SSTORE PUSH2 0xAF3 JUMP JUMPDEST DUP3 DUP3 ADD MLOAD DUP9 SSTORE PUSH1 0x1 SWAP1 SWAP8 ADD SWAP7 PUSH1 0x20 SWAP3 DUP4 ADD SWAP3 ADD PUSH2 0x1984 JUMP JUMPDEST PUSH1 0x1 DUP5 ADD PUSH1 0x0 MSTORE PUSH1 0x20 PUSH1 0x0 KECCAK256 SWAP6 PUSH1 0x0 JUMPDEST PUSH1 0x1F NOT DUP5 AND DUP2 LT PUSH2 0x1A18 JUMPI POP DUP3 PUSH2 0x1042 SWAP7 SWAP8 PUSH1 0x2 SWAP6 SWAP4 PUSH1 0x1 SWAP4 PUSH1 0x40 SWAP7 PUSH1 0x1F NOT DUP2 AND LT PUSH2 0x17CB JUMPI POP POP POP DUP2 SHL ADD PUSH1 0x1 DUP6 ADD SSTORE PUSH2 0xAF3 JUMP JUMPDEST DUP3 DUP3 ADD MLOAD DUP9 SSTORE PUSH1 0x1 SWAP1 SWAP8 ADD SWAP7 PUSH1 0x20 SWAP3 DUP4 ADD SWAP3 ADD PUSH2 0x19E2 JUMP JUMPDEST PUSH1 0x1 DUP5 ADD PUSH1 0x0 MSTORE PUSH1 0x20 PUSH1 0x0 KECCAK256 SWAP6 PUSH1 0x0 JUMPDEST PUSH1 0x1F NOT DUP5 AND DUP2 LT PUSH2 0x1A76 JUMPI POP DUP3 PUSH2 0xF56 SWAP7 SWAP8 PUSH1 0x2 SWAP6 SWAP4 PUSH1 0x1 SWAP4 PUSH1 0x40 SWAP7 PUSH1 0x1F NOT DUP2 AND LT PUSH2 0x17CB JUMPI POP POP POP DUP2 SHL ADD PUSH1 0x1 DUP6 ADD SSTORE PUSH2 0xAF3 JUMP JUMPDEST DUP3 DUP3 ADD MLOAD DUP9 SSTORE PUSH1 0x1 SWAP1 SWAP8 ADD SWAP7 PUSH1 0x20 SWAP3 DUP4 ADD SWAP3 ADD PUSH2 0x1A40 JUMP JUMPDEST PUSH1 0x1 DUP5 ADD PUSH1 0x0 MSTORE PUSH1 0x20 PUSH1 0x0 KECCAK256 SWAP6 PUSH1 0x0 JUMPDEST PUSH1 0x1F NOT DUP5 AND DUP2 LT PUSH2 0x1AD4 JUMPI POP DUP3 PUSH2 0xE7A SWAP7 SWAP8 PUSH1 0x2 SWAP6 SWAP4 PUSH1 0x1 SWAP4 PUSH1 0x40 SWAP7 PUSH1 0x1F NOT DUP2 AND LT PUSH2 0x17CB JUMPI POP POP POP DUP2 SHL ADD PUSH1 0x1 DUP6 ADD SSTORE PUSH2 0xAF3 JUMP JUMPDEST DUP3 DUP3 ADD MLOAD DUP9 SSTORE PUSH1 0x1 SWAP1 SWAP8 ADD SWAP7 PUSH1 0x20 SWAP3 DUP4 ADD SWAP3 ADD PUSH2 0x1A9E JUMP JUMPDEST PUSH1 0x1 DUP5 ADD PUSH1 0x0 MSTORE PUSH1 0x20 PUSH1 0x0 KECCAK256 SWAP6 PUSH1 0x0 JUMPDEST PUSH1 0x1F NOT DUP5 AND DUP2 LT PUSH2 0x1B32 JUMPI POP DUP3 PUSH2 0xD9E SWAP7 SWAP8 PUSH1 0x2 SWAP6 SWAP4 PUSH1 0x1 SWAP4 PUSH1 0x40 SWAP7 PUSH1 0x1F NOT DUP2 AND LT PUSH2 0x17CB JUMPI POP POP POP DUP2 SHL ADD PUSH1 0x1 DUP6 ADD SSTORE PUSH2 0xAF3 JUMP JUMPDEST DUP3 DUP3 ADD MLOAD DUP9 SSTORE PUSH1 0x1 SWAP1 SWAP8 ADD SWAP7 PUSH1 0x20 SWAP3 DUP4 ADD SWAP3 ADD PUSH2 0x1AFC JUMP JUMPDEST PUSH1 0x1 DUP5 ADD PUSH1 0x0 MSTORE PUSH1 0x20 PUSH1 0x0 KECCAK256 SWAP6 PUSH1 0x0 JUMPDEST PUSH1 0x1F NOT DUP5 AND DUP2 LT PUSH2 0x1B90 JUMPI POP DUP3 PUSH2 0xCC2 SWAP7 SWAP8 PUSH1 0x2 SWAP6 SWAP4 PUSH1 0x1 SWAP4 PUSH1 0x40 SWAP7 PUSH1 0x1F NOT DUP2 AND LT PUSH2 0x17CB JUMPI POP POP POP DUP2 SHL ADD PUSH1 0x1 DUP6 ADD SSTORE PUSH2 0xAF3 JUMP JUMPDEST DUP3 DUP3 ADD MLOAD DUP9 SSTORE PUSH1 0x1 SWAP1 SWAP8 ADD SWAP7 PUSH1 0x20 SWAP3 DUP4 ADD SWAP3 ADD PUSH2 0x1B5A JUMP JUMPDEST PUSH1 0x1 DUP5 ADD PUSH1 0x0 MSTORE PUSH1 0x20 PUSH1 0x0 KECCAK256 SWAP6 PUSH1 0x0 JUMPDEST PUSH1 0x1F NOT DUP5 AND DUP2 LT PUSH2 0x1BEE JUMPI POP DUP3 PUSH2 0xBE6 SWAP7 SWAP8 PUSH1 0x2 SWAP6 SWAP4 PUSH1 0x1 SWAP4 PUSH1 0x40 SWAP7 PUSH1 0x1F NOT DUP2 AND LT PUSH2 0x17CB JUMPI POP POP POP DUP2 SHL ADD PUSH1 0x1 DUP6 ADD SSTORE PUSH2 0xAF3 JUMP JUMPDEST DUP3 DUP3 ADD MLOAD DUP9 SSTORE PUSH1 0x1 SWAP1 SWAP8 ADD SWAP7 PUSH1 0x20 SWAP3 DUP4 ADD SWAP3 ADD PUSH2 0x1BB8 JUMP JUMPDEST PUSH1 0x1 DUP5 ADD PUSH1 0x0 MSTORE PUSH1 0x20 PUSH1 0x0 KECCAK256 SWAP6 PUSH1 0x0 JUMPDEST PUSH1 0x1F NOT DUP5 AND DUP2 LT PUSH2 0x1C4C JUMPI POP DUP3 PUSH2 0xB0A SWAP7 SWAP8 PUSH1 0x2 SWAP6 SWAP4 PUSH1 0x1 SWAP4 PUSH1 0x40 SWAP7 PUSH1 0x1F NOT DUP2 AND LT PUSH2 0x17CB JUMPI POP POP POP DUP2 SHL ADD PUSH1 0x1 DUP6 ADD SSTORE PUSH2 0xAF3 JUMP JUMPDEST DUP3 DUP3 ADD MLOAD DUP9 SSTORE PUSH1 0x1 SWAP1 SWAP8 ADD SWAP7 PUSH1 0x20 SWAP3 DUP4 ADD SWAP3 ADD PUSH2 0x1C16 JUMP JUMPDEST ADD MLOAD SWAP1 POP DUP9 DUP1 PUSH2 0x9F8 JUMP JUMPDEST SWAP1 PUSH1 0x1F NOT DUP4 AND SWAP2 DUP5 PUSH1 0x0 MSTORE PUSH1 0x20 PUSH1 0x0 KECCAK256 SWAP3 PUSH1 0x0 JUMPDEST DUP2 DUP2 LT PUSH2 0x1CC6 JUMPI POP SWAP3 PUSH1 0x1 SWAP3 DUP6 SWAP3 PUSH2 0xA23 SWAP10 SWAP9 SWAP7 PUSH1 0x2 SWAP9 SWAP7 LT PUSH2 0x1CAD JUMPI POP POP POP DUP2 SHL ADD SWAP1 SSTORE PUSH2 0xA0D JUMP JUMPDEST ADD MLOAD PUSH1 0x0 NOT PUSH1 0xF8 DUP5 PUSH1 0x3 SHL AND SHR NOT AND SWAP1 SSTORE DUP9 DUP1 DUP1 PUSH2 0x1725 JUMP JUMPDEST SWAP3 SWAP4 PUSH1 0x20 PUSH1 0x1 DUP2 SWAP3 DUP8 DUP7 ADD MLOAD DUP2 SSTORE ADD SWAP6 ADD SWAP4 ADD PUSH2 0x1C83 JUMP JUMPDEST PUSH9 0xFFFFFFFFFFFFFFFFFF NOT DUP4 AND PUSH9 0x10000000000000001 OR PUSH1 0x0 DUP1 MLOAD PUSH1 0x20 PUSH2 0x4FC2 DUP4 CODECOPY DUP2 MLOAD SWAP2 MSTORE SSTORE PUSH2 0x8C3 JUMP JUMPDEST PUSH1 0x40 MLOAD PUSH4 0xF92EE8A9 PUSH1 0xE0 SHL DUP2 MSTORE PUSH1 0x4 SWAP1 REVERT JUMPDEST SWAP1 POP ISZERO DUP4 PUSH2 0x88F JUMP JUMPDEST ADDRESS EXTCODESIZE ISZERO SWAP2 POP PUSH2 0x887 JUMP JUMPDEST PUSH1 0x40 DUP5 SWAP1 SHR PUSH1 0xFF AND ISZERO SWAP2 POP PUSH2 0x87D JUMP JUMPDEST PUSH1 0x20 DUP1 PUSH1 0x3 NOT CALLDATASIZE ADD SLT PUSH2 0x288 JUMPI PUSH1 0x4 CALLDATALOAD PUSH2 0x1D58 PUSH2 0x4E5F JUMP JUMPDEST DUP1 PUSH1 0x0 MSTORE PUSH1 0x0 DUP3 MSTORE PUSH2 0x1D73 PUSH1 0x4 PUSH1 0x40 PUSH1 0x0 KECCAK256 ADD SLOAD ISZERO ISZERO PUSH2 0x43C9 JUMP JUMPDEST PUSH2 0x1D7B PUSH2 0x483A JUMP JUMPDEST DUP1 PUSH1 0x0 MSTORE PUSH1 0x0 DUP3 MSTORE PUSH1 0x40 PUSH1 0x0 KECCAK256 PUSH1 0x6 DUP2 ADD SWAP1 DUP2 SLOAD SWAP1 PUSH1 0xFF DUP3 AND PUSH1 0x6 DUP2 LT ISZERO PUSH2 0x1F13 JUMPI PUSH2 0x1ECE JUMPI PUSH1 0x5 DUP2 ADD SWAP3 DUP4 SLOAD SWAP3 DUP4 CALLVALUE LT PUSH2 0x1E92 JUMPI PUSH1 0xFF NOT AND PUSH1 0x1 OR SWAP1 SSTORE PUSH1 0x7 DUP2 ADD DUP3 SWAP1 SSTORE PUSH1 0x8 ADD DUP1 SLOAD PUSH1 0x1 PUSH1 0x1 PUSH1 0xA0 SHL SUB NOT AND CALLER OR SWAP1 SSTORE PUSH1 0x6 SLOAD PUSH2 0x1DE0 SWAP2 SWAP1 PUSH2 0x4471 JUMP JUMPDEST PUSH1 0x6 SSTORE DUP1 SLOAD DUP1 CALLVALUE GT PUSH2 0x1E2E JUMPI JUMPDEST POP SLOAD PUSH1 0x40 MLOAD SWAP1 DUP2 MSTORE CALLER SWAP3 PUSH32 0x4968E19FD49D27EF126400FD881E1C88B7C6CD35C3CC4BF17B1B4B0FF6A3BA3F SWAP2 LOG3 PUSH1 0x1 PUSH1 0x0 DUP1 MLOAD PUSH1 0x20 PUSH2 0x4FA2 DUP4 CODECOPY DUP2 MLOAD SWAP2 MSTORE SSTORE STOP JUMPDEST PUSH1 0x0 DUP1 DUP1 PUSH2 0x1E3D DUP2 SWAP5 CALLVALUE PUSH2 0x45E0 JUMP JUMPDEST CALLER GAS CALL PUSH2 0x1E48 PUSH2 0x455B JUMP JUMPDEST POP ISZERO PUSH2 0x1E54 JUMPI DUP4 PUSH2 0x1DED JUMP JUMPDEST PUSH1 0x40 MLOAD PUSH3 0x461BCD PUSH1 0xE5 SHL DUP2 MSTORE PUSH1 0x4 DUP2 ADD DUP5 SWAP1 MSTORE PUSH1 0x16 PUSH1 0x24 DUP3 ADD MSTORE PUSH22 0x1499599D5B99081D1C985B9CD9995C8819985A5B1959 PUSH1 0x52 SHL PUSH1 0x44 DUP3 ADD MSTORE PUSH1 0x64 SWAP1 REVERT JUMPDEST PUSH1 0x40 MLOAD PUSH3 0x461BCD PUSH1 0xE5 SHL DUP2 MSTORE PUSH1 0x4 DUP2 ADD DUP9 SWAP1 MSTORE PUSH1 0x14 PUSH1 0x24 DUP3 ADD MSTORE PUSH20 0x125B9CDD59999A58DA595B9D081C185E5B595B9D PUSH1 0x62 SHL PUSH1 0x44 DUP3 ADD MSTORE PUSH1 0x64 SWAP1 REVERT JUMPDEST PUSH1 0x40 MLOAD PUSH3 0x461BCD PUSH1 0xE5 SHL DUP2 MSTORE PUSH1 0x4 DUP2 ADD DUP7 SWAP1 MSTORE PUSH1 0x17 PUSH1 0x24 DUP3 ADD MSTORE PUSH32 0x56696F6C6174696F6E206973206E6F7420756E70616964000000000000000000 PUSH1 0x44 DUP3 ADD MSTORE PUSH1 0x64 SWAP1 REVERT JUMPDEST PUSH4 0x4E487B71 PUSH1 0xE0 SHL PUSH1 0x0 MSTORE PUSH1 0x21 PUSH1 0x4 MSTORE PUSH1 0x24 PUSH1 0x0 REVERT JUMPDEST CALLVALUE PUSH2 0x288 JUMPI PUSH1 0x80 CALLDATASIZE PUSH1 0x3 NOT ADD SLT PUSH2 0x288 JUMPI PUSH1 0x4 CALLDATALOAD PUSH1 0x1 PUSH1 0x1 PUSH1 0x40 SHL SUB DUP2 GT PUSH2 0x288 JUMPI PUSH2 0x1F59 SWAP1 CALLDATASIZE SWAP1 PUSH1 0x4 ADD PUSH2 0x435D JUMP JUMPDEST PUSH4 0xFFFFFFFF PUSH1 0x24 CALLDATALOAD AND PUSH1 0x24 CALLDATALOAD SUB PUSH2 0x288 JUMPI PUSH1 0x44 CALLDATALOAD PUSH1 0x1 PUSH1 0x1 PUSH1 0x40 SHL SUB DUP2 GT PUSH2 0x288 JUMPI PUSH2 0x1F89 SWAP1 CALLDATASIZE SWAP1 PUSH1 0x4 ADD PUSH2 0x435D JUMP JUMPDEST SWAP1 PUSH1 0x64 CALLDATALOAD SWAP1 PUSH1 0x1 PUSH1 0x1 PUSH1 0xA0 SHL SUB DUP3 AND DUP3 SUB PUSH2 0x288 JUMPI CALLER PUSH1 0x0 SWAP1 DUP2 MSTORE PUSH1 0x0 DUP1 MLOAD PUSH1 0x20 PUSH2 0x4FE2 DUP4 CODECOPY DUP2 MLOAD SWAP2 MSTORE PUSH1 0x20 MSTORE PUSH1 0x40 SWAP1 KECCAK256 SLOAD PUSH1 0x0 DUP1 MLOAD PUSH1 0x20 PUSH2 0x4F42 DUP4 CODECOPY DUP2 MLOAD SWAP2 MSTORE SWAP1 PUSH1 0xFF AND ISZERO PUSH2 0x257F JUMPI POP CALLER PUSH1 0x0 MSTORE PUSH1 0x8 PUSH1 0x20 MSTORE PUSH1 0x40 PUSH1 0x0 KECCAK256 PUSH3 0x15180 TIMESTAMP DIV PUSH1 0x0 MSTORE PUSH1 0x20 MSTORE PUSH1 0x64 PUSH1 0x40 PUSH1 0x0 KECCAK256 SLOAD LT ISZERO PUSH2 0x253A JUMPI PUSH2 0x2008 DUP2 MLOAD ISZERO ISZERO PUSH2 0x44CA JUMP JUMPDEST PUSH2 0x2016 PUSH1 0x14 DUP3 MLOAD GT ISZERO PUSH2 0x450F JUMP JUMPDEST PUSH2 0x2022 DUP4 MLOAD ISZERO ISZERO PUSH2 0x44CA JUMP JUMPDEST PUSH2 0x2031 PUSH2 0x1F4 DUP5 MLOAD GT ISZERO PUSH2 0x450F JUMP JUMPDEST PUSH2 0x2045 PUSH1 0x1 PUSH1 0x1 PUSH1 0xA0 SHL SUB DUP4 AND ISZERO ISZERO PUSH2 0x447E JUMP JUMPDEST PUSH2 0x204D PUSH2 0x483A JUMP JUMPDEST PUSH4 0xFFFFFFFF PUSH1 0x24 CALLDATALOAD AND PUSH1 0x0 MSTORE PUSH1 0x4 PUSH1 0x20 MSTORE PUSH1 0xFF PUSH1 0x2 PUSH1 0x40 PUSH1 0x0 KECCAK256 ADD SLOAD AND ISZERO PUSH2 0x24F6 JUMPI CALLER PUSH1 0x0 MSTORE PUSH1 0x1 PUSH1 0x20 MSTORE PUSH1 0x5 PUSH1 0x40 PUSH1 0x0 KECCAK256 PUSH1 0x6 DUP2 ADD PUSH3 0x15180 TIMESTAMP DIV DUP2 SLOAD SUB PUSH2 0x24E2 JUMPI JUMPDEST POP ADD PUSH2 0x209D DUP2 SLOAD PUSH2 0x4740 JUMP JUMPDEST SWAP1 SSTORE PUSH4 0xFFFFFFFF PUSH1 0x24 CALLDATALOAD AND PUSH1 0x0 MSTORE PUSH1 0x4 PUSH1 0x20 MSTORE PUSH1 0x40 PUSH1 0x0 KECCAK256 SLOAD PUSH7 0x38D7EA4C68000 SWAP4 DUP2 DUP6 DUP2 MUL DIV DUP6 EQ DUP3 ISZERO OR ISZERO PUSH2 0x24CC JUMPI PUSH1 0x40 MLOAD PUSH2 0x211D PUSH1 0x58 DUP3 DUP7 MLOAD PUSH2 0x20EA DUP2 PUSH1 0x20 DUP5 ADD PUSH1 0x20 DUP12 ADD PUSH2 0x42C3 JUMP JUMPDEST DUP2 ADD CALLER PUSH1 0x60 SHL PUSH1 0x20 DUP3 ADD MSTORE TIMESTAMP PUSH1 0x34 DUP3 ADD MSTORE PUSH4 0xFFFFFFFF PUSH1 0xE0 SHL PUSH1 0x24 CALLDATALOAD PUSH1 0xE0 SHL AND PUSH1 0x54 DUP3 ADD MSTORE SUB PUSH1 0x38 DUP2 ADD DUP5 MSTORE ADD DUP3 PUSH2 0x41FD JUMP JUMPDEST PUSH1 0x20 DUP2 MLOAD SWAP2 ADD KECCAK256 SWAP4 PUSH1 0x40 MLOAD SWAP2 PUSH2 0x2132 DUP4 PUSH2 0x41C6 JUMP JUMPDEST DUP6 DUP4 MSTORE DUP5 PUSH1 0x20 DUP5 ADD MSTORE CALLER PUSH1 0x40 DUP5 ADD MSTORE PUSH4 0xFFFFFFFF PUSH1 0x24 CALLDATALOAD AND PUSH1 0x60 DUP5 ADD MSTORE PUSH1 0x80 DUP4 ADD MSTORE TIMESTAMP PUSH1 0xA0 DUP4 ADD MSTORE DUP6 DUP4 MUL PUSH1 0xC0 DUP4 ADD MSTORE PUSH1 0x0 PUSH1 0xE0 DUP4 ADD MSTORE PUSH1 0x1 DUP1 PUSH1 0xA0 SHL SUB AND PUSH2 0x100 DUP3 ADD MSTORE PUSH1 0x0 PUSH2 0x120 DUP3 ADD MSTORE PUSH1 0x0 PUSH2 0x140 DUP3 ADD MSTORE DUP4 PUSH1 0x0 MSTORE PUSH1 0x0 PUSH1 0x20 MSTORE PUSH1 0x40 PUSH1 0x0 KECCAK256 DUP2 MLOAD DUP2 SSTORE PUSH1 0x20 DUP3 ADD MLOAD DUP1 MLOAD SWAP1 PUSH1 0x1 PUSH1 0x1 PUSH1 0x40 SHL SUB DUP3 GT PUSH2 0x1763 JUMPI DUP2 SWAP1 PUSH2 0x21CB DUP3 PUSH2 0x21C2 PUSH1 0x1 DUP8 ADD SLOAD PUSH2 0x4171 JUMP JUMPDEST PUSH1 0x1 DUP8 ADD PUSH2 0x442C JUMP JUMPDEST PUSH1 0x20 SWAP1 PUSH1 0x1F DUP4 GT PUSH1 0x1 EQ PUSH2 0x245A JUMPI PUSH1 0x0 SWAP3 PUSH2 0x244F JUMPI JUMPDEST POP POP DUP2 PUSH1 0x1 SHL SWAP2 PUSH1 0x0 NOT SWAP1 PUSH1 0x3 SHL SHR NOT AND OR PUSH1 0x1 DUP3 ADD SSTORE JUMPDEST PUSH1 0x2 DUP2 ADD PUSH1 0x1 DUP1 PUSH1 0xA0 SHL SUB PUSH1 0x40 DUP5 ADD MLOAD AND DUP2 SLOAD SWAP1 PUSH4 0xFFFFFFFF PUSH1 0xA0 SHL PUSH1 0x60 DUP7 ADD MLOAD PUSH1 0xA0 SHL AND SWAP2 PUSH1 0x1 PUSH1 0x1 PUSH1 0x40 SHL SUB PUSH1 0xC0 SHL AND OR OR SWAP1 SSTORE PUSH1 0x80 DUP3 ADD MLOAD DUP1 MLOAD SWAP1 PUSH1 0x1 PUSH1 0x1 PUSH1 0x40 SHL SUB DUP3 GT PUSH2 0x1763 JUMPI DUP2 SWAP1 PUSH2 0x2261 DUP3 PUSH2 0x2258 PUSH1 0x3 DUP8 ADD SLOAD PUSH2 0x4171 JUMP JUMPDEST PUSH1 0x3 DUP8 ADD PUSH2 0x442C JUMP JUMPDEST PUSH1 0x20 SWAP1 PUSH1 0x1F DUP4 GT PUSH1 0x1 EQ PUSH2 0x23DD JUMPI PUSH1 0x0 SWAP3 PUSH2 0x23D2 JUMPI JUMPDEST POP POP DUP2 PUSH1 0x1 SHL SWAP2 PUSH1 0x0 NOT SWAP1 PUSH1 0x3 SHL SHR NOT AND OR PUSH1 0x3 DUP3 ADD SSTORE JUMPDEST PUSH1 0xA0 DUP3 ADD MLOAD PUSH1 0x4 DUP3 ADD SSTORE PUSH1 0xC0 DUP3 ADD MLOAD PUSH1 0x5 DUP3 ADD SSTORE PUSH1 0xE0 DUP3 ADD MLOAD SWAP1 PUSH1 0x6 DUP3 LT ISZERO PUSH2 0x1F13 JUMPI PUSH1 0x8 SWAP2 PUSH1 0x6 DUP3 ADD SLOAD PUSH1 0xFF PUSH2 0x100 PUSH1 0x1 PUSH1 0xA8 SHL SUB PUSH2 0x100 DUP8 ADD MLOAD DUP7 SHL AND SWAP3 AND SWAP1 PUSH11 0xFFFFFFFFFFFFFFFFFFFFFF PUSH1 0xA8 SHL AND OR OR PUSH1 0x6 DUP3 ADD SSTORE PUSH2 0x120 DUP4 ADD MLOAD PUSH1 0x7 DUP3 ADD SSTORE ADD SWAP1 PUSH2 0x140 PUSH1 0x1 DUP1 PUSH1 0xA0 SHL SUB SWAP2 ADD MLOAD AND PUSH1 0x1 PUSH1 0x1 PUSH1 0x60 SHL SUB PUSH1 0xA0 SHL DUP3 SLOAD AND OR SWAP1 SSTORE PUSH1 0x40 MLOAD PUSH1 0x20 DUP2 DUP5 MLOAD PUSH2 0x2329 DUP2 DUP4 DUP6 DUP10 ADD PUSH2 0x42C3 JUMP JUMPDEST DUP2 ADD PUSH1 0x2 DUP2 MSTORE SUB ADD SWAP1 KECCAK256 SWAP4 DUP5 SLOAD SWAP5 PUSH9 0x10000000000000000 DUP7 LT ISZERO PUSH2 0x1763 JUMPI DUP6 PUSH2 0x235A SWAP2 PUSH1 0x1 PUSH1 0x20 SWAP9 ADD DUP2 SSTORE PUSH2 0x438E JUMP JUMPDEST DUP2 SLOAD SWAP1 PUSH1 0x3 SHL SWAP1 DUP7 DUP3 SHL SWAP2 PUSH1 0x0 NOT SWAP1 SHL NOT AND OR SWAP1 SSTORE PUSH2 0x237A PUSH1 0x5 SLOAD PUSH2 0x4740 JUMP JUMPDEST PUSH1 0x5 SSTORE PUSH2 0x2392 PUSH1 0x40 MLOAD SWAP4 PUSH1 0x40 DUP6 MSTORE PUSH1 0x40 DUP6 ADD SWAP1 PUSH2 0x42E6 JUMP JUMPDEST SWAP2 MUL DUP5 DUP4 ADD MSTORE DUP3 PUSH32 0xC7435DF2CAE2E574DB57309E5CB9EFF1B75B4B683990C63ADEAFB3947816A12 CALLER SWAP4 DUP1 PUSH4 0xFFFFFFFF PUSH1 0x24 CALLDATALOAD AND SWAP5 SUB SWAP1 LOG4 PUSH1 0x40 MLOAD SWAP1 DUP2 MSTORE RETURN JUMPDEST ADD MLOAD SWAP1 POP DUP9 DUP1 PUSH2 0x2277 JUMP JUMPDEST SWAP3 POP PUSH1 0x3 DUP5 ADD PUSH1 0x0 MSTORE PUSH1 0x20 PUSH1 0x0 KECCAK256 SWAP1 PUSH1 0x0 SWAP4 JUMPDEST PUSH1 0x1F NOT DUP5 AND DUP6 LT PUSH2 0x2434 JUMPI PUSH1 0x1 SWAP5 POP DUP4 PUSH1 0x1F NOT DUP2 AND LT PUSH2 0x241B JUMPI JUMPDEST POP POP POP DUP2 SHL ADD PUSH1 0x3 DUP3 ADD SSTORE PUSH2 0x228F JUMP JUMPDEST ADD MLOAD PUSH1 0x0 NOT PUSH1 0xF8 DUP5 PUSH1 0x3 SHL AND SHR NOT AND SWAP1 SSTORE DUP9 DUP1 DUP1 PUSH2 0x240B JUMP JUMPDEST DUP2 DUP2 ADD MLOAD DUP4 SSTORE PUSH1 0x20 SWAP5 DUP6 ADD SWAP5 PUSH1 0x1 SWAP1 SWAP4 ADD SWAP3 SWAP1 SWAP2 ADD SWAP1 PUSH2 0x23F0 JUMP JUMPDEST ADD MLOAD SWAP1 POP DUP9 DUP1 PUSH2 0x21E1 JUMP JUMPDEST SWAP3 POP PUSH1 0x1 DUP5 ADD PUSH1 0x0 MSTORE PUSH1 0x20 PUSH1 0x0 KECCAK256 SWAP1 PUSH1 0x0 SWAP4 JUMPDEST PUSH1 0x1F NOT DUP5 AND DUP6 LT PUSH2 0x24B1 JUMPI PUSH1 0x1 SWAP5 POP DUP4 PUSH1 0x1F NOT DUP2 AND LT PUSH2 0x2498 JUMPI JUMPDEST POP POP POP DUP2 SHL ADD PUSH1 0x1 DUP3 ADD SSTORE PUSH2 0x21F9 JUMP JUMPDEST ADD MLOAD PUSH1 0x0 NOT PUSH1 0xF8 DUP5 PUSH1 0x3 SHL AND SHR NOT AND SWAP1 SSTORE DUP9 DUP1 DUP1 PUSH2 0x2488 JUMP JUMPDEST DUP2 DUP2 ADD MLOAD DUP4 SSTORE PUSH1 0x20 SWAP5 DUP6 ADD SWAP5 PUSH1 0x1 SWAP1 SWAP4 ADD SWAP3 SWAP1 SWAP2 ADD SWAP1 PUSH2 0x246D JUMP JUMPDEST PUSH4 0x4E487B71 PUSH1 0xE0 SHL PUSH1 0x0 MSTORE PUSH1 0x11 PUSH1 0x4 MSTORE PUSH1 0x24 PUSH1 0x0 REVERT JUMPDEST PUSH1 0x0 DUP4 DUP4 ADD SSTORE PUSH3 0x15180 TIMESTAMP DIV SWAP1 SSTORE DUP6 PUSH2 0x2091 JUMP JUMPDEST PUSH1 0x64 PUSH1 0x40 MLOAD PUSH3 0x461BCD PUSH1 0xE5 SHL DUP2 MSTORE PUSH1 0x20 PUSH1 0x4 DUP3 ADD MSTORE PUSH1 0x20 PUSH1 0x24 DUP3 ADD MSTORE PUSH32 0x496E76616C6964206F7220696E616374697665206F6666656E736520636F6465 PUSH1 0x44 DUP3 ADD MSTORE REVERT JUMPDEST PUSH1 0x40 MLOAD PUSH3 0x461BCD PUSH1 0xE5 SHL DUP2 MSTORE PUSH1 0x20 PUSH1 0x4 DUP3 ADD MSTORE PUSH1 0x1E PUSH1 0x24 DUP3 ADD MSTORE PUSH32 0x4461696C792076696F6C6174696F6E206C696D69742065786365656465640000 PUSH1 0x44 DUP3 ADD MSTORE PUSH1 0x64 SWAP1 REVERT JUMPDEST PUSH1 0x44 SWAP1 PUSH1 0x40 MLOAD SWAP1 PUSH4 0xE2517D3F PUSH1 0xE0 SHL DUP3 MSTORE CALLER PUSH1 0x4 DUP4 ADD MSTORE PUSH1 0x24 DUP3 ADD MSTORE REVERT JUMPDEST CALLVALUE PUSH2 0x288 JUMPI PUSH1 0x60 CALLDATASIZE PUSH1 0x3 NOT ADD SLT PUSH2 0x288 JUMPI PUSH1 0x4 CALLDATALOAD PUSH1 0x1 PUSH1 0x1 PUSH1 0x40 SHL SUB DUP2 GT PUSH2 0x288 JUMPI PUSH2 0x25D0 PUSH2 0x25DD SWAP2 CALLDATASIZE SWAP1 PUSH1 0x4 ADD PUSH2 0x435D JUMP JUMPDEST PUSH1 0x44 CALLDATALOAD SWAP1 PUSH1 0x24 CALLDATALOAD SWAP1 PUSH2 0x4601 JUMP JUMPDEST PUSH1 0x40 MLOAD DUP1 SWAP2 PUSH1 0x20 DUP1 DUP4 ADD PUSH1 0x20 DUP5 MSTORE DUP3 MLOAD DUP1 SWAP2 MSTORE PUSH1 0x20 PUSH1 0x40 DUP6 ADD SWAP4 ADD SWAP2 PUSH1 0x0 JUMPDEST DUP3 DUP2 LT PUSH2 0x260B JUMPI POP POP POP POP SUB SWAP1 RETURN JUMPDEST DUP4 MLOAD DUP6 MSTORE DUP7 SWAP6 POP SWAP4 DUP2 ADD SWAP4 SWAP3 DUP2 ADD SWAP3 PUSH1 0x1 ADD PUSH2 0x25FC JUMP JUMPDEST CALLVALUE PUSH2 0x288 JUMPI PUSH1 0x40 CALLDATASIZE PUSH1 0x3 NOT ADD SLT PUSH2 0x288 JUMPI PUSH2 0x263B PUSH2 0x4145 JUMP JUMPDEST CALLER PUSH1 0x0 SWAP1 DUP2 MSTORE PUSH32 0x1069FFE2B90BFD470F40F3BF820141BB4D4B475D03084DB5DCFB8152047BADF7 PUSH1 0x20 MSTORE PUSH1 0x40 SWAP1 KECCAK256 SLOAD PUSH1 0x24 CALLDATALOAD SWAP2 SWAP1 PUSH32 0xE1DCBDB91DF27212A29BC27177C840CF2F819ECF2187432E1FAC86C2DD5DFCA9 SWAP1 PUSH1 0xFF AND ISZERO PUSH2 0x257F JUMPI POP PUSH2 0x26A2 PUSH2 0x4E5F JUMP JUMPDEST SELFBALANCE DUP3 GT PUSH2 0x274C JUMPI PUSH1 0x1 PUSH1 0x1 PUSH1 0xA0 SHL SUB AND SWAP1 DUP2 ISZERO PUSH2 0x2713 JUMPI PUSH2 0x26D3 PUSH1 0x0 DUP1 DUP1 DUP1 DUP6 DUP8 GAS CALL PUSH2 0x26CD PUSH2 0x455B JUMP JUMPDEST POP PUSH2 0x458B JUMP JUMPDEST PUSH1 0x40 MLOAD SWAP1 DUP2 MSTORE PUSH32 0xA92FF919B850E4909AB2261D907EF955F11BC1716733A6CBECE38D163A69AF8A PUSH1 0x20 CALLER SWAP3 LOG3 PUSH1 0x1 PUSH1 0x0 DUP1 MLOAD PUSH1 0x20 PUSH2 0x4FA2 DUP4 CODECOPY DUP2 MLOAD SWAP2 MSTORE SSTORE STOP JUMPDEST PUSH1 0x40 MLOAD PUSH3 0x461BCD PUSH1 0xE5 SHL DUP2 MSTORE PUSH1 0x20 PUSH1 0x4 DUP3 ADD MSTORE PUSH1 0x11 PUSH1 0x24 DUP3 ADD MSTORE PUSH17 0x125B9D985B1A59081C9958DA5C1A595B9D PUSH1 0x7A SHL PUSH1 0x44 DUP3 ADD MSTORE PUSH1 0x64 SWAP1 REVERT JUMPDEST PUSH1 0x40 MLOAD PUSH3 0x461BCD PUSH1 0xE5 SHL DUP2 MSTORE PUSH1 0x20 PUSH1 0x4 DUP3 ADD MSTORE PUSH1 0x1D PUSH1 0x24 DUP3 ADD MSTORE PUSH32 0x496E73756666696369656E7420636F6E74726163742062616C616E6365000000 PUSH1 0x44 DUP3 ADD MSTORE PUSH1 0x64 SWAP1 REVERT JUMPDEST CALLVALUE PUSH2 0x288 JUMPI PUSH1 0x0 CALLDATASIZE PUSH1 0x3 NOT ADD SLT PUSH2 0x288 JUMPI PUSH1 0x20 PUSH1 0x7 SLOAD PUSH1 0x40 MLOAD SWAP1 DUP2 MSTORE RETURN JUMPDEST CALLVALUE PUSH2 0x288 JUMPI PUSH1 0x20 CALLDATASIZE PUSH1 0x3 NOT ADD SLT PUSH2 0x288 JUMPI PUSH1 0x4 CALLDATALOAD PUSH1 0x0 MSTORE PUSH1 0x0 PUSH1 0x20 MSTORE PUSH1 0x40 PUSH1 0x0 KECCAK256 DUP1 SLOAD PUSH2 0x27DE PUSH1 0x1 DUP4 ADD PUSH2 0x421E JUMP JUMPDEST PUSH1 0x2 DUP4 ADD SLOAD SWAP1 SWAP3 PUSH1 0x1 PUSH1 0x1 PUSH1 0xA0 SHL SUB SWAP1 PUSH2 0x27FA PUSH1 0x3 DUP3 ADD PUSH2 0x421E JUMP JUMPDEST SWAP2 PUSH1 0x4 DUP3 ADD SLOAD SWAP4 PUSH1 0x5 DUP4 ADD SLOAD PUSH2 0x285E PUSH1 0x6 DUP6 ADD SLOAD SWAP3 DUP5 PUSH1 0x8 PUSH1 0x7 DUP9 ADD SLOAD SWAP8 ADD SLOAD AND SWAP7 PUSH4 0xFFFFFFFF PUSH2 0x283F PUSH1 0x40 MLOAD SWAP13 DUP14 DUP1 SWAP14 PUSH1 0x20 PUSH2 0x160 SWAP3 DUP4 SWAP3 DUP2 MSTORE ADD MSTORE DUP14 ADD SWAP1 PUSH2 0x42E6 JUMP JUMPDEST SWAP3 DUP8 DUP2 AND PUSH1 0x40 DUP14 ADD MSTORE PUSH1 0xA0 SHR AND PUSH1 0x60 DUP12 ADD MSTORE DUP10 DUP3 SUB PUSH1 0x80 DUP12 ADD MSTORE PUSH2 0x42E6 JUMP JUMPDEST SWAP6 PUSH1 0xA0 DUP9 ADD MSTORE PUSH1 0xC0 DUP8 ADD MSTORE PUSH2 0x2879 PUSH1 0xE0 DUP8 ADD PUSH1 0xFF DUP4 AND PUSH2 0x43BC JUMP JUMPDEST PUSH1 0x8 SHR AND PUSH2 0x100 DUP6 ADD MSTORE PUSH2 0x120 DUP5 ADD MSTORE PUSH2 0x140 DUP4 ADD MSTORE SUB SWAP1 RETURN JUMPDEST CALLVALUE PUSH2 0x288 JUMPI PUSH1 0x0 CALLDATASIZE PUSH1 0x3 NOT ADD SLT PUSH2 0x288 JUMPI PUSH1 0x20 PUSH1 0x40 MLOAD PUSH3 0x93A80 DUP2 MSTORE RETURN JUMPDEST CALLVALUE PUSH2 0x288 JUMPI PUSH1 0x20 CALLDATASIZE PUSH1 0x3 NOT ADD SLT PUSH2 0x288 JUMPI PUSH1 0x1 PUSH1 0x1 PUSH1 0xA0 SHL SUB PUSH2 0x28D2 PUSH2 0x4145 JUMP JUMPDEST AND PUSH1 0x0 MSTORE PUSH1 0x9 PUSH1 0x20 MSTORE PUSH1 0x20 PUSH1 0x40 PUSH1 0x0 KECCAK256 SLOAD PUSH1 0x40 MLOAD SWAP1 DUP2 MSTORE RETURN JUMPDEST CALLVALUE PUSH2 0x288 JUMPI PUSH1 0x0 CALLDATASIZE PUSH1 0x3 NOT ADD SLT PUSH2 0x288 JUMPI PUSH2 0x2904 PUSH2 0x4E5F JUMP JUMPDEST PUSH2 0x290C PUSH2 0x483A JUMP JUMPDEST CALLER PUSH1 0x0 MSTORE PUSH1 0x9 PUSH1 0x20 MSTORE PUSH1 0x40 PUSH1 0x0 KECCAK256 SLOAD DUP1 ISZERO PUSH2 0x2985 JUMPI CALLER PUSH1 0x0 MSTORE PUSH1 0x9 PUSH1 0x20 MSTORE PUSH1 0x0 PUSH1 0x40 DUP2 KECCAK256 SSTORE PUSH2 0x2945 PUSH1 0x0 DUP1 DUP1 DUP1 DUP6 CALLER GAS CALL PUSH2 0x26CD PUSH2 0x455B JUMP JUMPDEST PUSH1 0x40 MLOAD SWAP1 DUP2 MSTORE PUSH32 0x358FE4192934D3BF28AE181FEDA1F4BD08CA67F5E2FAD55582CCE5EB67304AE9 PUSH1 0x20 CALLER SWAP3 LOG2 PUSH1 0x1 PUSH1 0x0 DUP1 MLOAD PUSH1 0x20 PUSH2 0x4FA2 DUP4 CODECOPY DUP2 MLOAD SWAP2 MSTORE SSTORE STOP JUMPDEST PUSH1 0x40 MLOAD PUSH3 0x461BCD PUSH1 0xE5 SHL DUP2 MSTORE PUSH1 0x20 PUSH1 0x4 DUP3 ADD MSTORE PUSH1 0x12 PUSH1 0x24 DUP3 ADD MSTORE PUSH18 0x4E6F2070656E64696E6720726566756E6473 PUSH1 0x70 SHL PUSH1 0x44 DUP3 ADD MSTORE PUSH1 0x64 SWAP1 REVERT JUMPDEST CALLVALUE PUSH2 0x288 JUMPI PUSH1 0x20 CALLDATASIZE PUSH1 0x3 NOT ADD SLT PUSH2 0x288 JUMPI PUSH4 0xFFFFFFFF PUSH2 0x29DD PUSH2 0x437B JUMP JUMPDEST AND PUSH1 0x0 MSTORE PUSH1 0x4 PUSH1 0x20 MSTORE PUSH1 0x40 PUSH1 0x0 KECCAK256 DUP1 SLOAD PUSH1 0xFF PUSH1 0x2 PUSH2 0x29FD PUSH1 0x1 DUP6 ADD PUSH2 0x421E JUMP JUMPDEST SWAP4 ADD SLOAD AND PUSH2 0x2A1D PUSH1 0x40 MLOAD SWAP4 DUP5 SWAP4 DUP5 MSTORE PUSH1 0x60 PUSH1 0x20 DUP6 ADD MSTORE PUSH1 0x60 DUP5 ADD SWAP1 PUSH2 0x42E6 JUMP JUMPDEST SWAP1 ISZERO ISZERO PUSH1 0x40 DUP4 ADD MSTORE SUB SWAP1 RETURN JUMPDEST CALLVALUE PUSH2 0x288 JUMPI PUSH1 0x0 CALLDATASIZE PUSH1 0x3 NOT ADD SLT PUSH2 0x288 JUMPI PUSH1 0x20 PUSH1 0x40 MLOAD PUSH32 0xC6AD931175DA1471673417ED857AEC62A6CF3071BAEFF703EF4A5A1F95ADB231 DUP2 MSTORE RETURN JUMPDEST CALLVALUE PUSH2 0x288 JUMPI PUSH1 0x0 CALLDATASIZE PUSH1 0x3 NOT ADD SLT PUSH2 0x288 JUMPI PUSH2 0x2AAA PUSH1 0x40 MLOAD PUSH2 0x2A84 DUP2 PUSH2 0x41E2 JUMP JUMPDEST PUSH1 0x5 DUP2 MSTORE PUSH5 0x352E302E3 PUSH1 0xDC SHL PUSH1 0x20 DUP3 ADD MSTORE PUSH1 0x40 MLOAD SWAP2 DUP3 SWAP2 PUSH1 0x20 DUP4 MSTORE PUSH1 0x20 DUP4 ADD SWAP1 PUSH2 0x42E6 JUMP JUMPDEST SUB SWAP1 RETURN JUMPDEST CALLVALUE PUSH2 0x288 JUMPI PUSH1 0x20 CALLDATASIZE PUSH1 0x3 NOT ADD SLT PUSH2 0x288 JUMPI PUSH1 0x1 PUSH1 0x1 PUSH1 0xA0 SHL SUB PUSH2 0x2ACF PUSH2 0x4145 JUMP JUMPDEST AND DUP1 PUSH1 0x0 MSTORE PUSH1 0x1 PUSH1 0x20 MSTORE PUSH1 0xFF PUSH1 0x3 PUSH1 0x40 PUSH1 0x0 KECCAK256 ADD SLOAD AND DUP1 PUSH2 0x2AF8 JUMPI JUMPDEST PUSH1 0x20 SWAP1 PUSH1 0x40 MLOAD SWAP1 ISZERO ISZERO DUP2 MSTORE RETURN JUMPDEST POP PUSH1 0x0 SWAP1 DUP2 MSTORE PUSH1 0x0 DUP1 MLOAD PUSH1 0x20 PUSH2 0x4FE2 DUP4 CODECOPY DUP2 MLOAD SWAP2 MSTORE PUSH1 0x20 SWAP1 DUP2 MSTORE PUSH1 0x40 SWAP1 SWAP2 KECCAK256 SLOAD PUSH1 0xFF AND PUSH2 0x2AEB JUMP JUMPDEST CALLVALUE PUSH2 0x288 JUMPI PUSH1 0x20 CALLDATASIZE PUSH1 0x3 NOT ADD SLT PUSH2 0x288 JUMPI PUSH1 0x4 CALLDATALOAD PUSH1 0x0 PUSH2 0x140 PUSH1 0x40 MLOAD PUSH2 0x2B45 DUP2 PUSH2 0x41C6 JUMP JUMPDEST DUP3 DUP2 MSTORE PUSH1 0x60 PUSH1 0x20 DUP3 ADD MSTORE DUP3 PUSH1 0x40 DUP3 ADD MSTORE DUP3 PUSH1 0x60 DUP3 ADD MSTORE PUSH1 0x60 PUSH1 0x80 DUP3 ADD MSTORE DUP3 PUSH1 0xA0 DUP3 ADD MSTORE DUP3 PUSH1 0xC0 DUP3 ADD MSTORE DUP3 PUSH1 0xE0 DUP3 ADD MSTORE DUP3 PUSH2 0x100 DUP3 ADD MSTORE DUP3 PUSH2 0x120 DUP3 ADD MSTORE ADD MSTORE DUP1 PUSH1 0x0 MSTORE PUSH1 0x0 PUSH1 0x20 MSTORE PUSH2 0x2BA0 PUSH1 0x4 PUSH1 0x40 PUSH1 0x0 KECCAK256 ADD SLOAD ISZERO ISZERO PUSH2 0x43C9 JUMP JUMPDEST PUSH1 0x0 MSTORE PUSH1 0x0 PUSH1 0x20 MSTORE PUSH1 0x40 PUSH1 0x0 KECCAK256 PUSH1 0x40 MLOAD SWAP1 PUSH2 0x2BBA DUP3 PUSH2 0x41C6 JUMP JUMPDEST DUP1 SLOAD DUP3 MSTORE PUSH2 0x2BCA PUSH1 0x1 DUP3 ADD PUSH2 0x421E JUMP JUMPDEST PUSH1 0x20 DUP4 ADD MSTORE PUSH1 0x2 DUP2 ADD SLOAD PUSH1 0x1 PUSH1 0x1 PUSH1 0xA0 SHL SUB DUP2 AND PUSH1 0x40 DUP5 ADD MSTORE PUSH1 0xA0 SHR PUSH4 0xFFFFFFFF AND PUSH1 0x60 DUP4 ADD MSTORE PUSH2 0x2BFD PUSH1 0x3 DUP3 ADD PUSH2 0x421E JUMP JUMPDEST PUSH1 0x80 DUP4 ADD MSTORE PUSH1 0x4 DUP2 ADD SLOAD PUSH1 0xA0 DUP4 ADD MSTORE PUSH1 0x5 DUP2 ADD SLOAD PUSH1 0xC0 DUP4 ADD MSTORE PUSH1 0x6 DUP2 ADD SLOAD PUSH1 0xFF DUP2 AND PUSH1 0x6 DUP2 LT ISZERO PUSH2 0x1F13 JUMPI PUSH1 0xE0 DUP5 ADD MSTORE PUSH1 0x1 DUP1 PUSH1 0xA0 SHL SUB SWAP1 PUSH1 0x8 SHR AND PUSH2 0x100 DUP4 ADD MSTORE PUSH1 0x7 DUP2 ADD SLOAD PUSH2 0x120 DUP4 ADD MSTORE PUSH1 0x8 PUSH1 0x1 DUP1 PUSH1 0xA0 SHL SUB SWAP2 ADD SLOAD AND PUSH2 0x140 DUP3 ADD MSTORE PUSH1 0x40 MLOAD DUP1 SWAP2 PUSH1 0x20 DUP3 MSTORE DUP1 MLOAD PUSH1 0x20 DUP4 ADD MSTORE PUSH2 0x2CC3 PUSH2 0x2C8B PUSH1 0x20 DUP4 ADD MLOAD PUSH2 0x160 PUSH1 0x40 DUP7 ADD MSTORE PUSH2 0x180 DUP6 ADD SWAP1 PUSH2 0x42E6 JUMP JUMPDEST PUSH1 0x1 DUP1 PUSH1 0xA0 SHL SUB PUSH1 0x40 DUP5 ADD MLOAD AND PUSH1 0x60 DUP6 ADD MSTORE PUSH4 0xFFFFFFFF PUSH1 0x60 DUP5 ADD MLOAD AND PUSH1 0x80 DUP6 ADD MSTORE PUSH1 0x80 DUP4 ADD MLOAD PUSH1 0x1F NOT DUP6 DUP4 SUB ADD PUSH1 0xA0 DUP7 ADD MSTORE PUSH2 0x42E6 JUMP JUMPDEST SWAP1 PUSH1 0xA0 DUP2 ADD MLOAD PUSH1 0xC0 DUP5 ADD MSTORE PUSH1 0xC0 DUP2 ADD MLOAD PUSH1 0xE0 DUP5 ADD MSTORE PUSH2 0x2CEB PUSH1 0xE0 DUP3 ADD MLOAD PUSH2 0x100 DUP6 ADD SWAP1 PUSH2 0x43BC JUMP JUMPDEST PUSH1 0x1 DUP1 PUSH1 0xA0 SHL SUB PUSH2 0x100 DUP3 ADD MLOAD AND PUSH2 0x120 DUP5 ADD MSTORE PUSH2 0x120 DUP2 ADD MLOAD PUSH2 0x140 DUP5 ADD MSTORE PUSH2 0x140 PUSH1 0x1 DUP1 PUSH1 0xA0 SHL SUB SWAP2 ADD MLOAD AND PUSH2 0x160 DUP4 ADD MSTORE SUB SWAP1 RETURN JUMPDEST CALLVALUE PUSH2 0x288 JUMPI PUSH1 0x0 CALLDATASIZE PUSH1 0x3 NOT ADD SLT PUSH2 0x288 JUMPI PUSH1 0x20 PUSH1 0x40 MLOAD PUSH1 0x32 DUP2 MSTORE RETURN JUMPDEST CALLVALUE PUSH2 0x288 JUMPI PUSH1 0x0 CALLDATASIZE PUSH1 0x3 NOT ADD SLT PUSH2 0x288 JUMPI PUSH1 0x20 PUSH1 0x40 MLOAD PUSH1 0x0 DUP2 MSTORE RETURN JUMPDEST CALLVALUE PUSH2 0x288 JUMPI PUSH1 0x40 CALLDATASIZE PUSH1 0x3 NOT ADD SLT PUSH2 0x288 JUMPI PUSH2 0x2D74 PUSH2 0x415B JUMP JUMPDEST PUSH1 0x4 CALLDATALOAD PUSH1 0x0 MSTORE PUSH1 0x0 DUP1 MLOAD PUSH1 0x20 PUSH2 0x4F62 DUP4 CODECOPY DUP2 MLOAD SWAP2 MSTORE PUSH1 0x20 MSTORE PUSH1 0x40 PUSH1 0x0 KECCAK256 SWAP1 PUSH1 0x1 DUP1 PUSH1 0xA0 SHL SUB AND PUSH1 0x0 MSTORE PUSH1 0x20 MSTORE PUSH1 0x20 PUSH1 0xFF PUSH1 0x40 PUSH1 0x0 KECCAK256 SLOAD AND PUSH1 0x40 MLOAD SWAP1 ISZERO ISZERO DUP2 MSTORE RETURN JUMPDEST CALLVALUE PUSH2 0x288 JUMPI PUSH1 0x0 CALLDATASIZE PUSH1 0x3 NOT ADD SLT PUSH2 0x288 JUMPI PUSH1 0x20 PUSH1 0x40 MLOAD PUSH1 0x3 DUP2 MSTORE RETURN JUMPDEST CALLVALUE PUSH2 0x288 JUMPI PUSH1 0x0 CALLDATASIZE PUSH1 0x3 NOT ADD SLT PUSH2 0x288 JUMPI PUSH1 0x20 PUSH1 0x40 MLOAD PUSH1 0x14 DUP2 MSTORE RETURN JUMPDEST CALLVALUE PUSH2 0x288 JUMPI PUSH1 0x0 CALLDATASIZE PUSH1 0x3 NOT ADD SLT PUSH2 0x288 JUMPI PUSH2 0x2E06 PUSH2 0x474F JUMP JUMPDEST PUSH2 0x2E0E PUSH2 0x483A JUMP JUMPDEST PUSH1 0x0 DUP1 MLOAD PUSH1 0x20 PUSH2 0x4F82 DUP4 CODECOPY DUP2 MLOAD SWAP2 MSTORE PUSH1 0x1 PUSH1 0xFF NOT DUP3 SLOAD AND OR SWAP1 SSTORE PUSH32 0x62E78CEA01BEE320CD4E420270B5EA74000D11B0C9F74754EBDBFC544B05A258 PUSH1 0x20 PUSH1 0x40 MLOAD CALLER DUP2 MSTORE LOG1 STOP JUMPDEST CALLVALUE PUSH2 0x288 JUMPI PUSH1 0x0 CALLDATASIZE PUSH1 0x3 NOT ADD SLT PUSH2 0x288 JUMPI PUSH1 0x20 PUSH1 0x40 MLOAD PUSH32 0xA49807205CE4D355092EF5A8A18F56E8913CF4A201FBE287825B095693C21775 DUP2 MSTORE RETURN JUMPDEST CALLVALUE PUSH2 0x288 JUMPI PUSH1 0x40 CALLDATASIZE PUSH1 0x3 NOT ADD SLT PUSH2 0x288 JUMPI PUSH1 0x4 CALLDATALOAD PUSH1 0x1 PUSH1 0x1 PUSH1 0x40 SHL SUB DUP2 GT PUSH2 0x288 JUMPI PUSH2 0x2EBF SWAP1 CALLDATASIZE SWAP1 PUSH1 0x4 ADD PUSH2 0x435D JUMP JUMPDEST PUSH2 0x2EDB PUSH1 0x20 PUSH1 0x24 CALLDATALOAD SWAP3 DUP2 PUSH1 0x40 MLOAD SWAP4 DUP3 DUP6 DUP1 SWAP5 MLOAD SWAP4 DUP5 SWAP3 ADD PUSH2 0x42C3 JUMP JUMPDEST DUP2 ADD PUSH1 0x2 DUP2 MSTORE SUB ADD SWAP1 KECCAK256 DUP1 SLOAD DUP3 LT ISZERO PUSH2 0x288 JUMPI PUSH1 0x20 SWAP2 PUSH2 0x2EFA SWAP2 PUSH2 0x438E JUMP JUMPDEST SWAP1 SLOAD PUSH1 0x40 MLOAD SWAP2 PUSH1 0x3 SHL SHR DUP2 MSTORE RETURN JUMPDEST CALLVALUE PUSH2 0x288 JUMPI PUSH1 0x0 CALLDATASIZE PUSH1 0x3 NOT ADD SLT PUSH2 0x288 JUMPI PUSH1 0x20 PUSH1 0x40 MLOAD PUSH1 0x0 DUP1 MLOAD PUSH1 0x20 PUSH2 0x4F42 DUP4 CODECOPY DUP2 MLOAD SWAP2 MSTORE DUP2 MSTORE RETURN JUMPDEST CALLVALUE PUSH2 0x288 JUMPI PUSH1 0x80 CALLDATASIZE PUSH1 0x3 NOT ADD SLT PUSH2 0x288 JUMPI PUSH2 0x2F4A PUSH2 0x437B JUMP JUMPDEST PUSH1 0x1 PUSH1 0x1 PUSH1 0x40 SHL SUB SWAP1 PUSH1 0x24 CALLDATALOAD PUSH1 0x44 CALLDATALOAD DUP4 DUP2 GT PUSH2 0x288 JUMPI PUSH2 0x2F6E SWAP1 CALLDATASIZE SWAP1 PUSH1 0x4 ADD PUSH2 0x435D JUMP JUMPDEST SWAP1 PUSH1 0x64 CALLDATALOAD SWAP2 DUP3 ISZERO ISZERO DUP1 SWAP4 SUB PUSH2 0x288 JUMPI PUSH2 0x2F85 PUSH2 0x474F JUMP JUMPDEST PUSH1 0x40 MLOAD PUSH2 0x2F91 DUP2 PUSH2 0x41AB JUMP JUMPDEST DUP3 DUP2 MSTORE PUSH1 0x20 SWAP4 PUSH4 0xFFFFFFFF DUP6 DUP4 ADD SWAP7 DUP5 DUP9 MSTORE PUSH1 0x40 DUP5 ADD SWAP3 DUP4 MSTORE AND SWAP6 DUP7 PUSH1 0x0 MSTORE PUSH1 0x4 DUP7 MSTORE PUSH1 0x40 PUSH1 0x0 KECCAK256 SWAP3 MLOAD DUP4 SSTORE PUSH1 0x1 SWAP8 PUSH1 0x1 DUP5 ADD SWAP2 MLOAD SWAP9 DUP10 MLOAD SWAP2 DUP3 GT PUSH2 0x1763 JUMPI PUSH2 0x2FDE DUP3 PUSH2 0x3C6 DUP6 SLOAD PUSH2 0x4171 JUMP JUMPDEST DUP8 SWAP1 PUSH1 0x1F DUP4 GT PUSH1 0x1 EQ PUSH2 0x3075 JUMPI POP SWAP3 PUSH2 0x3065 SWAP6 SWAP5 SWAP3 DUP3 PUSH1 0x2 SWAP4 PUSH2 0x304F SWAP7 PUSH32 0xE128558611E28B5F2755AED4121802870B0E7EB8A72B13FE57F85F2002810565 SWAP13 SWAP14 PUSH1 0x0 SWAP3 PUSH2 0x306A JUMPI POP POP DUP2 PUSH1 0x1 SHL SWAP2 PUSH1 0x0 NOT SWAP1 PUSH1 0x3 SHL SHR NOT AND OR SWAP1 SSTORE MLOAD ISZERO ISZERO SWAP2 ADD SWAP1 PUSH1 0xFF DUP1 NOT DUP4 SLOAD AND SWAP2 ISZERO ISZERO AND OR SWAP1 SSTORE JUMP JUMPDEST PUSH1 0x40 DUP1 MLOAD SWAP5 DUP6 SWAP5 DUP6 MSTORE DUP5 ADD MSTORE PUSH1 0x40 DUP4 ADD SWAP1 PUSH2 0x42E6 JUMP JUMPDEST SUB SWAP1 LOG2 STOP JUMPDEST ADD MLOAD SWAP1 POP DUP14 DUP1 PUSH2 0x9F8 JUMP JUMPDEST SWAP10 PUSH1 0x1F NOT DUP4 AND DUP5 PUSH1 0x0 MSTORE DUP10 PUSH1 0x0 KECCAK256 SWAP12 PUSH1 0x0 SWAP1 JUMPDEST DUP3 DUP3 LT PUSH2 0x30F2 JUMPI POP POP DUP4 PUSH32 0xE128558611E28B5F2755AED4121802870B0E7EB8A72B13FE57F85F2002810565 SWAP12 SWAP13 PUSH2 0x304F SWAP8 SWAP5 PUSH2 0x3065 SWAP11 SWAP10 SWAP8 SWAP5 PUSH1 0x2 SWAP8 PUSH1 0x1 SWAP6 LT PUSH2 0x30D9 JUMPI POP POP POP DUP2 SHL ADD SWAP1 SSTORE PUSH2 0xA0D JUMP JUMPDEST ADD MLOAD PUSH1 0x0 NOT PUSH1 0xF8 DUP5 PUSH1 0x3 SHL AND SHR NOT AND SWAP1 SSTORE DUP14 DUP1 DUP1 PUSH2 0x1725 JUMP JUMPDEST DUP5 DUP5 ADD MLOAD DUP15 SSTORE SWAP13 DUP14 ADD SWAP13 SWAP4 DUP12 ADD SWAP4 SWAP1 DUP12 ADD SWAP1 PUSH2 0x3088 JUMP JUMPDEST CALLVALUE PUSH2 0x288 JUMPI PUSH1 0x0 CALLDATASIZE PUSH1 0x3 NOT ADD SLT PUSH2 0x288 JUMPI PUSH1 0x20 PUSH1 0xFF PUSH1 0x0 DUP1 MLOAD PUSH1 0x20 PUSH2 0x4F82 DUP4 CODECOPY DUP2 MLOAD SWAP2 MSTORE SLOAD AND PUSH1 0x40 MLOAD SWAP1 ISZERO ISZERO DUP2 MSTORE RETURN JUMPDEST CALLVALUE PUSH2 0x288 JUMPI PUSH1 0x0 CALLDATASIZE PUSH1 0x3 NOT ADD SLT PUSH2 0x288 JUMPI PUSH1 0x20 PUSH1 0xA SLOAD PUSH1 0x40 MLOAD SWAP1 DUP2 MSTORE RETURN JUMPDEST CALLVALUE PUSH2 0x288 JUMPI PUSH1 0x0 CALLDATASIZE PUSH1 0x3 NOT ADD SLT PUSH2 0x288 JUMPI PUSH32 0x0 PUSH1 0x1 PUSH1 0x1 PUSH1 0xA0 SHL SUB AND ADDRESS SUB PUSH2 0x31C2 JUMPI PUSH1 0x20 PUSH1 0x40 MLOAD PUSH32 0x360894A13BA1A3210667C828492DB98DCA3E2076CC3735A920A3CA505D382BBC DUP2 MSTORE RETURN JUMPDEST PUSH1 0x40 MLOAD PUSH4 0x703E46DD PUSH1 0xE1 SHL DUP2 MSTORE PUSH1 0x4 SWAP1 REVERT JUMPDEST PUSH1 0x40 CALLDATASIZE PUSH1 0x3 NOT ADD SLT PUSH2 0x288 JUMPI PUSH2 0x31E8 PUSH2 0x4145 JUMP JUMPDEST PUSH1 0x24 SWAP1 DUP2 CALLDATALOAD PUSH1 0x1 PUSH1 0x1 PUSH1 0x40 SHL SUB DUP2 GT PUSH2 0x288 JUMPI CALLDATASIZE PUSH1 0x23 DUP3 ADD SLT ISZERO PUSH2 0x288 JUMPI PUSH2 0x3219 SWAP1 CALLDATASIZE SWAP1 DUP5 DUP2 PUSH1 0x4 ADD CALLDATALOAD SWAP2 ADD PUSH2 0x4326 JUMP JUMPDEST PUSH1 0x1 PUSH1 0x1 PUSH1 0xA0 SHL SUB SWAP2 PUSH32 0x0 DUP4 AND ADDRESS DUP2 EQ SWAP1 DUP2 ISZERO PUSH2 0x344F JUMPI JUMPDEST POP PUSH2 0x31C2 JUMPI CALLER PUSH1 0x0 SWAP1 DUP2 MSTORE PUSH32 0xAB71E3F32666744D246EDFF3F96E4BDAFEE2E9867098CDD118A979A7464786A8 PUSH1 0x20 SWAP1 DUP2 MSTORE PUSH1 0x40 SWAP1 SWAP2 KECCAK256 SLOAD SWAP1 SWAP4 SWAP1 PUSH32 0x189AB7A9244DF0848122154315AF71FE140F3DB0FE014031783B0946B8C9D2E3 SWAP1 PUSH1 0xFF AND ISZERO PUSH2 0x3432 JUMPI POP PUSH32 0x4532260FE799306E8BFB8DF20FA4255DD3C44D6D51276CBA0ABC9468927B3388 DUP5 PUSH2 0x32E2 PUSH1 0xA SLOAD PUSH2 0x4740 JUMP JUMPDEST DUP1 PUSH1 0xA SSTORE PUSH1 0x40 MLOAD SWAP1 DUP2 MSTORE LOG1 DUP2 AND SWAP3 PUSH1 0x40 MLOAD PUSH4 0x52D1902D PUSH1 0xE0 SHL DUP2 MSTORE DUP2 DUP2 PUSH1 0x4 DUP2 DUP9 GAS STATICCALL PUSH1 0x0 SWAP2 DUP2 PUSH2 0x3403 JUMPI JUMPDEST POP PUSH2 0x332B JUMPI PUSH1 0x40 MLOAD PUSH4 0x4C9C8CE3 PUSH1 0xE0 SHL DUP2 MSTORE PUSH1 0x4 DUP2 ADD DUP7 SWAP1 MSTORE DUP7 SWAP1 REVERT JUMPDEST DUP5 SWAP1 DUP7 PUSH32 0x360894A13BA1A3210667C828492DB98DCA3E2076CC3735A920A3CA505D382BBC SWAP2 DUP3 DUP2 SUB PUSH2 0x33EE JUMPI POP DUP5 EXTCODESIZE ISZERO PUSH2 0x33D8 JUMPI POP DUP1 SLOAD PUSH1 0x1 PUSH1 0x1 PUSH1 0xA0 SHL SUB NOT AND DUP3 OR SWAP1 SSTORE PUSH1 0x40 MLOAD SWAP1 PUSH32 0xBC7CD75A20EE27FD9ADEBAB32041F755214DBC6BFFA90CC0225B39DA2E5C2D3B PUSH1 0x0 DUP1 LOG2 DUP4 MLOAD ISZERO PUSH2 0x33BE JUMPI POP PUSH1 0x0 DUP4 DUP2 SWAP3 PUSH2 0x18 SWAP6 MLOAD SWAP2 ADD DUP5 GAS DELEGATECALL PUSH2 0x33B8 PUSH2 0x455B JUMP JUMPDEST SWAP2 PUSH2 0x4EBE JUMP JUMPDEST SWAP3 POP POP POP CALLVALUE PUSH2 0x33C9 JUMPI STOP JUMPDEST PUSH4 0xB398979F PUSH1 0xE0 SHL DUP2 MSTORE PUSH1 0x4 SWAP1 REVERT JUMPDEST PUSH1 0x40 MLOAD PUSH4 0x4C9C8CE3 PUSH1 0xE0 SHL DUP2 MSTORE PUSH1 0x4 DUP2 ADD DUP5 SWAP1 MSTORE REVERT JUMPDEST PUSH1 0x40 MLOAD SWAP1 PUSH4 0x2A875269 PUSH1 0xE2 SHL DUP3 MSTORE PUSH1 0x4 DUP3 ADD MSTORE REVERT JUMPDEST SWAP1 SWAP2 POP DUP3 DUP2 DUP2 RETURNDATASIZE DUP4 GT PUSH2 0x342B JUMPI JUMPDEST PUSH2 0x341B DUP2 DUP4 PUSH2 0x41FD JUMP JUMPDEST DUP2 ADD SUB SLT PUSH2 0x288 JUMPI MLOAD SWAP1 DUP8 PUSH2 0x330E JUMP JUMPDEST POP RETURNDATASIZE PUSH2 0x3411 JUMP JUMPDEST DUP6 PUSH1 0x44 SWAP2 PUSH1 0x40 MLOAD SWAP2 PUSH4 0xE2517D3F PUSH1 0xE0 SHL DUP4 MSTORE CALLER PUSH1 0x4 DUP5 ADD MSTORE DUP3 ADD MSTORE REVERT JUMPDEST SWAP1 POP DUP4 PUSH32 0x360894A13BA1A3210667C828492DB98DCA3E2076CC3735A920A3CA505D382BBC SLOAD AND EQ ISZERO DUP6 PUSH2 0x3250 JUMP JUMPDEST CALLVALUE PUSH2 0x288 JUMPI PUSH1 0x0 CALLDATASIZE PUSH1 0x3 NOT ADD SLT PUSH2 0x288 JUMPI PUSH1 0x20 PUSH1 0x6 SLOAD PUSH1 0x40 MLOAD SWAP1 DUP2 MSTORE RETURN JUMPDEST CALLVALUE PUSH2 0x288 JUMPI PUSH1 0x60 CALLDATASIZE PUSH1 0x3 NOT ADD SLT PUSH2 0x288 JUMPI PUSH2 0x34B4 PUSH2 0x4145 JUMP JUMPDEST PUSH1 0x24 CALLDATALOAD PUSH1 0x1 PUSH1 0x1 PUSH1 0x40 SHL SUB DUP2 GT PUSH2 0x288 JUMPI PUSH2 0x34D3 SWAP1 CALLDATASIZE SWAP1 PUSH1 0x4 ADD PUSH2 0x435D JUMP JUMPDEST PUSH1 0x44 CALLDATALOAD PUSH1 0x1 PUSH1 0x1 PUSH1 0x40 SHL SUB DUP2 GT PUSH2 0x288 JUMPI PUSH2 0x34F2 SWAP1 CALLDATASIZE SWAP1 PUSH1 0x4 ADD PUSH2 0x435D JUMP JUMPDEST SWAP1 PUSH2 0x34FB PUSH2 0x47AB JUMP JUMPDEST PUSH2 0x350F PUSH1 0x1 PUSH1 0x1 PUSH1 0xA0 SHL SUB DUP5 AND ISZERO ISZERO PUSH2 0x447E JUMP JUMPDEST PUSH2 0x351B DUP2 MLOAD ISZERO ISZERO PUSH2 0x44CA JUMP JUMPDEST PUSH2 0x352A PUSH2 0x1F4 DUP3 MLOAD GT ISZERO PUSH2 0x450F JUMP JUMPDEST PUSH2 0x3536 DUP3 MLOAD ISZERO ISZERO PUSH2 0x44CA JUMP JUMPDEST PUSH2 0x3544 PUSH1 0x32 DUP4 MLOAD GT ISZERO PUSH2 0x450F JUMP JUMPDEST PUSH2 0x354C PUSH2 0x483A JUMP JUMPDEST PUSH1 0x1 PUSH1 0x1 PUSH1 0xA0 SHL SUB DUP4 AND PUSH1 0x0 SWAP1 DUP2 MSTORE PUSH1 0x1 PUSH1 0x20 MSTORE PUSH1 0x40 SWAP1 KECCAK256 PUSH1 0x3 ADD SLOAD PUSH1 0xFF AND PUSH2 0x38F2 JUMPI PUSH1 0x1 PUSH1 0x1 PUSH1 0xA0 SHL SUB DUP4 AND PUSH1 0x0 SWAP1 DUP2 MSTORE PUSH1 0x1 PUSH1 0x20 MSTORE PUSH1 0x40 SWAP1 KECCAK256 PUSH1 0x4 ADD SLOAD ISZERO PUSH2 0x35F2 JUMPI POP POP PUSH1 0x1 DUP1 PUSH1 0xA0 SHL SUB DUP2 AND PUSH1 0x0 MSTORE PUSH1 0x1 PUSH1 0x20 MSTORE PUSH1 0x3 PUSH1 0x40 PUSH1 0x0 KECCAK256 ADD PUSH1 0x1 PUSH1 0xFF NOT DUP3 SLOAD AND OR SWAP1 SSTORE PUSH2 0x35BF DUP2 PUSH2 0x4865 JUMP JUMPDEST POP CALLER SWAP1 PUSH1 0x1 PUSH1 0x1 PUSH1 0xA0 SHL SUB AND PUSH32 0xF135DA67A7DEC9747513AABBC02F214BB500FB26C7AE99D39FAD29083A5251B4 PUSH1 0x0 DUP1 LOG3 STOP JUMPDEST PUSH1 0x40 MLOAD PUSH1 0xE0 DUP2 ADD DUP2 DUP2 LT PUSH1 0x1 PUSH1 0x1 PUSH1 0x40 SHL SUB DUP3 GT OR PUSH2 0x1763 JUMPI PUSH1 0x40 MSTORE PUSH1 0x1 DUP1 PUSH1 0xA0 SHL SUB DUP5 AND DUP2 MSTORE PUSH1 0x20 DUP2 ADD SWAP1 DUP3 DUP3 MSTORE DUP4 PUSH1 0x40 DUP3 ADD MSTORE PUSH1 0x1 PUSH1 0x60 DUP3 ADD MSTORE TIMESTAMP PUSH1 0x80 DUP3 ADD MSTORE PUSH1 0x0 PUSH1 0xA0 DUP3 ADD MSTORE PUSH1 0x0 PUSH1 0xC0 DUP3 ADD MSTORE PUSH1 0x1 DUP1 PUSH1 0xA0 SHL SUB DUP6 AND PUSH1 0x0 MSTORE PUSH1 0x1 PUSH1 0x20 MSTORE PUSH1 0x40 PUSH1 0x0 KECCAK256 SWAP2 PUSH1 0x1 DUP1 PUSH1 0xA0 SHL SUB DUP3 MLOAD AND PUSH1 0x1 PUSH1 0x1 PUSH1 0x60 SHL SUB PUSH1 0xA0 SHL DUP5 SLOAD AND OR DUP4 SSTORE MLOAD DUP1 MLOAD SWAP1 PUSH1 0x1 PUSH1 0x1 PUSH1 0x40 SHL SUB DUP3 GT PUSH2 0x1763 JUMPI DUP2 SWAP1 PUSH2 0x36A2 DUP3 PUSH2 0x3699 PUSH1 0x1 DUP9 ADD SLOAD PUSH2 0x4171 JUMP JUMPDEST PUSH1 0x1 DUP9 ADD PUSH2 0x442C JUMP JUMPDEST PUSH1 0x20 SWAP1 PUSH1 0x1F DUP4 GT PUSH1 0x1 EQ PUSH2 0x3880 JUMPI PUSH1 0x0 SWAP3 PUSH2 0x3875 JUMPI JUMPDEST POP POP DUP2 PUSH1 0x1 SHL SWAP2 PUSH1 0x0 NOT SWAP1 PUSH1 0x3 SHL SHR NOT AND OR PUSH1 0x1 DUP4 ADD SSTORE JUMPDEST PUSH1 0x40 DUP2 ADD MLOAD DUP1 MLOAD SWAP1 PUSH1 0x1 PUSH1 0x1 PUSH1 0x40 SHL SUB DUP3 GT PUSH2 0x1763 JUMPI PUSH2 0x3700 DUP3 PUSH2 0x36F7 PUSH1 0x2 DUP8 ADD SLOAD PUSH2 0x4171 JUMP JUMPDEST PUSH1 0x2 DUP8 ADD PUSH2 0x442C JUMP JUMPDEST PUSH1 0x20 SWAP1 PUSH1 0x1F DUP4 GT PUSH1 0x1 EQ PUSH2 0x37DA JUMPI PUSH32 0x180B91052B9CDA63531C3E4A9CBE6596F73F5DF1F6AFFB2666FA8E458D0CE3A9 SWAP6 SWAP4 DUP4 PUSH2 0x37B6 SWAP7 SWAP5 PUSH1 0x6 SWAP5 PUSH1 0xC0 SWAP5 PUSH1 0x0 SWAP3 PUSH2 0x37CF JUMPI JUMPDEST POP POP DUP2 PUSH1 0x1 SHL SWAP2 PUSH1 0x0 NOT SWAP1 PUSH1 0x3 SHL SHR NOT AND OR PUSH1 0x2 DUP6 ADD SSTORE JUMPDEST PUSH2 0x377C PUSH1 0x60 DUP3 ADD MLOAD ISZERO ISZERO PUSH1 0x3 DUP7 ADD SWAP1 PUSH1 0xFF DUP1 NOT DUP4 SLOAD AND SWAP2 ISZERO ISZERO AND OR SWAP1 SSTORE JUMP JUMPDEST PUSH1 0x80 DUP2 ADD MLOAD PUSH1 0x4 DUP6 ADD SSTORE PUSH1 0xA0 DUP2 ADD MLOAD PUSH1 0x5 DUP6 ADD SSTORE ADD MLOAD SWAP2 ADD SSTORE PUSH2 0x379E DUP6 PUSH2 0x4865 JUMP JUMPDEST POP PUSH2 0x471 PUSH1 0x40 MLOAD SWAP3 DUP4 SWAP3 PUSH1 0x40 DUP5 MSTORE PUSH1 0x40 DUP5 ADD SWAP1 PUSH2 0x42E6 JUMP JUMPDEST DUP3 DUP2 SUB PUSH1 0x20 DUP5 ADD MSTORE CALLER SWAP7 PUSH1 0x1 PUSH1 0x1 PUSH1 0xA0 SHL SUB AND SWAP6 PUSH2 0x42E6 JUMP JUMPDEST ADD MLOAD SWAP1 POP DUP12 DUP1 PUSH2 0x3745 JUMP JUMPDEST SWAP1 PUSH1 0x2 DUP6 ADD PUSH1 0x0 MSTORE PUSH1 0x20 PUSH1 0x0 KECCAK256 SWAP2 PUSH1 0x0 JUMPDEST PUSH1 0x1F NOT DUP6 AND DUP2 LT PUSH2 0x385D JUMPI POP SWAP4 PUSH1 0x1 DUP5 PUSH1 0x6 SWAP5 PUSH1 0xC0 SWAP5 PUSH32 0x180B91052B9CDA63531C3E4A9CBE6596F73F5DF1F6AFFB2666FA8E458D0CE3A9 SWAP11 SWAP9 PUSH2 0x37B6 SWAP11 SWAP9 PUSH1 0x1F NOT DUP2 AND LT PUSH2 0x3844 JUMPI JUMPDEST POP POP POP DUP2 SHL ADD PUSH1 0x2 DUP6 ADD SSTORE PUSH2 0x375D JUMP JUMPDEST ADD MLOAD PUSH1 0x0 NOT PUSH1 0xF8 DUP5 PUSH1 0x3 SHL AND SHR NOT AND SWAP1 SSTORE DUP12 DUP1 DUP1 PUSH2 0x3834 JUMP JUMPDEST SWAP2 SWAP3 PUSH1 0x20 PUSH1 0x1 DUP2 SWAP3 DUP7 DUP6 ADD MLOAD DUP2 SSTORE ADD SWAP5 ADD SWAP3 ADD PUSH2 0x37EB JUMP JUMPDEST ADD MLOAD SWAP1 POP DUP8 DUP1 PUSH2 0x36B8 JUMP JUMPDEST SWAP3 POP PUSH1 0x1 DUP6 ADD PUSH1 0x0 MSTORE PUSH1 0x20 PUSH1 0x0 KECCAK256 SWAP1 PUSH1 0x0 SWAP4 JUMPDEST PUSH1 0x1F NOT DUP5 AND DUP6 LT PUSH2 0x38D7 JUMPI PUSH1 0x1 SWAP5 POP DUP4 PUSH1 0x1F NOT DUP2 AND LT PUSH2 0x38BE JUMPI JUMPDEST POP POP POP DUP2 SHL ADD PUSH1 0x1 DUP4 ADD SSTORE PUSH2 0x36D0 JUMP JUMPDEST ADD MLOAD PUSH1 0x0 NOT PUSH1 0xF8 DUP5 PUSH1 0x3 SHL AND SHR NOT AND SWAP1 SSTORE DUP8 DUP1 DUP1 PUSH2 0x38AE JUMP JUMPDEST DUP2 DUP2 ADD MLOAD DUP4 SSTORE PUSH1 0x20 SWAP5 DUP6 ADD SWAP5 PUSH1 0x1 SWAP1 SWAP4 ADD SWAP3 SWAP1 SWAP2 ADD SWAP1 PUSH2 0x3893 JUMP JUMPDEST PUSH1 0x40 MLOAD PUSH3 0x461BCD PUSH1 0xE5 SHL DUP2 MSTORE PUSH1 0x20 PUSH1 0x4 DUP3 ADD MSTORE PUSH1 0x16 PUSH1 0x24 DUP3 ADD MSTORE PUSH22 0x4F66666963657220616C726561647920616374697665 PUSH1 0x50 SHL PUSH1 0x44 DUP3 ADD MSTORE PUSH1 0x64 SWAP1 REVERT JUMPDEST CALLVALUE PUSH2 0x288 JUMPI PUSH1 0x20 CALLDATASIZE PUSH1 0x3 NOT ADD SLT PUSH2 0x288 JUMPI PUSH2 0x3949 PUSH2 0x4145 JUMP JUMPDEST PUSH2 0x3951 PUSH2 0x47AB JUMP JUMPDEST PUSH2 0x3959 PUSH2 0x483A JUMP JUMPDEST PUSH1 0x1 PUSH1 0x1 PUSH1 0xA0 SHL SUB DUP2 AND PUSH1 0x0 DUP2 DUP2 MSTORE PUSH1 0x1 PUSH1 0x20 MSTORE PUSH1 0x40 SWAP1 KECCAK256 PUSH1 0x3 ADD SLOAD SWAP1 SWAP2 SWAP1 PUSH1 0xFF AND ISZERO PUSH2 0x39CC JUMPI PUSH2 0x39A2 SWAP1 DUP3 PUSH1 0x0 MSTORE PUSH1 0x1 PUSH1 0x20 MSTORE PUSH1 0x3 PUSH1 0x40 PUSH1 0x0 KECCAK256 ADD PUSH1 0xFF NOT DUP2 SLOAD AND SWAP1 SSTORE PUSH2 0x4D46 JUMP JUMPDEST POP CALLER SWAP1 PUSH32 0x7602228BAB5910BD496F24DDFE1CB34E29049B14DEA8A332A5495ED413966EBF PUSH1 0x0 DUP1 LOG3 STOP JUMPDEST PUSH1 0x40 MLOAD PUSH3 0x461BCD PUSH1 0xE5 SHL DUP2 MSTORE PUSH1 0x20 PUSH1 0x4 DUP3 ADD MSTORE PUSH1 0x12 PUSH1 0x24 DUP3 ADD MSTORE PUSH18 0x4F666669636572206E6F7420616374697665 PUSH1 0x70 SHL PUSH1 0x44 DUP3 ADD MSTORE PUSH1 0x64 SWAP1 REVERT JUMPDEST CALLVALUE PUSH2 0x288 JUMPI PUSH1 0x0 CALLDATASIZE PUSH1 0x3 NOT ADD SLT PUSH2 0x288 JUMPI PUSH2 0x3A1F PUSH2 0x474F JUMP JUMPDEST PUSH1 0x0 DUP1 MLOAD PUSH1 0x20 PUSH2 0x4F82 DUP4 CODECOPY DUP2 MLOAD SWAP2 MSTORE DUP1 SLOAD PUSH1 0xFF DUP2 AND ISZERO PUSH2 0x3A6B JUMPI PUSH1 0xFF NOT AND SWAP1 SSTORE PUSH32 0x5DB9EE0A495BF2E6FF9C91A7834C1BA4FDD244A5E8AA4E537BD38AEAE4B073AA PUSH1 0x20 PUSH1 0x40 MLOAD CALLER DUP2 MSTORE LOG1 STOP JUMPDEST PUSH1 0x40 MLOAD PUSH4 0x8DFC202B PUSH1 0xE0 SHL DUP2 MSTORE PUSH1 0x4 SWAP1 REVERT JUMPDEST CALLVALUE PUSH2 0x288 JUMPI PUSH1 0x40 CALLDATASIZE PUSH1 0x3 NOT ADD SLT PUSH2 0x288 JUMPI PUSH2 0x3A96 PUSH2 0x415B JUMP JUMPDEST CALLER PUSH1 0x1 PUSH1 0x1 PUSH1 0xA0 SHL SUB DUP3 AND SUB PUSH2 0x3AB2 JUMPI PUSH2 0x18 SWAP1 PUSH1 0x4 CALLDATALOAD PUSH2 0x4DDC JUMP JUMPDEST PUSH1 0x40 MLOAD PUSH4 0x334BD919 PUSH1 0xE1 SHL DUP2 MSTORE PUSH1 0x4 SWAP1 REVERT JUMPDEST CALLVALUE PUSH2 0x288 JUMPI PUSH1 0x0 CALLDATASIZE PUSH1 0x3 NOT ADD SLT PUSH2 0x288 JUMPI PUSH1 0x20 PUSH1 0x40 MLOAD PUSH2 0x1F4 DUP2 MSTORE RETURN JUMPDEST CALLVALUE PUSH2 0x288 JUMPI PUSH1 0x40 CALLDATASIZE PUSH1 0x3 NOT ADD SLT PUSH2 0x288 JUMPI PUSH2 0x18 PUSH1 0x4 CALLDATALOAD PUSH2 0x3B00 PUSH2 0x415B JUMP JUMPDEST SWAP1 DUP1 PUSH1 0x0 MSTORE PUSH1 0x0 DUP1 MLOAD PUSH1 0x20 PUSH2 0x4F62 DUP4 CODECOPY DUP2 MLOAD SWAP2 MSTORE PUSH1 0x20 MSTORE PUSH2 0x3B28 PUSH1 0x1 PUSH1 0x40 PUSH1 0x0 KECCAK256 ADD SLOAD PUSH2 0x4807 JUMP JUMPDEST PUSH2 0x4CD1 JUMP JUMPDEST CALLVALUE PUSH2 0x288 JUMPI PUSH1 0x60 CALLDATASIZE PUSH1 0x3 NOT ADD SLT PUSH2 0x288 JUMPI PUSH1 0x4 CALLDATALOAD PUSH1 0x24 DUP1 CALLDATALOAD SWAP2 DUP3 ISZERO ISZERO DUP1 DUP5 SUB PUSH2 0x288 JUMPI PUSH1 0x1 PUSH1 0x1 PUSH1 0x40 SHL SUB SWAP4 PUSH1 0x44 CALLDATALOAD DUP6 DUP2 GT PUSH2 0x288 JUMPI PUSH2 0x3B71 SWAP1 CALLDATASIZE SWAP1 PUSH1 0x4 ADD PUSH2 0x435D JUMP JUMPDEST SWAP4 PUSH32 0x9C4E6FD68FBDEC6E3075EC7BFBA710532AF019AEA93F5F59EBFE5A9D1A0B894E SWAP6 DUP7 PUSH1 0x0 MSTORE PUSH1 0x20 SWAP7 PUSH1 0x0 DUP1 MLOAD PUSH1 0x20 PUSH2 0x4F62 DUP4 CODECOPY DUP2 MLOAD SWAP2 MSTORE DUP9 MSTORE PUSH1 0x40 PUSH1 0x0 KECCAK256 CALLER PUSH1 0x0 MSTORE DUP9 MSTORE PUSH1 0xFF PUSH1 0x40 PUSH1 0x0 KECCAK256 SLOAD AND ISZERO PUSH2 0x3F00 JUMPI POP DUP5 PUSH1 0x0 MSTORE PUSH1 0x0 DUP8 MSTORE PUSH2 0x3BE1 PUSH1 0x4 PUSH1 0x40 PUSH1 0x0 KECCAK256 ADD SLOAD ISZERO ISZERO PUSH2 0x43C9 JUMP JUMPDEST PUSH2 0x3BE9 PUSH2 0x483A JUMP JUMPDEST DUP5 PUSH1 0x0 MSTORE PUSH1 0x0 DUP8 MSTORE PUSH1 0x6 SWAP3 PUSH1 0xFF DUP5 PUSH1 0x40 PUSH1 0x0 KECCAK256 ADD SLOAD AND DUP5 DUP2 LT ISZERO PUSH2 0x3EEB JUMPI PUSH1 0x2 SUB PUSH2 0x3EB3 JUMPI DUP6 PUSH1 0x0 MSTORE PUSH1 0x3 DUP9 MSTORE PUSH1 0xFF PUSH1 0x4 PUSH1 0x40 PUSH1 0x0 KECCAK256 ADD SLOAD AND PUSH2 0x3E6F JUMPI DUP6 PUSH1 0x0 MSTORE PUSH1 0x3 DUP9 MSTORE PUSH1 0x40 PUSH1 0x0 KECCAK256 PUSH1 0x0 DUP10 MSTORE PUSH1 0x40 PUSH1 0x0 KECCAK256 SWAP4 PUSH1 0x4 DUP3 ADD SWAP4 DUP5 SLOAD SWAP5 PUSH1 0x1 DUP1 SWAP7 PUSH2 0xFF00 DUP12 PUSH1 0x8 SHL AND SWAP1 PUSH2 0xFFFF NOT AND OR OR SWAP1 SSTORE PUSH1 0x5 DUP4 ADD SWAP2 DUP11 MLOAD SWAP2 DUP3 GT PUSH2 0x530 JUMPI POP PUSH2 0x3C7E DUP2 PUSH2 0x3C78 DUP5 SLOAD PUSH2 0x4171 JUMP JUMPDEST DUP5 PUSH2 0x442C JUMP JUMPDEST DUP11 PUSH1 0x1F DUP3 GT PUSH1 0x1 EQ PUSH2 0x3DDF JUMPI SWAP3 DUP11 SWAP12 SWAP7 SWAP5 SWAP3 DUP3 DUP10 SWAP8 SWAP6 SWAP4 PUSH1 0x40 SWAP11 SWAP5 PUSH32 0xA1CB7F40018718C09CB1D27551081808F2171AF542482542866F4E2DCC4174B7 SWAP14 SWAP15 PUSH1 0x0 SWAP3 PUSH2 0x3DD4 JUMPI JUMPDEST POP POP PUSH1 0x0 NOT PUSH1 0x3 DUP4 SWAP1 SHL SHR NOT AND SWAP1 DUP7 SHL OR SWAP1 SSTORE JUMPDEST ADD DUP1 SLOAD PUSH1 0x1 PUSH1 0x1 PUSH1 0xA0 SHL SUB NOT AND CALLER OR SWAP1 SSTORE ISZERO PUSH2 0x3DA4 JUMPI POP DUP7 DUP4 PUSH1 0x7 DUP4 ADD SWAP3 DUP4 SLOAD ISZERO ISZERO PUSH1 0x0 EQ PUSH2 0x3D8F JUMPI PUSH32 0x92AC592D9F00FE36701E3861C8E4CEE57D21D2455E6B7571E23C8FFFFF2A8B7B SWAP3 SWAP4 SWAP5 DUP2 ADD PUSH1 0x5 PUSH1 0xFF NOT DUP3 SLOAD AND OR SWAP1 SSTORE PUSH1 0x8 DUP6 SLOAD SWAP2 ADD PUSH1 0x1 DUP1 PUSH1 0xA0 SHL SUB SWAP2 DUP3 DUP3 SLOAD AND PUSH1 0x0 MSTORE PUSH1 0x9 DUP5 MSTORE PUSH2 0x3D5A DUP10 PUSH1 0x0 KECCAK256 SWAP2 DUP3 SLOAD PUSH2 0x4471 JUMP JUMPDEST SWAP1 SSTORE PUSH2 0x3D69 DUP7 SLOAD PUSH1 0x7 SLOAD PUSH2 0x4471 JUMP JUMPDEST PUSH1 0x7 SSTORE SLOAD AND SWAP4 SLOAD DUP7 MLOAD SWAP1 DUP2 MSTORE LOG3 JUMPDEST DUP2 MLOAD SWAP3 DUP4 MSTORE DUP3 ADD MSTORE DUP1 PUSH2 0x471 CALLER SWAP6 PUSH1 0x40 DUP4 ADD SWAP1 PUSH2 0x42E6 JUMP JUMPDEST SWAP3 POP POP POP ADD PUSH1 0x3 PUSH1 0xFF NOT DUP3 SLOAD AND OR SWAP1 SSTORE PUSH2 0x3D77 JUMP JUMPDEST PUSH1 0x7 DUP3 ADD SLOAD SWAP1 SWAP3 SWAP2 SWAP1 ISZERO PUSH2 0x3DC2 JUMPI ADD SWAP1 PUSH1 0xFF NOT DUP3 SLOAD AND OR SWAP1 SSTORE PUSH2 0x3D77 JUMP JUMPDEST ADD DUP1 SLOAD PUSH1 0xFF NOT AND PUSH1 0x4 OR SWAP1 SSTORE POP PUSH2 0x3D77 JUMP JUMPDEST ADD MLOAD SWAP1 POP DUP16 DUP16 PUSH2 0x3CC4 JUMP JUMPDEST PUSH1 0x1F NOT DUP3 AND SWAP1 DUP4 PUSH1 0x0 MSTORE DUP13 PUSH1 0x0 KECCAK256 SWAP2 PUSH1 0x0 JUMPDEST DUP2 DUP2 LT PUSH2 0x3E5A JUMPI POP SWAP7 DUP4 DUP2 SWAP7 SWAP4 DUP15 SWAP16 SWAP11 SWAP9 SWAP7 SWAP4 PUSH32 0xA1CB7F40018718C09CB1D27551081808F2171AF542482542866F4E2DCC4174B7 SWAP15 SWAP16 DUP14 SWAP12 SWAP8 PUSH1 0x40 SWAP15 SWAP9 LT PUSH2 0x3E41 JUMPI JUMPDEST POP POP POP DUP2 SHL ADD SWAP1 SSTORE PUSH2 0x3CD8 JUMP JUMPDEST ADD MLOAD PUSH1 0x0 NOT PUSH1 0xF8 DUP5 PUSH1 0x3 SHL AND SHR NOT AND SWAP1 SSTORE DUP16 DUP16 DUP1 PUSH2 0x3E34 JUMP JUMPDEST DUP14 DUP4 ADD MLOAD DUP5 SSTORE SWAP3 DUP9 ADD SWAP3 SWAP2 DUP15 ADD SWAP2 DUP15 ADD PUSH2 0x3DF1 JUMP JUMPDEST PUSH1 0x40 MLOAD PUSH3 0x461BCD PUSH1 0xE5 SHL DUP2 MSTORE PUSH1 0x4 DUP2 ADD DUP10 SWAP1 MSTORE PUSH1 0x17 DUP2 DUP6 ADD MSTORE PUSH32 0x41707065616C20616C7265616479207265736F6C766564000000000000000000 PUSH1 0x44 DUP3 ADD MSTORE PUSH1 0x64 SWAP1 REVERT JUMPDEST PUSH1 0x40 MLOAD PUSH3 0x461BCD PUSH1 0xE5 SHL DUP2 MSTORE PUSH1 0x4 DUP2 ADD DUP10 SWAP1 MSTORE PUSH1 0x11 DUP2 DUP6 ADD MSTORE PUSH17 0x139BC81C195B991A5B99C8185C1C19585B PUSH1 0x7A SHL PUSH1 0x44 DUP3 ADD MSTORE PUSH1 0x64 SWAP1 REVERT JUMPDEST DUP4 PUSH4 0x4E487B71 PUSH1 0xE0 SHL PUSH1 0x0 MSTORE PUSH1 0x21 PUSH1 0x4 MSTORE PUSH1 0x0 REVERT JUMPDEST DUP3 PUSH1 0x44 SWAP2 PUSH1 0x40 MLOAD SWAP2 PUSH4 0xE2517D3F PUSH1 0xE0 SHL DUP4 MSTORE CALLER PUSH1 0x4 DUP5 ADD MSTORE DUP3 ADD MSTORE REVERT JUMPDEST CALLVALUE PUSH2 0x288 JUMPI PUSH1 0x20 CALLDATASIZE PUSH1 0x3 NOT ADD SLT PUSH2 0x288 JUMPI PUSH1 0x4 CALLDATALOAD PUSH1 0x0 MSTORE PUSH1 0x3 PUSH1 0x20 MSTORE PUSH1 0x40 PUSH1 0x0 KECCAK256 DUP1 SLOAD SWAP1 PUSH1 0x1 DUP1 PUSH1 0xA0 SHL SUB DUP1 PUSH1 0x1 DUP4 ADD SLOAD AND SWAP2 PUSH2 0x3F5C PUSH1 0x2 DUP3 ADD PUSH2 0x421E JUMP JUMPDEST SWAP1 PUSH2 0x3FD6 PUSH1 0x3 DUP3 ADD SLOAD PUSH1 0x4 DUP4 ADD SLOAD SWAP5 PUSH1 0xFF PUSH2 0x3F79 PUSH1 0x5 DUP7 ADD PUSH2 0x421E JUMP JUMPDEST SWAP2 PUSH1 0x6 DUP7 ADD SLOAD AND SWAP7 PUSH2 0x3FAE PUSH1 0x8 PUSH1 0x7 DUP9 ADD SLOAD SWAP8 ADD SLOAD SWAP8 PUSH1 0x40 MLOAD SWAP12 DUP13 SWAP12 PUSH2 0x140 SWAP2 DUP14 MSTORE PUSH1 0x20 DUP14 ADD MSTORE DUP1 PUSH1 0x40 DUP14 ADD MSTORE DUP12 ADD SWAP1 PUSH2 0x42E6 JUMP JUMPDEST SWAP4 PUSH1 0x60 DUP11 ADD MSTORE DUP2 DUP2 AND ISZERO ISZERO PUSH1 0x80 DUP11 ADD MSTORE PUSH1 0x8 SHR AND ISZERO ISZERO PUSH1 0xA0 DUP9 ADD MSTORE DUP7 DUP3 SUB PUSH1 0xC0 DUP9 ADD MSTORE PUSH2 0x42E6 JUMP JUMPDEST SWAP3 PUSH1 0xE0 DUP6 ADD MSTORE PUSH2 0x100 DUP5 ADD MSTORE PUSH2 0x120 DUP4 ADD MSTORE SUB SWAP1 RETURN JUMPDEST CALLVALUE PUSH2 0x288 JUMPI PUSH1 0x20 CALLDATASIZE PUSH1 0x3 NOT ADD SLT PUSH2 0x288 JUMPI PUSH1 0x4 CALLDATALOAD PUSH1 0x0 MSTORE PUSH1 0x0 DUP1 MLOAD PUSH1 0x20 PUSH2 0x4F62 DUP4 CODECOPY DUP2 MLOAD SWAP2 MSTORE PUSH1 0x20 MSTORE PUSH1 0x20 PUSH1 0x1 PUSH1 0x40 PUSH1 0x0 KECCAK256 ADD SLOAD PUSH1 0x40 MLOAD SWAP1 DUP2 MSTORE RETURN JUMPDEST CALLVALUE PUSH2 0x288 JUMPI PUSH1 0x20 CALLDATASIZE PUSH1 0x3 NOT ADD SLT PUSH2 0x288 JUMPI PUSH1 0x1 PUSH1 0x1 PUSH1 0xA0 SHL SUB DUP1 PUSH2 0x404A PUSH2 0x4145 JUMP JUMPDEST AND PUSH1 0x0 MSTORE PUSH1 0x1 PUSH1 0x20 MSTORE PUSH1 0x40 PUSH1 0x0 KECCAK256 SWAP1 DUP2 SLOAD AND PUSH2 0x4068 PUSH1 0x1 DUP4 ADD PUSH2 0x421E JUMP JUMPDEST SWAP2 PUSH2 0x4075 PUSH1 0x2 DUP3 ADD PUSH2 0x421E JUMP JUMPDEST PUSH1 0xFF PUSH1 0x3 DUP4 ADD SLOAD AND SWAP2 PUSH1 0x4 DUP2 ADD SLOAD PUSH2 0x40BB PUSH1 0x6 PUSH1 0x5 DUP5 ADD SLOAD SWAP4 ADD SLOAD SWAP4 PUSH2 0x40AD PUSH1 0x40 MLOAD SWAP9 DUP10 SWAP9 DUP10 MSTORE PUSH1 0xE0 PUSH1 0x20 DUP11 ADD MSTORE PUSH1 0xE0 DUP10 ADD SWAP1 PUSH2 0x42E6 JUMP JUMPDEST SWAP1 DUP8 DUP3 SUB PUSH1 0x40 DUP10 ADD MSTORE PUSH2 0x42E6 JUMP JUMPDEST SWAP4 ISZERO ISZERO PUSH1 0x60 DUP7 ADD MSTORE PUSH1 0x80 DUP6 ADD MSTORE PUSH1 0xA0 DUP5 ADD MSTORE PUSH1 0xC0 DUP4 ADD MSTORE SUB SWAP1 RETURN JUMPDEST CALLVALUE PUSH2 0x288 JUMPI PUSH1 0x0 CALLDATASIZE PUSH1 0x3 NOT ADD SLT PUSH2 0x288 JUMPI PUSH1 0x20 PUSH1 0x40 MLOAD PUSH1 0x64 DUP2 MSTORE RETURN JUMPDEST CALLVALUE PUSH2 0x288 JUMPI PUSH1 0x20 CALLDATASIZE PUSH1 0x3 NOT ADD SLT PUSH2 0x288 JUMPI PUSH1 0x4 CALLDATALOAD SWAP1 PUSH4 0xFFFFFFFF PUSH1 0xE0 SHL DUP3 AND DUP1 SWAP3 SUB PUSH2 0x288 JUMPI PUSH1 0x20 SWAP2 PUSH4 0x7965DB0B PUSH1 0xE0 SHL DUP2 EQ SWAP1 DUP2 ISZERO PUSH2 0x4134 JUMPI JUMPDEST POP ISZERO ISZERO DUP2 MSTORE RETURN JUMPDEST PUSH4 0x1FFC9A7 PUSH1 0xE0 SHL EQ SWAP1 POP DUP4 PUSH2 0x412D JUMP JUMPDEST PUSH1 0x4 CALLDATALOAD SWAP1 PUSH1 0x1 PUSH1 0x1 PUSH1 0xA0 SHL SUB DUP3 AND DUP3 SUB PUSH2 0x288 JUMPI JUMP JUMPDEST PUSH1 0x24 CALLDATALOAD SWAP1 PUSH1 0x1 PUSH1 0x1 PUSH1 0xA0 SHL SUB DUP3 AND DUP3 SUB PUSH2 0x288 JUMPI JUMP JUMPDEST SWAP1 PUSH1 0x1 DUP3 DUP2 SHR SWAP3 AND DUP1 ISZERO PUSH2 0x41A1 JUMPI JUMPDEST PUSH1 0x20 DUP4 LT EQ PUSH2 0x418B JUMPI JUMP JUMPDEST PUSH4 0x4E487B71 PUSH1 0xE0 SHL PUSH1 0x0 MSTORE PUSH1 0x22 PUSH1 0x4 MSTORE PUSH1 0x24 PUSH1 0x0 REVERT JUMPDEST SWAP2 PUSH1 0x7F AND SWAP2 PUSH2 0x4180 JUMP JUMPDEST PUSH1 0x60 DUP2 ADD SWAP1 DUP2 LT PUSH1 0x1 PUSH1 0x1 PUSH1 0x40 SHL SUB DUP3 GT OR PUSH2 0x1763 JUMPI PUSH1 0x40 MSTORE JUMP JUMPDEST PUSH2 0x160 DUP2 ADD SWAP1 DUP2 LT PUSH1 0x1 PUSH1 0x1 PUSH1 0x40 SHL SUB DUP3 GT OR PUSH2 0x1763 JUMPI PUSH1 0x40 MSTORE JUMP JUMPDEST PUSH1 0x40 DUP2 ADD SWAP1 DUP2 LT PUSH1 0x1 PUSH1 0x1 PUSH1 0x40 SHL SUB DUP3 GT OR PUSH2 0x1763 JUMPI PUSH1 0x40 MSTORE JUMP JUMPDEST SWAP1 PUSH1 0x1F DUP1 NOT SWAP2 ADD AND DUP2 ADD SWAP1 DUP2 LT PUSH1 0x1 PUSH1 0x1 PUSH1 0x40 SHL SUB DUP3 GT OR PUSH2 0x1763 JUMPI PUSH1 0x40 MSTORE JUMP JUMPDEST SWAP1 PUSH1 0x40 MLOAD SWAP2 DUP3 PUSH1 0x0 DUP3 SLOAD PUSH2 0x4231 DUP2 PUSH2 0x4171 JUMP JUMPDEST SWAP1 DUP2 DUP5 MSTORE PUSH1 0x20 SWAP5 PUSH1 0x1 SWAP2 PUSH1 0x1 DUP2 AND SWAP1 DUP2 PUSH1 0x0 EQ PUSH2 0x42A1 JUMPI POP PUSH1 0x1 EQ PUSH2 0x4262 JUMPI JUMPDEST POP POP POP PUSH2 0x4260 SWAP3 POP SUB DUP4 PUSH2 0x41FD JUMP JUMPDEST JUMP JUMPDEST PUSH1 0x0 SWAP1 DUP2 MSTORE DUP6 DUP2 KECCAK256 SWAP6 SWAP4 POP SWAP2 SWAP1 JUMPDEST DUP2 DUP4 LT PUSH2 0x4289 JUMPI POP POP PUSH2 0x4260 SWAP4 POP DUP3 ADD ADD CODESIZE DUP1 DUP1 PUSH2 0x4251 JUMP JUMPDEST DUP6 SLOAD DUP9 DUP5 ADD DUP6 ADD MSTORE SWAP5 DUP6 ADD SWAP5 DUP8 SWAP5 POP SWAP2 DUP4 ADD SWAP2 PUSH2 0x4270 JUMP JUMPDEST SWAP3 POP POP POP PUSH2 0x4260 SWAP5 SWAP3 POP PUSH1 0xFF NOT AND DUP3 DUP5 ADD MSTORE ISZERO ISZERO PUSH1 0x5 SHL DUP3 ADD ADD CODESIZE DUP1 DUP1 PUSH2 0x4251 JUMP JUMPDEST PUSH1 0x0 JUMPDEST DUP4 DUP2 LT PUSH2 0x42D6 JUMPI POP POP PUSH1 0x0 SWAP2 ADD MSTORE JUMP JUMPDEST DUP2 DUP2 ADD MLOAD DUP4 DUP3 ADD MSTORE PUSH1 0x20 ADD PUSH2 0x42C6 JUMP JUMPDEST SWAP1 PUSH1 0x20 SWAP2 PUSH2 0x42FF DUP2 MLOAD DUP1 SWAP3 DUP2 DUP6 MSTORE DUP6 DUP1 DUP7 ADD SWAP2 ADD PUSH2 0x42C3 JUMP JUMPDEST PUSH1 0x1F ADD PUSH1 0x1F NOT AND ADD ADD SWAP1 JUMP JUMPDEST PUSH1 0x1 PUSH1 0x1 PUSH1 0x40 SHL SUB DUP2 GT PUSH2 0x1763 JUMPI PUSH1 0x1F ADD PUSH1 0x1F NOT AND PUSH1 0x20 ADD SWAP1 JUMP JUMPDEST SWAP3 SWAP2 SWAP3 PUSH2 0x4332 DUP3 PUSH2 0x430B JUMP JUMPDEST SWAP2 PUSH2 0x4340 PUSH1 0x40 MLOAD SWAP4 DUP5 PUSH2 0x41FD JUMP JUMPDEST DUP3 SWAP5 DUP2 DUP5 MSTORE DUP2 DUP4 ADD GT PUSH2 0x288 JUMPI DUP3 DUP2 PUSH1 0x20 SWAP4 DUP5 PUSH1 0x0 SWAP7 ADD CALLDATACOPY ADD ADD MSTORE JUMP JUMPDEST SWAP1 DUP1 PUSH1 0x1F DUP4 ADD SLT ISZERO PUSH2 0x288 JUMPI DUP2 PUSH1 0x20 PUSH2 0x4378 SWAP4 CALLDATALOAD SWAP2 ADD PUSH2 0x4326 JUMP JUMPDEST SWAP1 JUMP JUMPDEST PUSH1 0x4 CALLDATALOAD SWAP1 PUSH4 0xFFFFFFFF DUP3 AND DUP3 SUB PUSH2 0x288 JUMPI JUMP JUMPDEST DUP1 SLOAD DUP3 LT ISZERO PUSH2 0x43A6 JUMPI PUSH1 0x0 MSTORE PUSH1 0x20 PUSH1 0x0 KECCAK256 ADD SWAP1 PUSH1 0x0 SWAP1 JUMP JUMPDEST PUSH4 0x4E487B71 PUSH1 0xE0 SHL PUSH1 0x0 MSTORE PUSH1 0x32 PUSH1 0x4 MSTORE PUSH1 0x24 PUSH1 0x0 REVERT JUMPDEST SWAP1 PUSH1 0x6 DUP3 LT ISZERO PUSH2 0x1F13 JUMPI MSTORE JUMP JUMPDEST ISZERO PUSH2 0x43D0 JUMPI JUMP JUMPDEST PUSH1 0x40 MLOAD PUSH3 0x461BCD PUSH1 0xE5 SHL DUP2 MSTORE PUSH1 0x20 PUSH1 0x4 DUP3 ADD MSTORE PUSH1 0x18 PUSH1 0x24 DUP3 ADD MSTORE PUSH32 0x56696F6C6174696F6E20646F6573206E6F742065786973740000000000000000 PUSH1 0x44 DUP3 ADD MSTORE PUSH1 0x64 SWAP1 REVERT JUMPDEST DUP2 DUP2 LT PUSH2 0x4420 JUMPI POP POP JUMP JUMPDEST PUSH1 0x0 DUP2 SSTORE PUSH1 0x1 ADD PUSH2 0x4415 JUMP JUMPDEST SWAP2 SWAP1 PUSH1 0x1F DUP2 GT PUSH2 0x443B JUMPI POP POP POP JUMP JUMPDEST PUSH2 0x4260 SWAP3 PUSH1 0x0 MSTORE PUSH1 0x20 PUSH1 0x0 KECCAK256 SWAP1 PUSH1 0x20 PUSH1 0x1F DUP5 ADD PUSH1 0x5 SHR DUP4 ADD SWAP4 LT PUSH2 0x4467 JUMPI JUMPDEST PUSH1 0x1F ADD PUSH1 0x5 SHR ADD SWAP1 PUSH2 0x4415 JUMP JUMPDEST SWAP1 SWAP2 POP DUP2 SWAP1 PUSH2 0x445A JUMP JUMPDEST SWAP2 SWAP1 DUP3 ADD DUP1 SWAP3 GT PUSH2 0x24CC JUMPI JUMP JUMPDEST ISZERO PUSH2 0x4485 JUMPI JUMP JUMPDEST PUSH1 0x40 MLOAD PUSH3 0x461BCD PUSH1 0xE5 SHL DUP2 MSTORE PUSH1 0x20 PUSH1 0x4 DUP3 ADD MSTORE PUSH1 0x1D PUSH1 0x24 DUP3 ADD MSTORE PUSH32 0x496E76616C696420616464726573733A207A65726F2061646472657373000000 PUSH1 0x44 DUP3 ADD MSTORE PUSH1 0x64 SWAP1 REVERT JUMPDEST ISZERO PUSH2 0x44D1 JUMPI JUMP JUMPDEST PUSH1 0x40 MLOAD PUSH3 0x461BCD PUSH1 0xE5 SHL DUP2 MSTORE PUSH1 0x20 PUSH1 0x4 DUP3 ADD MSTORE PUSH1 0x16 PUSH1 0x24 DUP3 ADD MSTORE PUSH22 0x537472696E672063616E6E6F7420626520656D707479 PUSH1 0x50 SHL PUSH1 0x44 DUP3 ADD MSTORE PUSH1 0x64 SWAP1 REVERT JUMPDEST ISZERO PUSH2 0x4516 JUMPI JUMP JUMPDEST PUSH1 0x40 MLOAD PUSH3 0x461BCD PUSH1 0xE5 SHL DUP2 MSTORE PUSH1 0x20 PUSH1 0x4 DUP3 ADD MSTORE PUSH1 0x1D PUSH1 0x24 DUP3 ADD MSTORE PUSH32 0x537472696E672065786365656473206D6178696D756D206C656E677468000000 PUSH1 0x44 DUP3 ADD MSTORE PUSH1 0x64 SWAP1 REVERT JUMPDEST RETURNDATASIZE ISZERO PUSH2 0x4586 JUMPI RETURNDATASIZE SWAP1 PUSH2 0x456C DUP3 PUSH2 0x430B JUMP JUMPDEST SWAP2 PUSH2 0x457A PUSH1 0x40 MLOAD SWAP4 DUP5 PUSH2 0x41FD JUMP JUMPDEST DUP3 MSTORE RETURNDATASIZE PUSH1 0x0 PUSH1 0x20 DUP5 ADD RETURNDATACOPY JUMP JUMPDEST PUSH1 0x60 SWAP1 JUMP JUMPDEST ISZERO PUSH2 0x4592 JUMPI JUMP JUMPDEST PUSH1 0x40 MLOAD PUSH3 0x461BCD PUSH1 0xE5 SHL DUP2 MSTORE PUSH1 0x20 PUSH1 0x4 DUP3 ADD MSTORE PUSH1 0xF PUSH1 0x24 DUP3 ADD MSTORE PUSH15 0x151C985B9CD9995C8819985A5B1959 PUSH1 0x8A SHL PUSH1 0x44 DUP3 ADD MSTORE PUSH1 0x64 SWAP1 REVERT JUMPDEST PUSH1 0x1 PUSH1 0x1 PUSH1 0x40 SHL SUB DUP2 GT PUSH2 0x1763 JUMPI PUSH1 0x5 SHL PUSH1 0x20 ADD SWAP1 JUMP JUMPDEST SWAP2 SWAP1 DUP3 SUB SWAP2 DUP3 GT PUSH2 0x24CC JUMPI JUMP JUMPDEST DUP1 MLOAD DUP3 LT ISZERO PUSH2 0x43A6 JUMPI PUSH1 0x20 SWAP2 PUSH1 0x5 SHL ADD ADD SWAP1 JUMP JUMPDEST SWAP2 SWAP1 PUSH1 0x40 MLOAD DUP4 DUP2 DUP1 SWAP6 MLOAD PUSH2 0x461B DUP2 PUSH1 0x20 SWAP9 DUP10 DUP1 SWAP7 ADD PUSH2 0x42C3 JUMP JUMPDEST DUP2 ADD PUSH1 0x2 DUP2 MSTORE SUB ADD SWAP1 KECCAK256 SWAP2 PUSH1 0x40 MLOAD SWAP3 DUP4 DUP5 DUP7 DUP4 SLOAD SWAP3 DUP4 DUP2 MSTORE ADD PUSH1 0x0 SWAP4 DUP5 MSTORE DUP8 DUP5 KECCAK256 SWAP3 DUP5 JUMPDEST DUP10 DUP3 DUP3 LT PUSH2 0x472A JUMPI POP POP POP PUSH2 0x4656 SWAP3 POP SUB DUP6 PUSH2 0x41FD JUMP JUMPDEST DUP4 MLOAD DUP4 LT ISZERO PUSH2 0x46EE JUMPI POP PUSH2 0x466A SWAP1 DUP3 PUSH2 0x4471 JUMP JUMPDEST SWAP2 DUP1 MLOAD DUP1 DUP5 GT PUSH2 0x46E6 JUMPI JUMPDEST POP PUSH2 0x4680 DUP3 DUP5 PUSH2 0x45E0 JUMP JUMPDEST SWAP4 PUSH2 0x468A DUP6 PUSH2 0x45C9 JUMP JUMPDEST SWAP5 PUSH2 0x4698 PUSH1 0x40 MLOAD SWAP7 DUP8 PUSH2 0x41FD JUMP JUMPDEST DUP1 DUP7 MSTORE PUSH2 0x46A7 PUSH1 0x1F NOT SWAP2 PUSH2 0x45C9 JUMP JUMPDEST ADD SWAP1 CALLDATASIZE SWAP1 DUP7 ADD CALLDATACOPY DUP2 JUMPDEST DUP4 DUP2 LT PUSH2 0x46BE JUMPI POP POP POP POP SWAP1 JUMP JUMPDEST DUP1 PUSH2 0x46CB PUSH1 0x1 SWAP3 DUP5 PUSH2 0x45ED JUMP JUMPDEST MLOAD PUSH2 0x46DF PUSH2 0x46D9 DUP7 DUP5 PUSH2 0x45E0 JUMP JUMPDEST DUP9 PUSH2 0x45ED JUMP JUMPDEST MSTORE ADD PUSH2 0x46B0 JUMP JUMPDEST SWAP3 POP CODESIZE PUSH2 0x4675 JUMP JUMPDEST SWAP3 POP POP POP PUSH1 0x40 MLOAD SWAP2 DUP3 ADD DUP3 DUP2 LT PUSH1 0x1 PUSH1 0x1 PUSH1 0x40 SHL SUB DUP3 GT OR PUSH2 0x4716 JUMPI PUSH1 0x40 MSTORE DUP1 DUP3 MSTORE CALLDATASIZE DUP2 CALLDATACOPY SWAP1 JUMP JUMPDEST PUSH4 0x4E487B71 PUSH1 0xE0 SHL DUP3 MSTORE PUSH1 0x41 PUSH1 0x4 MSTORE PUSH1 0x24 DUP3 REVERT JUMPDEST DUP6 SLOAD DUP5 MSTORE PUSH1 0x1 SWAP6 DUP7 ADD SWAP6 DUP11 SWAP6 POP SWAP4 ADD SWAP3 ADD PUSH2 0x463F JUMP JUMPDEST PUSH1 0x0 NOT DUP2 EQ PUSH2 0x24CC JUMPI PUSH1 0x1 ADD SWAP1 JUMP JUMPDEST CALLER PUSH1 0x0 SWAP1 DUP2 MSTORE PUSH32 0xB16E88C42FD4E48DF2DD6A2EABD6BC9AEC654EC170056B470819F8892CC6431C PUSH1 0x20 MSTORE PUSH1 0x40 SWAP1 KECCAK256 SLOAD PUSH32 0xA49807205CE4D355092EF5A8A18F56E8913CF4A201FBE287825B095693C21775 SWAP1 PUSH1 0xFF AND ISZERO PUSH2 0x257F JUMPI POP JUMP JUMPDEST CALLER PUSH1 0x0 SWAP1 DUP2 MSTORE PUSH32 0xB07FB87B1CD554E7358B5DAE77C8D42967E3C82D05A404DDC81D6E55C63B924B PUSH1 0x20 MSTORE PUSH1 0x40 SWAP1 KECCAK256 SLOAD PUSH32 0xC6AD931175DA1471673417ED857AEC62A6CF3071BAEFF703EF4A5A1F95ADB231 SWAP1 PUSH1 0xFF AND ISZERO PUSH2 0x257F JUMPI POP JUMP JUMPDEST DUP1 PUSH1 0x0 MSTORE PUSH1 0x0 DUP1 MLOAD PUSH1 0x20 PUSH2 0x4F62 DUP4 CODECOPY DUP2 MLOAD SWAP2 MSTORE PUSH1 0x20 MSTORE PUSH1 0x40 PUSH1 0x0 KECCAK256 CALLER PUSH1 0x0 MSTORE PUSH1 0x20 MSTORE PUSH1 0xFF PUSH1 0x40 PUSH1 0x0 KECCAK256 SLOAD AND ISZERO PUSH2 0x257F JUMPI POP JUMP JUMPDEST PUSH1 0xFF PUSH1 0x0 DUP1 MLOAD PUSH1 0x20 PUSH2 0x4F82 DUP4 CODECOPY DUP2 MLOAD SWAP2 MSTORE SLOAD AND PUSH2 0x4853 JUMPI JUMP JUMPDEST PUSH1 0x40 MLOAD PUSH4 0xD93C0665 PUSH1 0xE0 SHL DUP2 MSTORE PUSH1 0x4 SWAP1 REVERT JUMPDEST PUSH1 0x1 PUSH1 0x1 PUSH1 0xA0 SHL SUB AND PUSH1 0x0 DUP2 DUP2 MSTORE PUSH1 0x0 DUP1 MLOAD PUSH1 0x20 PUSH2 0x4FE2 DUP4 CODECOPY DUP2 MLOAD SWAP2 MSTORE PUSH1 0x20 MSTORE PUSH1 0x40 DUP2 KECCAK256 SLOAD SWAP1 SWAP2 SWAP1 PUSH1 0x0 DUP1 MLOAD PUSH1 0x20 PUSH2 0x4F42 DUP4 CODECOPY DUP2 MLOAD SWAP2 MSTORE SWAP1 PUSH1 0x0 DUP1 MLOAD PUSH1 0x20 PUSH2 0x4F62 DUP4 CODECOPY DUP2 MLOAD SWAP2 MSTORE SWAP1 PUSH1 0xFF AND PUSH2 0x48EB JUMPI DUP2 DUP5 MSTORE PUSH1 0x20 MSTORE PUSH1 0x40 DUP4 KECCAK256 DUP3 DUP5 MSTORE PUSH1 0x20 MSTORE PUSH1 0x40 DUP4 KECCAK256 PUSH1 0x1 PUSH1 0xFF NOT DUP3 SLOAD AND OR SWAP1 SSTORE PUSH1 0x0 DUP1 MLOAD PUSH1 0x20 PUSH2 0x4F22 DUP4 CODECOPY DUP2 MLOAD SWAP2 MSTORE CALLER SWAP4 DUP1 LOG4 PUSH1 0x1 SWAP1 JUMP JUMPDEST POP POP POP SWAP1 JUMP JUMPDEST PUSH1 0x1 PUSH1 0x1 PUSH1 0xA0 SHL SUB AND PUSH1 0x0 DUP2 DUP2 MSTORE PUSH32 0xB7DB2DD08FCB62D0C9E08C51941CAE53C267786A0B75803FB7960902FC8EF97D PUSH1 0x20 MSTORE PUSH1 0x40 DUP2 KECCAK256 SLOAD SWAP1 SWAP2 SWAP1 PUSH1 0x0 DUP1 MLOAD PUSH1 0x20 PUSH2 0x4F62 DUP4 CODECOPY DUP2 MLOAD SWAP2 MSTORE SWAP1 PUSH1 0xFF AND PUSH2 0x497A JUMPI DUP3 DUP1 MSTORE PUSH1 0x20 MSTORE PUSH1 0x40 DUP3 KECCAK256 DUP2 DUP4 MSTORE PUSH1 0x20 MSTORE PUSH1 0x40 DUP3 KECCAK256 PUSH1 0x1 PUSH1 0xFF NOT DUP3 SLOAD AND OR SWAP1 SSTORE CALLER SWAP2 PUSH1 0x0 DUP1 MLOAD PUSH1 0x20 PUSH2 0x4F22 DUP4 CODECOPY DUP2 MLOAD SWAP2 MSTORE DUP2 DUP1 LOG4 PUSH1 0x1 SWAP1 JUMP JUMPDEST POP POP SWAP1 JUMP JUMPDEST PUSH1 0x1 PUSH1 0x1 PUSH1 0xA0 SHL SUB AND PUSH1 0x0 DUP2 DUP2 MSTORE PUSH32 0xB16E88C42FD4E48DF2DD6A2EABD6BC9AEC654EC170056B470819F8892CC6431C PUSH1 0x20 MSTORE PUSH1 0x40 DUP2 KECCAK256 SLOAD SWAP1 SWAP2 SWAP1 PUSH32 0xA49807205CE4D355092EF5A8A18F56E8913CF4A201FBE287825B095693C21775 SWAP1 PUSH1 0x0 DUP1 MLOAD PUSH1 0x20 PUSH2 0x4F62 DUP4 CODECOPY DUP2 MLOAD SWAP2 MSTORE SWAP1 PUSH1 0xFF AND PUSH2 0x48EB JUMPI DUP2 DUP5 MSTORE PUSH1 0x20 MSTORE PUSH1 0x40 DUP4 KECCAK256 DUP3 DUP5 MSTORE PUSH1 0x20 MSTORE PUSH1 0x40 DUP4 KECCAK256 PUSH1 0x1 PUSH1 0xFF NOT DUP3 SLOAD AND OR SWAP1 SSTORE PUSH1 0x0 DUP1 MLOAD PUSH1 0x20 PUSH2 0x4F22 DUP4 CODECOPY DUP2 MLOAD SWAP2 MSTORE CALLER SWAP4 DUP1 LOG4 PUSH1 0x1 SWAP1 JUMP JUMPDEST PUSH1 0x1 PUSH1 0x1 PUSH1 0xA0 SHL SUB AND PUSH1 0x0 DUP2 DUP2 MSTORE PUSH32 0xB07FB87B1CD554E7358B5DAE77C8D42967E3C82D05A404DDC81D6E55C63B924B PUSH1 0x20 MSTORE PUSH1 0x40 DUP2 KECCAK256 SLOAD SWAP1 SWAP2 SWAP1 PUSH32 0xC6AD931175DA1471673417ED857AEC62A6CF3071BAEFF703EF4A5A1F95ADB231 SWAP1 PUSH1 0x0 DUP1 MLOAD PUSH1 0x20 PUSH2 0x4F62 DUP4 CODECOPY DUP2 MLOAD SWAP2 MSTORE SWAP1 PUSH1 0xFF AND PUSH2 0x48EB JUMPI DUP2 DUP5 MSTORE PUSH1 0x20 MSTORE PUSH1 0x40 DUP4 KECCAK256 DUP3 DUP5 MSTORE PUSH1 0x20 MSTORE PUSH1 0x40 DUP4 KECCAK256 PUSH1 0x1 PUSH1 0xFF NOT DUP3 SLOAD AND OR SWAP1 SSTORE PUSH1 0x0 DUP1 MLOAD PUSH1 0x20 PUSH2 0x4F22 DUP4 CODECOPY DUP2 MLOAD SWAP2 MSTORE CALLER SWAP4 DUP1 LOG4 PUSH1 0x1 SWAP1 JUMP JUMPDEST PUSH1 0x1 PUSH1 0x1 PUSH1 0xA0 SHL SUB AND PUSH1 0x0 DUP2 DUP2 MSTORE PUSH32 0xE0E83AE579C3CD41EFF3B0091B4AF6AC7C2D22811E06E4C4497AFE060618D19F PUSH1 0x20 MSTORE PUSH1 0x40 DUP2 KECCAK256 SLOAD SWAP1 SWAP2 SWAP1 PUSH32 0x9C4E6FD68FBDEC6E3075EC7BFBA710532AF019AEA93F5F59EBFE5A9D1A0B894E SWAP1 PUSH1 0x0 DUP1 MLOAD PUSH1 0x20 PUSH2 0x4F62 DUP4 CODECOPY DUP2 MLOAD SWAP2 MSTORE SWAP1 PUSH1 0xFF AND PUSH2 0x48EB JUMPI DUP2 DUP5 MSTORE PUSH1 0x20 MSTORE PUSH1 0x40 DUP4 KECCAK256 DUP3 DUP5 MSTORE PUSH1 0x20 MSTORE PUSH1 0x40 DUP4 KECCAK256 PUSH1 0x1 PUSH1 0xFF NOT DUP3 SLOAD AND OR SWAP1 SSTORE PUSH1 0x0 DUP1 MLOAD PUSH1 0x20 PUSH2 0x4F22 DUP4 CODECOPY DUP2 MLOAD SWAP2 MSTORE CALLER SWAP4 DUP1 LOG4 PUSH1 0x1 SWAP1 JUMP JUMPDEST PUSH1 0x1 PUSH1 0x1 PUSH1 0xA0 SHL SUB AND PUSH1 0x0 DUP2 DUP2 MSTORE PUSH32 0x1069FFE2B90BFD470F40F3BF820141BB4D4B475D03084DB5DCFB8152047BADF7 PUSH1 0x20 MSTORE PUSH1 0x40 DUP2 KECCAK256 SLOAD SWAP1 SWAP2 SWAP1 PUSH32 0xE1DCBDB91DF27212A29BC27177C840CF2F819ECF2187432E1FAC86C2DD5DFCA9 SWAP1 PUSH1 0x0 DUP1 MLOAD PUSH1 0x20 PUSH2 0x4F62 DUP4 CODECOPY DUP2 MLOAD SWAP2 MSTORE SWAP1 PUSH1 0xFF AND PUSH2 0x48EB JUMPI DUP2 DUP5 MSTORE PUSH1 0x20 MSTORE PUSH1 0x40 DUP4 KECCAK256 DUP3 DUP5 MSTORE PUSH1 0x20 MSTORE PUSH1 0x40 DUP4 KECCAK256 PUSH1 0x1 PUSH1 0xFF NOT DUP3 SLOAD AND OR SWAP1 SSTORE PUSH1 0x0 DUP1 MLOAD PUSH1 0x20 PUSH2 0x4F22 DUP4 CODECOPY DUP2 MLOAD SWAP2 MSTORE CALLER SWAP4 DUP1 LOG4 PUSH1 0x1 SWAP1 JUMP JUMPDEST PUSH1 0x1 PUSH1 0x1 PUSH1 0xA0 SHL SUB AND PUSH1 0x0 DUP2 DUP2 MSTORE PUSH32 0xAB71E3F32666744D246EDFF3F96E4BDAFEE2E9867098CDD118A979A7464786A8 PUSH1 0x20 MSTORE PUSH1 0x40 DUP2 KECCAK256 SLOAD SWAP1 SWAP2 SWAP1 PUSH32 0x189AB7A9244DF0848122154315AF71FE140F3DB0FE014031783B0946B8C9D2E3 SWAP1 PUSH1 0x0 DUP1 MLOAD PUSH1 0x20 PUSH2 0x4F62 DUP4 CODECOPY DUP2 MLOAD SWAP2 MSTORE SWAP1 PUSH1 0xFF AND PUSH2 0x48EB JUMPI DUP2 DUP5 MSTORE PUSH1 0x20 MSTORE PUSH1 0x40 DUP4 KECCAK256 DUP3 DUP5 MSTORE PUSH1 0x20 MSTORE PUSH1 0x40 DUP4 KECCAK256 PUSH1 0x1 PUSH1 0xFF NOT DUP3 SLOAD AND OR SWAP1 SSTORE PUSH1 0x0 DUP1 MLOAD PUSH1 0x20 PUSH2 0x4F22 DUP4 CODECOPY DUP2 MLOAD SWAP2 MSTORE CALLER SWAP4 DUP1 LOG4 PUSH1 0x1 SWAP1 JUMP JUMPDEST SWAP1 PUSH1 0x0 SWAP2 DUP1 DUP4 MSTORE PUSH1 0x0 DUP1 MLOAD PUSH1 0x20 PUSH2 0x4F62 DUP4 CODECOPY DUP2 MLOAD SWAP2 MSTORE DUP1 PUSH1 0x20 MSTORE PUSH1 0x40 DUP5 KECCAK256 SWAP3 PUSH1 0x1 DUP1 PUSH1 0xA0 SHL SUB AND SWAP3 DUP4 DUP6 MSTORE PUSH1 0x20 MSTORE PUSH1 0xFF PUSH1 0x40 DUP6 KECCAK256 SLOAD AND ISZERO PUSH1 0x0 EQ PUSH2 0x48EB JUMPI DUP2 DUP5 MSTORE PUSH1 0x20 MSTORE PUSH1 0x40 DUP4 KECCAK256 DUP3 DUP5 MSTORE PUSH1 0x20 MSTORE PUSH1 0x40 DUP4 KECCAK256 PUSH1 0x1 PUSH1 0xFF NOT DUP3 SLOAD AND OR SWAP1 SSTORE PUSH1 0x0 DUP1 MLOAD PUSH1 0x20 PUSH2 0x4F22 DUP4 CODECOPY DUP2 MLOAD SWAP2 MSTORE CALLER SWAP4 DUP1 LOG4 PUSH1 0x1 SWAP1 JUMP JUMPDEST PUSH1 0x1 PUSH1 0x1 PUSH1 0xA0 SHL SUB AND PUSH1 0x0 DUP2 DUP2 MSTORE PUSH1 0x0 DUP1 MLOAD PUSH1 0x20 PUSH2 0x4FE2 DUP4 CODECOPY DUP2 MLOAD SWAP2 MSTORE PUSH1 0x20 MSTORE PUSH1 0x40 DUP2 KECCAK256 SLOAD SWAP1 SWAP2 SWAP1 PUSH1 0x0 DUP1 MLOAD PUSH1 0x20 PUSH2 0x4F42 DUP4 CODECOPY DUP2 MLOAD SWAP2 MSTORE SWAP1 PUSH1 0x0 DUP1 MLOAD PUSH1 0x20 PUSH2 0x4F62 DUP4 CODECOPY DUP2 MLOAD SWAP2 MSTORE SWAP1 PUSH1 0xFF AND ISZERO PUSH2 0x48EB JUMPI DUP2 DUP5 MSTORE PUSH1 0x20 MSTORE PUSH1 0x40 DUP4 KECCAK256 DUP3 DUP5 MSTORE PUSH1 0x20 MSTORE PUSH1 0x40 DUP4 KECCAK256 PUSH1 0xFF NOT DUP2 SLOAD AND SWAP1 SSTORE PUSH32 0xF6391F5C32D9C69D2A47EA670B442974B53935D1EDC7FD64EB21E047A839171B CALLER SWAP4 DUP1 LOG4 PUSH1 0x1 SWAP1 JUMP JUMPDEST SWAP1 PUSH1 0x0 SWAP2 DUP1 DUP4 MSTORE PUSH1 0x0 DUP1 MLOAD PUSH1 0x20 PUSH2 0x4F62 DUP4 CODECOPY DUP2 MLOAD SWAP2 MSTORE DUP1 PUSH1 0x20 MSTORE PUSH1 0x40 DUP5 KECCAK256 SWAP3 PUSH1 0x1 DUP1 PUSH1 0xA0 SHL SUB AND SWAP3 DUP4 DUP6 MSTORE PUSH1 0x20 MSTORE PUSH1 0xFF PUSH1 0x40 DUP6 KECCAK256 SLOAD AND PUSH1 0x0 EQ PUSH2 0x48EB JUMPI DUP2 DUP5 MSTORE PUSH1 0x20 MSTORE PUSH1 0x40 DUP4 KECCAK256 DUP3 DUP5 MSTORE PUSH1 0x20 MSTORE PUSH1 0x40 DUP4 KECCAK256 PUSH1 0xFF NOT DUP2 SLOAD AND SWAP1 SSTORE PUSH32 0xF6391F5C32D9C69D2A47EA670B442974B53935D1EDC7FD64EB21E047A839171B CALLER SWAP4 DUP1 LOG4 PUSH1 0x1 SWAP1 JUMP JUMPDEST PUSH1 0x0 DUP1 MLOAD PUSH1 0x20 PUSH2 0x4FA2 DUP4 CODECOPY DUP2 MLOAD SWAP2 MSTORE PUSH1 0x2 DUP2 SLOAD EQ PUSH2 0x4E7D JUMPI PUSH1 0x2 SWAP1 SSTORE JUMP JUMPDEST PUSH1 0x40 MLOAD PUSH4 0x3EE5AEB5 PUSH1 0xE0 SHL DUP2 MSTORE PUSH1 0x4 SWAP1 REVERT JUMPDEST PUSH1 0xFF PUSH1 0x0 DUP1 MLOAD PUSH1 0x20 PUSH2 0x4FC2 DUP4 CODECOPY DUP2 MLOAD SWAP2 MSTORE SLOAD PUSH1 0x40 SHR AND ISZERO PUSH2 0x4EAC JUMPI JUMP JUMPDEST PUSH1 0x40 MLOAD PUSH4 0x1AFCD79F PUSH1 0xE3 SHL DUP2 MSTORE PUSH1 0x4 SWAP1 REVERT JUMPDEST SWAP1 PUSH2 0x4EE5 JUMPI POP DUP1 MLOAD ISZERO PUSH2 0x4ED3 JUMPI PUSH1 0x20 DUP2 MLOAD SWAP2 ADD REVERT JUMPDEST PUSH1 0x40 MLOAD PUSH4 0xD6BDA275 PUSH1 0xE0 SHL DUP2 MSTORE PUSH1 0x4 SWAP1 REVERT JUMPDEST DUP2 MLOAD ISZERO DUP1 PUSH2 0x4F18 JUMPI JUMPDEST PUSH2 0x4EF6 JUMPI POP SWAP1 JUMP JUMPDEST PUSH1 0x40 MLOAD PUSH4 0x9996B315 PUSH1 0xE0 SHL DUP2 MSTORE PUSH1 0x1 PUSH1 0x1 PUSH1 0xA0 SHL SUB SWAP1 SWAP2 AND PUSH1 0x4 DUP3 ADD MSTORE PUSH1 0x24 SWAP1 REVERT JUMPDEST POP DUP1 EXTCODESIZE ISZERO PUSH2 0x4EEE JUMP INVALID 0x2F DUP8 DUP9 GT PUSH31 0x7EFF1D82E926EC794901D17C78024A50270940304540A733656F0DBBECB256 DUP7 ADD 0xCB 0x27 0xE6 0xCE 0xD5 0x25 0x23 PUSH29 0x463DA94C4FB7A9B98AC79FD30FD56D8E1B5302DD7BC7DEC4DCEEDDA775 0xE5 DUP14 0xD5 COINBASE 0xE0 DUP11 GT PUSH13 0x6C53815C0BD028192F7B626800 0xCD 0x5E 0xD1 0x5C PUSH15 0x187E77E9AEE88184C21F4F2182AB58 0x27 0xCB EXTCODESIZE PUSH31 0x7FBEDCD63F033009B779B17422D0DF92223018B32B4D1FA46E071723D6817 0xE2 BASEFEE PUSH14 0x3BECC55F00F0C57E16840DF040 CALL POP DUP9 0xDC 0x2F DUP2 INVALID CODECOPY SHR CODECOPY 0x23 0xBE 0xC7 RETURNDATACOPY 0x23 0xA9 PUSH7 0x2EFC9C229C6A00 0xD0 SAR PUSH27 0x4FFBB09158F8F4AC550EA2213C8B479EC297195D21B762CEF7D140 0xC6 PUSH27 0xA2646970667358221220402FDD6CB102A1F439BAD269AF95A31C7E 0xB0 SWAP8 SDIV RETURN PUSH3 0x113F53 0x1F OR 0x4A SMOD PUSH13 0x35B564736F6C63430008160033 "},"methodIdentifiers":{"ADMIN_ROLE()":"75b238fc","APPEAL_COOLDOWN()":"b6d7c6b1","DEFAULT_ADMIN_ROLE()":"a217fddf","JUDGE_ROLE()":"e0e47588","KES_TO_WEI_RATE()":"f5b1bc3a","MAX_APPEALS_PER_VIOLATION()":"8beb3cc5","MAX_BADGE_LENGTH()":"a84d4074","MAX_STRING_LENGTH()":"34ccc5ea","MAX_VEHICLE_ID_LENGTH()":"888d8ad7","MAX_VIOLATIONS_PER_DAY()":"08353dfe","OFFICER_MANAGER_ROLE()":"adca20b0","OFFICER_ROLE()":"7264953b","TREASURY_ROLE()":"d11a57ec","UPGRADER_ROLE()":"f72c0d8b","UPGRADE_INTERFACE_VERSION()":"ad3cb1cc","appeals(bytes32)":"28cdc028","claimRefund()":"b5545a3c","deactivateOfficer(address)":"4719c01d","getRoleAdmin(bytes32)":"248a9ca3","getVehicleViolations(string,uint256,uint256)":"c197e3e9","getViolation(bytes32)":"a95c6648","grantRole(bytes32,address)":"2f2ff15d","hasRole(bytes32,address)":"91d14854","initialize(address)":"c4d66de8","isOfficerActive(address)":"a98ffb59","logViolation(string,uint32,string,address)":"c22e7701","offenses(uint32)":"af4ac9e8","officerDailyViolations(address,uint256)":"d5b0e27c","officers(address)":"084866dd","pause()":"8456cb59","paused()":"5c975abb","payFine(bytes32)":"c345a74c","pendingRefunds(address)":"b613b114","proxiableUUID()":"52d1902d","registerOfficer(address,string,string)":"48031077","renounceRole(bytes32,address)":"36568abe","resolveAppeal(bytes32,bool,string)":"2e75fcd1","revokeRole(bytes32,address)":"d547741f","submitAppeal(bytes32,string)":"e8b9fd7b","supportsInterface(bytes4)":"01ffc9a7","totalFinesPaid()":"49e6368b","totalFinesRefunded()":"c0e1f666","totalViolations()":"d6fd6239","unpause()":"3f4ba83a","updateOffense(uint32,uint256,string,bool)":"5dd66717","upgradeToAndCall(address,bytes)":"4f1ef286","vehicleViolations(string,uint256)":"7310e885","version()":"54fd4d50","violations(bytes32)":"bb019f7d","withdrawFunds(address,uint256)":"c1075329"}},"storageLayout":{"storage":[{"astId":3189,"contract":"contracts/TrafficEnforcementV2.sol:TrafficEnforcementV2","label":"violations","offset":0,"slot":"0","type":"t_mapping(t_bytes32,t_struct(Violation)3137_storage)"},{"astId":3194,"contract":"contracts/TrafficEnforcementV2.sol:TrafficEnforcementV2","label":"officers","offset":0,"slot":"1","type":"t_mapping(t_address,t_struct(Officer)3153_storage)"},{"astId":3199,"contract":"contracts/TrafficEnforcementV2.sol:TrafficEnforcementV2","label":"vehicleViolations","offset":0,"slot":"2","type":"t_mapping(t_string_memory_ptr,t_array(t_bytes32)dyn_storage)"},{"astId":3204,"contract":"contracts/TrafficEnforcementV2.sol:TrafficEnforcementV2","label":"appeals","offset":0,"slot":"3","type":"t_mapping(t_bytes32,t_struct(Appeal)3175_storage)"},{"astId":3209,"contract":"contracts/TrafficEnforcementV2.sol:TrafficEnforcementV2","label":"offenses","offset":0,"slot":"4","type":"t_mapping(t_uint32,t_struct(Offense)3183_storage)"},{"astId":3212,"contract":"contracts/TrafficEnforcementV2.sol:TrafficEnforcementV2","label":"totalViolations","offset":0,"slot":"5","type":"t_uint256"},{"astId":3214,"contract":"contracts/TrafficEnforcementV2.sol:TrafficEnforcementV2","label":"totalFinesPaid","offset":0,"slot":"6","type":"t_uint256"},{"astId":3216,"contract":"contracts/TrafficEnforcementV2.sol:TrafficEnforcementV2","label":"totalFinesRefunded","offset":0,"slot":"7","type":"t_uint256"},{"astId":3223,"contract":"contracts/TrafficEnforcementV2.sol:TrafficEnforcementV2","label":"officerDailyViolations","offset":0,"slot":"8","type":"t_mapping(t_address,t_mapping(t_uint256,t_uint256))"},{"astId":3228,"contract":"contracts/TrafficEnforcementV2.sol:TrafficEnforcementV2","label":"pendingRefunds","offset":0,"slot":"9","type":"t_mapping(t_address,t_uint256)"},{"astId":3231,"contract":"contracts/TrafficEnforcementV2.sol:TrafficEnforcementV2","label":"version","offset":0,"slot":"10","type":"t_uint256"}],"types":{"t_address":{"encoding":"inplace","label":"address","numberOfBytes":"20"},"t_array(t_bytes32)dyn_storage":{"base":"t_bytes32","encoding":"dynamic_array","label":"bytes32[]","numberOfBytes":"32"},"t_bool":{"encoding":"inplace","label":"bool","numberOfBytes":"1"},"t_bytes32":{"encoding":"inplace","label":"bytes32","numberOfBytes":"32"},"t_enum(ViolationStatus)3112":{"encoding":"inplace","label":"enum TrafficEnforcementV2.ViolationStatus","numberOfBytes":"1"},"t_mapping(t_address,t_mapping(t_uint256,t_uint256))":{"encoding":"mapping","key":"t_address","label":"mapping(address => mapping(uint256 => uint256))","numberOfBytes":"32","value":"t_mapping(t_uint256,t_uint256)"},"t_mapping(t_address,t_struct(Officer)3153_storage)":{"encoding":"mapping","key":"t_address","label":"mapping(address => struct TrafficEnforcementV2.Officer)","numberOfBytes":"32","value":"t_struct(Officer)3153_storage"},"t_mapping(t_address,t_uint256)":{"encoding":"mapping","key":"t_address","label":"mapping(address => uint256)","numberOfBytes":"32","value":"t_uint256"},"t_mapping(t_bytes32,t_struct(Appeal)3175_storage)":{"encoding":"mapping","key":"t_bytes32","label":"mapping(bytes32 => struct TrafficEnforcementV2.Appeal)","numberOfBytes":"32","value":"t_struct(Appeal)3175_storage"},"t_mapping(t_bytes32,t_struct(Violation)3137_storage)":{"encoding":"mapping","key":"t_bytes32","label":"mapping(bytes32 => struct TrafficEnforcementV2.Violation)","numberOfBytes":"32","value":"t_struct(Violation)3137_storage"},"t_mapping(t_string_memory_ptr,t_array(t_bytes32)dyn_storage)":{"encoding":"mapping","key":"t_string_memory_ptr","label":"mapping(string => bytes32[])","numberOfBytes":"32","value":"t_array(t_bytes32)dyn_storage"},"t_mapping(t_uint256,t_uint256)":{"encoding":"mapping","key":"t_uint256","label":"mapping(uint256 => uint256)","numberOfBytes":"32","value":"t_uint256"},"t_mapping(t_uint32,t_struct(Offense)3183_storage)":{"encoding":"mapping","key":"t_uint32","label":"mapping(uint32 => struct TrafficEnforcementV2.Offense)","numberOfBytes":"32","value":"t_struct(Offense)3183_storage"},"t_string_memory_ptr":{"encoding":"bytes","label":"string","numberOfBytes":"32"},"t_string_storage":{"encoding":"bytes","label":"string","numberOfBytes":"32"},"t_struct(Appeal)3175_storage":{"encoding":"inplace","label":"struct TrafficEnforcementV2.Appeal","members":[{"astId":3156,"contract":"contracts/TrafficEnforcementV2.sol:TrafficEnforcementV2","label":"violationId","offset":0,"slot":"0","type":"t_bytes32"},{"astId":3158,"contract":"contracts/TrafficEnforcementV2.sol:TrafficEnforcementV2","label":"appellant","offset":0,"slot":"1","type":"t_address"},{"astId":3160,"contract":"contracts/TrafficEnforcementV2.sol:TrafficEnforcementV2","label":"appealReason","offset":0,"slot":"2","type":"t_string_storage"},{"astId":3162,"contract":"contracts/TrafficEnforcementV2.sol:TrafficEnforcementV2","label":"appealTime","offset":0,"slot":"3","type":"t_uint256"},{"astId":3164,"contract":"contracts/TrafficEnforcementV2.sol:TrafficEnforcementV2","label":"resolved","offset":0,"slot":"4","type":"t_bool"},{"astId":3166,"contract":"contracts/TrafficEnforcementV2.sol:TrafficEnforcementV2","label":"approved","offset":1,"slot":"4","type":"t_bool"},{"astId":3168,"contract":"contracts/TrafficEnforcementV2.sol:TrafficEnforcementV2","label":"resolution","offset":0,"slot":"5","type":"t_string_storage"},{"astId":3170,"contract":"contracts/TrafficEnforcementV2.sol:TrafficEnforcementV2","label":"resolvedBy","offset":0,"slot":"6","type":"t_address"},{"astId":3172,"contract":"contracts/TrafficEnforcementV2.sol:TrafficEnforcementV2","label":"appealCount","offset":0,"slot":"7","type":"t_uint256"},{"astId":3174,"contract":"contracts/TrafficEnforcementV2.sol:TrafficEnforcementV2","label":"lastAppealTime","offset":0,"slot":"8","type":"t_uint256"}],"numberOfBytes":"288"},"t_struct(Offense)3183_storage":{"encoding":"inplace","label":"struct TrafficEnforcementV2.Offense","members":[{"astId":3178,"contract":"contracts/TrafficEnforcementV2.sol:TrafficEnforcementV2","label":"fineAmountKES","offset":0,"slot":"0","type":"t_uint256"},{"astId":3180,"contract":"contracts/TrafficEnforcementV2.sol:TrafficEnforcementV2","label":"name","offset":0,"slot":"1","type":"t_string_storage"},{"astId":3182,"contract":"contracts/TrafficEnforcementV2.sol:TrafficEnforcementV2","label":"isActive","offset":0,"slot":"2","type":"t_bool"}],"numberOfBytes":"96"},"t_struct(Officer)3153_storage":{"encoding":"inplace","label":"struct TrafficEnforcementV2.Officer","members":[{"astId":3140,"contract":"contracts/TrafficEnforcementV2.sol:TrafficEnforcementV2","label":"officerId","offset":0,"slot":"0","type":"t_address"},{"astId":3142,"contract":"contracts/TrafficEnforcementV2.sol:TrafficEnforcementV2","label":"name","offset":0,"slot":"1","type":"t_string_storage"},{"astId":3144,"contract":"contracts/TrafficEnforcementV2.sol:TrafficEnforcementV2","label":"badgeNumber","offset":0,"slot":"2","type":"t_string_storage"},{"astId":3146,"contract":"contracts/TrafficEnforcementV2.sol:TrafficEnforcementV2","label":"isActive","offset":0,"slot":"3","type":"t_bool"},{"astId":3148,"contract":"contracts/TrafficEnforcementV2.sol:TrafficEnforcementV2","label":"registrationTime","offset":0,"slot":"4","type":"t_uint256"},{"astId":3150,"contract":"contracts/TrafficEnforcementV2.sol:TrafficEnforcementV2","label":"dailyViolationCount","offset":0,"slot":"5","type":"t_uint256"},{"astId":3152,"contract":"contracts/TrafficEnforcementV2.sol:TrafficEnforcementV2","label":"lastViolationDate","offset":0,"slot":"6","type":"t_uint256"}],"numberOfBytes":"224"},"t_struct(Violation)3137_storage":{"encoding":"inplace","label":"struct TrafficEnforcementV2.Violation","members":[{"astId":3115,"contract":"contracts/TrafficEnforcementV2.sol:TrafficEnforcementV2","label":"violationId","offset":0,"slot":"0","type":"t_bytes32"},{"astId":3117,"contract":"contracts/TrafficEnforcementV2.sol:TrafficEnforcementV2","label":"vehicleId","offset":0,"slot":"1","type":"t_string_storage"},{"astId":3119,"contract":"contracts/TrafficEnforcementV2.sol:TrafficEnforcementV2","label":"officerId","offset":0,"slot":"2","type":"t_address"},{"astId":3121,"contract":"contracts/TrafficEnforcementV2.sol:TrafficEnforcementV2","label":"offenseCode","offset":20,"slot":"2","type":"t_uint32"},{"astId":3123,"contract":"contracts/TrafficEnforcementV2.sol:TrafficEnforcementV2","label":"evidenceHash","offset":0,"slot":"3","type":"t_string_storage"},{"astId":3125,"contract":"contracts/TrafficEnforcementV2.sol:TrafficEnforcementV2","label":"timestamp","offset":0,"slot":"4","type":"t_uint256"},{"astId":3127,"contract":"contracts/TrafficEnforcementV2.sol:TrafficEnforcementV2","label":"fineAmount","offset":0,"slot":"5","type":"t_uint256"},{"astId":3130,"contract":"contracts/TrafficEnforcementV2.sol:TrafficEnforcementV2","label":"status","offset":0,"slot":"6","type":"t_enum(ViolationStatus)3112"},{"astId":3132,"contract":"contracts/TrafficEnforcementV2.sol:TrafficEnforcementV2","label":"driverId","offset":1,"slot":"6","type":"t_address"},{"astId":3134,"contract":"contracts/TrafficEnforcementV2.sol:TrafficEnforcementV2","label":"paidAmount","offset":0,"slot":"7","type":"t_uint256"},{"astId":3136,"contract":"contracts/TrafficEnforcementV2.sol:TrafficEnforcementV2","label":"paidBy","offset":0,"slot":"8","type":"t_address"}],"numberOfBytes":"288"},"t_uint256":{"encoding":"inplace","label":"uint256","numberOfBytes":"32"},"t_uint32":{"encoding":"inplace","label":"uint32","numberOfBytes":"4"}}}}}}