{
  "_format": "hh-sol-artifact-1",
  "contractName": "TrafficEnforcementV2",
  "sourceName": "contracts/TrafficEnforcementV2.sol",
  "abi": [
    {
      "inputs": [],
      "name": "AccessControlBadConfirmation",
      "type": "error"
    },
    {
      "inputs": [
        {
          "internalType": "address",
          "name": "account",
          "type": "address"
        },
        {
          "internalType": "bytes32",
          "name": "neededRole",
          "type": "bytes32"
        }
      ],
      "name": "AccessControlUnauthorizedAccount",
      "type": "error"
    },
    {
      "inputs": [
        {
          "internalType": "address",
          "name": "target",
          "type": "address"
        }
      ],
      "name": "AddressEmptyCode",
      "type": "error"
    },
    {
      "inputs": [
        {
          "internalType": "address",
          "name": "implementation",
          "type": "address"
        }
      ],
      "name": "ERC1967InvalidImplementation",
      "type": "error"
    },
    {
      "inputs": [],
      "name": "ERC1967NonPayable",
      "type": "error"
    },
    {
      "inputs": [],
      "name": "EnforcedPause",
      "type": "error"
    },
    {
      "inputs": [],
      "name": "ExpectedPause",
      "type": "error"
    },
    {
      "inputs": [],
      "name": "FailedCall",
      "type": "error"
    },
    {
      "inputs": [],
      "name": "InvalidInitialization",
      "type": "error"
    },
    {
      "inputs": [],
      "name": "NotInitializing",
      "type": "error"
    },
    {
      "inputs": [],
      "name": "ReentrancyGuardReentrantCall",
      "type": "error"
    },
    {
      "inputs": [],
      "name": "UUPSUnauthorizedCallContext",
      "type": "error"
    },
    {
      "inputs": [
        {
          "internalType": "bytes32",
          "name": "slot",
          "type": "bytes32"
        }
      ],
      "name": "UUPSUnsupportedProxiableUUID",
      "type": "error"
    },
    {
      "anonymous": false,
      "inputs": [
        {
          "indexed": true,
          "internalType": "bytes32",
          "name": "violationId",
          "type": "bytes32"
        },
        {
          "indexed": false,
          "internalType": "bool",
          "name": "approved",
          "type": "bool"
        },
        {
          "indexed": false,
          "internalType": "string",
          "name": "resolution",
          "type": "string"
        },
        {
          "indexed": true,
          "internalType": "address",
          "name": "resolvedBy",
          "type": "address"
        }
      ],
      "name": "AppealResolved",
      "type": "event"
    },
    {
      "anonymous": false,
      "inputs": [
        {
          "indexed": true,
          "internalType": "bytes32",
          "name": "violationId",
          "type": "bytes32"
        },
        {
          "indexed": true,
          "internalType": "address",
          "name": "appellant",
          "type": "address"
        },
        {
          "indexed": false,
          "internalType": "string",
          "name": "reason",
          "type": "string"
        }
      ],
      "name": "AppealSubmitted",
      "type": "event"
    },
    {
      "anonymous": false,
      "inputs": [
        {
          "indexed": false,
          "internalType": "uint256",
          "name": "newVersion",
          "type": "uint256"
        }
      ],
      "name": "ContractUpgraded",
      "type": "event"
    },
    {
      "anonymous": false,
      "inputs": [
        {
          "indexed": true,
          "internalType": "bytes32",
          "name": "violationId",
          "type": "bytes32"
        },
        {
          "indexed": true,
          "internalType": "address",
          "name": "paidBy",
          "type": "address"
        },
        {
          "indexed": false,
          "internalType": "uint256",
          "name": "amount",
          "type": "uint256"
        }
      ],
      "name": "FinePaid",
      "type": "event"
    },
    {
      "anonymous": false,
      "inputs": [
        {
          "indexed": true,
          "internalType": "bytes32",
          "name": "violationId",
          "type": "bytes32"
        },
        {
          "indexed": true,
          "internalType": "address",
          "name": "refundedTo",
          "type": "address"
        },
        {
          "indexed": false,
          "internalType": "uint256",
          "name": "amount",
          "type": "uint256"
        }
      ],
      "name": "FineRefunded",
      "type": "event"
    },
    {
      "anonymous": false,
      "inputs": [
        {
          "indexed": true,
          "internalType": "address",
          "name": "withdrawnBy",
          "type": "address"
        },
        {
          "indexed": true,
          "internalType": "address",
          "name": "recipient",
          "type": "address"
        },
        {
          "indexed": false,
          "internalType": "uint256",
          "name": "amount",
          "type": "uint256"
        }
      ],
      "name": "FundsWithdrawn",
      "type": "event"
    },
    {
      "anonymous": false,
      "inputs": [
        {
          "indexed": false,
          "internalType": "uint64",
          "name": "version",
          "type": "uint64"
        }
      ],
      "name": "Initialized",
      "type": "event"
    },
    {
      "anonymous": false,
      "inputs": [
        {
          "indexed": true,
          "internalType": "uint32",
          "name": "offenseCode",
          "type": "uint32"
        },
        {
          "indexed": false,
          "internalType": "uint256",
          "name": "fineAmountKES",
          "type": "uint256"
        },
        {
          "indexed": false,
          "internalType": "string",
          "name": "name",
          "type": "string"
        }
      ],
      "name": "OffenseUpdated",
      "type": "event"
    },
    {
      "anonymous": false,
      "inputs": [
        {
          "indexed": true,
          "internalType": "address",
          "name": "officerId",
          "type": "address"
        },
        {
          "indexed": true,
          "internalType": "address",
          "name": "deactivatedBy",
          "type": "address"
        }
      ],
      "name": "OfficerDeactivated",
      "type": "event"
    },
    {
      "anonymous": false,
      "inputs": [
        {
          "indexed": true,
          "internalType": "address",
          "name": "officerId",
          "type": "address"
        },
        {
          "indexed": true,
          "internalType": "address",
          "name": "reactivatedBy",
          "type": "address"
        }
      ],
      "name": "OfficerReactivated",
      "type": "event"
    },
    {
      "anonymous": false,
      "inputs": [
        {
          "indexed": true,
          "internalType": "address",
          "name": "officerId",
          "type": "address"
        },
        {
          "indexed": false,
          "internalType": "string",
          "name": "name",
          "type": "string"
        },
        {
          "indexed": false,
          "internalType": "string",
          "name": "badgeNumber",
          "type": "string"
        },
        {
          "indexed": true,
          "internalType": "address",
          "name": "registeredBy",
          "type": "address"
        }
      ],
      "name": "OfficerRegistered",
      "type": "event"
    },
    {
      "anonymous": false,
      "inputs": [
        {
          "indexed": false,
          "internalType": "address",
          "name": "account",
          "type": "address"
        }
      ],
      "name": "Paused",
      "type": "event"
    },
    {
      "anonymous": false,
      "inputs": [
        {
          "indexed": true,
          "internalType": "address",
          "name": "claimant",
          "type": "address"
        },
        {
          "indexed": false,
          "internalType": "uint256",
          "name": "amount",
          "type": "uint256"
        }
      ],
      "name": "RefundClaimed",
      "type": "event"
    },
    {
      "anonymous": false,
      "inputs": [
        {
          "indexed": true,
          "internalType": "bytes32",
          "name": "role",
          "type": "bytes32"
        },
        {
          "indexed": true,
          "internalType": "bytes32",
          "name": "previousAdminRole",
          "type": "bytes32"
        },
        {
          "indexed": true,
          "internalType": "bytes32",
          "name": "newAdminRole",
          "type": "bytes32"
        }
      ],
      "name": "RoleAdminChanged",
      "type": "event"
    },
    {
      "anonymous": false,
      "inputs": [
        {
          "indexed": true,
          "internalType": "bytes32",
          "name": "role",
          "type": "bytes32"
        },
        {
          "indexed": true,
          "internalType": "address",
          "name": "account",
          "type": "address"
        },
        {
          "indexed": true,
          "internalType": "address",
          "name": "sender",
          "type": "address"
        }
      ],
      "name": "RoleGranted",
      "type": "event"
    },
    {
      "anonymous": false,
      "inputs": [
        {
          "indexed": true,
          "internalType": "bytes32",
          "name": "role",
          "type": "bytes32"
        },
        {
          "indexed": true,
          "internalType": "address",
          "name": "account",
          "type": "address"
        },
        {
          "indexed": true,
          "internalType": "address",
          "name": "sender",
          "type": "address"
        }
      ],
      "name": "RoleRevoked",
      "type": "event"
    },
    {
      "anonymous": false,
      "inputs": [
        {
          "indexed": false,
          "internalType": "address",
          "name": "account",
          "type": "address"
        }
      ],
      "name": "Unpaused",
      "type": "event"
    },
    {
      "anonymous": false,
      "inputs": [
        {
          "indexed": true,
          "internalType": "address",
          "name": "implementation",
          "type": "address"
        }
      ],
      "name": "Upgraded",
      "type": "event"
    },
    {
      "anonymous": false,
      "inputs": [
        {
          "indexed": true,
          "internalType": "bytes32",
          "name": "violationId",
          "type": "bytes32"
        },
        {
          "indexed": false,
          "internalType": "string",
          "name": "vehicleId",
          "type": "string"
        },
        {
          "indexed": true,
          "internalType": "uint32",
          "name": "offenseCode",
          "type": "uint32"
        },
        {
          "indexed": false,
          "internalType": "uint256",
          "name": "fineAmount",
          "type": "uint256"
        },
        {
          "indexed": true,
          "internalType": "address",
          "name": "officerId",
          "type": "address"
        }
      ],
      "name": "ViolationLogged",
      "type": "event"
    },
    {
      "stateMutability": "payable",
      "type": "fallback"
    },
    {
      "inputs": [],
      "name": "ADMIN_ROLE",
      "outputs": [
        {
          "internalType": "bytes32",
          "name": "",
          "type": "bytes32"
        }
      ],
      "stateMutability": "view",
      "type": "function"
    },
    {
      "inputs": [],
      "name": "APPEAL_COOLDOWN",
      "outputs": [
        {
          "internalType": "uint256",
          "name": "",
          "type": "uint256"
        }
      ],
      "stateMutability": "view",
      "type": "function"
    },
    {
      "inputs": [],
      "name": "DEFAULT_ADMIN_ROLE",
      "outputs": [
        {
          "internalType": "bytes32",
          "name": "",
          "type": "bytes32"
        }
      ],
      "stateMutability": "view",
      "type": "function"
    },
    {
      "inputs": [],
      "name": "JUDGE_ROLE",
      "outputs": [
        {
          "internalType": "bytes32",
          "name": "",
          "type": "bytes32"
        }
      ],
      "stateMutability": "view",
      "type": "function"
    },
    {
      "inputs": [],
      "name": "KES_TO_WEI_RATE",
      "outputs": [
        {
          "internalType": "uint256",
          "name": "",
          "type": "uint256"
        }
      ],
      "stateMutability": "view",
      "type": "function"
    },
    {
      "inputs": [],
      "name": "MAX_APPEALS_PER_VIOLATION",
      "outputs": [
        {
          "internalType": "uint256",
          "name": "",
          "type": "uint256"
        }
      ],
      "stateMutability": "view",
      "type": "function"
    },
    {
      "inputs": [],
      "name": "MAX_BADGE_LENGTH",
      "outputs": [
        {
          "internalType": "uint256",
          "name": "",
          "type": "uint256"
        }
      ],
      "stateMutability": "view",
      "type": "function"
    },
    {
      "inputs": [],
      "name": "MAX_STRING_LENGTH",
      "outputs": [
        {
          "internalType": "uint256",
          "name": "",
          "type": "uint256"
        }
      ],
      "stateMutability": "view",
      "type": "function"
    },
    {
      "inputs": [],
      "name": "MAX_VEHICLE_ID_LENGTH",
      "outputs": [
        {
          "internalType": "uint256",
          "name": "",
          "type": "uint256"
        }
      ],
      "stateMutability": "view",
      "type": "function"
    },
    {
      "inputs": [],
      "name": "MAX_VIOLATIONS_PER_DAY",
      "outputs": [
        {
          "internalType": "uint256",
          "name": "",
          "type": "uint256"
        }
      ],
      "stateMutability": "view",
      "type": "function"
    },
    {
      "inputs": [],
      "name": "OFFICER_MANAGER_ROLE",
      "outputs": [
        {
          "internalType": "bytes32",
          "name": "",
          "type": "bytes32"
        }
      ],
      "stateMutability": "view",
      "type": "function"
    },
    {
      "inputs": [],
      "name": "OFFICER_ROLE",
      "outputs": [
        {
          "internalType": "bytes32",
          "name": "",
          "type": "bytes32"
        }
      ],
      "stateMutability": "view",
      "type": "function"
    },
    {
      "inputs": [],
      "name": "TREASURY_ROLE",
      "outputs": [
        {
          "internalType": "bytes32",
          "name": "",
          "type": "bytes32"
        }
      ],
      "stateMutability": "view",
      "type": "function"
    },
    {
      "inputs": [],
      "name": "UPGRADER_ROLE",
      "outputs": [
        {
          "internalType": "bytes32",
          "name": "",
          "type": "bytes32"
        }
      ],
      "stateMutability": "view",
      "type": "function"
    },
    {
      "inputs": [],
      "name": "UPGRADE_INTERFACE_VERSION",
      "outputs": [
        {
          "internalType": "string",
          "name": "",
          "type": "string"
        }
      ],
      "stateMutability": "view",
      "type": "function"
    },
    {
      "inputs": [
        {
          "internalType": "bytes32",
          "name": "",
          "type": "bytes32"
        }
      ],
      "name": "appeals",
      "outputs": [
        {
          "internalType": "bytes32",
          "name": "violationId",
          "type": "bytes32"
        },
        {
          "internalType": "address",
          "name": "appellant",
          "type": "address"
        },
        {
          "internalType": "string",
          "name": "appealReason",
          "type": "string"
        },
        {
          "internalType": "uint256",
          "name": "appealTime",
          "type": "uint256"
        },
        {
          "internalType": "bool",
          "name": "resolved",
          "type": "bool"
        },
        {
          "internalType": "bool",
          "name": "approved",
          "type": "bool"
        },
        {
          "internalType": "string",
          "name": "resolution",
          "type": "string"
        },
        {
          "internalType": "address",
          "name": "resolvedBy",
          "type": "address"
        },
        {
          "internalType": "uint256",
          "name": "appealCount",
          "type": "uint256"
        },
        {
          "internalType": "uint256",
          "name": "lastAppealTime",
          "type": "uint256"
        }
      ],
      "stateMutability": "view",
      "type": "function"
    },
    {
      "inputs": [],
      "name": "claimRefund",
      "outputs": [],
      "stateMutability": "nonpayable",
      "type": "function"
    },
    {
      "inputs": [
        {
          "internalType": "address",
          "name": "officerId",
          "type": "address"
        }
      ],
      "name": "deactivateOfficer",
      "outputs": [],
      "stateMutability": "nonpayable",
      "type": "function"
    },
    {
      "inputs": [
        {
          "internalType": "bytes32",
          "name": "role",
          "type": "bytes32"
        }
      ],
      "name": "getRoleAdmin",
      "outputs": [
        {
          "internalType": "bytes32",
          "name": "",
          "type": "bytes32"
        }
      ],
      "stateMutability": "view",
      "type": "function"
    },
    {
      "inputs": [
        {
          "internalType": "string",
          "name": "vehicleId",
          "type": "string"
        },
        {
          "internalType": "uint256",
          "name": "offset",
          "type": "uint256"
        },
        {
          "internalType": "uint256",
          "name": "limit",
          "type": "uint256"
        }
      ],
      "name": "getVehicleViolations",
      "outputs": [
        {
          "internalType": "bytes32[]",
          "name": "",
          "type": "bytes32[]"
        }
      ],
      "stateMutability": "view",
      "type": "function"
    },
    {
      "inputs": [
        {
          "internalType": "bytes32",
          "name": "violationId",
          "type": "bytes32"
        }
      ],
      "name": "getViolation",
      "outputs": [
        {
          "components": [
            {
              "internalType": "bytes32",
              "name": "violationId",
              "type": "bytes32"
            },
            {
              "internalType": "string",
              "name": "vehicleId",
              "type": "string"
            },
            {
              "internalType": "address",
              "name": "officerId",
              "type": "address"
            },
            {
              "internalType": "uint32",
              "name": "offenseCode",
              "type": "uint32"
            },
            {
              "internalType": "string",
              "name": "evidenceHash",
              "type": "string"
            },
            {
              "internalType": "uint256",
              "name": "timestamp",
              "type": "uint256"
            },
            {
              "internalType": "uint256",
              "name": "fineAmount",
              "type": "uint256"
            },
            {
              "internalType": "enum TrafficEnforcementV2.ViolationStatus",
              "name": "status",
              "type": "uint8"
            },
            {
              "internalType": "address",
              "name": "driverId",
              "type": "address"
            },
            {
              "internalType": "uint256",
              "name": "paidAmount",
              "type": "uint256"
            },
            {
              "internalType": "address",
              "name": "paidBy",
              "type": "address"
            }
          ],
          "internalType": "struct TrafficEnforcementV2.Violation",
          "name": "",
          "type": "tuple"
        }
      ],
      "stateMutability": "view",
      "type": "function"
    },
    {
      "inputs": [
        {
          "internalType": "bytes32",
          "name": "role",
          "type": "bytes32"
        },
        {
          "internalType": "address",
          "name": "account",
          "type": "address"
        }
      ],
      "name": "grantRole",
      "outputs": [],
      "stateMutability": "nonpayable",
      "type": "function"
    },
    {
      "inputs": [
        {
          "internalType": "bytes32",
          "name": "role",
          "type": "bytes32"
        },
        {
          "internalType": "address",
          "name": "account",
          "type": "address"
        }
      ],
      "name": "hasRole",
      "outputs": [
        {
          "internalType": "bool",
          "name": "",
          "type": "bool"
        }
      ],
      "stateMutability": "view",
      "type": "function"
    },
    {
      "inputs": [
        {
          "internalType": "address",
          "name": "_admin",
          "type": "address"
        }
      ],
      "name": "initialize",
      "outputs": [],
      "stateMutability": "nonpayable",
      "type": "function"
    },
    {
      "inputs": [
        {
          "internalType": "address",
          "name": "officerId",
          "type": "address"
        }
      ],
      "name": "isOfficerActive",
      "outputs": [
        {
          "internalType": "bool",
          "name": "",
          "type": "bool"
        }
      ],
      "stateMutability": "view",
      "type": "function"
    },
    {
      "inputs": [
        {
          "internalType": "string",
          "name": "vehicleId",
          "type": "string"
        },
        {
          "internalType": "uint32",
          "name": "offenseCode",
          "type": "uint32"
        },
        {
          "internalType": "string",
          "name": "evidenceHash",
          "type": "string"
        },
        {
          "internalType": "address",
          "name": "driverId",
          "type": "address"
        }
      ],
      "name": "logViolation",
      "outputs": [
        {
          "internalType": "bytes32",
          "name": "",
          "type": "bytes32"
        }
      ],
      "stateMutability": "nonpayable",
      "type": "function"
    },
    {
      "inputs": [
        {
          "internalType": "uint32",
          "name": "",
          "type": "uint32"
        }
      ],
      "name": "offenses",
      "outputs": [
        {
          "internalType": "uint256",
          "name": "fineAmountKES",
          "type": "uint256"
        },
        {
          "internalType": "string",
          "name": "name",
          "type": "string"
        },
        {
          "internalType": "bool",
          "name": "isActive",
          "type": "bool"
        }
      ],
      "stateMutability": "view",
      "type": "function"
    },
    {
      "inputs": [
        {
          "internalType": "address",
          "name": "",
          "type": "address"
        },
        {
          "internalType": "uint256",
          "name": "",
          "type": "uint256"
        }
      ],
      "name": "officerDailyViolations",
      "outputs": [
        {
          "internalType": "uint256",
          "name": "",
          "type": "uint256"
        }
      ],
      "stateMutability": "view",
      "type": "function"
    },
    {
      "inputs": [
        {
          "internalType": "address",
          "name": "",
          "type": "address"
        }
      ],
      "name": "officers",
      "outputs": [
        {
          "internalType": "address",
          "name": "officerId",
          "type": "address"
        },
        {
          "internalType": "string",
          "name": "name",
          "type": "string"
        },
        {
          "internalType": "string",
          "name": "badgeNumber",
          "type": "string"
        },
        {
          "internalType": "bool",
          "name": "isActive",
          "type": "bool"
        },
        {
          "internalType": "uint256",
          "name": "registrationTime",
          "type": "uint256"
        },
        {
          "internalType": "uint256",
          "name": "dailyViolationCount",
          "type": "uint256"
        },
        {
          "internalType": "uint256",
          "name": "lastViolationDate",
          "type": "uint256"
        }
      ],
      "stateMutability": "view",
      "type": "function"
    },
    {
      "inputs": [],
      "name": "pause",
      "outputs": [],
      "stateMutability": "nonpayable",
      "type": "function"
    },
    {
      "inputs": [],
      "name": "paused",
      "outputs": [
        {
          "internalType": "bool",
          "name": "",
          "type": "bool"
        }
      ],
      "stateMutability": "view",
      "type": "function"
    },
    {
      "inputs": [
        {
          "internalType": "bytes32",
          "name": "violationId",
          "type": "bytes32"
        }
      ],
      "name": "payFine",
      "outputs": [],
      "stateMutability": "payable",
      "type": "function"
    },
    {
      "inputs": [
        {
          "internalType": "address",
          "name": "",
          "type": "address"
        }
      ],
      "name": "pendingRefunds",
      "outputs": [
        {
          "internalType": "uint256",
          "name": "",
          "type": "uint256"
        }
      ],
      "stateMutability": "view",
      "type": "function"
    },
    {
      "inputs": [],
      "name": "proxiableUUID",
      "outputs": [
        {
          "internalType": "bytes32",
          "name": "",
          "type": "bytes32"
        }
      ],
      "stateMutability": "view",
      "type": "function"
    },
    {
      "inputs": [
        {
          "internalType": "address",
          "name": "officerId",
          "type": "address"
        },
        {
          "internalType": "string",
          "name": "name",
          "type": "string"
        },
        {
          "internalType": "string",
          "name": "badgeNumber",
          "type": "string"
        }
      ],
      "name": "registerOfficer",
      "outputs": [],
      "stateMutability": "nonpayable",
      "type": "function"
    },
    {
      "inputs": [
        {
          "internalType": "bytes32",
          "name": "role",
          "type": "bytes32"
        },
        {
          "internalType": "address",
          "name": "callerConfirmation",
          "type": "address"
        }
      ],
      "name": "renounceRole",
      "outputs": [],
      "stateMutability": "nonpayable",
      "type": "function"
    },
    {
      "inputs": [
        {
          "internalType": "bytes32",
          "name": "violationId",
          "type": "bytes32"
        },
        {
          "internalType": "bool",
          "name": "approve",
          "type": "bool"
        },
        {
          "internalType": "string",
          "name": "resolution",
          "type": "string"
        }
      ],
      "name": "resolveAppeal",
      "outputs": [],
      "stateMutability": "nonpayable",
      "type": "function"
    },
    {
      "inputs": [
        {
          "internalType": "bytes32",
          "name": "role",
          "type": "bytes32"
        },
        {
          "internalType": "address",
          "name": "account",
          "type": "address"
        }
      ],
      "name": "revokeRole",
      "outputs": [],
      "stateMutability": "nonpayable",
      "type": "function"
    },
    {
      "inputs": [
        {
          "internalType": "bytes32",
          "name": "violationId",
          "type": "bytes32"
        },
        {
          "internalType": "string",
          "name": "appealReason",
          "type": "string"
        }
      ],
      "name": "submitAppeal",
      "outputs": [],
      "stateMutability": "nonpayable",
      "type": "function"
    },
    {
      "inputs": [
        {
          "internalType": "bytes4",
          "name": "interfaceId",
          "type": "bytes4"
        }
      ],
      "name": "supportsInterface",
      "outputs": [
        {
          "internalType": "bool",
          "name": "",
          "type": "bool"
        }
      ],
      "stateMutability": "view",
      "type": "function"
    },
    {
      "inputs": [],
      "name": "totalFinesPaid",
      "outputs": [
        {
          "internalType": "uint256",
          "name": "",
          "type": "uint256"
        }
      ],
      "stateMutability": "view",
      "type": "function"
    },
    {
      "inputs": [],
      "name": "totalFinesRefunded",
      "outputs": [
        {
          "internalType": "uint256",
          "name": "",
          "type": "uint256"
        }
      ],
      "stateMutability": "view",
      "type": "function"
    },
    {
      "inputs": [],
      "name": "totalViolations",
      "outputs": [
        {
          "internalType": "uint256",
          "name": "",
          "type": "uint256"
        }
      ],
      "stateMutability": "view",
      "type": "function"
    },
    {
      "inputs": [],
      "name": "unpause",
      "outputs": [],
      "stateMutability": "nonpayable",
      "type": "function"
    },
    {
      "inputs": [
        {
          "internalType": "uint32",
          "name": "offenseCode",
          "type": "uint32"
        },
        {
          "internalType": "uint256",
          "name": "fineAmountKES",
          "type": "uint256"
        },
        {
          "internalType": "string",
          "name": "name",
          "type": "string"
        },
        {
          "internalType": "bool",
          "name": "isActive",
          "type": "bool"
        }
      ],
      "name": "updateOffense",
      "outputs": [],
      "stateMutability": "nonpayable",
      "type": "function"
    },
    {
      "inputs": [
        {
          "internalType": "address",
          "name": "newImplementation",
          "type": "address"
        },
        {
          "internalType": "bytes",
          "name": "data",
          "type": "bytes"
        }
      ],
      "name": "upgradeToAndCall",
      "outputs": [],
      "stateMutability": "payable",
      "type": "function"
    },
    {
      "inputs": [
        {
          "internalType": "string",
          "name": "",
          "type": "string"
        },
        {
          "internalType": "uint256",
          "name": "",
          "type": "uint256"
        }
      ],
      "name": "vehicleViolations",
      "outputs": [
        {
          "internalType": "bytes32",
          "name": "",
          "type": "bytes32"
        }
      ],
      "stateMutability": "view",
      "type": "function"
    },
    {
      "inputs": [],
      "name": "version",
      "outputs": [
        {
          "internalType": "uint256",
          "name": "",
          "type": "uint256"
        }
      ],
      "stateMutability": "view",
      "type": "function"
    },
    {
      "inputs": [
        {
          "internalType": "bytes32",
          "name": "",
          "type": "bytes32"
        }
      ],
      "name": "violations",
      "outputs": [
        {
          "internalType": "bytes32",
          "name": "violationId",
          "type": "bytes32"
        },
        {
          "internalType": "string",
          "name": "vehicleId",
          "type": "string"
        },
        {
          "internalType": "address",
          "name": "officerId",
          "type": "address"
        },
        {
          "internalType": "uint32",
          "name": "offenseCode",
          "type": "uint32"
        },
        {
          "internalType": "string",
          "name": "evidenceHash",
          "type": "string"
        },
        {
          "internalType": "uint256",
          "name": "timestamp",
          "type": "uint256"
        },
        {
          "internalType": "uint256",
          "name": "fineAmount",
          "type": "uint256"
        },
        {
          "internalType": "enum TrafficEnforcementV2.ViolationStatus",
          "name": "status",
          "type": "uint8"
        },
        {
          "internalType": "address",
          "name": "driverId",
          "type": "address"
        },
        {
          "internalType": "uint256",
          "name": "paidAmount",
          "type": "uint256"
        },
        {
          "internalType": "address",
          "name": "paidBy",
          "type": "address"
        }
      ],
      "stateMutability": "view",
      "type": "function"
    },
    {
      "inputs": [
        {
          "internalType": "address",
          "name": "recipient",
          "type": "address"
        },
        {
          "internalType": "uint256",
          "name": "amount",
          "type": "uint256"
        }
      ],
      "name": "withdrawFunds",
      "outputs": [],
      "stateMutability": "nonpayable",
      "type": "function"
    },
    {
      "stateMutability": "payable",
      "type": "receive"
    }
  ],
  "bytecode": "0x60a0806040523461002a57306080526150379081610030823960805181818161316a01526132240152f35b600080fdfe608080604052600436101561001a575b50361561001857005b005b60003560e01c90816301ffc9a7146140f25750806308353dfe146140d6578063084866dd14614028578063248a9ca314613fec57806328cdc02814613f1d5780632e75fcd114613b2d5780632f2ff15d14613ae157806334ccc5ea14613ac457806336568abe14613a7d5780633f4ba83a14613a065780634719c01d14613930578063480310771461349b57806349e6368b1461347d5780634f1ef286146131d457806352d1902d1461315757806354fd4d50146131395780635c975abb146131095780635dd6671714612f315780637264953b14612f085780637310e88514612e8f57806375b238fc14612e545780638456cb5914612ded578063888d8ad714612dd15780638beb3cc514612db557806391d1485414612d5b578063a217fddf14612d3f578063a84d407414612d23578063a95c664814612b20578063a98ffb5914612aae578063ad3cb1cc14612a64578063adca20b014612a29578063af4ac9e8146129bf578063b5545a3c146128eb578063b613b114146128b1578063b6d7c6b114612893578063bb019f7d146127af578063c0e1f66614612791578063c107532914612622578063c197e3e91461259d578063c22e770114611f29578063c345a74c14611d40578063c4d66de814610840578063d11a57ec14610805578063d547741f146107b9578063d5b0e27c14610771578063d6fd623914610753578063e0e4758814610718578063e8b9fd7b146102af578063f5b1bc3a1461028d5763f72c0d8b1461024d573861000f565b346102885760003660031901126102885760206040517f189ab7a9244df0848122154315af71fe140f3db0fe014031783b0946b8c9d2e38152f35b600080fd5b3461028857600036600319011261028857602060405166038d7ea4c680008152f35b34610288576040366003190112610288576001600160401b0360043560248035838111610288576102e490369060040161435d565b90826000526020936000855261030360046040600020015415156143c9565b61030b61483a565b8360005260008552604060002091600386526006604060002093019081549260ff841660068110156107035780159081156106f8575b50156106b457600884901c6001600160a01b031633036106705785511561062c57600485019260ff8454166105ea576007860194855460038110156105af57610544575b60029060ff19161790558685556001808601336001600160601b0360a01b8254161790556002860192875192831161053057506103cc826103c68554614171565b8561442c565b8890601f831160011461049f575091816104719694927f4db460638e10f96770c2aa1f83a1118ab50350e5585a645f42d2ca04d5574e71989694600091610494575b508160011b916000199060031b1c19161790555b42600384015561ffff1981541690556000600583016104418154614171565b601f8111610476575b50556104568154614740565b905560084291015560405191829186835233968301906142e6565b0390a3005b81835289832061048e91601f0160051c810190614415565b8961044a565b90508601518b61040e565b90601f198316846000528a600020926000905b8c83831061051857505050927f4db460638e10f96770c2aa1f83a1118ab50350e5585a645f42d2ca04d5574e7198969492600192826104719a9896106104ff575b5050811b019055610422565b88015160001960f88460031b161c191690558b806104f3565b8b8501518655948101949384019391909101906104b2565b634e487b7160e01b60009081526041600452fd5b600887015462093a80810180911161059a574210156103855760405162461bcd60e51b8152600481018b90526016818601527541707065616c20636f6f6c646f776e2061637469766560501b6044820152606490fd5b84634e487b7160e01b60005260116004526000fd5b60405162461bcd60e51b8152600481018c90526014818701527313585e08185c1c19585b1cc8195e18d95959195960621b6044820152606490fd5b6064838a6040519162461bcd60e51b83528160048401528201527f50726576696f75732061707065616c20616c7265616479207265736f6c7665646044820152fd5b60405162461bcd60e51b815260048101899052601d818401527f41707065616c20726561736f6e2063616e6e6f7420626520656d7074790000006044820152606490fd5b60405162461bcd60e51b815260048101899052601a818401527f4f6e6c7920746865206472697665722063616e2061707065616c0000000000006044820152606490fd5b60405162461bcd60e51b815260048101899052601c818401527f43616e6e6f742061707065616c20746869732076696f6c6174696f6e000000006044820152606490fd5b600191501489610341565b82634e487b7160e01b60005260216004526000fd5b346102885760003660031901126102885760206040517f9c4e6fd68fbdec6e3075ec7bfba710532af019aea93f5f59ebfe5a9d1a0b894e8152f35b34610288576000366003190112610288576020600554604051908152f35b34610288576040366003190112610288576001600160a01b03610792614145565b16600052600860205260406000206024356000526020526020604060002054604051908152f35b34610288576040366003190112610288576100186004356107d861415b565b9080600052600080516020614f62833981519152602052610800600160406000200154614807565b614ddc565b346102885760003660031901126102885760206040517fe1dcbdb91df27212a29bc27177c840cf2f819ecf2187432e1fac86c2dd5dfca98152f35b3461028857602036600319011261028857610859614145565b600080516020614fc283398151915254906001600160401b03821680159081611d30575b6001149081611d26575b159081611d1d575b50611d0b576109349060016001600160401b0319841617600080516020614fc28339815191525560ff8360401c1615611cde575b6108cb614e8f565b6108d3614e8f565b6108db614e8f565b6108e3614e8f565b6001600080516020614fa2833981519152556108fd614e8f565b610906816148f1565b506109108161497f565b5061091a81614a29565b5061092481614ad3565b5061092e81614b7d565b50614c27565b506001600a55604051610946816141ab565b60008152604051610956816141ab565b602581527f5370656564696e6720312d35206b7068206f766572206c696d697420285761726020820152646e696e672960d81b604082015260208201908152604082019060018252600160005260046020526040600020925183556001830190518051906001600160401b038211611763576109d6826103c68554614171565b602090601f8311600114611c6f57918060029492610a23979694600092611c64575b50508160011b916000199060031b1c19161790555b51151591019060ff801983541691151516179055565b60405190610a30826141ab565b6101f48252604051610a41816141e2565b601c81527f5370656564696e6720362d3130206b7068206f766572206c696d697400000000602082015260208301908152600160408401526002600052600460205260406000209083518255519283516001600160401b03811161176357610ab981610ab06001860154614171565b6001860161442c565b6020601f8211600114611c06579181604092600294610b0a9798600092611779575b50508160011b916000199060031b1c19161760018501555b0151151591019060ff801983541691151516179055565b60405190610b17826141ab565b610bb88252604051610b28816141e2565b601d81527f5370656564696e672031312d3135206b7068206f766572206c696d6974000000602082015260208301908152600160408401526003600052600460205260406000209083518255519283516001600160401b03811161176357610b9781610ab06001860154614171565b6020601f8211600114611ba8579181604092600294610be697986000926117795750508160011b916000199060031b1c19161760018501550151151591019060ff801983541691151516179055565b60405190610bf3826141ab565b6127108252604051610c04816141e2565b601d81527f5370656564696e672031362d3230206b7068206f766572206c696d6974000000602082015260208301908152600160408401526004600052600460205260406000209083518255519283516001600160401b03811161176357610c7381610ab06001860154614171565b6020601f8211600114611b4a579181604092600294610cc297986000926117795750508160011b916000199060031b1c19161760018501550151151591019060ff801983541691151516179055565b60405190610ccf826141ab565b6101f48252604051610ce0816141e2565b601881527f4661696c75726520746f2077656172207365617462656c740000000000000000602082015260208301908152600160408401526005600052600460205260406000209083518255519283516001600160401b03811161176357610d4f81610ab06001860154614171565b6020601f8211600114611aec579181604092600294610d9e97986000926117795750508160011b916000199060031b1c19161760018501550151151591019060ff801983541691151516179055565b60405190610dab826141ab565b610bb88252604051610dbc816141e2565b601d81527f44726976696e6720776974686f75742076616c6964206c6963656e7365000000602082015260208301908152600160408401526006600052600460205260406000209083518255519283516001600160401b03811161176357610e2b81610ab06001860154614171565b6020601f8211600114611a8e579181604092600294610e7a97986000926117795750508160011b916000199060031b1c19161760018501550151151591019060ff801983541691151516179055565b60405190610e87826141ab565b610bb88252604051610e98816141e2565b601d81527f4661696c75726520746f206f6265792074726166666963207369676e73000000602082015260208301908152600160408401526007600052600460205260406000209083518255519283516001600160401b03811161176357610f0781610ab06001860154614171565b6020601f8211600114611a30579181604092600294610f5697986000926117795750508160011b916000199060031b1c19161760018501550151151591019060ff801983541691151516179055565b60405190610f63826141ab565b6113888252604051610f74816141ab565b602781527f4661696c75726520746f2073746f70207768656e207369676e616c656420627960208201526620706f6c69636560c81b604082015260208301908152600160408401526008600052600460205260406000209083518255519283516001600160401b03811161176357610ff381610ab06001860154614171565b6020601f82116001146119d257918160409260029461104297986000926117795750508160011b916000199060031b1c19161760018501550151151591019060ff801983541691151516179055565b6040519061104f826141ab565b6127108252604051611060816141e2565b602081527f43617573696e67206f62737472756374696f6e20776974682076656869636c65602082015260208301908152600160408401526009600052600460205260406000209083518255519283516001600160401b038111611763576110cf81610ab06001860154614171565b6020601f821160011461197457918160409260029461111e97986000926117795750508160011b916000199060031b1c19161760018501550151151591019060ff801983541691151516179055565b6040519061112b826141ab565b611388825260405161113c816141ab565b602981527f44726976696e67206f6e20706176656d656e74206f72207065646573747269616020820152686e2077616c6b77617960b81b60408201526020830190815260016040840152600a600052600460205260406000209083518255519283516001600160401b038111611763576111bd81610ab06001860154614171565b6020601f821160011461191657918160409260029461120c97986000926117795750508160011b916000199060031b1c19161760018501550151151591019060ff801983541691151516179055565b60405190611219826141ab565b612710825260405161122a816141ab565b602581527f44726976696e6720776974686f7574206964656e74696669636174696f6e20706020820152646c6174657360d81b60408201526020830190815260016040840152600b600052600460205260406000209083518255519283516001600160401b038111611763576112a781610ab06001860154614171565b6020601f82116001146118b85791816040926002946112f697986000926117795750508160011b916000199060031b1c19161760018501550151151591019060ff801983541691151516179055565b60405190611303826141ab565b6103e88252604051611314816141ab565b603381527f4d6f746f726379636c65206361727279696e67206d6f7265207468616e206f6e60208201527232903834b63634b7b7103830b9b9b2b733b2b960691b60408201526020830190815260016040840152600c600052600460205260406000209083518255519283516001600160401b0381116117635761139f81610ab06001860154614171565b6020601f821160011461185a5791816040926002946113ee97986000926117795750508160011b916000199060031b1c19161760018501550151151591019060ff801983541691151516179055565b604051906113fb826141ab565b610bb8825260405161140c816141e2565b6007815266546f7574696e6760c81b60208201526020830190815260016040840152600d600052600460205260406000209083518255519283516001600160401b0381116117635761146581610ab06001860154614171565b6020601f82116001146117fc5791816040926002946114b497986000926117795750508160011b916000199060031b1c19161760018501550151151591019060ff801983541691151516179055565b604051906114c1826141ab565b6107d082526040516114d2816141e2565b602081527f5573696e67206d6f62696c652070686f6e65207768696c652064726976696e6760208201526020830190815260016040840152600e600052600460205260406000209083518255519283516001600160401b0381116117635761154181610ab06001860154614171565b6020601f821160011461178457918160409260029461159097986000926117795750508160011b916000199060031b1c19161760018501550151151591019060ff801983541691151516179055565b6040519061159d826141ab565b61271082526040516115ae816141ab565b602c81527f44726976696e6720776974686f75742076616c696420696e7370656374696f6e60208201526b20636572746966696361746560a01b604082015260208301908152604083019060018252600f60005260046020526040600020935184556001840190518051906001600160401b03821161176357611635826103c68554614171565b602090601f83116001146116f1579282600293611682969360ff99966000926116e65750508160011b916000199060031b1c191617905551151591019060ff801983541691151516179055565b60401c161561168d57005b68ff000000000000000019600080516020614fc28339815191525416600080516020614fc2833981519152557fc7f505b2f371ae2175ee4913f4499e1f2633a7b5936321eed1cdaeb6115181d2602060405160018152a1005b0151905089806109f8565b90601f198316918460005260206000209260005b81811061174b575093611682969360ff9996936001938360029810611732575b505050811b019055610a0d565b015160001960f88460031b161c19169055898080611725565b92936020600181928786015181550195019301611705565b634e487b7160e01b600052604160045260246000fd5b015190508880610adb565b6001840160005260206000209560005b601f19841681106117e4575082611590969760029593600193604096601f198116106117cb575b505050811b016001850155610af3565b015160001960f88460031b161c191690558880806117bb565b82820151885560019097019660209283019201611794565b6001840160005260206000209560005b601f19841681106118425750826114b4969760029593600193604096601f198116106117cb57505050811b016001850155610af3565b8282015188556001909701966020928301920161180c565b6001840160005260206000209560005b601f19841681106118a05750826113ee969760029593600193604096601f198116106117cb57505050811b016001850155610af3565b8282015188556001909701966020928301920161186a565b6001840160005260206000209560005b601f19841681106118fe5750826112f6969760029593600193604096601f198116106117cb57505050811b016001850155610af3565b828201518855600190970196602092830192016118c8565b6001840160005260206000209560005b601f198416811061195c57508261120c969760029593600193604096601f198116106117cb57505050811b016001850155610af3565b82820151885560019097019660209283019201611926565b6001840160005260206000209560005b601f19841681106119ba57508261111e969760029593600193604096601f198116106117cb57505050811b016001850155610af3565b82820151885560019097019660209283019201611984565b6001840160005260206000209560005b601f1984168110611a18575082611042969760029593600193604096601f198116106117cb57505050811b016001850155610af3565b828201518855600190970196602092830192016119e2565b6001840160005260206000209560005b601f1984168110611a76575082610f56969760029593600193604096601f198116106117cb57505050811b016001850155610af3565b82820151885560019097019660209283019201611a40565b6001840160005260206000209560005b601f1984168110611ad4575082610e7a969760029593600193604096601f198116106117cb57505050811b016001850155610af3565b82820151885560019097019660209283019201611a9e565b6001840160005260206000209560005b601f1984168110611b32575082610d9e969760029593600193604096601f198116106117cb57505050811b016001850155610af3565b82820151885560019097019660209283019201611afc565b6001840160005260206000209560005b601f1984168110611b90575082610cc2969760029593600193604096601f198116106117cb57505050811b016001850155610af3565b82820151885560019097019660209283019201611b5a565b6001840160005260206000209560005b601f1984168110611bee575082610be6969760029593600193604096601f198116106117cb57505050811b016001850155610af3565b82820151885560019097019660209283019201611bb8565b6001840160005260206000209560005b601f1984168110611c4c575082610b0a969760029593600193604096601f198116106117cb57505050811b016001850155610af3565b82820151885560019097019660209283019201611c16565b0151905088806109f8565b90601f198316918460005260206000209260005b818110611cc65750926001928592610a239998966002989610611cad57505050811b019055610a0d565b015160001960f88460031b161c19169055888080611725565b92936020600181928786015181550195019301611c83565b68ffffffffffffffffff1983166801000000000000000117600080516020614fc2833981519152556108c3565b60405163f92ee8a960e01b8152600490fd5b9050158361088f565b303b159150610887565b604084901c60ff1615915061087d565b60208060031936011261028857600435611d58614e5f565b8060005260008252611d7360046040600020015415156143c9565b611d7b61483a565b80600052600082526040600020600681019081549060ff82166006811015611f1357611ece576005810192835492833410611e925760ff191660011790556007810182905560080180546001600160a01b03191633179055600654611de09190614471565b6006558054803411611e2e575b505460405190815233927f4968e19fd49d27ef126400fd881e1c88b7c6cd35c3cc4bf17b1b4b0ff6a3ba3f91a36001600080516020614fa283398151915255005b60008080611e3d8194346145e0565b335af1611e4861455b565b5015611e545783611ded565b60405162461bcd60e51b81526004810184905260166024820152751499599d5b99081d1c985b9cd9995c8819985a5b195960521b6044820152606490fd5b60405162461bcd60e51b8152600481018890526014602482015273125b9cdd59999a58da595b9d081c185e5b595b9d60621b6044820152606490fd5b60405162461bcd60e51b815260048101869052601760248201527f56696f6c6174696f6e206973206e6f7420756e706169640000000000000000006044820152606490fd5b634e487b7160e01b600052602160045260246000fd5b34610288576080366003190112610288576004356001600160401b03811161028857611f5990369060040161435d565b63ffffffff6024351660243503610288576044356001600160401b03811161028857611f8990369060040161435d565b90606435906001600160a01b038216820361028857336000908152600080516020614fe28339815191526020526040902054600080516020614f428339815191529060ff161561257f575033600052600860205260406000206201518042046000526020526064604060002054101561253a57612008815115156144ca565b61201660148251111561450f565b612022835115156144ca565b6120316101f48451111561450f565b6120456001600160a01b038316151561447e565b61204d61483a565b63ffffffff60243516600052600460205260ff60026040600020015416156124f65733600052600160205260056040600020600681016201518042048154036124e2575b500161209d8154614740565b905563ffffffff60243516600052600460205260406000205466038d7ea4c680009381858102048514821517156124cc5760405161211d60588286516120ea816020840160208b016142c3565b81013360601b602082015242603482015263ffffffff60e01b60243560e01b1660548201520360388101845201826141fd565b602081519101209360405191612132836141c6565b85835284602084015233604084015263ffffffff60243516606084015260808301524260a083015285830260c0830152600060e083015260018060a01b03166101008201526000610120820152600061014082015283600052600060205260406000208151815560208201518051906001600160401b0382116117635781906121cb826121c26001870154614171565b6001870161442c565b602090601f831160011461245a5760009261244f575b50508160011b916000199060031b1c19161760018201555b6002810160018060a01b0360408401511681549063ffffffff60a01b606086015160a01b16916001600160401b0360c01b161717905560808201518051906001600160401b038211611763578190612261826122586003870154614171565b6003870161442c565b602090601f83116001146123dd576000926123d2575b50508160011b916000199060031b1c19161760038201555b60a0820151600482015560c0820151600582015560e0820151906006821015611f1357600891600682015460ff610100600160a81b03610100870151861b169216906affffffffffffffffffffff60a81b16171760068201556101208301516007820155019061014060018060a01b03910151166001600160601b0360a01b825416179055604051602081845161232981838589016142c3565b810160028152030190209384549468010000000000000000861015611763578561235a91600160209801815561438e565b81549060031b9086821b91600019901b191617905561237a600554614740565b600555612392604051936040855260408501906142e6565b910284830152827f0c7435df2cae2e574db57309e5cb9eff1b75b4b683990c63adeafb3947816a1233938063ffffffff60243516940390a4604051908152f35b015190508880612277565b9250600384016000526020600020906000935b601f1984168510612434576001945083601f1981161061241b575b505050811b01600382015561228f565b015160001960f88460031b161c1916905588808061240b565b818101518355602094850194600190930192909101906123f0565b0151905088806121e1565b9250600184016000526020600020906000935b601f19841685106124b1576001945083601f19811610612498575b505050811b0160018201556121f9565b015160001960f88460031b161c19169055888080612488565b8181015183556020948501946001909301929091019061246d565b634e487b7160e01b600052601160045260246000fd5b600083830155620151804204905585612091565b606460405162461bcd60e51b815260206004820152602060248201527f496e76616c6964206f7220696e616374697665206f6666656e736520636f64656044820152fd5b60405162461bcd60e51b815260206004820152601e60248201527f4461696c792076696f6c6174696f6e206c696d697420657863656564656400006044820152606490fd5b6044906040519063e2517d3f60e01b82523360048301526024820152fd5b34610288576060366003190112610288576004356001600160401b038111610288576125d06125dd91369060040161435d565b6044359060243590614601565b6040518091602080830160208452825180915260206040850193019160005b82811061260b57505050500390f35b8351855286955093810193928101926001016125fc565b346102885760403660031901126102885761263b614145565b3360009081527f1069ffe2b90bfd470f40f3bf820141bb4d4b475d03084db5dcfb8152047badf7602052604090205460243591907fe1dcbdb91df27212a29bc27177c840cf2f819ecf2187432e1fac86c2dd5dfca99060ff161561257f57506126a2614e5f565b47821161274c576001600160a01b0316908115612713576126d3600080808085875af16126cd61455b565b5061458b565b6040519081527fa92ff919b850e4909ab2261d907ef955f11bc1716733a6cbece38d163a69af8a60203392a36001600080516020614fa283398151915255005b60405162461bcd60e51b8152602060048201526011602482015270125b9d985b1a59081c9958da5c1a595b9d607a1b6044820152606490fd5b60405162461bcd60e51b815260206004820152601d60248201527f496e73756666696369656e7420636f6e74726163742062616c616e63650000006044820152606490fd5b34610288576000366003190112610288576020600754604051908152f35b34610288576020366003190112610288576004356000526000602052604060002080546127de6001830161421e565b600283015490926001600160a01b03906127fa6003820161421e565b91600482015493600583015461285e6006850154928460086007880154970154169663ffffffff61283f6040519c8d809d6020610160928392815201528d01906142e6565b9287811660408d015260a01c1660608b015289820360808b01526142e6565b9560a088015260c087015261287960e0870160ff83166143bc565b60081c166101008501526101208401526101408301520390f35b3461028857600036600319011261028857602060405162093a808152f35b34610288576020366003190112610288576001600160a01b036128d2614145565b1660005260096020526020604060002054604051908152f35b3461028857600036600319011261028857612904614e5f565b61290c61483a565b33600052600960205260406000205480156129855733600052600960205260006040812055612945600080808085335af16126cd61455b565b6040519081527f358fe4192934d3bf28ae181feda1f4bd08ca67f5e2fad55582cce5eb67304ae960203392a26001600080516020614fa283398151915255005b60405162461bcd60e51b81526020600482015260126024820152714e6f2070656e64696e6720726566756e647360701b6044820152606490fd5b346102885760203660031901126102885763ffffffff6129dd61437b565b1660005260046020526040600020805460ff60026129fd6001850161421e565b93015416612a1d60405193849384526060602085015260608401906142e6565b90151560408301520390f35b346102885760003660031901126102885760206040517fc6ad931175da1471673417ed857aec62a6cf3071baeff703ef4a5a1f95adb2318152f35b3461028857600036600319011261028857612aaa604051612a84816141e2565b60058152640352e302e360dc1b60208201526040519182916020835260208301906142e6565b0390f35b34610288576020366003190112610288576001600160a01b03612acf614145565b1680600052600160205260ff6003604060002001541680612af8575b6020906040519015158152f35b506000908152600080516020614fe2833981519152602090815260409091205460ff16612aeb565b34610288576020366003190112610288576004356000610140604051612b45816141c6565b82815260606020820152826040820152826060820152606060808201528260a08201528260c08201528260e082015282610100820152826101208201520152806000526000602052612ba060046040600020015415156143c9565b6000526000602052604060002060405190612bba826141c6565b80548252612bca6001820161421e565b602083015260028101546001600160a01b038116604084015260a01c63ffffffff166060830152612bfd6003820161421e565b6080830152600481015460a0830152600581015460c0830152600681015460ff81166006811015611f135760e084015260018060a01b039060081c166101008301526007810154610120830152600860018060a01b039101541661014082015260405180916020825280516020830152612cc3612c8b602083015161016060408601526101808501906142e6565b60018060a01b03604084015116606085015263ffffffff60608401511660808501526080830151601f198583030160a08601526142e6565b9060a081015160c084015260c081015160e0840152612ceb60e08201516101008501906143bc565b60018060a01b036101008201511661012084015261012081015161014084015261014060018060a01b03910151166101608301520390f35b3461028857600036600319011261028857602060405160328152f35b3461028857600036600319011261028857602060405160008152f35b3461028857604036600319011261028857612d7461415b565b600435600052600080516020614f6283398151915260205260406000209060018060a01b0316600052602052602060ff604060002054166040519015158152f35b3461028857600036600319011261028857602060405160038152f35b3461028857600036600319011261028857602060405160148152f35b3461028857600036600319011261028857612e0661474f565b612e0e61483a565b600080516020614f82833981519152600160ff198254161790557f62e78cea01bee320cd4e420270b5ea74000d11b0c9f74754ebdbfc544b05a2586020604051338152a1005b346102885760003660031901126102885760206040517fa49807205ce4d355092ef5a8a18f56e8913cf4a201fbe287825b095693c217758152f35b34610288576040366003190112610288576004356001600160401b03811161028857612ebf90369060040161435d565b612edb60206024359281604051938285809451938492016142c3565b81016002815203019020805482101561028857602091612efa9161438e565b90546040519160031b1c8152f35b34610288576000366003190112610288576020604051600080516020614f428339815191528152f35b3461028857608036600319011261028857612f4a61437b565b6001600160401b039060243560443583811161028857612f6e90369060040161435d565b906064359182151580930361028857612f8561474f565b604051612f91816141ab565b82815260209363ffffffff85830196848852604084019283521695866000526004865260406000209251835560019760018401915198895191821161176357612fde826103c68554614171565b8790601f83116001146130755750926130659594928260029361304f967fe128558611e28b5f2755aed4121802870b0e7eb8a72b13fe57f85f20028105659c9d60009261306a5750508160011b916000199060031b1c191617905551151591019060ff801983541691151516179055565b60408051948594855284015260408301906142e6565b0390a2005b015190508d806109f8565b99601f19831684600052896000209b6000905b8282106130f2575050837fe128558611e28b5f2755aed4121802870b0e7eb8a72b13fe57f85f20028105659b9c61304f97946130659a999794600297600195106130d957505050811b019055610a0d565b015160001960f88460031b161c191690558d8080611725565b848401518e559c8d019c938b0193908b0190613088565b3461028857600036600319011261028857602060ff600080516020614f8283398151915254166040519015158152f35b34610288576000366003190112610288576020600a54604051908152f35b34610288576000366003190112610288577f00000000000000000000000000000000000000000000000000000000000000006001600160a01b031630036131c25760206040517f360894a13ba1a3210667c828492db98dca3e2076cc3735a920a3ca505d382bbc8152f35b60405163703e46dd60e11b8152600490fd5b6040366003190112610288576131e8614145565b60249081356001600160401b0381116102885736602382011215610288576132199036908481600401359101614326565b6001600160a01b03917f0000000000000000000000000000000000000000000000000000000000000000831630811490811561344f575b506131c2573360009081527fab71e3f32666744d246edff3f96e4bdafee2e9867098cdd118a979a7464786a860209081526040909120549093907f189ab7a9244df0848122154315af71fe140f3db0fe014031783b0946b8c9d2e39060ff161561343257507f4532260fe799306e8bfb8df20fa4255dd3c44d6d51276cba0abc9468927b3388846132e2600a54614740565b80600a55604051908152a18116926040516352d1902d60e01b81528181600481885afa60009181613403575b5061332b57604051634c9c8ce360e01b8152600481018690528690fd5b8490867f360894a13ba1a3210667c828492db98dca3e2076cc3735a920a3ca505d382bbc918281036133ee5750843b156133d8575080546001600160a01b03191682179055604051907fbc7cd75a20ee27fd9adebab32041f755214dbc6bffa90cc0225b39da2e5c2d3b600080a28351156133be5750600083819261001895519101845af46133b861455b565b91614ebe565b92505050346133c957005b63b398979f60e01b8152600490fd5b604051634c9c8ce360e01b815260048101849052fd5b60405190632a87526960e21b82526004820152fd5b9091508281813d831161342b575b61341b81836141fd565b810103126102885751908761330e565b503d613411565b856044916040519163e2517d3f60e01b8352336004840152820152fd5b9050837f360894a13ba1a3210667c828492db98dca3e2076cc3735a920a3ca505d382bbc5416141585613250565b34610288576000366003190112610288576020600654604051908152f35b34610288576060366003190112610288576134b4614145565b6024356001600160401b038111610288576134d390369060040161435d565b6044356001600160401b038111610288576134f290369060040161435d565b906134fb6147ab565b61350f6001600160a01b038416151561447e565b61351b815115156144ca565b61352a6101f48251111561450f565b613536825115156144ca565b61354460328351111561450f565b61354c61483a565b6001600160a01b03831660009081526001602052604090206003015460ff166138f2576001600160a01b038316600090815260016020526040902060040154156135f257505060018060a01b03811660005260016020526003604060002001600160ff198254161790556135bf81614865565b5033906001600160a01b03167ff135da67a7dec9747513aabbc02f214bb500fb26c7ae99d39fad29083a5251b4600080a3005b60405160e081018181106001600160401b038211176117635760405260018060a01b0384168152602081019082825283604082015260016060820152426080820152600060a0820152600060c082015260018060a01b038516600052600160205260406000209160018060a01b038251166001600160601b0360a01b845416178355518051906001600160401b0382116117635781906136a2826136996001880154614171565b6001880161442c565b602090601f831160011461388057600092613875575b50508160011b916000199060031b1c19161760018301555b60408101518051906001600160401b03821161176357613700826136f76002870154614171565b6002870161442c565b602090601f83116001146137da577f180b91052b9cda63531c3e4a9cbe6596f73f5df1f6affb2666fa8e458d0ce3a99593836137b6969460069460c0946000926137cf575b50508160011b916000199060031b1c19161760028501555b61377c60608201511515600386019060ff801983541691151516179055565b6080810151600485015560a08101516005850155015191015561379e85614865565b506104716040519283926040845260408401906142e6565b828103602084015233966001600160a01b0316956142e6565b015190508b80613745565b906002850160005260206000209160005b601f198516811061385d57509360018460069460c0947f180b91052b9cda63531c3e4a9cbe6596f73f5df1f6affb2666fa8e458d0ce3a99a986137b69a98601f19811610613844575b505050811b01600285015561375d565b015160001960f88460031b161c191690558b8080613834565b919260206001819286850151815501940192016137eb565b0151905087806136b8565b9250600185016000526020600020906000935b601f19841685106138d7576001945083601f198116106138be575b505050811b0160018301556136d0565b015160001960f88460031b161c191690558780806138ae565b81810151835560209485019460019093019290910190613893565b60405162461bcd60e51b81526020600482015260166024820152754f66666963657220616c72656164792061637469766560501b6044820152606490fd5b3461028857602036600319011261028857613949614145565b6139516147ab565b61395961483a565b6001600160a01b03811660008181526001602052604090206003015490919060ff16156139cc576139a290826000526001602052600360406000200160ff198154169055614d46565b5033907f7602228bab5910bd496f24ddfe1cb34e29049b14dea8a332a5495ed413966ebf600080a3005b60405162461bcd60e51b81526020600482015260126024820152714f666669636572206e6f742061637469766560701b6044820152606490fd5b3461028857600036600319011261028857613a1f61474f565b600080516020614f82833981519152805460ff811615613a6b5760ff191690557f5db9ee0a495bf2e6ff9c91a7834c1ba4fdd244a5e8aa4e537bd38aeae4b073aa6020604051338152a1005b604051638dfc202b60e01b8152600490fd5b3461028857604036600319011261028857613a9661415b565b336001600160a01b03821603613ab25761001890600435614ddc565b60405163334bd91960e11b8152600490fd5b346102885760003660031901126102885760206040516101f48152f35b3461028857604036600319011261028857610018600435613b0061415b565b9080600052600080516020614f62833981519152602052613b28600160406000200154614807565b614cd1565b34610288576060366003190112610288576004356024803591821515808403610288576001600160401b039360443585811161028857613b7190369060040161435d565b937f9c4e6fd68fbdec6e3075ec7bfba710532af019aea93f5f59ebfe5a9d1a0b894e9586600052602096600080516020614f628339815191528852604060002033600052885260ff6040600020541615613f0057508460005260008752613be160046040600020015415156143c9565b613be961483a565b846000526000875260069260ff84604060002001541684811015613eeb57600203613eb357856000526003885260ff60046040600020015416613e6f57856000526003885260406000206000895260406000209360048201938454946001809661ff008b60081b169061ffff19161717905560058301918a519182116105305750613c7e81613c788454614171565b8461442c565b8a601f8211600114613ddf57928a9b969492828997959360409a947fa1cb7f40018718c09cb1d27551081808f2171af542482542866f4e2dcc4174b79d9e600092613dd4575b5050600019600383901b1c191690861b1790555b0180546001600160a01b0319163317905515613da457508683600783019283541515600014613d8f577f92ac592d9f00fe36701e3861c8e4cee57d21d2455e6b7571e23c8fffff2a8b7b9293948101600560ff1982541617905560088554910160018060a01b03918282541660005260098452613d5a89600020918254614471565b9055613d698654600754614471565b600755541693548651908152a35b815192835282015280610471339560408301906142e6565b9250505001600360ff19825416179055613d77565b60078201549092919015613dc257019060ff19825416179055613d77565b01805460ff1916600417905550613d77565b015190508f8f613cc4565b601f19821690836000528c6000209160005b818110613e5a575096838196938e9f9a9896937fa1cb7f40018718c09cb1d27551081808f2171af542482542866f4e2dcc4174b79e9f8d9b9760409e9810613e41575b505050811b019055613cd8565b015160001960f88460031b161c191690558f8f80613e34565b8d830151845592880192918e01918e01613df1565b60405162461bcd60e51b8152600481018990526017818501527f41707065616c20616c7265616479207265736f6c7665640000000000000000006044820152606490fd5b60405162461bcd60e51b81526004810189905260118185015270139bc81c195b991a5b99c8185c1c19585b607a1b6044820152606490fd5b83634e487b7160e01b60005260216004526000fd5b826044916040519163e2517d3f60e01b8352336004840152820152fd5b34610288576020366003190112610288576004356000526003602052604060002080549060018060a01b038060018301541691613f5c6002820161421e565b90613fd6600382015460048301549460ff613f796005860161421e565b9160068601541696613fae60086007880154970154976040519b8c9b610140918d5260208d01528060408d01528b01906142e6565b9360608a0152818116151560808a015260081c16151560a088015286820360c08801526142e6565b9260e08501526101008401526101208301520390f35b3461028857602036600319011261028857600435600052600080516020614f628339815191526020526020600160406000200154604051908152f35b34610288576020366003190112610288576001600160a01b038061404a614145565b1660005260016020526040600020908154166140686001830161421e565b916140756002820161421e565b60ff6003830154169160048101546140bb60066005840154930154936140ad604051988998895260e060208a015260e08901906142e6565b9087820360408901526142e6565b9315156060860152608085015260a084015260c08301520390f35b3461028857600036600319011261028857602060405160648152f35b34610288576020366003190112610288576004359063ffffffff60e01b821680920361028857602091637965db0b60e01b8114908115614134575b5015158152f35b6301ffc9a760e01b1490508361412d565b600435906001600160a01b038216820361028857565b602435906001600160a01b038216820361028857565b90600182811c921680156141a1575b602083101461418b57565b634e487b7160e01b600052602260045260246000fd5b91607f1691614180565b606081019081106001600160401b0382111761176357604052565b61016081019081106001600160401b0382111761176357604052565b604081019081106001600160401b0382111761176357604052565b90601f801991011681019081106001600160401b0382111761176357604052565b9060405191826000825461423181614171565b908184526020946001916001811690816000146142a15750600114614262575b505050614260925003836141fd565b565b600090815285812095935091905b8183106142895750506142609350820101388080614251565b85548884018501529485019487945091830191614270565b9250505061426094925060ff191682840152151560051b820101388080614251565b60005b8381106142d65750506000910152565b81810151838201526020016142c6565b906020916142ff815180928185528580860191016142c3565b601f01601f1916010190565b6001600160401b03811161176357601f01601f191660200190565b9291926143328261430b565b9161434060405193846141fd565b829481845281830111610288578281602093846000960137010152565b9080601f830112156102885781602061437893359101614326565b90565b6004359063ffffffff8216820361028857565b80548210156143a65760005260206000200190600090565b634e487b7160e01b600052603260045260246000fd5b906006821015611f135752565b156143d057565b60405162461bcd60e51b815260206004820152601860248201527f56696f6c6174696f6e20646f6573206e6f7420657869737400000000000000006044820152606490fd5b818110614420575050565b60008155600101614415565b9190601f811161443b57505050565b614260926000526020600020906020601f840160051c83019310614467575b601f0160051c0190614415565b909150819061445a565b919082018092116124cc57565b1561448557565b60405162461bcd60e51b815260206004820152601d60248201527f496e76616c696420616464726573733a207a65726f20616464726573730000006044820152606490fd5b156144d157565b60405162461bcd60e51b8152602060048201526016602482015275537472696e672063616e6e6f7420626520656d70747960501b6044820152606490fd5b1561451657565b60405162461bcd60e51b815260206004820152601d60248201527f537472696e672065786365656473206d6178696d756d206c656e6774680000006044820152606490fd5b3d15614586573d9061456c8261430b565b9161457a60405193846141fd565b82523d6000602084013e565b606090565b1561459257565b60405162461bcd60e51b815260206004820152600f60248201526e151c985b9cd9995c8819985a5b1959608a1b6044820152606490fd5b6001600160401b0381116117635760051b60200190565b919082039182116124cc57565b80518210156143a65760209160051b010190565b9190604051838180955161461b81602098898096016142c3565b81016002815203019020916040519283848683549283815201600093845287842092845b8982821061472a57505050614656925003856141fd565b83518310156146ee575061466a9082614471565b9180518084116146e6575b5061468082846145e0565b9361468a856145c9565b9461469860405196876141fd565b8086526146a7601f19916145c9565b01903690860137815b8381106146be575050505090565b806146cb600192846145ed565b516146df6146d986846145e0565b886145ed565b52016146b0565b925038614675565b925050506040519182018281106001600160401b038211176147165760405280825236813790565b634e487b7160e01b82526041600452602482fd5b855484526001958601958a95509301920161463f565b60001981146124cc5760010190565b3360009081527fb16e88c42fd4e48df2dd6a2eabd6bc9aec654ec170056b470819f8892cc6431c60205260409020547fa49807205ce4d355092ef5a8a18f56e8913cf4a201fbe287825b095693c217759060ff161561257f5750565b3360009081527fb07fb87b1cd554e7358b5dae77c8d42967e3c82d05a404ddc81d6e55c63b924b60205260409020547fc6ad931175da1471673417ed857aec62a6cf3071baeff703ef4a5a1f95adb2319060ff161561257f5750565b80600052600080516020614f6283398151915260205260406000203360005260205260ff604060002054161561257f5750565b60ff600080516020614f82833981519152541661485357565b60405163d93c066560e01b8152600490fd5b6001600160a01b03166000818152600080516020614fe28339815191526020526040812054909190600080516020614f4283398151915290600080516020614f628339815191529060ff166148eb578184526020526040832082845260205260408320600160ff19825416179055600080516020614f22833981519152339380a4600190565b50505090565b6001600160a01b031660008181527fb7db2dd08fcb62d0c9e08c51941cae53c267786a0b75803fb7960902fc8ef97d6020526040812054909190600080516020614f628339815191529060ff1661497a578280526020526040822081835260205260408220600160ff198254161790553391600080516020614f228339815191528180a4600190565b505090565b6001600160a01b031660008181527fb16e88c42fd4e48df2dd6a2eabd6bc9aec654ec170056b470819f8892cc6431c60205260408120549091907fa49807205ce4d355092ef5a8a18f56e8913cf4a201fbe287825b095693c2177590600080516020614f628339815191529060ff166148eb578184526020526040832082845260205260408320600160ff19825416179055600080516020614f22833981519152339380a4600190565b6001600160a01b031660008181527fb07fb87b1cd554e7358b5dae77c8d42967e3c82d05a404ddc81d6e55c63b924b60205260408120549091907fc6ad931175da1471673417ed857aec62a6cf3071baeff703ef4a5a1f95adb23190600080516020614f628339815191529060ff166148eb578184526020526040832082845260205260408320600160ff19825416179055600080516020614f22833981519152339380a4600190565b6001600160a01b031660008181527fe0e83ae579c3cd41eff3b0091b4af6ac7c2d22811e06e4c4497afe060618d19f60205260408120549091907f9c4e6fd68fbdec6e3075ec7bfba710532af019aea93f5f59ebfe5a9d1a0b894e90600080516020614f628339815191529060ff166148eb578184526020526040832082845260205260408320600160ff19825416179055600080516020614f22833981519152339380a4600190565b6001600160a01b031660008181527f1069ffe2b90bfd470f40f3bf820141bb4d4b475d03084db5dcfb8152047badf760205260408120549091907fe1dcbdb91df27212a29bc27177c840cf2f819ecf2187432e1fac86c2dd5dfca990600080516020614f628339815191529060ff166148eb578184526020526040832082845260205260408320600160ff19825416179055600080516020614f22833981519152339380a4600190565b6001600160a01b031660008181527fab71e3f32666744d246edff3f96e4bdafee2e9867098cdd118a979a7464786a860205260408120549091907f189ab7a9244df0848122154315af71fe140f3db0fe014031783b0946b8c9d2e390600080516020614f628339815191529060ff166148eb578184526020526040832082845260205260408320600160ff19825416179055600080516020614f22833981519152339380a4600190565b90600091808352600080516020614f6283398151915280602052604084209260018060a01b03169283855260205260ff604085205416156000146148eb578184526020526040832082845260205260408320600160ff19825416179055600080516020614f22833981519152339380a4600190565b6001600160a01b03166000818152600080516020614fe28339815191526020526040812054909190600080516020614f4283398151915290600080516020614f628339815191529060ff16156148eb57818452602052604083208284526020526040832060ff1981541690557ff6391f5c32d9c69d2a47ea670b442974b53935d1edc7fd64eb21e047a839171b339380a4600190565b90600091808352600080516020614f6283398151915280602052604084209260018060a01b03169283855260205260ff6040852054166000146148eb57818452602052604083208284526020526040832060ff1981541690557ff6391f5c32d9c69d2a47ea670b442974b53935d1edc7fd64eb21e047a839171b339380a4600190565b600080516020614fa28339815191526002815414614e7d5760029055565b604051633ee5aeb560e01b8152600490fd5b60ff600080516020614fc28339815191525460401c1615614eac57565b604051631afcd79f60e31b8152600490fd5b90614ee55750805115614ed357602081519101fd5b60405163d6bda27560e01b8152600490fd5b81511580614f18575b614ef6575090565b604051639996b31560e01b81526001600160a01b039091166004820152602490fd5b50803b15614eee56fe2f8788117e7eff1d82e926ec794901d17c78024a50270940304540a733656f0dbbecb2568601cb27e6ced525237c463da94c4fb7a9b98ac79fd30fd56d8e1b5302dd7bc7dec4dceedda775e58dd541e08a116c6c53815c0bd028192f7b626800cd5ed15c6e187e77e9aee88184c21f4f2182ab5827cb3b7e07fbedcd63f033009b779b17422d0df92223018b32b4d1fa46e071723d6817e2486d003becc55f00f0c57e16840df040f15088dc2f81fe391c3923bec73e23a9662efc9c229c6a00d01d7a4ffbb09158f8f4ac550ea2213c8b479ec297195d21b762cef7d140c67aa2646970667358221220402fdd6cb102a1f439bad269af95a31c7eb09705f362113f531f174a076c35b564736f6c63430008160033",
  "linkReferences": {},
  "deployedLinkReferences": {}
}