{
  "_format": "hh-sol-artifact-1",
  "contractName": "TrafficEnforcement",
  "sourceName": "contracts/TrafficEnforcement.sol",
  "abi": [
    {
      "inputs": [],
      "stateMutability": "nonpayable",
      "type": "constructor"
    },
    {
      "anonymous": false,
      "inputs": [
        {
          "indexed": true,
          "internalType": "bytes32",
          "name": "violationId",
          "type": "bytes32"
        },
        {
          "indexed": false,
          "internalType": "bool",
          "name": "waived",
          "type": "bool"
        },
        {
          "indexed": false,
          "internalType": "string",
          "name": "judgeNotes",
          "type": "string"
        }
      ],
      "name": "AppealResolved",
      "type": "event"
    },
    {
      "anonymous": false,
      "inputs": [
        {
          "indexed": true,
          "internalType": "bytes32",
          "name": "violationId",
          "type": "bytes32"
        },
        {
          "indexed": true,
          "internalType": "address",
          "name": "driverId",
          "type": "address"
        },
        {
          "indexed": false,
          "internalType": "string",
          "name": "reason",
          "type": "string"
        }
      ],
      "name": "AppealSubmitted",
      "type": "event"
    },
    {
      "anonymous": false,
      "inputs": [
        {
          "indexed": true,
          "internalType": "bytes32",
          "name": "violationId",
          "type": "bytes32"
        },
        {
          "indexed": true,
          "internalType": "address",
          "name": "driverId",
          "type": "address"
        },
        {
          "indexed": false,
          "internalType": "uint256",
          "name": "amount",
          "type": "uint256"
        }
      ],
      "name": "FinePaid",
      "type": "event"
    },
    {
      "anonymous": false,
      "inputs": [
        {
          "indexed": true,
          "internalType": "bytes32",
          "name": "violationId",
          "type": "bytes32"
        },
        {
          "indexed": false,
          "internalType": "string",
          "name": "reason",
          "type": "string"
        }
      ],
      "name": "FineWaived",
      "type": "event"
    },
    {
      "anonymous": false,
      "inputs": [
        {
          "indexed": true,
          "internalType": "address",
          "name": "officerId",
          "type": "address"
        },
        {
          "indexed": false,
          "internalType": "string",
          "name": "name",
          "type": "string"
        },
        {
          "indexed": false,
          "internalType": "string",
          "name": "badgeNumber",
          "type": "string"
        }
      ],
      "name": "OfficerRegistered",
      "type": "event"
    },
    {
      "anonymous": false,
      "inputs": [
        {
          "indexed": true,
          "internalType": "bytes32",
          "name": "violationId",
          "type": "bytes32"
        },
        {
          "indexed": false,
          "internalType": "string",
          "name": "vehicleId",
          "type": "string"
        },
        {
          "indexed": false,
          "internalType": "uint256",
          "name": "offenseCode",
          "type": "uint256"
        },
        {
          "indexed": false,
          "internalType": "uint256",
          "name": "fineAmount",
          "type": "uint256"
        }
      ],
      "name": "ViolationLogged",
      "type": "event"
    },
    {
      "stateMutability": "payable",
      "type": "fallback"
    },
    {
      "inputs": [],
      "name": "admin",
      "outputs": [
        {
          "internalType": "address",
          "name": "",
          "type": "address"
        }
      ],
      "stateMutability": "view",
      "type": "function"
    },
    {
      "inputs": [
        {
          "internalType": "bytes32",
          "name": "",
          "type": "bytes32"
        }
      ],
      "name": "appeals",
      "outputs": [
        {
          "internalType": "bytes32",
          "name": "violationId",
          "type": "bytes32"
        },
        {
          "internalType": "address",
          "name": "driverId",
          "type": "address"
        },
        {
          "internalType": "string",
          "name": "appealReason",
          "type": "string"
        },
        {
          "internalType": "uint256",
          "name": "appealTime",
          "type": "uint256"
        },
        {
          "internalType": "bool",
          "name": "resolved",
          "type": "bool"
        },
        {
          "internalType": "bool",
          "name": "waived",
          "type": "bool"
        },
        {
          "internalType": "string",
          "name": "judgeNotes",
          "type": "string"
        }
      ],
      "stateMutability": "view",
      "type": "function"
    },
    {
      "inputs": [
        {
          "internalType": "address",
          "name": "officerId",
          "type": "address"
        }
      ],
      "name": "deregisterOfficer",
      "outputs": [],
      "stateMutability": "nonpayable",
      "type": "function"
    },
    {
      "inputs": [
        {
          "internalType": "bytes32",
          "name": "violationId",
          "type": "bytes32"
        }
      ],
      "name": "getAppeal",
      "outputs": [
        {
          "components": [
            {
              "internalType": "bytes32",
              "name": "violationId",
              "type": "bytes32"
            },
            {
              "internalType": "address",
              "name": "driverId",
              "type": "address"
            },
            {
              "internalType": "string",
              "name": "appealReason",
              "type": "string"
            },
            {
              "internalType": "uint256",
              "name": "appealTime",
              "type": "uint256"
            },
            {
              "internalType": "bool",
              "name": "resolved",
              "type": "bool"
            },
            {
              "internalType": "bool",
              "name": "waived",
              "type": "bool"
            },
            {
              "internalType": "string",
              "name": "judgeNotes",
              "type": "string"
            }
          ],
          "internalType": "struct TrafficEnforcement.Appeal",
          "name": "",
          "type": "tuple"
        }
      ],
      "stateMutability": "view",
      "type": "function"
    },
    {
      "inputs": [],
      "name": "getContractBalance",
      "outputs": [
        {
          "internalType": "uint256",
          "name": "",
          "type": "uint256"
        }
      ],
      "stateMutability": "view",
      "type": "function"
    },
    {
      "inputs": [],
      "name": "getTotalFinesPaid",
      "outputs": [
        {
          "internalType": "uint256",
          "name": "",
          "type": "uint256"
        }
      ],
      "stateMutability": "view",
      "type": "function"
    },
    {
      "inputs": [],
      "name": "getTotalViolations",
      "outputs": [
        {
          "internalType": "uint256",
          "name": "",
          "type": "uint256"
        }
      ],
      "stateMutability": "view",
      "type": "function"
    },
    {
      "inputs": [
        {
          "internalType": "string",
          "name": "vehicleId",
          "type": "string"
        }
      ],
      "name": "getVehicleViolationCount",
      "outputs": [
        {
          "internalType": "uint256",
          "name": "",
          "type": "uint256"
        }
      ],
      "stateMutability": "view",
      "type": "function"
    },
    {
      "inputs": [
        {
          "internalType": "string",
          "name": "vehicleId",
          "type": "string"
        }
      ],
      "name": "getVehicleViolations",
      "outputs": [
        {
          "internalType": "bytes32[]",
          "name": "",
          "type": "bytes32[]"
        }
      ],
      "stateMutability": "view",
      "type": "function"
    },
    {
      "inputs": [
        {
          "internalType": "bytes32",
          "name": "violationId",
          "type": "bytes32"
        }
      ],
      "name": "getViolation",
      "outputs": [
        {
          "components": [
            {
              "internalType": "bytes32",
              "name": "violationId",
              "type": "bytes32"
            },
            {
              "internalType": "string",
              "name": "vehicleId",
              "type": "string"
            },
            {
              "internalType": "address",
              "name": "officerId",
              "type": "address"
            },
            {
              "internalType": "uint256",
              "name": "offenseCode",
              "type": "uint256"
            },
            {
              "internalType": "string",
              "name": "evidenceHash",
              "type": "string"
            },
            {
              "internalType": "uint256",
              "name": "timestamp",
              "type": "uint256"
            },
            {
              "internalType": "uint256",
              "name": "fineAmount",
              "type": "uint256"
            },
            {
              "internalType": "enum TrafficEnforcement.ViolationStatus",
              "name": "status",
              "type": "uint8"
            },
            {
              "internalType": "address",
              "name": "driverId",
              "type": "address"
            },
            {
              "internalType": "string",
              "name": "offenseName",
              "type": "string"
            }
          ],
          "internalType": "struct TrafficEnforcement.Violation",
          "name": "",
          "type": "tuple"
        }
      ],
      "stateMutability": "view",
      "type": "function"
    },
    {
      "inputs": [
        {
          "internalType": "address",
          "name": "officerId",
          "type": "address"
        }
      ],
      "name": "isOfficerRegistered",
      "outputs": [
        {
          "internalType": "bool",
          "name": "",
          "type": "bool"
        }
      ],
      "stateMutability": "view",
      "type": "function"
    },
    {
      "inputs": [
        {
          "internalType": "string",
          "name": "vehicleId",
          "type": "string"
        },
        {
          "internalType": "uint256",
          "name": "offenseCode",
          "type": "uint256"
        },
        {
          "internalType": "string",
          "name": "evidenceHash",
          "type": "string"
        },
        {
          "internalType": "address",
          "name": "driverId",
          "type": "address"
        }
      ],
      "name": "logViolation",
      "outputs": [
        {
          "internalType": "bytes32",
          "name": "",
          "type": "bytes32"
        }
      ],
      "stateMutability": "nonpayable",
      "type": "function"
    },
    {
      "inputs": [
        {
          "internalType": "uint256",
          "name": "",
          "type": "uint256"
        }
      ],
      "name": "offenseFines",
      "outputs": [
        {
          "internalType": "uint256",
          "name": "",
          "type": "uint256"
        }
      ],
      "stateMutability": "view",
      "type": "function"
    },
    {
      "inputs": [
        {
          "internalType": "uint256",
          "name": "",
          "type": "uint256"
        }
      ],
      "name": "offenseNames",
      "outputs": [
        {
          "internalType": "string",
          "name": "",
          "type": "string"
        }
      ],
      "stateMutability": "view",
      "type": "function"
    },
    {
      "inputs": [
        {
          "internalType": "address",
          "name": "",
          "type": "address"
        }
      ],
      "name": "officers",
      "outputs": [
        {
          "internalType": "address",
          "name": "officerId",
          "type": "address"
        },
        {
          "internalType": "string",
          "name": "name",
          "type": "string"
        },
        {
          "internalType": "string",
          "name": "badgeNumber",
          "type": "string"
        },
        {
          "internalType": "bool",
          "name": "isRegistered",
          "type": "bool"
        },
        {
          "internalType": "uint256",
          "name": "registrationTime",
          "type": "uint256"
        }
      ],
      "stateMutability": "view",
      "type": "function"
    },
    {
      "inputs": [
        {
          "internalType": "bytes32",
          "name": "violationId",
          "type": "bytes32"
        }
      ],
      "name": "payFine",
      "outputs": [],
      "stateMutability": "payable",
      "type": "function"
    },
    {
      "inputs": [
        {
          "internalType": "address",
          "name": "officerId",
          "type": "address"
        },
        {
          "internalType": "string",
          "name": "name",
          "type": "string"
        },
        {
          "internalType": "string",
          "name": "badgeNumber",
          "type": "string"
        }
      ],
      "name": "registerOfficer",
      "outputs": [],
      "stateMutability": "nonpayable",
      "type": "function"
    },
    {
      "inputs": [
        {
          "internalType": "bytes32",
          "name": "violationId",
          "type": "bytes32"
        },
        {
          "internalType": "bool",
          "name": "waiveFine",
          "type": "bool"
        },
        {
          "internalType": "string",
          "name": "judgeNotes",
          "type": "string"
        }
      ],
      "name": "resolveAppeal",
      "outputs": [],
      "stateMutability": "nonpayable",
      "type": "function"
    },
    {
      "inputs": [
        {
          "internalType": "bytes32",
          "name": "violationId",
          "type": "bytes32"
        },
        {
          "internalType": "string",
          "name": "appealReason",
          "type": "string"
        }
      ],
      "name": "submitAppeal",
      "outputs": [],
      "stateMutability": "nonpayable",
      "type": "function"
    },
    {
      "inputs": [],
      "name": "totalFinesPaid",
      "outputs": [
        {
          "internalType": "uint256",
          "name": "",
          "type": "uint256"
        }
      ],
      "stateMutability": "view",
      "type": "function"
    },
    {
      "inputs": [],
      "name": "totalViolations",
      "outputs": [
        {
          "internalType": "uint256",
          "name": "",
          "type": "uint256"
        }
      ],
      "stateMutability": "view",
      "type": "function"
    },
    {
      "inputs": [
        {
          "internalType": "string",
          "name": "",
          "type": "string"
        },
        {
          "internalType": "uint256",
          "name": "",
          "type": "uint256"
        }
      ],
      "name": "vehicleViolations",
      "outputs": [
        {
          "internalType": "bytes32",
          "name": "",
          "type": "bytes32"
        }
      ],
      "stateMutability": "view",
      "type": "function"
    },
    {
      "inputs": [
        {
          "internalType": "bytes32",
          "name": "",
          "type": "bytes32"
        }
      ],
      "name": "violations",
      "outputs": [
        {
          "internalType": "bytes32",
          "name": "violationId",
          "type": "bytes32"
        },
        {
          "internalType": "string",
          "name": "vehicleId",
          "type": "string"
        },
        {
          "internalType": "address",
          "name": "officerId",
          "type": "address"
        },
        {
          "internalType": "uint256",
          "name": "offenseCode",
          "type": "uint256"
        },
        {
          "internalType": "string",
          "name": "evidenceHash",
          "type": "string"
        },
        {
          "internalType": "uint256",
          "name": "timestamp",
          "type": "uint256"
        },
        {
          "internalType": "uint256",
          "name": "fineAmount",
          "type": "uint256"
        },
        {
          "internalType": "enum TrafficEnforcement.ViolationStatus",
          "name": "status",
          "type": "uint8"
        },
        {
          "internalType": "address",
          "name": "driverId",
          "type": "address"
        },
        {
          "internalType": "string",
          "name": "offenseName",
          "type": "string"
        }
      ],
      "stateMutability": "view",
      "type": "function"
    },
    {
      "inputs": [
        {
          "internalType": "uint256",
          "name": "amount",
          "type": "uint256"
        }
      ],
      "name": "withdrawFunds",
      "outputs": [],
      "stateMutability": "nonpayable",
      "type": "function"
    },
    {
      "stateMutability": "payable",
      "type": "receive"
    }
  ],
  "bytecode": "0x604060808152346200051757600080546001600160a01b03191633178155600180825260076020818152848420849055600880825285852080546b20636572746966696361746560a01b969394919062000065906200005e906200051c565b8262000559565b60367f5370656564696e6720312d35206b7068206f766572206c696d697400000000000190556002835280845264746a528800908188852055828552878420620000b46200005e82546200051c565b60387f5370656564696e6720362d3130206b7068206f766572206c696d697400000000019055600384528085526502ba7def30008089862055838652888520620001036200005e82546200051c565b603a7f5370656564696e672031312d3135206b7068206f766572206c696d6974000000019055600485528186526509184e72a00092838a872055848752898620620001536200005e82546200051c565b603a7f5370656564696e672031362d3230206b7068206f766572206c696d697400000001905560058652828752898620558386528885206200019a6200005e82546200051c565b60307f4661696c75726520746f2077656172207365617462656c740000000000000000019055600685528186528089862055838652888520620001e26200005e82546200051c565b603a7f44726976696e6720776974686f75742076616c6964206c6963656e73650000000190558185528186528089862055838652888520620002296200005e82546200051c565b603a7f4661696c75726520746f206f6265792074726166666963207369676e7300000001905583855281865265048c27395000808a8720558487528986206200027e6200027782546200051c565b8262000595565b604f815586526620706f6c69636560c81b888888207f4661696c75726520746f2073746f70207768656e207369676e616c65642062798155015560098652828752838a872055848752898620620002e1620002da82546200051c565b82620005d4565b6041815586527f43617573696e67206f62737472756374696f6e20776974682076656869636c6587872055600a8652828752898620558386528885206200032d6200027782546200051c565b605381558552686e2077616c6b77617960b81b878787207f44726976696e67206f6e20706176656d656e74206f722070656465737472696181550155600b855281865282898620558386528885206200038b6200027782546200051c565b604b81558552646c6174657360d81b878787207f44726976696e6720776974686f7574206964656e74696669636174696f6e207081550155600c855281865264e8d4a5100089862055838652888520620003ea6200027782546200051c565b6067815585527f652070696c6c696f6e2070617373656e67657200000000000000000000000000878787207f4d6f746f726379636c65206361727279696e67206d6f7265207468616e206f6e81550155600d8552818652888520558285528784206200045b6200005e82546200051c565b600e66546f7574696e6760c81b019055600e84528085526501d1a94a20008885205582855287842062000493620002da82546200051c565b6041815584527f5573696e67206d6f62696c652070686f6e65207768696c652064726976696e6785852055600f84528452868320558252848120620004dd6200027782546200051c565b605981558152207f44726976696e6720776974686f75742076616c696420696e7370656374696f6e81550155516124729081620006168239f35b600080fd5b90600182811c921680156200054e575b60208310146200053857565b634e487b7160e01b600052602260045260246000fd5b91607f16916200052c565b601f821162000566575050565b600090600052601f6020600020920160051c8201915b8281106200058957505050565b8181556001016200057c565b601f8211620005a2575050565b6000906000526002601f6020600020930160051c830192015b828110620005c857505050565b818155600101620005bb565b601f8211620005e1575050565b6000906000526020600020906001601f81940160051c830192015b8281106200060a5750505050565b8181558301620005fc56fe60806040526004361015610018575b361561001657005b005b60003560e01c8063084866dd1461208f5780630cb18096146118df578063155dd5ee146118475780632181f4ff146117a057806328cdc028146116fd5780632e75fcd1146113fd5780634803107714610ef357806349e6368b14610c885780634f76ae4b14610eb15780635d9cb8b11461067657806360055e7414610d855780636124a5a414610d3c5780636f9fb98a14610d205780637310e88514610ca65780637d74bdaa14610c885780638dd70f6514610bb15780639157b41514610b71578063a95c66481461098f578063bb019f7d146108a9578063c345a74c146106c0578063d5242d8214610694578063d6fd623914610676578063e8b9fd7b146101535763f851a4400361000e573461014e57600036600319011261014e576000546040516001600160a01b039091168152602090f35b600080fd5b3461014e57604036600319011261014e576024356001600160401b03811161014e576101839036906004016122bd565b60043560005260016020526101a160056040600020015415156123a4565b60043560005260016020526007604060002001805460ff81166005811015610660578015908115610655575b501561061057600881901c6001600160a01b031633036105cb5782511561058657600290600435600052600460205261021160ff60046040600020015416156123f0565b60ff19161790556040519061022582612194565b600435825233602083015280604083015242606083015260006080830152600060a08301526040518060208101106001600160401b036020830111176104a957602081016040526000815260c083015260043560005260046020526040600020825181556001810160018060a01b036020850151166001600160601b0360a01b82541617905560408301518051906001600160401b0382116104a9576102ce600284015461213e565b601f811161053f575b50602090601f83116001146104ca57918060c094926005946000926104bf575b50508160011b916000199060031b1c19161760028201555b606085015160038201556103576004820161033c60808801511515829060ff801983541691151516179055565b60a0870151815461ff00191690151560081b61ff0016179055565b019201519182516001600160401b0381116104a957610376825461213e565b601f8111610461575b506020601f82116001146103fb57819293946000926103f0575b50508160011b916000199060031b1c19161790555b60405190602082527f4db460638e10f96770c2aa1f83a1118ab50350e5585a645f42d2ca04d5574e713392806103eb600435946020830190612298565b0390a3005b015190508480610399565b601f198216908360005260206000209160005b81811061044957509583600195969710610430575b505050811b0190556103ae565b015160001960f88460031b161c19169055848080610423565b9192602060018192868b01518155019401920161040e565b826000526020600020601f830160051c8101916020841061049f575b601f0160051c01905b818110610493575061037f565b60008155600101610486565b909150819061047d565b634e487b7160e01b600052604160045260246000fd5b0151905087806102f7565b906002840160005260206000209160005b601f198516811061052757509260c0949260019260059583601f1981161061050e575b505050811b01600282015561030f565b015160001960f88460031b161c191690558780806104fe565b919260206001819286850151815501940192016104db565b600284016000526020600020601f840160051c81016020851061057f575b601f830160051c820181106105735750506102d7565b6000815560010161055d565b508061055d565b60405162461bcd60e51b815260206004820152601d60248201527f41707065616c20726561736f6e2063616e6e6f7420626520656d7074790000006044820152606490fd5b60405162461bcd60e51b815260206004820152601a60248201527f4f6e6c7920746865206472697665722063616e2061707065616c0000000000006044820152606490fd5b60405162461bcd60e51b815260206004820152601c60248201527f43616e6e6f742061707065616c20746869732076696f6c6174696f6e000000006044820152606490fd5b6001915014846101cd565b634e487b7160e01b600052602160045260246000fd5b3461014e57600036600319011261014e576020600554604051908152f35b3461014e57602036600319011261014e5760043560005260076020526020604060002054604051908152f35b60208060031936011261014e5760043580600052600182526106eb60056040600020015415156123a4565b80600052600182526040600020600781019081549060ff8216600581101561066057610864576006019182549182341061082857600881901c6001600160a01b031633036107d95760ff191660011790556006549081019081106107c3576006558054803411610785575b505460405190815233927f4968e19fd49d27ef126400fd881e1c88b7c6cd35c3cc4bf17b1b4b0ff6a3ba3f91a3005b803403903482116107c35760008080938193829034146107ba575b3390f1156107ae5783610756565b6040513d6000823e3d90fd5b506108fc6107a0565b634e487b7160e01b600052601160045260246000fd5b60405162461bcd60e51b815260048101879052602160248201527f4f6e6c7920746865206472697665722063616e2070617920746869732066696e6044820152606560f81b6064820152608490fd5b60405162461bcd60e51b8152600481018790526014602482015273125b9cdd59999a58da595b9d081c185e5b595b9d60621b6044820152606490fd5b60405162461bcd60e51b815260048101869052601760248201527f56696f6c6174696f6e206973206e6f7420756e706169640000000000000000006044820152606490fd5b3461014e57602036600319011261014e5760043560005260016020526040600020805461098b6108db600184016121d0565b6002840154600385015491946001600160a01b03918216929190610901600482016121d0565b6109586005830154956006840154926109216008600787015496016121d0565b966109406040519c8d809d6020610140928392815201528d0190612298565b9260408c015260608b015289820360808b0152612298565b9460a088015260c087015261097360e0870160ff8316612341565b60081c16610100850152838203610120850152612298565b0390f35b3461014e57602036600319011261014e5760043560606101206040516109b481612178565b6000815282602082015260006040820152600083820152826080820152600060a0820152600060c0820152600060e082015260006101008201520152806000526001602052610a0c60056040600020015415156123a4565b60005260016020526040600020604051610a2581612178565b81548152610a35600183016121d0565b602082015260028201546001600160a01b0316604082015260038201546060820152610a63600483016121d0565b6080820152600582015460a0820152600682015460c0820152600782015460ff811660058110156106605760e0830152600890811c6001600160a01b031661010083015261098b92610ab591016121d0565b61012082015260405191829160208352805160208401526020810151610ae961014091826040870152610160860190612298565b9060018060a01b03604084015116606086015260608301516080860152610120610b25608085015193601f1994858983030160a08a0152612298565b9360a081015160c088015260c081015160e0880152610b4d60e0820151610100890190612341565b6101008101516001600160a01b031687830152015185840390920190850152612298565b3461014e57602036600319011261014e57600435600052600860205261098b610b9d60406000206121d0565b604051918291602083526020830190612298565b3461014e5760208060031936011261014e576004356001600160401b03811161014e5781610be6610bf99236906004016122bd565b8160405193828580945193849201612275565b8101600381520301902060405190818382549182815201908192600052846000209060005b86828210610c74578686610c34828803836121af565b604051928392818401908285525180915260408401929160005b828110610c5d57505050500390f35b835185528695509381019392810192600101610c4e565b835485529093019260019283019201610c1e565b3461014e57600036600319011261014e576020600654604051908152f35b3461014e57604036600319011261014e576004356001600160401b03811161014e57610cd69036906004016122bd565b610cf26020602435928160405193828580945193849201612275565b81016003815203019020805482101561014e57602091610d1191612313565b90549060031b1c604051908152f35b3461014e57600036600319011261014e57602047604051908152f35b3461014e57602036600319011261014e576004356001600160401b03811161014e57610d726020610be6819336906004016122bd565b8101600381520301902054604051908152f35b3461014e5760208060031936011261014e57606060c0604051610da781612194565b6000815260008482015282604082015260008382015260006080820152600060a0820152015260043560005260048152604060002061098b60405191610dec83612194565b8054835260018101546001600160a01b0390811685850190815290610e13600284016121d0565b9260408601938452610e8860038201549460608801958652600483015493610e58600560808b019560ff88161515875260ff60a08d019860081c1615158852016121d0565b9560c08a019687526040519a8b9a818c5251908b0152511660408901525160e06060890152610100880190612298565b9351608087015251151560a086015251151560c085015251838203601f190160e0850152612298565b3461014e57602036600319011261014e576001600160a01b03610ed2612128565b166000526002602052602060ff600360406000200154166040519015158152f35b3461014e57606036600319011261014e57610f0c612128565b6024356001600160401b03811161014e57610f2b9036906004016122bd565b6044356001600160401b03811161014e57610f4a9036906004016122bd565b9160018060a01b03610f618160005416331461234e565b808216156113b8578251156113735783511561132e57808216600052600260205260ff600360406000200154166112e95760405160a081018181106001600160401b038211176104a95760405281831681526020810190848252856040820152600160608201524260808201528284166000526002602052604060002091838251166001600160601b0360a01b845416178355518051906001600160401b0382116104a9578190611015600186015461213e565b601f8111611296575b50602090601f831160011461122457600092611219575b50508160011b916000199060031b1c19161760018301555b60408101518051906001600160401b0382116104a957611070600285015461213e565b601f81116111d2575b50602090601f83116001146111345760806111149794847f753062c03d21ca1efd0a5025d5c15f2150e4dbe33fc24f1ec7caefe1918587779a98956111249895600495600092611129575b50508160011b916000199060031b1c19161760028501555b6110fb60608201511515600386019060ff801983541691151516179055565b0151910155604051948594604086526040860190612298565b9184830360208601521695612298565b0390a2005b015190508d806110c4565b90601f198316916002860160005260206000209260005b8181106111ba57509460018561112498956004956080957f753062c03d21ca1efd0a5025d5c15f2150e4dbe33fc24f1ec7caefe1918587779e9c996111149e9b106111a1575b505050811b0160028501556110dc565b015160001960f88460031b161c191690558d8080611191565b9293602060018192878601518155019501930161114b565b600285016000526020600020601f840160051c810160208510611212575b601f830160051c82018110611206575050611079565b600081556001016111f0565b50806111f0565b015190508880611035565b9250600185016000526020600020906000935b601f198416851061127b576001945083601f19811610611262575b505050811b01600183015561104d565b015160001960f88460031b161c19169055888080611252565b81810151835560209485019460019093019290910190611237565b909150600185016000526020600020601f840160051c8101602085106112e2575b90849392915b601f830160051c820181106112d357505061101e565b600081558594506001016112bd565b50806112b7565b60405162461bcd60e51b815260206004820152601a60248201527f4f66666963657220616c726561647920726567697374657265640000000000006044820152606490fd5b60405162461bcd60e51b815260206004820152601c60248201527f4261646765206e756d6265722063616e6e6f7420626520656d707479000000006044820152606490fd5b60405162461bcd60e51b815260206004820152601c60248201527f4f666669636572206e616d652063616e6e6f7420626520656d707479000000006044820152606490fd5b60405162461bcd60e51b815260206004820152601760248201527f496e76616c6964206f66666963657220616464726573730000000000000000006044820152606490fd5b3461014e57606036600319011261014e57600435602435908115159182810361014e576001600160401b039260443584811161014e576114419036906004016122bd565b9361145760018060a01b0360005416331461234e565b83600052600160209381855261147660056040600020015415156123a4565b8560005281855260ff600760406000200154166005811015610660576002036116c45785600052600485526114b660ff60046040600020015416156123f0565b600086815260048087526040909120908101805461ff0019851661ffff199091161783151560081b61ff001617905560ff1993906005019088519081116104a957611501825461213e565b601f811161167b575b5086601f82116001146115f15791816111249694927fe015977a99b1764bc307021896f7e9f38e075ead97d3be81d4fda7a513beb97f9a9b96946000916115e6575b50600019600383901b1c191690841b1790555b156115ca578760005285526003600760406000200191825416179055857f6f1c4ec5424c7b63e8d179403dbc4be840617e548f7b1d7ff996642e376b92f0604051868152806115b088820186612298565b0390a25b6040805194859485528401526040830190612298565b87600052855260046007604060002001918254161790556115b4565b90508601518c61154c565b601f1982169083600052886000209160005b8181106116665750928694927fe015977a99b1764bc307021896f7e9f38e075ead97d3be81d4fda7a513beb97f9b9c9792826111249a98961061164d575b5050811b01905561155f565b88015160001960f88460031b161c191690558c80611641565b8c830151845592870192918a01918a01611603565b8260005287600020601f830160051c8101918984106116ba575b601f0160051c019085905b8281106116ae57505061150a565b600081550185906116a0565b9091508190611695565b60405162461bcd60e51b8152600481018690526011602482015270139bc81c195b991a5b99c8185c1c19585b607a1b6044820152606490fd5b3461014e57602036600319011261014e5760043560005260046020526040600020805461098b60018060a01b036001840154169261173d600282016121d0565b60ff6003830154926117786117596005600484015493016121d0565b936040519889988952602089015260e0604089015260e0880190612298565b9360608701528181161515608087015260081c16151560a085015283820360c0850152612298565b3461014e57602036600319011261014e576117b9612128565b6000546001600160a01b0391906117d3908316331461234e565b1680600052600260205260ff6003604060002001541615611809576000908152600260205260409020600301805460ff19169055005b60405162461bcd60e51b815260206004820152601660248201527513d9999a58d95c881b9bdd081c9959da5cdd195c995960521b6044820152606490fd5b3461014e57602036600319011261014e57600054600435906001600160a01b031661187333821461234e565b47821161189a5760008080938193828215611891575bf1156107ae57005b506108fc611889565b60405162461bcd60e51b815260206004820152601d60248201527f496e73756666696369656e7420636f6e74726163742062616c616e63650000006044820152606490fd5b3461014e57608036600319011261014e576004356001600160401b03811161014e5761190f9036906004016122bd565b604480356001600160401b03811161014e5761192f9036906004016122bd565b60648035926001600160a01b038416840361014e5733600052600260205260ff600360406000200154161561203557845115611ff457602435600052600760205260406000205415801590611fe8575b15611fb057825115611f6f576001600160a01b03841615611f35575050611a5560405160208101906119e460748288516119bd818760208d01612275565b81013360601b602082015242603482015260243560548201520360548101845201826121af565b51902092602435600052600760205260406000205490600860205260406000209160405194611a1286612178565b86865260208601889052336040870152602435606087015260808601524260a086015260c0850152600060e08501526001600160a01b03166101008401526121d0565b6101208201528160005260016020526040600020908051825560208101518051906001600160401b0382116104a9578190611a93600186015461213e565b601f8111611ee2575b50602090601f8311600114611e7057600092611e65575b50508160011b916000199060031b1c19161760018301555b6002820160018060a01b036040830151166001600160601b0360a01b8254161790556060810151600383015560808101518051906001600160401b0382116104a9578190611b1c600486015461213e565b601f8111611e12575b50602090601f8311600114611da057600092611d95575b50508160011b916000199060031b1c19161760048301555b60a0810151600583015560c08101516006830155600782019060e08101519160058310156106605761012092815460ff610100600160a81b0361010086015160081b169216906affffffffffffffffffffff60a81b161717905501518051906001600160401b0382116104a957611bce600884015461213e565b601f8111611d4e575b50602090601f8311600114611ce0576008929160009183611cd5575b50508160011b916000199060031b1c1916179101555b6040516020818451611c1e8183858901612275565b810160038152030190208054680100000000000000008110156104a957611c4a91600182018155612313565b9080549160031b600019928385831b921b19161790556005549081146107c3577f497c50dc0a25ed1596e008d7a210d78bc87bc67e77feaa12c6ccf23769d28006611cbd602094600185940160055560243560005260078652604060002054604051928392606084526060840190612298565b906024358884015260408301520390a2604051908152f35b015190508680611bf3565b90601f198316916008850160005260206000209260005b818110611d3657509160019391856008969410611d1d575b505050811b01910155611c09565b015160001960f88460031b161c19169055868080611d0f565b92936020600181928786015181550195019301611cf7565b600884016000526020600020601f840160051c810160208510611d8e575b601f830160051c82018110611d82575050611bd7565b60008155600101611d6c565b5080611d6c565b015190508680611b3c565b9250600485016000526020600020906000935b601f1984168510611df7576001945083601f19811610611dde575b505050811b016004830155611b54565b015160001960f88460031b161c19169055868080611dce565b81810151835560209485019460019093019290910190611db3565b909150600485016000526020600020601f840160051c810160208510611e5e575b90849392915b601f830160051c82018110611e4f575050611b25565b60008155859450600101611e39565b5080611e33565b015190508680611ab3565b9250600185016000526020600020906000935b601f1984168510611ec7576001945083601f19811610611eae575b505050811b016001830155611acb565b015160001960f88460031b161c19169055868080611e9e565b81810151835560209485019460019093019290910190611e83565b909150600185016000526020600020601f840160051c810160208510611f2e575b90849392915b601f830160051c82018110611f1f575050611a9c565b60008155859450600101611f09565b5080611f03565b75496e76616c696420647269766572206164647265737360501b6040519162461bcd60e51b83526020600484015260166024840152820152fd5b7f45766964656e636520686173682063616e6e6f7420626520656d7074790000006040519162461bcd60e51b835260206004840152601d6024840152820152fd5b73496e76616c6964206f6666656e736520636f646560601b6040519162461bcd60e51b83526020600484015260146024840152820152fd5b5060016024351461197f565b7f56656869636c652049442063616e6e6f7420626520656d7074790000000000006040519162461bcd60e51b835260206004840152601a6024840152820152fd5b6e36103a3434b990333ab731ba34b7b760891b6084927f4f6e6c792072656769737465726564206f666669636572732063616e2063616c6040519362461bcd60e51b855260206004860152602f6024860152840152820152fd5b3461014e57602036600319011261014e576001600160a01b03806120b1612128565b1660005260026020526040600020908154166120cf600183016121d0565b916120dc600282016121d0565b612117600460ff60038501541693015491612109604051968796875260a0602088015260a0870190612298565b908582036040870152612298565b911515606084015260808301520390f35b600435906001600160a01b038216820361014e57565b90600182811c9216801561216e575b602083101461215857565b634e487b7160e01b600052602260045260246000fd5b91607f169161214d565b61014081019081106001600160401b038211176104a957604052565b60e081019081106001600160401b038211176104a957604052565b90601f801991011681019081106001600160401b038211176104a957604052565b906040519182600082546121e38161213e565b908184526020946001916001811690816000146122535750600114612214575b505050612212925003836121af565b565b600090815285812095935091905b81831061223b5750506122129350820101388080612203565b85548884018501529485019487945091830191612222565b9250505061221294925060ff191682840152151560051b820101388080612203565b60005b8381106122885750506000910152565b8181015183820152602001612278565b906020916122b181518092818552858086019101612275565b601f01601f1916010190565b81601f8201121561014e578035906001600160401b0382116104a957604051926122f1601f8401601f1916602001856121af565b8284526020838301011161014e57816000926020809301838601378301015290565b805482101561232b5760005260206000200190600090565b634e487b7160e01b600052603260045260246000fd5b9060058210156106605752565b1561235557565b60405162461bcd60e51b815260206004820152602160248201527f4f6e6c792061646d696e2063616e2063616c6c20746869732066756e6374696f6044820152603760f91b6064820152608490fd5b156123ab57565b60405162461bcd60e51b815260206004820152601860248201527f56696f6c6174696f6e20646f6573206e6f7420657869737400000000000000006044820152606490fd5b156123f757565b60405162461bcd60e51b815260206004820152601760248201527f41707065616c20616c7265616479207265736f6c7665640000000000000000006044820152606490fdfea2646970667358221220a7c258979bddc41bc9a2a3b2b9ea4c02b6a82eaa3cd0b786ea53bedae648647064736f6c63430008160033",
  "linkReferences": {},
  "deployedLinkReferences": {}
}